{
	"crowfunding.sol": {
		"crowFunding": {
			"abi": [
				{
					"inputs": [
						{
							"internalType": "string",
							"name": "_name",
							"type": "string"
						},
						{
							"internalType": "uint256",
							"name": "_amount",
							"type": "uint256"
						}
					],
					"name": "fundProyect",
					"outputs": [],
					"stateMutability": "nonpayable",
					"type": "function"
				},
				{
					"inputs": [
						{
							"internalType": "string",
							"name": "_name",
							"type": "string"
						},
						{
							"internalType": "uint256",
							"name": "_target",
							"type": "uint256"
						}
					],
					"name": "newProyect",
					"outputs": [],
					"stateMutability": "nonpayable",
					"type": "function"
				}
			],
			"devdoc": {
				"kind": "dev",
				"methods": {},
				"version": 1
			},
			"evm": {
				"assembly": "    /* \"crowfunding.sol\":58:994  contract crowFunding{... */\n  mstore(0x40, 0x80)\n    /* \"crowfunding.sol\":227:228  0 */\n  0x00\n    /* \"crowfunding.sol\":206:228  uint proyectsCount = 0 */\n  dup1\n  sstore\n    /* \"crowfunding.sol\":58:994  contract crowFunding{... */\n  callvalue\n  dup1\n  iszero\n  tag_1\n  jumpi\n  0x00\n  dup1\n  revert\ntag_1:\n  pop\n  dataSize(sub_0)\n  dup1\n  dataOffset(sub_0)\n  0x00\n  codecopy\n  0x00\n  return\nstop\n\nsub_0: assembly {\n        /* \"crowfunding.sol\":58:994  contract crowFunding{... */\n      mstore(0x40, 0x80)\n      callvalue\n      dup1\n      iszero\n      tag_1\n      jumpi\n      0x00\n      dup1\n      revert\n    tag_1:\n      pop\n      jumpi(tag_2, lt(calldatasize, 0x04))\n      shr(0xe0, calldataload(0x00))\n      dup1\n      0x0eda4e68\n      eq\n      tag_3\n      jumpi\n      dup1\n      0xa5db748d\n      eq\n      tag_4\n      jumpi\n    tag_2:\n      0x00\n      dup1\n      revert\n        /* \"crowfunding.sol\":792:992  function fundProyect(string memory _name, uint _amount) public{... */\n    tag_3:\n      tag_5\n      0x04\n      dup1\n      calldatasize\n      sub\n      dup2\n      add\n      swap1\n      tag_6\n      swap2\n      swap1\n      tag_7\n      jump\t// in\n    tag_6:\n      tag_8\n      jump\t// in\n    tag_5:\n      stop\n        /* \"crowfunding.sol\":314:474  function newProyect(string memory _name, uint _target) public{... */\n    tag_4:\n      tag_9\n      0x04\n      dup1\n      calldatasize\n      sub\n      dup2\n      add\n      swap1\n      tag_10\n      swap2\n      swap1\n      tag_7\n      jump\t// in\n    tag_10:\n      tag_11\n      jump\t// in\n    tag_9:\n      stop\n        /* \"crowfunding.sol\":792:992  function fundProyect(string memory _name, uint _amount) public{... */\n    tag_8:\n        /* \"crowfunding.sol\":873:908  targetAmountReached(_name, _amount) */\n      tag_13\n        /* \"crowfunding.sol\":893:898  _name */\n      dup3\n        /* \"crowfunding.sol\":900:907  _amount */\n      dup3\n        /* \"crowfunding.sol\":873:892  targetAmountReached */\n      tag_14\n        /* \"crowfunding.sol\":873:908  targetAmountReached(_name, _amount) */\n      jump\t// in\n    tag_13:\n        /* \"crowfunding.sol\":872:908  !targetAmountReached(_name, _amount) */\n      iszero\n        /* \"crowfunding.sol\":864:933  require(!targetAmountReached(_name, _amount),\"TARGET AMOUNT REACHED\") */\n      tag_15\n      jumpi\n      mload(0x40)\n      0x08c379a000000000000000000000000000000000000000000000000000000000\n      dup2\n      mstore\n      0x04\n      add\n      tag_16\n      swap1\n      tag_17\n      jump\t// in\n    tag_16:\n      mload(0x40)\n      dup1\n      swap2\n      sub\n      swap1\n      revert\n    tag_15:\n        /* \"crowfunding.sol\":978:985  _amount */\n      dup1\n        /* \"crowfunding.sol\":943:951  proyects */\n      0x01\n        /* \"crowfunding.sol\":952:957  _name */\n      dup4\n        /* \"crowfunding.sol\":943:958  proyects[_name] */\n      mload(0x40)\n      tag_18\n      swap2\n      swap1\n      tag_19\n      jump\t// in\n    tag_18:\n      swap1\n      dup2\n      mstore\n      0x20\n      add\n      mload(0x40)\n      dup1\n      swap2\n      sub\n      swap1\n      keccak256\n        /* \"crowfunding.sol\":943:974  proyects[_name].collectedAmount */\n      0x03\n      add\n      0x00\n        /* \"crowfunding.sol\":943:985  proyects[_name].collectedAmount += _amount */\n      dup3\n      dup3\n      sload\n      tag_20\n      swap2\n      swap1\n      tag_21\n      jump\t// in\n    tag_20:\n      swap3\n      pop\n      pop\n      dup2\n      swap1\n      sstore\n      pop\n        /* \"crowfunding.sol\":792:992  function fundProyect(string memory _name, uint _amount) public{... */\n      pop\n      pop\n      jump\t// out\n        /* \"crowfunding.sol\":314:474  function newProyect(string memory _name, uint _target) public{... */\n    tag_11:\n        /* \"crowfunding.sol\":385:398  proyectsCount */\n      0x00\n      dup1\n        /* \"crowfunding.sol\":385:400  proyectsCount++ */\n      dup2\n      sload\n      dup1\n      swap3\n      swap2\n      swap1\n      tag_23\n      swap1\n      tag_24\n      jump\t// in\n    tag_23:\n      swap2\n      swap1\n      pop\n      sstore\n      pop\n        /* \"crowfunding.sol\":428:467  Proyect(proyectsCount,_name,_target, 0) */\n      mload(0x40)\n      dup1\n      0x80\n      add\n      0x40\n      mstore\n      dup1\n        /* \"crowfunding.sol\":436:449  proyectsCount */\n      sload(0x00)\n        /* \"crowfunding.sol\":428:467  Proyect(proyectsCount,_name,_target, 0) */\n      dup2\n      mstore\n      0x20\n      add\n        /* \"crowfunding.sol\":450:455  _name */\n      dup4\n        /* \"crowfunding.sol\":428:467  Proyect(proyectsCount,_name,_target, 0) */\n      dup2\n      mstore\n      0x20\n      add\n        /* \"crowfunding.sol\":456:463  _target */\n      dup3\n        /* \"crowfunding.sol\":428:467  Proyect(proyectsCount,_name,_target, 0) */\n      dup2\n      mstore\n      0x20\n      add\n        /* \"crowfunding.sol\":465:466  0 */\n      0x00\n        /* \"crowfunding.sol\":428:467  Proyect(proyectsCount,_name,_target, 0) */\n      dup2\n      mstore\n      pop\n        /* \"crowfunding.sol\":410:418  proyects */\n      0x01\n        /* \"crowfunding.sol\":419:424  _name */\n      dup4\n        /* \"crowfunding.sol\":410:425  proyects[_name] */\n      mload(0x40)\n      tag_25\n      swap2\n      swap1\n      tag_19\n      jump\t// in\n    tag_25:\n      swap1\n      dup2\n      mstore\n      0x20\n      add\n      mload(0x40)\n      dup1\n      swap2\n      sub\n      swap1\n      keccak256\n        /* \"crowfunding.sol\":410:467  proyects[_name] = Proyect(proyectsCount,_name,_target, 0) */\n      0x00\n      dup3\n      add\n      mload\n      dup2\n      0x00\n      add\n      sstore\n      0x20\n      dup3\n      add\n      mload\n      dup2\n      0x01\n      add\n      swap1\n      dup2\n      tag_26\n      swap2\n      swap1\n      tag_27\n      jump\t// in\n    tag_26:\n      pop\n      0x40\n      dup3\n      add\n      mload\n      dup2\n      0x02\n      add\n      sstore\n      0x60\n      dup3\n      add\n      mload\n      dup2\n      0x03\n      add\n      sstore\n      swap1\n      pop\n      pop\n        /* \"crowfunding.sol\":314:474  function newProyect(string memory _name, uint _target) public{... */\n      pop\n      pop\n      jump\t// out\n        /* \"crowfunding.sol\":523:745  function targetAmountReached(string memory _name, uint _amount) private view returns (bool) {... */\n    tag_14:\n        /* \"crowfunding.sol\":609:613  bool */\n      0x00\n        /* \"crowfunding.sol\":625:647  Proyect memory proyect */\n      dup1\n        /* \"crowfunding.sol\":650:658  proyects */\n      0x01\n        /* \"crowfunding.sol\":659:664  _name */\n      dup5\n        /* \"crowfunding.sol\":650:665  proyects[_name] */\n      mload(0x40)\n      tag_29\n      swap2\n      swap1\n      tag_19\n      jump\t// in\n    tag_29:\n      swap1\n      dup2\n      mstore\n      0x20\n      add\n      mload(0x40)\n      dup1\n      swap2\n      sub\n      swap1\n      keccak256\n        /* \"crowfunding.sol\":625:665  Proyect memory proyect = proyects[_name] */\n      mload(0x40)\n      dup1\n      0x80\n      add\n      0x40\n      mstore\n      swap1\n      dup2\n      0x00\n      dup3\n      add\n      sload\n      dup2\n      mstore\n      0x20\n      add\n      0x01\n      dup3\n      add\n      dup1\n      sload\n      tag_30\n      swap1\n      tag_31\n      jump\t// in\n    tag_30:\n      dup1\n      0x1f\n      add\n      0x20\n      dup1\n      swap2\n      div\n      mul\n      0x20\n      add\n      mload(0x40)\n      swap1\n      dup2\n      add\n      0x40\n      mstore\n      dup1\n      swap3\n      swap2\n      swap1\n      dup2\n      dup2\n      mstore\n      0x20\n      add\n      dup3\n      dup1\n      sload\n      tag_32\n      swap1\n      tag_31\n      jump\t// in\n    tag_32:\n      dup1\n      iszero\n      tag_33\n      jumpi\n      dup1\n      0x1f\n      lt\n      tag_34\n      jumpi\n      0x0100\n      dup1\n      dup4\n      sload\n      div\n      mul\n      dup4\n      mstore\n      swap2\n      0x20\n      add\n      swap2\n      jump(tag_33)\n    tag_34:\n      dup3\n      add\n      swap2\n      swap1\n      0x00\n      mstore\n      keccak256(0x00, 0x20)\n      swap1\n    tag_35:\n      dup2\n      sload\n      dup2\n      mstore\n      swap1\n      0x01\n      add\n      swap1\n      0x20\n      add\n      dup1\n      dup4\n      gt\n      tag_35\n      jumpi\n      dup3\n      swap1\n      sub\n      0x1f\n      and\n      dup3\n      add\n      swap2\n    tag_33:\n      pop\n      pop\n      pop\n      pop\n      pop\n      dup2\n      mstore\n      0x20\n      add\n      0x02\n      dup3\n      add\n      sload\n      dup2\n      mstore\n      0x20\n      add\n      0x03\n      dup3\n      add\n      sload\n      dup2\n      mstore\n      pop\n      pop\n      swap1\n      pop\n        /* \"crowfunding.sol\":731:738  _amount */\n      dup3\n        /* \"crowfunding.sol\":705:712  proyect */\n      dup2\n        /* \"crowfunding.sol\":705:728  proyect.collectedAmount */\n      0x60\n      add\n      mload\n        /* \"crowfunding.sol\":705:738  proyect.collectedAmount + _amount */\n      tag_36\n      swap2\n      swap1\n      tag_21\n      jump\t// in\n    tag_36:\n        /* \"crowfunding.sol\":682:689  proyect */\n      dup2\n        /* \"crowfunding.sol\":682:702  proyect.targetAmount */\n      0x40\n      add\n      mload\n        /* \"crowfunding.sol\":682:738  proyect.targetAmount < proyect.collectedAmount + _amount */\n      lt\n        /* \"crowfunding.sol\":675:738  return proyect.targetAmount < proyect.collectedAmount + _amount */\n      swap2\n      pop\n      pop\n        /* \"crowfunding.sol\":523:745  function targetAmountReached(string memory _name, uint _amount) private view returns (bool) {... */\n      swap3\n      swap2\n      pop\n      pop\n      jump\t// out\n        /* \"#utility.yul\":7:82   */\n    tag_37:\n        /* \"#utility.yul\":40:46   */\n      0x00\n        /* \"#utility.yul\":73:75   */\n      0x40\n        /* \"#utility.yul\":67:76   */\n      mload\n        /* \"#utility.yul\":57:76   */\n      swap1\n      pop\n        /* \"#utility.yul\":7:82   */\n      swap1\n      jump\t// out\n        /* \"#utility.yul\":88:205   */\n    tag_38:\n        /* \"#utility.yul\":197:198   */\n      0x00\n        /* \"#utility.yul\":194:195   */\n      dup1\n        /* \"#utility.yul\":187:199   */\n      revert\n        /* \"#utility.yul\":211:328   */\n    tag_39:\n        /* \"#utility.yul\":320:321   */\n      0x00\n        /* \"#utility.yul\":317:318   */\n      dup1\n        /* \"#utility.yul\":310:322   */\n      revert\n        /* \"#utility.yul\":334:451   */\n    tag_40:\n        /* \"#utility.yul\":443:444   */\n      0x00\n        /* \"#utility.yul\":440:441   */\n      dup1\n        /* \"#utility.yul\":433:445   */\n      revert\n        /* \"#utility.yul\":457:574   */\n    tag_41:\n        /* \"#utility.yul\":566:567   */\n      0x00\n        /* \"#utility.yul\":563:564   */\n      dup1\n        /* \"#utility.yul\":556:568   */\n      revert\n        /* \"#utility.yul\":580:682   */\n    tag_42:\n        /* \"#utility.yul\":621:627   */\n      0x00\n        /* \"#utility.yul\":672:674   */\n      0x1f\n        /* \"#utility.yul\":668:675   */\n      not\n        /* \"#utility.yul\":663:665   */\n      0x1f\n        /* \"#utility.yul\":656:661   */\n      dup4\n        /* \"#utility.yul\":652:666   */\n      add\n        /* \"#utility.yul\":648:676   */\n      and\n        /* \"#utility.yul\":638:676   */\n      swap1\n      pop\n        /* \"#utility.yul\":580:682   */\n      swap2\n      swap1\n      pop\n      jump\t// out\n        /* \"#utility.yul\":688:868   */\n    tag_43:\n        /* \"#utility.yul\":736:813   */\n      0x4e487b7100000000000000000000000000000000000000000000000000000000\n        /* \"#utility.yul\":733:734   */\n      0x00\n        /* \"#utility.yul\":726:814   */\n      mstore\n        /* \"#utility.yul\":833:837   */\n      0x41\n        /* \"#utility.yul\":830:831   */\n      0x04\n        /* \"#utility.yul\":823:838   */\n      mstore\n        /* \"#utility.yul\":857:861   */\n      0x24\n        /* \"#utility.yul\":854:855   */\n      0x00\n        /* \"#utility.yul\":847:862   */\n      revert\n        /* \"#utility.yul\":874:1155   */\n    tag_44:\n        /* \"#utility.yul\":957:984   */\n      tag_86\n        /* \"#utility.yul\":979:983   */\n      dup3\n        /* \"#utility.yul\":957:984   */\n      tag_42\n      jump\t// in\n    tag_86:\n        /* \"#utility.yul\":949:955   */\n      dup2\n        /* \"#utility.yul\":945:985   */\n      add\n        /* \"#utility.yul\":1087:1093   */\n      dup2\n        /* \"#utility.yul\":1075:1085   */\n      dup2\n        /* \"#utility.yul\":1072:1094   */\n      lt\n        /* \"#utility.yul\":1051:1069   */\n      0xffffffffffffffff\n        /* \"#utility.yul\":1039:1049   */\n      dup3\n        /* \"#utility.yul\":1036:1070   */\n      gt\n        /* \"#utility.yul\":1033:1095   */\n      or\n        /* \"#utility.yul\":1030:1118   */\n      iszero\n      tag_87\n      jumpi\n        /* \"#utility.yul\":1098:1116   */\n      tag_88\n      tag_43\n      jump\t// in\n    tag_88:\n        /* \"#utility.yul\":1030:1118   */\n    tag_87:\n        /* \"#utility.yul\":1138:1148   */\n      dup1\n        /* \"#utility.yul\":1134:1136   */\n      0x40\n        /* \"#utility.yul\":1127:1149   */\n      mstore\n        /* \"#utility.yul\":917:1155   */\n      pop\n        /* \"#utility.yul\":874:1155   */\n      pop\n      pop\n      jump\t// out\n        /* \"#utility.yul\":1161:1290   */\n    tag_45:\n        /* \"#utility.yul\":1195:1201   */\n      0x00\n        /* \"#utility.yul\":1222:1242   */\n      tag_90\n      tag_37\n      jump\t// in\n    tag_90:\n        /* \"#utility.yul\":1212:1242   */\n      swap1\n      pop\n        /* \"#utility.yul\":1251:1284   */\n      tag_91\n        /* \"#utility.yul\":1279:1283   */\n      dup3\n        /* \"#utility.yul\":1271:1277   */\n      dup3\n        /* \"#utility.yul\":1251:1284   */\n      tag_44\n      jump\t// in\n    tag_91:\n        /* \"#utility.yul\":1161:1290   */\n      swap2\n      swap1\n      pop\n      jump\t// out\n        /* \"#utility.yul\":1296:1604   */\n    tag_46:\n        /* \"#utility.yul\":1358:1362   */\n      0x00\n        /* \"#utility.yul\":1448:1466   */\n      0xffffffffffffffff\n        /* \"#utility.yul\":1440:1446   */\n      dup3\n        /* \"#utility.yul\":1437:1467   */\n      gt\n        /* \"#utility.yul\":1434:1490   */\n      iszero\n      tag_93\n      jumpi\n        /* \"#utility.yul\":1470:1488   */\n      tag_94\n      tag_43\n      jump\t// in\n    tag_94:\n        /* \"#utility.yul\":1434:1490   */\n    tag_93:\n        /* \"#utility.yul\":1508:1537   */\n      tag_95\n        /* \"#utility.yul\":1530:1536   */\n      dup3\n        /* \"#utility.yul\":1508:1537   */\n      tag_42\n      jump\t// in\n    tag_95:\n        /* \"#utility.yul\":1500:1537   */\n      swap1\n      pop\n        /* \"#utility.yul\":1592:1596   */\n      0x20\n        /* \"#utility.yul\":1586:1590   */\n      dup2\n        /* \"#utility.yul\":1582:1597   */\n      add\n        /* \"#utility.yul\":1574:1597   */\n      swap1\n      pop\n        /* \"#utility.yul\":1296:1604   */\n      swap2\n      swap1\n      pop\n      jump\t// out\n        /* \"#utility.yul\":1610:1756   */\n    tag_47:\n        /* \"#utility.yul\":1707:1713   */\n      dup3\n        /* \"#utility.yul\":1702:1705   */\n      dup2\n        /* \"#utility.yul\":1697:1700   */\n      dup4\n        /* \"#utility.yul\":1684:1714   */\n      calldatacopy\n        /* \"#utility.yul\":1748:1749   */\n      0x00\n        /* \"#utility.yul\":1739:1745   */\n      dup4\n        /* \"#utility.yul\":1734:1737   */\n      dup4\n        /* \"#utility.yul\":1730:1746   */\n      add\n        /* \"#utility.yul\":1723:1750   */\n      mstore\n        /* \"#utility.yul\":1610:1756   */\n      pop\n      pop\n      pop\n      jump\t// out\n        /* \"#utility.yul\":1762:2187   */\n    tag_48:\n        /* \"#utility.yul\":1840:1845   */\n      0x00\n        /* \"#utility.yul\":1865:1931   */\n      tag_98\n        /* \"#utility.yul\":1881:1930   */\n      tag_99\n        /* \"#utility.yul\":1923:1929   */\n      dup5\n        /* \"#utility.yul\":1881:1930   */\n      tag_46\n      jump\t// in\n    tag_99:\n        /* \"#utility.yul\":1865:1931   */\n      tag_45\n      jump\t// in\n    tag_98:\n        /* \"#utility.yul\":1856:1931   */\n      swap1\n      pop\n        /* \"#utility.yul\":1954:1960   */\n      dup3\n        /* \"#utility.yul\":1947:1952   */\n      dup2\n        /* \"#utility.yul\":1940:1961   */\n      mstore\n        /* \"#utility.yul\":1992:1996   */\n      0x20\n        /* \"#utility.yul\":1985:1990   */\n      dup2\n        /* \"#utility.yul\":1981:1997   */\n      add\n        /* \"#utility.yul\":2030:2033   */\n      dup5\n        /* \"#utility.yul\":2021:2027   */\n      dup5\n        /* \"#utility.yul\":2016:2019   */\n      dup5\n        /* \"#utility.yul\":2012:2028   */\n      add\n        /* \"#utility.yul\":2009:2034   */\n      gt\n        /* \"#utility.yul\":2006:2118   */\n      iszero\n      tag_100\n      jumpi\n        /* \"#utility.yul\":2037:2116   */\n      tag_101\n      tag_41\n      jump\t// in\n    tag_101:\n        /* \"#utility.yul\":2006:2118   */\n    tag_100:\n        /* \"#utility.yul\":2127:2181   */\n      tag_102\n        /* \"#utility.yul\":2174:2180   */\n      dup5\n        /* \"#utility.yul\":2169:2172   */\n      dup3\n        /* \"#utility.yul\":2164:2167   */\n      dup6\n        /* \"#utility.yul\":2127:2181   */\n      tag_47\n      jump\t// in\n    tag_102:\n        /* \"#utility.yul\":1846:2187   */\n      pop\n        /* \"#utility.yul\":1762:2187   */\n      swap4\n      swap3\n      pop\n      pop\n      pop\n      jump\t// out\n        /* \"#utility.yul\":2207:2547   */\n    tag_49:\n        /* \"#utility.yul\":2263:2268   */\n      0x00\n        /* \"#utility.yul\":2312:2315   */\n      dup3\n        /* \"#utility.yul\":2305:2309   */\n      0x1f\n        /* \"#utility.yul\":2297:2303   */\n      dup4\n        /* \"#utility.yul\":2293:2310   */\n      add\n        /* \"#utility.yul\":2289:2316   */\n      slt\n        /* \"#utility.yul\":2279:2401   */\n      tag_104\n      jumpi\n        /* \"#utility.yul\":2320:2399   */\n      tag_105\n      tag_40\n      jump\t// in\n    tag_105:\n        /* \"#utility.yul\":2279:2401   */\n    tag_104:\n        /* \"#utility.yul\":2437:2443   */\n      dup2\n        /* \"#utility.yul\":2424:2444   */\n      calldataload\n        /* \"#utility.yul\":2462:2541   */\n      tag_106\n        /* \"#utility.yul\":2537:2540   */\n      dup5\n        /* \"#utility.yul\":2529:2535   */\n      dup3\n        /* \"#utility.yul\":2522:2526   */\n      0x20\n        /* \"#utility.yul\":2514:2520   */\n      dup7\n        /* \"#utility.yul\":2510:2527   */\n      add\n        /* \"#utility.yul\":2462:2541   */\n      tag_48\n      jump\t// in\n    tag_106:\n        /* \"#utility.yul\":2453:2541   */\n      swap2\n      pop\n        /* \"#utility.yul\":2269:2547   */\n      pop\n        /* \"#utility.yul\":2207:2547   */\n      swap3\n      swap2\n      pop\n      pop\n      jump\t// out\n        /* \"#utility.yul\":2553:2630   */\n    tag_50:\n        /* \"#utility.yul\":2590:2597   */\n      0x00\n        /* \"#utility.yul\":2619:2624   */\n      dup2\n        /* \"#utility.yul\":2608:2624   */\n      swap1\n      pop\n        /* \"#utility.yul\":2553:2630   */\n      swap2\n      swap1\n      pop\n      jump\t// out\n        /* \"#utility.yul\":2636:2758   */\n    tag_51:\n        /* \"#utility.yul\":2709:2733   */\n      tag_109\n        /* \"#utility.yul\":2727:2732   */\n      dup2\n        /* \"#utility.yul\":2709:2733   */\n      tag_50\n      jump\t// in\n    tag_109:\n        /* \"#utility.yul\":2702:2707   */\n      dup2\n        /* \"#utility.yul\":2699:2734   */\n      eq\n        /* \"#utility.yul\":2689:2752   */\n      tag_110\n      jumpi\n        /* \"#utility.yul\":2748:2749   */\n      0x00\n        /* \"#utility.yul\":2745:2746   */\n      dup1\n        /* \"#utility.yul\":2738:2750   */\n      revert\n        /* \"#utility.yul\":2689:2752   */\n    tag_110:\n        /* \"#utility.yul\":2636:2758   */\n      pop\n      jump\t// out\n        /* \"#utility.yul\":2764:2903   */\n    tag_52:\n        /* \"#utility.yul\":2810:2815   */\n      0x00\n        /* \"#utility.yul\":2848:2854   */\n      dup2\n        /* \"#utility.yul\":2835:2855   */\n      calldataload\n        /* \"#utility.yul\":2826:2855   */\n      swap1\n      pop\n        /* \"#utility.yul\":2864:2897   */\n      tag_112\n        /* \"#utility.yul\":2891:2896   */\n      dup2\n        /* \"#utility.yul\":2864:2897   */\n      tag_51\n      jump\t// in\n    tag_112:\n        /* \"#utility.yul\":2764:2903   */\n      swap3\n      swap2\n      pop\n      pop\n      jump\t// out\n        /* \"#utility.yul\":2909:3563   */\n    tag_7:\n        /* \"#utility.yul\":2987:2993   */\n      0x00\n        /* \"#utility.yul\":2995:3001   */\n      dup1\n        /* \"#utility.yul\":3044:3046   */\n      0x40\n        /* \"#utility.yul\":3032:3041   */\n      dup4\n        /* \"#utility.yul\":3023:3030   */\n      dup6\n        /* \"#utility.yul\":3019:3042   */\n      sub\n        /* \"#utility.yul\":3015:3047   */\n      slt\n        /* \"#utility.yul\":3012:3131   */\n      iszero\n      tag_114\n      jumpi\n        /* \"#utility.yul\":3050:3129   */\n      tag_115\n      tag_38\n      jump\t// in\n    tag_115:\n        /* \"#utility.yul\":3012:3131   */\n    tag_114:\n        /* \"#utility.yul\":3198:3199   */\n      0x00\n        /* \"#utility.yul\":3187:3196   */\n      dup4\n        /* \"#utility.yul\":3183:3200   */\n      add\n        /* \"#utility.yul\":3170:3201   */\n      calldataload\n        /* \"#utility.yul\":3228:3246   */\n      0xffffffffffffffff\n        /* \"#utility.yul\":3220:3226   */\n      dup2\n        /* \"#utility.yul\":3217:3247   */\n      gt\n        /* \"#utility.yul\":3214:3331   */\n      iszero\n      tag_116\n      jumpi\n        /* \"#utility.yul\":3250:3329   */\n      tag_117\n      tag_39\n      jump\t// in\n    tag_117:\n        /* \"#utility.yul\":3214:3331   */\n    tag_116:\n        /* \"#utility.yul\":3355:3418   */\n      tag_118\n        /* \"#utility.yul\":3410:3417   */\n      dup6\n        /* \"#utility.yul\":3401:3407   */\n      dup3\n        /* \"#utility.yul\":3390:3399   */\n      dup7\n        /* \"#utility.yul\":3386:3408   */\n      add\n        /* \"#utility.yul\":3355:3418   */\n      tag_49\n      jump\t// in\n    tag_118:\n        /* \"#utility.yul\":3345:3418   */\n      swap3\n      pop\n        /* \"#utility.yul\":3141:3428   */\n      pop\n        /* \"#utility.yul\":3467:3469   */\n      0x20\n        /* \"#utility.yul\":3493:3546   */\n      tag_119\n        /* \"#utility.yul\":3538:3545   */\n      dup6\n        /* \"#utility.yul\":3529:3535   */\n      dup3\n        /* \"#utility.yul\":3518:3527   */\n      dup7\n        /* \"#utility.yul\":3514:3536   */\n      add\n        /* \"#utility.yul\":3493:3546   */\n      tag_52\n      jump\t// in\n    tag_119:\n        /* \"#utility.yul\":3483:3546   */\n      swap2\n      pop\n        /* \"#utility.yul\":3438:3556   */\n      pop\n        /* \"#utility.yul\":2909:3563   */\n      swap3\n      pop\n      swap3\n      swap1\n      pop\n      jump\t// out\n        /* \"#utility.yul\":3569:3738   */\n    tag_53:\n        /* \"#utility.yul\":3653:3664   */\n      0x00\n        /* \"#utility.yul\":3687:3693   */\n      dup3\n        /* \"#utility.yul\":3682:3685   */\n      dup3\n        /* \"#utility.yul\":3675:3694   */\n      mstore\n        /* \"#utility.yul\":3727:3731   */\n      0x20\n        /* \"#utility.yul\":3722:3725   */\n      dup3\n        /* \"#utility.yul\":3718:3732   */\n      add\n        /* \"#utility.yul\":3703:3732   */\n      swap1\n      pop\n        /* \"#utility.yul\":3569:3738   */\n      swap3\n      swap2\n      pop\n      pop\n      jump\t// out\n        /* \"#utility.yul\":3744:3915   */\n    tag_54:\n        /* \"#utility.yul\":3884:3907   */\n      0x54415247455420414d4f554e5420524541434845440000000000000000000000\n        /* \"#utility.yul\":3880:3881   */\n      0x00\n        /* \"#utility.yul\":3872:3878   */\n      dup3\n        /* \"#utility.yul\":3868:3882   */\n      add\n        /* \"#utility.yul\":3861:3908   */\n      mstore\n        /* \"#utility.yul\":3744:3915   */\n      pop\n      jump\t// out\n        /* \"#utility.yul\":3921:4287   */\n    tag_55:\n        /* \"#utility.yul\":4063:4066   */\n      0x00\n        /* \"#utility.yul\":4084:4151   */\n      tag_123\n        /* \"#utility.yul\":4148:4150   */\n      0x15\n        /* \"#utility.yul\":4143:4146   */\n      dup4\n        /* \"#utility.yul\":4084:4151   */\n      tag_53\n      jump\t// in\n    tag_123:\n        /* \"#utility.yul\":4077:4151   */\n      swap2\n      pop\n        /* \"#utility.yul\":4160:4253   */\n      tag_124\n        /* \"#utility.yul\":4249:4252   */\n      dup3\n        /* \"#utility.yul\":4160:4253   */\n      tag_54\n      jump\t// in\n    tag_124:\n        /* \"#utility.yul\":4278:4280   */\n      0x20\n        /* \"#utility.yul\":4273:4276   */\n      dup3\n        /* \"#utility.yul\":4269:4281   */\n      add\n        /* \"#utility.yul\":4262:4281   */\n      swap1\n      pop\n        /* \"#utility.yul\":3921:4287   */\n      swap2\n      swap1\n      pop\n      jump\t// out\n        /* \"#utility.yul\":4293:4712   */\n    tag_17:\n        /* \"#utility.yul\":4459:4463   */\n      0x00\n        /* \"#utility.yul\":4497:4499   */\n      0x20\n        /* \"#utility.yul\":4486:4495   */\n      dup3\n        /* \"#utility.yul\":4482:4500   */\n      add\n        /* \"#utility.yul\":4474:4500   */\n      swap1\n      pop\n        /* \"#utility.yul\":4546:4555   */\n      dup2\n        /* \"#utility.yul\":4540:4544   */\n      dup2\n        /* \"#utility.yul\":4536:4556   */\n      sub\n        /* \"#utility.yul\":4532:4533   */\n      0x00\n        /* \"#utility.yul\":4521:4530   */\n      dup4\n        /* \"#utility.yul\":4517:4534   */\n      add\n        /* \"#utility.yul\":4510:4557   */\n      mstore\n        /* \"#utility.yul\":4574:4705   */\n      tag_126\n        /* \"#utility.yul\":4700:4704   */\n      dup2\n        /* \"#utility.yul\":4574:4705   */\n      tag_55\n      jump\t// in\n    tag_126:\n        /* \"#utility.yul\":4566:4705   */\n      swap1\n      pop\n        /* \"#utility.yul\":4293:4712   */\n      swap2\n      swap1\n      pop\n      jump\t// out\n        /* \"#utility.yul\":4718:4817   */\n    tag_56:\n        /* \"#utility.yul\":4770:4776   */\n      0x00\n        /* \"#utility.yul\":4804:4809   */\n      dup2\n        /* \"#utility.yul\":4798:4810   */\n      mload\n        /* \"#utility.yul\":4788:4810   */\n      swap1\n      pop\n        /* \"#utility.yul\":4718:4817   */\n      swap2\n      swap1\n      pop\n      jump\t// out\n        /* \"#utility.yul\":4823:4971   */\n    tag_57:\n        /* \"#utility.yul\":4925:4936   */\n      0x00\n        /* \"#utility.yul\":4962:4965   */\n      dup2\n        /* \"#utility.yul\":4947:4965   */\n      swap1\n      pop\n        /* \"#utility.yul\":4823:4971   */\n      swap3\n      swap2\n      pop\n      pop\n      jump\t// out\n        /* \"#utility.yul\":4977:5223   */\n    tag_58:\n        /* \"#utility.yul\":5058:5059   */\n      0x00\n        /* \"#utility.yul\":5068:5181   */\n    tag_130:\n        /* \"#utility.yul\":5082:5088   */\n      dup4\n        /* \"#utility.yul\":5079:5080   */\n      dup2\n        /* \"#utility.yul\":5076:5089   */\n      lt\n        /* \"#utility.yul\":5068:5181   */\n      iszero\n      tag_132\n      jumpi\n        /* \"#utility.yul\":5167:5168   */\n      dup1\n        /* \"#utility.yul\":5162:5165   */\n      dup3\n        /* \"#utility.yul\":5158:5169   */\n      add\n        /* \"#utility.yul\":5152:5170   */\n      mload\n        /* \"#utility.yul\":5148:5149   */\n      dup2\n        /* \"#utility.yul\":5143:5146   */\n      dup5\n        /* \"#utility.yul\":5139:5150   */\n      add\n        /* \"#utility.yul\":5132:5171   */\n      mstore\n        /* \"#utility.yul\":5104:5106   */\n      0x20\n        /* \"#utility.yul\":5101:5102   */\n      dup2\n        /* \"#utility.yul\":5097:5107   */\n      add\n        /* \"#utility.yul\":5092:5107   */\n      swap1\n      pop\n        /* \"#utility.yul\":5068:5181   */\n      jump(tag_130)\n    tag_132:\n        /* \"#utility.yul\":5215:5216   */\n      0x00\n        /* \"#utility.yul\":5206:5212   */\n      dup5\n        /* \"#utility.yul\":5201:5204   */\n      dup5\n        /* \"#utility.yul\":5197:5213   */\n      add\n        /* \"#utility.yul\":5190:5217   */\n      mstore\n        /* \"#utility.yul\":5039:5223   */\n      pop\n        /* \"#utility.yul\":4977:5223   */\n      pop\n      pop\n      pop\n      jump\t// out\n        /* \"#utility.yul\":5229:5619   */\n    tag_59:\n        /* \"#utility.yul\":5335:5338   */\n      0x00\n        /* \"#utility.yul\":5363:5402   */\n      tag_134\n        /* \"#utility.yul\":5396:5401   */\n      dup3\n        /* \"#utility.yul\":5363:5402   */\n      tag_56\n      jump\t// in\n    tag_134:\n        /* \"#utility.yul\":5418:5507   */\n      tag_135\n        /* \"#utility.yul\":5500:5506   */\n      dup2\n        /* \"#utility.yul\":5495:5498   */\n      dup6\n        /* \"#utility.yul\":5418:5507   */\n      tag_57\n      jump\t// in\n    tag_135:\n        /* \"#utility.yul\":5411:5507   */\n      swap4\n      pop\n        /* \"#utility.yul\":5516:5581   */\n      tag_136\n        /* \"#utility.yul\":5574:5580   */\n      dup2\n        /* \"#utility.yul\":5569:5572   */\n      dup6\n        /* \"#utility.yul\":5562:5566   */\n      0x20\n        /* \"#utility.yul\":5555:5560   */\n      dup7\n        /* \"#utility.yul\":5551:5567   */\n      add\n        /* \"#utility.yul\":5516:5581   */\n      tag_58\n      jump\t// in\n    tag_136:\n        /* \"#utility.yul\":5606:5612   */\n      dup1\n        /* \"#utility.yul\":5601:5604   */\n      dup5\n        /* \"#utility.yul\":5597:5613   */\n      add\n        /* \"#utility.yul\":5590:5613   */\n      swap2\n      pop\n        /* \"#utility.yul\":5339:5619   */\n      pop\n        /* \"#utility.yul\":5229:5619   */\n      swap3\n      swap2\n      pop\n      pop\n      jump\t// out\n        /* \"#utility.yul\":5625:5900   */\n    tag_19:\n        /* \"#utility.yul\":5757:5760   */\n      0x00\n        /* \"#utility.yul\":5779:5874   */\n      tag_138\n        /* \"#utility.yul\":5870:5873   */\n      dup3\n        /* \"#utility.yul\":5861:5867   */\n      dup5\n        /* \"#utility.yul\":5779:5874   */\n      tag_59\n      jump\t// in\n    tag_138:\n        /* \"#utility.yul\":5772:5874   */\n      swap2\n      pop\n        /* \"#utility.yul\":5891:5894   */\n      dup2\n        /* \"#utility.yul\":5884:5894   */\n      swap1\n      pop\n        /* \"#utility.yul\":5625:5900   */\n      swap3\n      swap2\n      pop\n      pop\n      jump\t// out\n        /* \"#utility.yul\":5906:6086   */\n    tag_60:\n        /* \"#utility.yul\":5954:6031   */\n      0x4e487b7100000000000000000000000000000000000000000000000000000000\n        /* \"#utility.yul\":5951:5952   */\n      0x00\n        /* \"#utility.yul\":5944:6032   */\n      mstore\n        /* \"#utility.yul\":6051:6055   */\n      0x11\n        /* \"#utility.yul\":6048:6049   */\n      0x04\n        /* \"#utility.yul\":6041:6056   */\n      mstore\n        /* \"#utility.yul\":6075:6079   */\n      0x24\n        /* \"#utility.yul\":6072:6073   */\n      0x00\n        /* \"#utility.yul\":6065:6080   */\n      revert\n        /* \"#utility.yul\":6092:6283   */\n    tag_21:\n        /* \"#utility.yul\":6132:6135   */\n      0x00\n        /* \"#utility.yul\":6151:6171   */\n      tag_141\n        /* \"#utility.yul\":6169:6170   */\n      dup3\n        /* \"#utility.yul\":6151:6171   */\n      tag_50\n      jump\t// in\n    tag_141:\n        /* \"#utility.yul\":6146:6171   */\n      swap2\n      pop\n        /* \"#utility.yul\":6185:6205   */\n      tag_142\n        /* \"#utility.yul\":6203:6204   */\n      dup4\n        /* \"#utility.yul\":6185:6205   */\n      tag_50\n      jump\t// in\n    tag_142:\n        /* \"#utility.yul\":6180:6205   */\n      swap3\n      pop\n        /* \"#utility.yul\":6228:6229   */\n      dup3\n        /* \"#utility.yul\":6225:6226   */\n      dup3\n        /* \"#utility.yul\":6221:6230   */\n      add\n        /* \"#utility.yul\":6214:6230   */\n      swap1\n      pop\n        /* \"#utility.yul\":6249:6252   */\n      dup1\n        /* \"#utility.yul\":6246:6247   */\n      dup3\n        /* \"#utility.yul\":6243:6253   */\n      gt\n        /* \"#utility.yul\":6240:6276   */\n      iszero\n      tag_143\n      jumpi\n        /* \"#utility.yul\":6256:6274   */\n      tag_144\n      tag_60\n      jump\t// in\n    tag_144:\n        /* \"#utility.yul\":6240:6276   */\n    tag_143:\n        /* \"#utility.yul\":6092:6283   */\n      swap3\n      swap2\n      pop\n      pop\n      jump\t// out\n        /* \"#utility.yul\":6289:6522   */\n    tag_24:\n        /* \"#utility.yul\":6328:6331   */\n      0x00\n        /* \"#utility.yul\":6351:6375   */\n      tag_146\n        /* \"#utility.yul\":6369:6374   */\n      dup3\n        /* \"#utility.yul\":6351:6375   */\n      tag_50\n      jump\t// in\n    tag_146:\n        /* \"#utility.yul\":6342:6375   */\n      swap2\n      pop\n        /* \"#utility.yul\":6397:6463   */\n      0xffffffffffffffffffffffffffffffffffffffffffffffffffffffffffffffff\n        /* \"#utility.yul\":6390:6395   */\n      dup3\n        /* \"#utility.yul\":6387:6464   */\n      sub\n        /* \"#utility.yul\":6384:6487   */\n      tag_147\n      jumpi\n        /* \"#utility.yul\":6467:6485   */\n      tag_148\n      tag_60\n      jump\t// in\n    tag_148:\n        /* \"#utility.yul\":6384:6487   */\n    tag_147:\n        /* \"#utility.yul\":6514:6515   */\n      0x01\n        /* \"#utility.yul\":6507:6512   */\n      dup3\n        /* \"#utility.yul\":6503:6516   */\n      add\n        /* \"#utility.yul\":6496:6516   */\n      swap1\n      pop\n        /* \"#utility.yul\":6289:6522   */\n      swap2\n      swap1\n      pop\n      jump\t// out\n        /* \"#utility.yul\":6528:6708   */\n    tag_61:\n        /* \"#utility.yul\":6576:6653   */\n      0x4e487b7100000000000000000000000000000000000000000000000000000000\n        /* \"#utility.yul\":6573:6574   */\n      0x00\n        /* \"#utility.yul\":6566:6654   */\n      mstore\n        /* \"#utility.yul\":6673:6677   */\n      0x22\n        /* \"#utility.yul\":6670:6671   */\n      0x04\n        /* \"#utility.yul\":6663:6678   */\n      mstore\n        /* \"#utility.yul\":6697:6701   */\n      0x24\n        /* \"#utility.yul\":6694:6695   */\n      0x00\n        /* \"#utility.yul\":6687:6702   */\n      revert\n        /* \"#utility.yul\":6714:7034   */\n    tag_31:\n        /* \"#utility.yul\":6758:6764   */\n      0x00\n        /* \"#utility.yul\":6795:6796   */\n      0x02\n        /* \"#utility.yul\":6789:6793   */\n      dup3\n        /* \"#utility.yul\":6785:6797   */\n      div\n        /* \"#utility.yul\":6775:6797   */\n      swap1\n      pop\n        /* \"#utility.yul\":6842:6843   */\n      0x01\n        /* \"#utility.yul\":6836:6840   */\n      dup3\n        /* \"#utility.yul\":6832:6844   */\n      and\n        /* \"#utility.yul\":6863:6881   */\n      dup1\n        /* \"#utility.yul\":6853:6934   */\n      tag_151\n      jumpi\n        /* \"#utility.yul\":6919:6923   */\n      0x7f\n        /* \"#utility.yul\":6911:6917   */\n      dup3\n        /* \"#utility.yul\":6907:6924   */\n      and\n        /* \"#utility.yul\":6897:6924   */\n      swap2\n      pop\n        /* \"#utility.yul\":6853:6934   */\n    tag_151:\n        /* \"#utility.yul\":6981:6983   */\n      0x20\n        /* \"#utility.yul\":6973:6979   */\n      dup3\n        /* \"#utility.yul\":6970:6984   */\n      lt\n        /* \"#utility.yul\":6950:6968   */\n      dup2\n        /* \"#utility.yul\":6947:6985   */\n      sub\n        /* \"#utility.yul\":6944:7028   */\n      tag_152\n      jumpi\n        /* \"#utility.yul\":7000:7018   */\n      tag_153\n      tag_61\n      jump\t// in\n    tag_153:\n        /* \"#utility.yul\":6944:7028   */\n    tag_152:\n        /* \"#utility.yul\":6765:7034   */\n      pop\n        /* \"#utility.yul\":6714:7034   */\n      swap2\n      swap1\n      pop\n      jump\t// out\n        /* \"#utility.yul\":7040:7181   */\n    tag_62:\n        /* \"#utility.yul\":7089:7093   */\n      0x00\n        /* \"#utility.yul\":7112:7115   */\n      dup2\n        /* \"#utility.yul\":7104:7115   */\n      swap1\n      pop\n        /* \"#utility.yul\":7135:7138   */\n      dup2\n        /* \"#utility.yul\":7132:7133   */\n      0x00\n        /* \"#utility.yul\":7125:7139   */\n      mstore\n        /* \"#utility.yul\":7169:7173   */\n      0x20\n        /* \"#utility.yul\":7166:7167   */\n      0x00\n        /* \"#utility.yul\":7156:7174   */\n      keccak256\n        /* \"#utility.yul\":7148:7174   */\n      swap1\n      pop\n        /* \"#utility.yul\":7040:7181   */\n      swap2\n      swap1\n      pop\n      jump\t// out\n        /* \"#utility.yul\":7187:7280   */\n    tag_63:\n        /* \"#utility.yul\":7224:7230   */\n      0x00\n        /* \"#utility.yul\":7271:7273   */\n      0x20\n        /* \"#utility.yul\":7266:7268   */\n      0x1f\n        /* \"#utility.yul\":7259:7264   */\n      dup4\n        /* \"#utility.yul\":7255:7269   */\n      add\n        /* \"#utility.yul\":7251:7274   */\n      div\n        /* \"#utility.yul\":7241:7274   */\n      swap1\n      pop\n        /* \"#utility.yul\":7187:7280   */\n      swap2\n      swap1\n      pop\n      jump\t// out\n        /* \"#utility.yul\":7286:7393   */\n    tag_64:\n        /* \"#utility.yul\":7330:7338   */\n      0x00\n        /* \"#utility.yul\":7380:7385   */\n      dup3\n        /* \"#utility.yul\":7374:7378   */\n      dup3\n        /* \"#utility.yul\":7370:7386   */\n      shl\n        /* \"#utility.yul\":7349:7386   */\n      swap1\n      pop\n        /* \"#utility.yul\":7286:7393   */\n      swap3\n      swap2\n      pop\n      pop\n      jump\t// out\n        /* \"#utility.yul\":7399:7792   */\n    tag_65:\n        /* \"#utility.yul\":7468:7474   */\n      0x00\n        /* \"#utility.yul\":7518:7519   */\n      0x08\n        /* \"#utility.yul\":7506:7516   */\n      dup4\n        /* \"#utility.yul\":7502:7520   */\n      mul\n        /* \"#utility.yul\":7541:7638   */\n      tag_158\n        /* \"#utility.yul\":7571:7637   */\n      0xffffffffffffffffffffffffffffffffffffffffffffffffffffffffffffffff\n        /* \"#utility.yul\":7560:7569   */\n      dup3\n        /* \"#utility.yul\":7541:7638   */\n      tag_64\n      jump\t// in\n    tag_158:\n        /* \"#utility.yul\":7659:7698   */\n      tag_159\n        /* \"#utility.yul\":7689:7697   */\n      dup7\n        /* \"#utility.yul\":7678:7687   */\n      dup4\n        /* \"#utility.yul\":7659:7698   */\n      tag_64\n      jump\t// in\n    tag_159:\n        /* \"#utility.yul\":7647:7698   */\n      swap6\n      pop\n        /* \"#utility.yul\":7731:7735   */\n      dup1\n        /* \"#utility.yul\":7727:7736   */\n      not\n        /* \"#utility.yul\":7720:7725   */\n      dup5\n        /* \"#utility.yul\":7716:7737   */\n      and\n        /* \"#utility.yul\":7707:7737   */\n      swap4\n      pop\n        /* \"#utility.yul\":7780:7784   */\n      dup1\n        /* \"#utility.yul\":7770:7778   */\n      dup7\n        /* \"#utility.yul\":7766:7785   */\n      and\n        /* \"#utility.yul\":7759:7764   */\n      dup5\n        /* \"#utility.yul\":7756:7786   */\n      or\n        /* \"#utility.yul\":7746:7786   */\n      swap3\n      pop\n        /* \"#utility.yul\":7475:7792   */\n      pop\n      pop\n        /* \"#utility.yul\":7399:7792   */\n      swap4\n      swap3\n      pop\n      pop\n      pop\n      jump\t// out\n        /* \"#utility.yul\":7798:7858   */\n    tag_66:\n        /* \"#utility.yul\":7826:7829   */\n      0x00\n        /* \"#utility.yul\":7847:7852   */\n      dup2\n        /* \"#utility.yul\":7840:7852   */\n      swap1\n      pop\n        /* \"#utility.yul\":7798:7858   */\n      swap2\n      swap1\n      pop\n      jump\t// out\n        /* \"#utility.yul\":7864:8006   */\n    tag_67:\n        /* \"#utility.yul\":7914:7923   */\n      0x00\n        /* \"#utility.yul\":7947:8000   */\n      tag_162\n        /* \"#utility.yul\":7965:7999   */\n      tag_163\n        /* \"#utility.yul\":7974:7998   */\n      tag_164\n        /* \"#utility.yul\":7992:7997   */\n      dup5\n        /* \"#utility.yul\":7974:7998   */\n      tag_50\n      jump\t// in\n    tag_164:\n        /* \"#utility.yul\":7965:7999   */\n      tag_66\n      jump\t// in\n    tag_163:\n        /* \"#utility.yul\":7947:8000   */\n      tag_50\n      jump\t// in\n    tag_162:\n        /* \"#utility.yul\":7934:8000   */\n      swap1\n      pop\n        /* \"#utility.yul\":7864:8006   */\n      swap2\n      swap1\n      pop\n      jump\t// out\n        /* \"#utility.yul\":8012:8087   */\n    tag_68:\n        /* \"#utility.yul\":8055:8058   */\n      0x00\n        /* \"#utility.yul\":8076:8081   */\n      dup2\n        /* \"#utility.yul\":8069:8081   */\n      swap1\n      pop\n        /* \"#utility.yul\":8012:8087   */\n      swap2\n      swap1\n      pop\n      jump\t// out\n        /* \"#utility.yul\":8093:8362   */\n    tag_69:\n        /* \"#utility.yul\":8203:8242   */\n      tag_167\n        /* \"#utility.yul\":8234:8241   */\n      dup4\n        /* \"#utility.yul\":8203:8242   */\n      tag_67\n      jump\t// in\n    tag_167:\n        /* \"#utility.yul\":8264:8355   */\n      tag_168\n        /* \"#utility.yul\":8313:8354   */\n      tag_169\n        /* \"#utility.yul\":8337:8353   */\n      dup3\n        /* \"#utility.yul\":8313:8354   */\n      tag_68\n      jump\t// in\n    tag_169:\n        /* \"#utility.yul\":8305:8311   */\n      dup5\n        /* \"#utility.yul\":8298:8302   */\n      dup5\n        /* \"#utility.yul\":8292:8303   */\n      sload\n        /* \"#utility.yul\":8264:8355   */\n      tag_65\n      jump\t// in\n    tag_168:\n        /* \"#utility.yul\":8258:8262   */\n      dup3\n        /* \"#utility.yul\":8251:8356   */\n      sstore\n        /* \"#utility.yul\":8169:8362   */\n      pop\n        /* \"#utility.yul\":8093:8362   */\n      pop\n      pop\n      pop\n      jump\t// out\n        /* \"#utility.yul\":8368:8441   */\n    tag_70:\n        /* \"#utility.yul\":8413:8416   */\n      0x00\n        /* \"#utility.yul\":8368:8441   */\n      swap1\n      jump\t// out\n        /* \"#utility.yul\":8447:8636   */\n    tag_71:\n        /* \"#utility.yul\":8524:8556   */\n      tag_172\n      tag_70\n      jump\t// in\n    tag_172:\n        /* \"#utility.yul\":8565:8630   */\n      tag_173\n        /* \"#utility.yul\":8623:8629   */\n      dup2\n        /* \"#utility.yul\":8615:8621   */\n      dup5\n        /* \"#utility.yul\":8609:8613   */\n      dup5\n        /* \"#utility.yul\":8565:8630   */\n      tag_69\n      jump\t// in\n    tag_173:\n        /* \"#utility.yul\":8500:8636   */\n      pop\n        /* \"#utility.yul\":8447:8636   */\n      pop\n      pop\n      jump\t// out\n        /* \"#utility.yul\":8642:8828   */\n    tag_72:\n        /* \"#utility.yul\":8702:8822   */\n    tag_175:\n        /* \"#utility.yul\":8719:8722   */\n      dup2\n        /* \"#utility.yul\":8712:8717   */\n      dup2\n        /* \"#utility.yul\":8709:8723   */\n      lt\n        /* \"#utility.yul\":8702:8822   */\n      iszero\n      tag_177\n      jumpi\n        /* \"#utility.yul\":8773:8812   */\n      tag_178\n        /* \"#utility.yul\":8810:8811   */\n      0x00\n        /* \"#utility.yul\":8803:8808   */\n      dup3\n        /* \"#utility.yul\":8773:8812   */\n      tag_71\n      jump\t// in\n    tag_178:\n        /* \"#utility.yul\":8746:8747   */\n      0x01\n        /* \"#utility.yul\":8739:8744   */\n      dup2\n        /* \"#utility.yul\":8735:8748   */\n      add\n        /* \"#utility.yul\":8726:8748   */\n      swap1\n      pop\n        /* \"#utility.yul\":8702:8822   */\n      jump(tag_175)\n    tag_177:\n        /* \"#utility.yul\":8642:8828   */\n      pop\n      pop\n      jump\t// out\n        /* \"#utility.yul\":8834:9377   */\n    tag_73:\n        /* \"#utility.yul\":8935:8937   */\n      0x1f\n        /* \"#utility.yul\":8930:8933   */\n      dup3\n        /* \"#utility.yul\":8927:8938   */\n      gt\n        /* \"#utility.yul\":8924:9370   */\n      iszero\n      tag_180\n      jumpi\n        /* \"#utility.yul\":8969:9007   */\n      tag_181\n        /* \"#utility.yul\":9001:9006   */\n      dup2\n        /* \"#utility.yul\":8969:9007   */\n      tag_62\n      jump\t// in\n    tag_181:\n        /* \"#utility.yul\":9053:9082   */\n      tag_182\n        /* \"#utility.yul\":9071:9081   */\n      dup5\n        /* \"#utility.yul\":9053:9082   */\n      tag_63\n      jump\t// in\n    tag_182:\n        /* \"#utility.yul\":9043:9051   */\n      dup2\n        /* \"#utility.yul\":9039:9083   */\n      add\n        /* \"#utility.yul\":9236:9238   */\n      0x20\n        /* \"#utility.yul\":9224:9234   */\n      dup6\n        /* \"#utility.yul\":9221:9239   */\n      lt\n        /* \"#utility.yul\":9218:9267   */\n      iszero\n      tag_183\n      jumpi\n        /* \"#utility.yul\":9257:9265   */\n      dup2\n        /* \"#utility.yul\":9242:9265   */\n      swap1\n      pop\n        /* \"#utility.yul\":9218:9267   */\n    tag_183:\n        /* \"#utility.yul\":9280:9360   */\n      tag_184\n        /* \"#utility.yul\":9336:9358   */\n      tag_185\n        /* \"#utility.yul\":9354:9357   */\n      dup6\n        /* \"#utility.yul\":9336:9358   */\n      tag_63\n      jump\t// in\n    tag_185:\n        /* \"#utility.yul\":9326:9334   */\n      dup4\n        /* \"#utility.yul\":9322:9359   */\n      add\n        /* \"#utility.yul\":9309:9320   */\n      dup3\n        /* \"#utility.yul\":9280:9360   */\n      tag_72\n      jump\t// in\n    tag_184:\n        /* \"#utility.yul\":8939:9370   */\n      pop\n      pop\n        /* \"#utility.yul\":8924:9370   */\n    tag_180:\n        /* \"#utility.yul\":8834:9377   */\n      pop\n      pop\n      pop\n      jump\t// out\n        /* \"#utility.yul\":9383:9500   */\n    tag_74:\n        /* \"#utility.yul\":9437:9445   */\n      0x00\n        /* \"#utility.yul\":9487:9492   */\n      dup3\n        /* \"#utility.yul\":9481:9485   */\n      dup3\n        /* \"#utility.yul\":9477:9493   */\n      shr\n        /* \"#utility.yul\":9456:9493   */\n      swap1\n      pop\n        /* \"#utility.yul\":9383:9500   */\n      swap3\n      swap2\n      pop\n      pop\n      jump\t// out\n        /* \"#utility.yul\":9506:9675   */\n    tag_75:\n        /* \"#utility.yul\":9550:9556   */\n      0x00\n        /* \"#utility.yul\":9583:9634   */\n      tag_188\n        /* \"#utility.yul\":9631:9632   */\n      0x00\n        /* \"#utility.yul\":9627:9633   */\n      not\n        /* \"#utility.yul\":9619:9624   */\n      dup5\n        /* \"#utility.yul\":9616:9617   */\n      0x08\n        /* \"#utility.yul\":9612:9625   */\n      mul\n        /* \"#utility.yul\":9583:9634   */\n      tag_74\n      jump\t// in\n    tag_188:\n        /* \"#utility.yul\":9579:9635   */\n      not\n        /* \"#utility.yul\":9664:9668   */\n      dup1\n        /* \"#utility.yul\":9658:9662   */\n      dup4\n        /* \"#utility.yul\":9654:9669   */\n      and\n        /* \"#utility.yul\":9644:9669   */\n      swap2\n      pop\n        /* \"#utility.yul\":9557:9675   */\n      pop\n        /* \"#utility.yul\":9506:9675   */\n      swap3\n      swap2\n      pop\n      pop\n      jump\t// out\n        /* \"#utility.yul\":9680:9975   */\n    tag_76:\n        /* \"#utility.yul\":9756:9760   */\n      0x00\n        /* \"#utility.yul\":9902:9931   */\n      tag_190\n        /* \"#utility.yul\":9927:9930   */\n      dup4\n        /* \"#utility.yul\":9921:9925   */\n      dup4\n        /* \"#utility.yul\":9902:9931   */\n      tag_75\n      jump\t// in\n    tag_190:\n        /* \"#utility.yul\":9894:9931   */\n      swap2\n      pop\n        /* \"#utility.yul\":9964:9967   */\n      dup3\n        /* \"#utility.yul\":9961:9962   */\n      0x02\n        /* \"#utility.yul\":9957:9968   */\n      mul\n        /* \"#utility.yul\":9951:9955   */\n      dup3\n        /* \"#utility.yul\":9948:9969   */\n      or\n        /* \"#utility.yul\":9940:9969   */\n      swap1\n      pop\n        /* \"#utility.yul\":9680:9975   */\n      swap3\n      swap2\n      pop\n      pop\n      jump\t// out\n        /* \"#utility.yul\":9980:11375   */\n    tag_27:\n        /* \"#utility.yul\":10097:10134   */\n      tag_192\n        /* \"#utility.yul\":10130:10133   */\n      dup3\n        /* \"#utility.yul\":10097:10134   */\n      tag_56\n      jump\t// in\n    tag_192:\n        /* \"#utility.yul\":10199:10217   */\n      0xffffffffffffffff\n        /* \"#utility.yul\":10191:10197   */\n      dup2\n        /* \"#utility.yul\":10188:10218   */\n      gt\n        /* \"#utility.yul\":10185:10241   */\n      iszero\n      tag_193\n      jumpi\n        /* \"#utility.yul\":10221:10239   */\n      tag_194\n      tag_43\n      jump\t// in\n    tag_194:\n        /* \"#utility.yul\":10185:10241   */\n    tag_193:\n        /* \"#utility.yul\":10265:10303   */\n      tag_195\n        /* \"#utility.yul\":10297:10301   */\n      dup3\n        /* \"#utility.yul\":10291:10302   */\n      sload\n        /* \"#utility.yul\":10265:10303   */\n      tag_31\n      jump\t// in\n    tag_195:\n        /* \"#utility.yul\":10350:10417   */\n      tag_196\n        /* \"#utility.yul\":10410:10416   */\n      dup3\n        /* \"#utility.yul\":10402:10408   */\n      dup3\n        /* \"#utility.yul\":10396:10400   */\n      dup6\n        /* \"#utility.yul\":10350:10417   */\n      tag_73\n      jump\t// in\n    tag_196:\n        /* \"#utility.yul\":10444:10445   */\n      0x00\n        /* \"#utility.yul\":10468:10472   */\n      0x20\n        /* \"#utility.yul\":10455:10472   */\n      swap1\n      pop\n        /* \"#utility.yul\":10500:10502   */\n      0x1f\n        /* \"#utility.yul\":10492:10498   */\n      dup4\n        /* \"#utility.yul\":10489:10503   */\n      gt\n        /* \"#utility.yul\":10517:10518   */\n      0x01\n        /* \"#utility.yul\":10512:11130   */\n      dup2\n      eq\n      tag_198\n      jumpi\n        /* \"#utility.yul\":11174:11175   */\n      0x00\n        /* \"#utility.yul\":11191:11197   */\n      dup5\n        /* \"#utility.yul\":11188:11265   */\n      iszero\n      tag_199\n      jumpi\n        /* \"#utility.yul\":11240:11249   */\n      dup3\n        /* \"#utility.yul\":11235:11238   */\n      dup8\n        /* \"#utility.yul\":11231:11250   */\n      add\n        /* \"#utility.yul\":11225:11251   */\n      mload\n        /* \"#utility.yul\":11216:11251   */\n      swap1\n      pop\n        /* \"#utility.yul\":11188:11265   */\n    tag_199:\n        /* \"#utility.yul\":11291:11358   */\n      tag_200\n        /* \"#utility.yul\":11351:11357   */\n      dup6\n        /* \"#utility.yul\":11344:11349   */\n      dup3\n        /* \"#utility.yul\":11291:11358   */\n      tag_76\n      jump\t// in\n    tag_200:\n        /* \"#utility.yul\":11285:11289   */\n      dup7\n        /* \"#utility.yul\":11278:11359   */\n      sstore\n        /* \"#utility.yul\":11147:11369   */\n      pop\n        /* \"#utility.yul\":10482:11369   */\n      jump(tag_197)\n        /* \"#utility.yul\":10512:11130   */\n    tag_198:\n        /* \"#utility.yul\":10564:10568   */\n      0x1f\n        /* \"#utility.yul\":10560:10569   */\n      not\n        /* \"#utility.yul\":10552:10558   */\n      dup5\n        /* \"#utility.yul\":10548:10570   */\n      and\n        /* \"#utility.yul\":10598:10635   */\n      tag_201\n        /* \"#utility.yul\":10630:10634   */\n      dup7\n        /* \"#utility.yul\":10598:10635   */\n      tag_62\n      jump\t// in\n    tag_201:\n        /* \"#utility.yul\":10657:10658   */\n      0x00\n        /* \"#utility.yul\":10671:10879   */\n    tag_202:\n        /* \"#utility.yul\":10685:10692   */\n      dup3\n        /* \"#utility.yul\":10682:10683   */\n      dup2\n        /* \"#utility.yul\":10679:10693   */\n      lt\n        /* \"#utility.yul\":10671:10879   */\n      iszero\n      tag_204\n      jumpi\n        /* \"#utility.yul\":10764:10773   */\n      dup5\n        /* \"#utility.yul\":10759:10762   */\n      dup10\n        /* \"#utility.yul\":10755:10774   */\n      add\n        /* \"#utility.yul\":10749:10775   */\n      mload\n        /* \"#utility.yul\":10741:10747   */\n      dup3\n        /* \"#utility.yul\":10734:10776   */\n      sstore\n        /* \"#utility.yul\":10815:10816   */\n      0x01\n        /* \"#utility.yul\":10807:10813   */\n      dup3\n        /* \"#utility.yul\":10803:10817   */\n      add\n        /* \"#utility.yul\":10793:10817   */\n      swap2\n      pop\n        /* \"#utility.yul\":10862:10864   */\n      0x20\n        /* \"#utility.yul\":10851:10860   */\n      dup6\n        /* \"#utility.yul\":10847:10865   */\n      add\n        /* \"#utility.yul\":10834:10865   */\n      swap5\n      pop\n        /* \"#utility.yul\":10708:10712   */\n      0x20\n        /* \"#utility.yul\":10705:10706   */\n      dup2\n        /* \"#utility.yul\":10701:10713   */\n      add\n        /* \"#utility.yul\":10696:10713   */\n      swap1\n      pop\n        /* \"#utility.yul\":10671:10879   */\n      jump(tag_202)\n    tag_204:\n        /* \"#utility.yul\":10907:10913   */\n      dup7\n        /* \"#utility.yul\":10898:10905   */\n      dup4\n        /* \"#utility.yul\":10895:10914   */\n      lt\n        /* \"#utility.yul\":10892:11071   */\n      iszero\n      tag_205\n      jumpi\n        /* \"#utility.yul\":10965:10974   */\n      dup5\n        /* \"#utility.yul\":10960:10963   */\n      dup10\n        /* \"#utility.yul\":10956:10975   */\n      add\n        /* \"#utility.yul\":10950:10976   */\n      mload\n        /* \"#utility.yul\":11008:11056   */\n      tag_206\n        /* \"#utility.yul\":11050:11054   */\n      0x1f\n        /* \"#utility.yul\":11042:11048   */\n      dup10\n        /* \"#utility.yul\":11038:11055   */\n      and\n        /* \"#utility.yul\":11027:11036   */\n      dup3\n        /* \"#utility.yul\":11008:11056   */\n      tag_75\n      jump\t// in\n    tag_206:\n        /* \"#utility.yul\":11000:11006   */\n      dup4\n        /* \"#utility.yul\":10993:11057   */\n      sstore\n        /* \"#utility.yul\":10915:11071   */\n      pop\n        /* \"#utility.yul\":10892:11071   */\n    tag_205:\n        /* \"#utility.yul\":11117:11118   */\n      0x01\n        /* \"#utility.yul\":11113:11114   */\n      0x02\n        /* \"#utility.yul\":11105:11111   */\n      dup9\n        /* \"#utility.yul\":11101:11115   */\n      mul\n        /* \"#utility.yul\":11097:11119   */\n      add\n        /* \"#utility.yul\":11091:11095   */\n      dup9\n        /* \"#utility.yul\":11084:11120   */\n      sstore\n        /* \"#utility.yul\":10519:11130   */\n      pop\n      pop\n      pop\n        /* \"#utility.yul\":10482:11369   */\n    tag_197:\n      pop\n        /* \"#utility.yul\":10072:11375   */\n      pop\n      pop\n      pop\n        /* \"#utility.yul\":9980:11375   */\n      pop\n      pop\n      jump\t// out\n\n    auxdata: 0xa2646970667358221220762fbc4d670cfd4981baa2200eacfc9a84b5b0ce84e0601435e79a9a9e92b6a564736f6c63430008120033\n}\n",
				"bytecode": {
					"linkReferences": {},
					"object": "60806040526000805534801561001457600080fd5b5061093a806100246000396000f3fe608060405234801561001057600080fd5b50600436106100365760003560e01c80630eda4e681461003b578063a5db748d14610057575b600080fd5b6100556004803603810190610050919061041a565b610073565b005b610071600480360381019061006c919061041a565b6100f9565b005b61007d828261018d565b156100bd576040517f08c379a00000000000000000000000000000000000000000000000000000000081526004016100b4906104d3565b60405180910390fd5b806001836040516100ce9190610564565b908152602001604051809103902060030160008282546100ee91906105aa565b925050819055505050565b60008081548092919061010b906105de565b91905055506040518060800160405280600054815260200183815260200182815260200160008152506001836040516101449190610564565b90815260200160405180910390206000820151816000015560208201518160010190816101719190610832565b5060408201518160020155606082015181600301559050505050565b6000806001846040516101a09190610564565b9081526020016040518091039020604051806080016040529081600082015481526020016001820180546101d390610655565b80601f01602080910402602001604051908101604052809291908181526020018280546101ff90610655565b801561024c5780601f106102215761010080835404028352916020019161024c565b820191906000526020600020905b81548152906001019060200180831161022f57829003601f168201915b5050505050815260200160028201548152602001600382015481525050905082816060015161027b91906105aa565b81604001511091505092915050565b6000604051905090565b600080fd5b600080fd5b600080fd5b600080fd5b6000601f19601f8301169050919050565b7f4e487b7100000000000000000000000000000000000000000000000000000000600052604160045260246000fd5b6102f1826102a8565b810181811067ffffffffffffffff821117156103105761030f6102b9565b5b80604052505050565b600061032361028a565b905061032f82826102e8565b919050565b600067ffffffffffffffff82111561034f5761034e6102b9565b5b610358826102a8565b9050602081019050919050565b82818337600083830152505050565b600061038761038284610334565b610319565b9050828152602081018484840111156103a3576103a26102a3565b5b6103ae848285610365565b509392505050565b600082601f8301126103cb576103ca61029e565b5b81356103db848260208601610374565b91505092915050565b6000819050919050565b6103f7816103e4565b811461040257600080fd5b50565b600081359050610414816103ee565b92915050565b6000806040838503121561043157610430610294565b5b600083013567ffffffffffffffff81111561044f5761044e610299565b5b61045b858286016103b6565b925050602061046c85828601610405565b9150509250929050565b600082825260208201905092915050565b7f54415247455420414d4f554e5420524541434845440000000000000000000000600082015250565b60006104bd601583610476565b91506104c882610487565b602082019050919050565b600060208201905081810360008301526104ec816104b0565b9050919050565b600081519050919050565b600081905092915050565b60005b8381101561052757808201518184015260208101905061050c565b60008484015250505050565b600061053e826104f3565b61054881856104fe565b9350610558818560208601610509565b80840191505092915050565b60006105708284610533565b915081905092915050565b7f4e487b7100000000000000000000000000000000000000000000000000000000600052601160045260246000fd5b60006105b5826103e4565b91506105c0836103e4565b92508282019050808211156105d8576105d761057b565b5b92915050565b60006105e9826103e4565b91507fffffffffffffffffffffffffffffffffffffffffffffffffffffffffffffffff820361061b5761061a61057b565b5b600182019050919050565b7f4e487b7100000000000000000000000000000000000000000000000000000000600052602260045260246000fd5b6000600282049050600182168061066d57607f821691505b6020821081036106805761067f610626565b5b50919050565b60008190508160005260206000209050919050565b60006020601f8301049050919050565b600082821b905092915050565b6000600883026106e87fffffffffffffffffffffffffffffffffffffffffffffffffffffffffffffffff826106ab565b6106f286836106ab565b95508019841693508086168417925050509392505050565b6000819050919050565b600061072f61072a610725846103e4565b61070a565b6103e4565b9050919050565b6000819050919050565b61074983610714565b61075d61075582610736565b8484546106b8565b825550505050565b600090565b610772610765565b61077d818484610740565b505050565b5b818110156107a15761079660008261076a565b600181019050610783565b5050565b601f8211156107e6576107b781610686565b6107c08461069b565b810160208510156107cf578190505b6107e36107db8561069b565b830182610782565b50505b505050565b600082821c905092915050565b6000610809600019846008026107eb565b1980831691505092915050565b600061082283836107f8565b9150826002028217905092915050565b61083b826104f3565b67ffffffffffffffff811115610854576108536102b9565b5b61085e8254610655565b6108698282856107a5565b600060209050601f83116001811461089c576000841561088a578287015190505b6108948582610816565b8655506108fc565b601f1984166108aa86610686565b60005b828110156108d2578489015182556001820191506020850194506020810190506108ad565b868310156108ef57848901516108eb601f8916826107f8565b8355505b6001600288020188555050505b50505050505056fea2646970667358221220762fbc4d670cfd4981baa2200eacfc9a84b5b0ce84e0601435e79a9a9e92b6a564736f6c63430008120033",
					"opcodes": "PUSH1 0x80 PUSH1 0x40 MSTORE PUSH1 0x0 DUP1 SSTORE CALLVALUE DUP1 ISZERO PUSH2 0x14 JUMPI PUSH1 0x0 DUP1 REVERT JUMPDEST POP PUSH2 0x93A DUP1 PUSH2 0x24 PUSH1 0x0 CODECOPY PUSH1 0x0 RETURN INVALID PUSH1 0x80 PUSH1 0x40 MSTORE CALLVALUE DUP1 ISZERO PUSH2 0x10 JUMPI PUSH1 0x0 DUP1 REVERT JUMPDEST POP PUSH1 0x4 CALLDATASIZE LT PUSH2 0x36 JUMPI PUSH1 0x0 CALLDATALOAD PUSH1 0xE0 SHR DUP1 PUSH4 0xEDA4E68 EQ PUSH2 0x3B JUMPI DUP1 PUSH4 0xA5DB748D EQ PUSH2 0x57 JUMPI JUMPDEST PUSH1 0x0 DUP1 REVERT JUMPDEST PUSH2 0x55 PUSH1 0x4 DUP1 CALLDATASIZE SUB DUP2 ADD SWAP1 PUSH2 0x50 SWAP2 SWAP1 PUSH2 0x41A JUMP JUMPDEST PUSH2 0x73 JUMP JUMPDEST STOP JUMPDEST PUSH2 0x71 PUSH1 0x4 DUP1 CALLDATASIZE SUB DUP2 ADD SWAP1 PUSH2 0x6C SWAP2 SWAP1 PUSH2 0x41A JUMP JUMPDEST PUSH2 0xF9 JUMP JUMPDEST STOP JUMPDEST PUSH2 0x7D DUP3 DUP3 PUSH2 0x18D JUMP JUMPDEST ISZERO PUSH2 0xBD JUMPI PUSH1 0x40 MLOAD PUSH32 0x8C379A000000000000000000000000000000000000000000000000000000000 DUP2 MSTORE PUSH1 0x4 ADD PUSH2 0xB4 SWAP1 PUSH2 0x4D3 JUMP JUMPDEST PUSH1 0x40 MLOAD DUP1 SWAP2 SUB SWAP1 REVERT JUMPDEST DUP1 PUSH1 0x1 DUP4 PUSH1 0x40 MLOAD PUSH2 0xCE SWAP2 SWAP1 PUSH2 0x564 JUMP JUMPDEST SWAP1 DUP2 MSTORE PUSH1 0x20 ADD PUSH1 0x40 MLOAD DUP1 SWAP2 SUB SWAP1 KECCAK256 PUSH1 0x3 ADD PUSH1 0x0 DUP3 DUP3 SLOAD PUSH2 0xEE SWAP2 SWAP1 PUSH2 0x5AA JUMP JUMPDEST SWAP3 POP POP DUP2 SWAP1 SSTORE POP POP POP JUMP JUMPDEST PUSH1 0x0 DUP1 DUP2 SLOAD DUP1 SWAP3 SWAP2 SWAP1 PUSH2 0x10B SWAP1 PUSH2 0x5DE JUMP JUMPDEST SWAP2 SWAP1 POP SSTORE POP PUSH1 0x40 MLOAD DUP1 PUSH1 0x80 ADD PUSH1 0x40 MSTORE DUP1 PUSH1 0x0 SLOAD DUP2 MSTORE PUSH1 0x20 ADD DUP4 DUP2 MSTORE PUSH1 0x20 ADD DUP3 DUP2 MSTORE PUSH1 0x20 ADD PUSH1 0x0 DUP2 MSTORE POP PUSH1 0x1 DUP4 PUSH1 0x40 MLOAD PUSH2 0x144 SWAP2 SWAP1 PUSH2 0x564 JUMP JUMPDEST SWAP1 DUP2 MSTORE PUSH1 0x20 ADD PUSH1 0x40 MLOAD DUP1 SWAP2 SUB SWAP1 KECCAK256 PUSH1 0x0 DUP3 ADD MLOAD DUP2 PUSH1 0x0 ADD SSTORE PUSH1 0x20 DUP3 ADD MLOAD DUP2 PUSH1 0x1 ADD SWAP1 DUP2 PUSH2 0x171 SWAP2 SWAP1 PUSH2 0x832 JUMP JUMPDEST POP PUSH1 0x40 DUP3 ADD MLOAD DUP2 PUSH1 0x2 ADD SSTORE PUSH1 0x60 DUP3 ADD MLOAD DUP2 PUSH1 0x3 ADD SSTORE SWAP1 POP POP POP POP JUMP JUMPDEST PUSH1 0x0 DUP1 PUSH1 0x1 DUP5 PUSH1 0x40 MLOAD PUSH2 0x1A0 SWAP2 SWAP1 PUSH2 0x564 JUMP JUMPDEST SWAP1 DUP2 MSTORE PUSH1 0x20 ADD PUSH1 0x40 MLOAD DUP1 SWAP2 SUB SWAP1 KECCAK256 PUSH1 0x40 MLOAD DUP1 PUSH1 0x80 ADD PUSH1 0x40 MSTORE SWAP1 DUP2 PUSH1 0x0 DUP3 ADD SLOAD DUP2 MSTORE PUSH1 0x20 ADD PUSH1 0x1 DUP3 ADD DUP1 SLOAD PUSH2 0x1D3 SWAP1 PUSH2 0x655 JUMP JUMPDEST DUP1 PUSH1 0x1F ADD PUSH1 0x20 DUP1 SWAP2 DIV MUL PUSH1 0x20 ADD PUSH1 0x40 MLOAD SWAP1 DUP2 ADD PUSH1 0x40 MSTORE DUP1 SWAP3 SWAP2 SWAP1 DUP2 DUP2 MSTORE PUSH1 0x20 ADD DUP3 DUP1 SLOAD PUSH2 0x1FF SWAP1 PUSH2 0x655 JUMP JUMPDEST DUP1 ISZERO PUSH2 0x24C JUMPI DUP1 PUSH1 0x1F LT PUSH2 0x221 JUMPI PUSH2 0x100 DUP1 DUP4 SLOAD DIV MUL DUP4 MSTORE SWAP2 PUSH1 0x20 ADD SWAP2 PUSH2 0x24C JUMP JUMPDEST DUP3 ADD SWAP2 SWAP1 PUSH1 0x0 MSTORE PUSH1 0x20 PUSH1 0x0 KECCAK256 SWAP1 JUMPDEST DUP2 SLOAD DUP2 MSTORE SWAP1 PUSH1 0x1 ADD SWAP1 PUSH1 0x20 ADD DUP1 DUP4 GT PUSH2 0x22F JUMPI DUP3 SWAP1 SUB PUSH1 0x1F AND DUP3 ADD SWAP2 JUMPDEST POP POP POP POP POP DUP2 MSTORE PUSH1 0x20 ADD PUSH1 0x2 DUP3 ADD SLOAD DUP2 MSTORE PUSH1 0x20 ADD PUSH1 0x3 DUP3 ADD SLOAD DUP2 MSTORE POP POP SWAP1 POP DUP3 DUP2 PUSH1 0x60 ADD MLOAD PUSH2 0x27B SWAP2 SWAP1 PUSH2 0x5AA JUMP JUMPDEST DUP2 PUSH1 0x40 ADD MLOAD LT SWAP2 POP POP SWAP3 SWAP2 POP POP JUMP JUMPDEST PUSH1 0x0 PUSH1 0x40 MLOAD SWAP1 POP SWAP1 JUMP JUMPDEST PUSH1 0x0 DUP1 REVERT JUMPDEST PUSH1 0x0 DUP1 REVERT JUMPDEST PUSH1 0x0 DUP1 REVERT JUMPDEST PUSH1 0x0 DUP1 REVERT JUMPDEST PUSH1 0x0 PUSH1 0x1F NOT PUSH1 0x1F DUP4 ADD AND SWAP1 POP SWAP2 SWAP1 POP JUMP JUMPDEST PUSH32 0x4E487B7100000000000000000000000000000000000000000000000000000000 PUSH1 0x0 MSTORE PUSH1 0x41 PUSH1 0x4 MSTORE PUSH1 0x24 PUSH1 0x0 REVERT JUMPDEST PUSH2 0x2F1 DUP3 PUSH2 0x2A8 JUMP JUMPDEST DUP2 ADD DUP2 DUP2 LT PUSH8 0xFFFFFFFFFFFFFFFF DUP3 GT OR ISZERO PUSH2 0x310 JUMPI PUSH2 0x30F PUSH2 0x2B9 JUMP JUMPDEST JUMPDEST DUP1 PUSH1 0x40 MSTORE POP POP POP JUMP JUMPDEST PUSH1 0x0 PUSH2 0x323 PUSH2 0x28A JUMP JUMPDEST SWAP1 POP PUSH2 0x32F DUP3 DUP3 PUSH2 0x2E8 JUMP JUMPDEST SWAP2 SWAP1 POP JUMP JUMPDEST PUSH1 0x0 PUSH8 0xFFFFFFFFFFFFFFFF DUP3 GT ISZERO PUSH2 0x34F JUMPI PUSH2 0x34E PUSH2 0x2B9 JUMP JUMPDEST JUMPDEST PUSH2 0x358 DUP3 PUSH2 0x2A8 JUMP JUMPDEST SWAP1 POP PUSH1 0x20 DUP2 ADD SWAP1 POP SWAP2 SWAP1 POP JUMP JUMPDEST DUP3 DUP2 DUP4 CALLDATACOPY PUSH1 0x0 DUP4 DUP4 ADD MSTORE POP POP POP JUMP JUMPDEST PUSH1 0x0 PUSH2 0x387 PUSH2 0x382 DUP5 PUSH2 0x334 JUMP JUMPDEST PUSH2 0x319 JUMP JUMPDEST SWAP1 POP DUP3 DUP2 MSTORE PUSH1 0x20 DUP2 ADD DUP5 DUP5 DUP5 ADD GT ISZERO PUSH2 0x3A3 JUMPI PUSH2 0x3A2 PUSH2 0x2A3 JUMP JUMPDEST JUMPDEST PUSH2 0x3AE DUP5 DUP3 DUP6 PUSH2 0x365 JUMP JUMPDEST POP SWAP4 SWAP3 POP POP POP JUMP JUMPDEST PUSH1 0x0 DUP3 PUSH1 0x1F DUP4 ADD SLT PUSH2 0x3CB JUMPI PUSH2 0x3CA PUSH2 0x29E JUMP JUMPDEST JUMPDEST DUP2 CALLDATALOAD PUSH2 0x3DB DUP5 DUP3 PUSH1 0x20 DUP7 ADD PUSH2 0x374 JUMP JUMPDEST SWAP2 POP POP SWAP3 SWAP2 POP POP JUMP JUMPDEST PUSH1 0x0 DUP2 SWAP1 POP SWAP2 SWAP1 POP JUMP JUMPDEST PUSH2 0x3F7 DUP2 PUSH2 0x3E4 JUMP JUMPDEST DUP2 EQ PUSH2 0x402 JUMPI PUSH1 0x0 DUP1 REVERT JUMPDEST POP JUMP JUMPDEST PUSH1 0x0 DUP2 CALLDATALOAD SWAP1 POP PUSH2 0x414 DUP2 PUSH2 0x3EE JUMP JUMPDEST SWAP3 SWAP2 POP POP JUMP JUMPDEST PUSH1 0x0 DUP1 PUSH1 0x40 DUP4 DUP6 SUB SLT ISZERO PUSH2 0x431 JUMPI PUSH2 0x430 PUSH2 0x294 JUMP JUMPDEST JUMPDEST PUSH1 0x0 DUP4 ADD CALLDATALOAD PUSH8 0xFFFFFFFFFFFFFFFF DUP2 GT ISZERO PUSH2 0x44F JUMPI PUSH2 0x44E PUSH2 0x299 JUMP JUMPDEST JUMPDEST PUSH2 0x45B DUP6 DUP3 DUP7 ADD PUSH2 0x3B6 JUMP JUMPDEST SWAP3 POP POP PUSH1 0x20 PUSH2 0x46C DUP6 DUP3 DUP7 ADD PUSH2 0x405 JUMP JUMPDEST SWAP2 POP POP SWAP3 POP SWAP3 SWAP1 POP JUMP JUMPDEST PUSH1 0x0 DUP3 DUP3 MSTORE PUSH1 0x20 DUP3 ADD SWAP1 POP SWAP3 SWAP2 POP POP JUMP JUMPDEST PUSH32 0x54415247455420414D4F554E5420524541434845440000000000000000000000 PUSH1 0x0 DUP3 ADD MSTORE POP JUMP JUMPDEST PUSH1 0x0 PUSH2 0x4BD PUSH1 0x15 DUP4 PUSH2 0x476 JUMP JUMPDEST SWAP2 POP PUSH2 0x4C8 DUP3 PUSH2 0x487 JUMP JUMPDEST PUSH1 0x20 DUP3 ADD SWAP1 POP SWAP2 SWAP1 POP JUMP JUMPDEST PUSH1 0x0 PUSH1 0x20 DUP3 ADD SWAP1 POP DUP2 DUP2 SUB PUSH1 0x0 DUP4 ADD MSTORE PUSH2 0x4EC DUP2 PUSH2 0x4B0 JUMP JUMPDEST SWAP1 POP SWAP2 SWAP1 POP JUMP JUMPDEST PUSH1 0x0 DUP2 MLOAD SWAP1 POP SWAP2 SWAP1 POP JUMP JUMPDEST PUSH1 0x0 DUP2 SWAP1 POP SWAP3 SWAP2 POP POP JUMP JUMPDEST PUSH1 0x0 JUMPDEST DUP4 DUP2 LT ISZERO PUSH2 0x527 JUMPI DUP1 DUP3 ADD MLOAD DUP2 DUP5 ADD MSTORE PUSH1 0x20 DUP2 ADD SWAP1 POP PUSH2 0x50C JUMP JUMPDEST PUSH1 0x0 DUP5 DUP5 ADD MSTORE POP POP POP POP JUMP JUMPDEST PUSH1 0x0 PUSH2 0x53E DUP3 PUSH2 0x4F3 JUMP JUMPDEST PUSH2 0x548 DUP2 DUP6 PUSH2 0x4FE JUMP JUMPDEST SWAP4 POP PUSH2 0x558 DUP2 DUP6 PUSH1 0x20 DUP7 ADD PUSH2 0x509 JUMP JUMPDEST DUP1 DUP5 ADD SWAP2 POP POP SWAP3 SWAP2 POP POP JUMP JUMPDEST PUSH1 0x0 PUSH2 0x570 DUP3 DUP5 PUSH2 0x533 JUMP JUMPDEST SWAP2 POP DUP2 SWAP1 POP SWAP3 SWAP2 POP POP JUMP JUMPDEST PUSH32 0x4E487B7100000000000000000000000000000000000000000000000000000000 PUSH1 0x0 MSTORE PUSH1 0x11 PUSH1 0x4 MSTORE PUSH1 0x24 PUSH1 0x0 REVERT JUMPDEST PUSH1 0x0 PUSH2 0x5B5 DUP3 PUSH2 0x3E4 JUMP JUMPDEST SWAP2 POP PUSH2 0x5C0 DUP4 PUSH2 0x3E4 JUMP JUMPDEST SWAP3 POP DUP3 DUP3 ADD SWAP1 POP DUP1 DUP3 GT ISZERO PUSH2 0x5D8 JUMPI PUSH2 0x5D7 PUSH2 0x57B JUMP JUMPDEST JUMPDEST SWAP3 SWAP2 POP POP JUMP JUMPDEST PUSH1 0x0 PUSH2 0x5E9 DUP3 PUSH2 0x3E4 JUMP JUMPDEST SWAP2 POP PUSH32 0xFFFFFFFFFFFFFFFFFFFFFFFFFFFFFFFFFFFFFFFFFFFFFFFFFFFFFFFFFFFFFFFF DUP3 SUB PUSH2 0x61B JUMPI PUSH2 0x61A PUSH2 0x57B JUMP JUMPDEST JUMPDEST PUSH1 0x1 DUP3 ADD SWAP1 POP SWAP2 SWAP1 POP JUMP JUMPDEST PUSH32 0x4E487B7100000000000000000000000000000000000000000000000000000000 PUSH1 0x0 MSTORE PUSH1 0x22 PUSH1 0x4 MSTORE PUSH1 0x24 PUSH1 0x0 REVERT JUMPDEST PUSH1 0x0 PUSH1 0x2 DUP3 DIV SWAP1 POP PUSH1 0x1 DUP3 AND DUP1 PUSH2 0x66D JUMPI PUSH1 0x7F DUP3 AND SWAP2 POP JUMPDEST PUSH1 0x20 DUP3 LT DUP2 SUB PUSH2 0x680 JUMPI PUSH2 0x67F PUSH2 0x626 JUMP JUMPDEST JUMPDEST POP SWAP2 SWAP1 POP JUMP JUMPDEST PUSH1 0x0 DUP2 SWAP1 POP DUP2 PUSH1 0x0 MSTORE PUSH1 0x20 PUSH1 0x0 KECCAK256 SWAP1 POP SWAP2 SWAP1 POP JUMP JUMPDEST PUSH1 0x0 PUSH1 0x20 PUSH1 0x1F DUP4 ADD DIV SWAP1 POP SWAP2 SWAP1 POP JUMP JUMPDEST PUSH1 0x0 DUP3 DUP3 SHL SWAP1 POP SWAP3 SWAP2 POP POP JUMP JUMPDEST PUSH1 0x0 PUSH1 0x8 DUP4 MUL PUSH2 0x6E8 PUSH32 0xFFFFFFFFFFFFFFFFFFFFFFFFFFFFFFFFFFFFFFFFFFFFFFFFFFFFFFFFFFFFFFFF DUP3 PUSH2 0x6AB JUMP JUMPDEST PUSH2 0x6F2 DUP7 DUP4 PUSH2 0x6AB JUMP JUMPDEST SWAP6 POP DUP1 NOT DUP5 AND SWAP4 POP DUP1 DUP7 AND DUP5 OR SWAP3 POP POP POP SWAP4 SWAP3 POP POP POP JUMP JUMPDEST PUSH1 0x0 DUP2 SWAP1 POP SWAP2 SWAP1 POP JUMP JUMPDEST PUSH1 0x0 PUSH2 0x72F PUSH2 0x72A PUSH2 0x725 DUP5 PUSH2 0x3E4 JUMP JUMPDEST PUSH2 0x70A JUMP JUMPDEST PUSH2 0x3E4 JUMP JUMPDEST SWAP1 POP SWAP2 SWAP1 POP JUMP JUMPDEST PUSH1 0x0 DUP2 SWAP1 POP SWAP2 SWAP1 POP JUMP JUMPDEST PUSH2 0x749 DUP4 PUSH2 0x714 JUMP JUMPDEST PUSH2 0x75D PUSH2 0x755 DUP3 PUSH2 0x736 JUMP JUMPDEST DUP5 DUP5 SLOAD PUSH2 0x6B8 JUMP JUMPDEST DUP3 SSTORE POP POP POP POP JUMP JUMPDEST PUSH1 0x0 SWAP1 JUMP JUMPDEST PUSH2 0x772 PUSH2 0x765 JUMP JUMPDEST PUSH2 0x77D DUP2 DUP5 DUP5 PUSH2 0x740 JUMP JUMPDEST POP POP POP JUMP JUMPDEST JUMPDEST DUP2 DUP2 LT ISZERO PUSH2 0x7A1 JUMPI PUSH2 0x796 PUSH1 0x0 DUP3 PUSH2 0x76A JUMP JUMPDEST PUSH1 0x1 DUP2 ADD SWAP1 POP PUSH2 0x783 JUMP JUMPDEST POP POP JUMP JUMPDEST PUSH1 0x1F DUP3 GT ISZERO PUSH2 0x7E6 JUMPI PUSH2 0x7B7 DUP2 PUSH2 0x686 JUMP JUMPDEST PUSH2 0x7C0 DUP5 PUSH2 0x69B JUMP JUMPDEST DUP2 ADD PUSH1 0x20 DUP6 LT ISZERO PUSH2 0x7CF JUMPI DUP2 SWAP1 POP JUMPDEST PUSH2 0x7E3 PUSH2 0x7DB DUP6 PUSH2 0x69B JUMP JUMPDEST DUP4 ADD DUP3 PUSH2 0x782 JUMP JUMPDEST POP POP JUMPDEST POP POP POP JUMP JUMPDEST PUSH1 0x0 DUP3 DUP3 SHR SWAP1 POP SWAP3 SWAP2 POP POP JUMP JUMPDEST PUSH1 0x0 PUSH2 0x809 PUSH1 0x0 NOT DUP5 PUSH1 0x8 MUL PUSH2 0x7EB JUMP JUMPDEST NOT DUP1 DUP4 AND SWAP2 POP POP SWAP3 SWAP2 POP POP JUMP JUMPDEST PUSH1 0x0 PUSH2 0x822 DUP4 DUP4 PUSH2 0x7F8 JUMP JUMPDEST SWAP2 POP DUP3 PUSH1 0x2 MUL DUP3 OR SWAP1 POP SWAP3 SWAP2 POP POP JUMP JUMPDEST PUSH2 0x83B DUP3 PUSH2 0x4F3 JUMP JUMPDEST PUSH8 0xFFFFFFFFFFFFFFFF DUP2 GT ISZERO PUSH2 0x854 JUMPI PUSH2 0x853 PUSH2 0x2B9 JUMP JUMPDEST JUMPDEST PUSH2 0x85E DUP3 SLOAD PUSH2 0x655 JUMP JUMPDEST PUSH2 0x869 DUP3 DUP3 DUP6 PUSH2 0x7A5 JUMP JUMPDEST PUSH1 0x0 PUSH1 0x20 SWAP1 POP PUSH1 0x1F DUP4 GT PUSH1 0x1 DUP2 EQ PUSH2 0x89C JUMPI PUSH1 0x0 DUP5 ISZERO PUSH2 0x88A JUMPI DUP3 DUP8 ADD MLOAD SWAP1 POP JUMPDEST PUSH2 0x894 DUP6 DUP3 PUSH2 0x816 JUMP JUMPDEST DUP7 SSTORE POP PUSH2 0x8FC JUMP JUMPDEST PUSH1 0x1F NOT DUP5 AND PUSH2 0x8AA DUP7 PUSH2 0x686 JUMP JUMPDEST PUSH1 0x0 JUMPDEST DUP3 DUP2 LT ISZERO PUSH2 0x8D2 JUMPI DUP5 DUP10 ADD MLOAD DUP3 SSTORE PUSH1 0x1 DUP3 ADD SWAP2 POP PUSH1 0x20 DUP6 ADD SWAP5 POP PUSH1 0x20 DUP2 ADD SWAP1 POP PUSH2 0x8AD JUMP JUMPDEST DUP7 DUP4 LT ISZERO PUSH2 0x8EF JUMPI DUP5 DUP10 ADD MLOAD PUSH2 0x8EB PUSH1 0x1F DUP10 AND DUP3 PUSH2 0x7F8 JUMP JUMPDEST DUP4 SSTORE POP JUMPDEST PUSH1 0x1 PUSH1 0x2 DUP9 MUL ADD DUP9 SSTORE POP POP POP JUMPDEST POP POP POP POP POP POP JUMP INVALID LOG2 PUSH5 0x6970667358 0x22 SLT KECCAK256 PUSH23 0x2FBC4D670CFD4981BAA2200EACFC9A84B5B0CE84E06014 CALLDATALOAD 0xE7 SWAP11 SWAP11 SWAP15 SWAP3 0xB6 0xA5 PUSH5 0x736F6C6343 STOP ADDMOD SLT STOP CALLER "
				},
				"gasEstimates": {
					"creation": {
						"codeDepositCost": "472400",
						"executionCost": "5511",
						"totalCost": "477911"
					},
					"external": {
						"fundProyect(string,uint256)": "infinite",
						"newProyect(string,uint256)": "infinite"
					},
					"internal": {
						"targetAmountReached(string memory,uint256)": "infinite"
					}
				},
				"methodIdentifiers": {
					"fundProyect(string,uint256)": "0eda4e68",
					"newProyect(string,uint256)": "a5db748d"
				}
			},
			"storageLayout": {
				"storage": [
					{
						"astId": 13,
						"contract": "crowfunding.sol:crowFunding",
						"label": "proyectsCount",
						"offset": 0,
						"slot": "0",
						"type": "t_uint256"
					},
					{
						"astId": 18,
						"contract": "crowfunding.sol:crowFunding",
						"label": "proyects",
						"offset": 0,
						"slot": "1",
						"type": "t_mapping(t_string_memory_ptr,t_struct(Proyect)10_storage)"
					}
				],
				"types": {
					"t_mapping(t_string_memory_ptr,t_struct(Proyect)10_storage)": {
						"encoding": "mapping",
						"key": "t_string_memory_ptr",
						"label": "mapping(string => struct crowFunding.Proyect)",
						"numberOfBytes": "32",
						"value": "t_struct(Proyect)10_storage"
					},
					"t_string_memory_ptr": {
						"encoding": "bytes",
						"label": "string",
						"numberOfBytes": "32"
					},
					"t_string_storage": {
						"encoding": "bytes",
						"label": "string",
						"numberOfBytes": "32"
					},
					"t_struct(Proyect)10_storage": {
						"encoding": "inplace",
						"label": "struct crowFunding.Proyect",
						"members": [
							{
								"astId": 3,
								"contract": "crowfunding.sol:crowFunding",
								"label": "Id",
								"offset": 0,
								"slot": "0",
								"type": "t_uint256"
							},
							{
								"astId": 5,
								"contract": "crowfunding.sol:crowFunding",
								"label": "name",
								"offset": 0,
								"slot": "1",
								"type": "t_string_storage"
							},
							{
								"astId": 7,
								"contract": "crowfunding.sol:crowFunding",
								"label": "targetAmount",
								"offset": 0,
								"slot": "2",
								"type": "t_uint256"
							},
							{
								"astId": 9,
								"contract": "crowfunding.sol:crowFunding",
								"label": "collectedAmount",
								"offset": 0,
								"slot": "3",
								"type": "t_uint256"
							}
						],
						"numberOfBytes": "128"
					},
					"t_uint256": {
						"encoding": "inplace",
						"label": "uint256",
						"numberOfBytes": "32"
					}
				}
			},
			"userdoc": {
				"kind": "user",
				"methods": {},
				"version": 1
			}
		}
	}
}