{
	"crowfunding.sol": {
		"crowFunding": {
			"abi": [
				{
					"inputs": [
						{
							"internalType": "string",
							"name": "_name",
							"type": "string"
						}
					],
					"name": "amountToReachTarget",
					"outputs": [
						{
							"internalType": "uint256",
							"name": "",
							"type": "uint256"
						}
					],
					"stateMutability": "view",
					"type": "function"
				},
				{
					"inputs": [
						{
							"internalType": "string",
							"name": "_name",
							"type": "string"
						},
						{
							"internalType": "uint256",
							"name": "_amount",
							"type": "uint256"
						}
					],
					"name": "fundProyect",
					"outputs": [],
					"stateMutability": "nonpayable",
					"type": "function"
				},
				{
					"inputs": [],
					"name": "getProyectsCount",
					"outputs": [
						{
							"internalType": "uint256",
							"name": "",
							"type": "uint256"
						}
					],
					"stateMutability": "view",
					"type": "function"
				},
				{
					"inputs": [
						{
							"internalType": "string",
							"name": "_name",
							"type": "string"
						},
						{
							"internalType": "uint256",
							"name": "_target",
							"type": "uint256"
						}
					],
					"name": "newProyect",
					"outputs": [],
					"stateMutability": "nonpayable",
					"type": "function"
				},
				{
					"inputs": [
						{
							"internalType": "string",
							"name": "_name",
							"type": "string"
						}
					],
					"name": "proyectInfo",
					"outputs": [
						{
							"internalType": "bytes32",
							"name": "",
							"type": "bytes32"
						},
						{
							"internalType": "uint256",
							"name": "",
							"type": "uint256"
						},
						{
							"internalType": "uint256",
							"name": "",
							"type": "uint256"
						}
					],
					"stateMutability": "view",
					"type": "function"
				}
			],
			"devdoc": {
				"kind": "dev",
				"methods": {},
				"version": 1
			},
			"evm": {
				"assembly": "    /* \"crowfunding.sol\":92:2105  contract crowFunding{... */\n  mstore(0x40, 0x80)\n    /* \"crowfunding.sol\":264:265  0 */\n  0x00\n    /* \"crowfunding.sol\":243:265  uint proyectsCount = 0 */\n  dup1\n  sstore\n    /* \"crowfunding.sol\":92:2105  contract crowFunding{... */\n  callvalue\n  dup1\n  iszero\n  tag_1\n  jumpi\n  0x00\n  dup1\n  revert\ntag_1:\n  pop\n  dataSize(sub_0)\n  dup1\n  dataOffset(sub_0)\n  0x00\n  codecopy\n  0x00\n  return\nstop\n\nsub_0: assembly {\n        /* \"crowfunding.sol\":92:2105  contract crowFunding{... */\n      mstore(0x40, 0x80)\n      callvalue\n      dup1\n      iszero\n      tag_1\n      jumpi\n      0x00\n      dup1\n      revert\n    tag_1:\n      pop\n      jumpi(tag_2, lt(calldatasize, 0x04))\n      shr(0xe0, calldataload(0x00))\n      dup1\n      0x0eda4e68\n      eq\n      tag_3\n      jumpi\n      dup1\n      0x50b581f5\n      eq\n      tag_4\n      jumpi\n      dup1\n      0xa5db748d\n      eq\n      tag_5\n      jumpi\n      dup1\n      0xcb42bbf8\n      eq\n      tag_6\n      jumpi\n      dup1\n      0xec8de889\n      eq\n      tag_7\n      jumpi\n    tag_2:\n      0x00\n      dup1\n      revert\n        /* \"crowfunding.sol\":1365:1633  function fundProyect(string memory _name, uint _amount) public{... */\n    tag_3:\n      tag_8\n      0x04\n      dup1\n      calldatasize\n      sub\n      dup2\n      add\n      swap1\n      tag_9\n      swap2\n      swap1\n      tag_10\n      jump\t// in\n    tag_9:\n      tag_11\n      jump\t// in\n    tag_8:\n      stop\n        /* \"crowfunding.sol\":1053:1318  function amountToReachTarget(string memory _name) public view returns (uint) {... */\n    tag_4:\n      tag_12\n      0x04\n      dup1\n      calldatasize\n      sub\n      dup2\n      add\n      swap1\n      tag_13\n      swap2\n      swap1\n      tag_14\n      jump\t// in\n    tag_13:\n      tag_15\n      jump\t// in\n    tag_12:\n      mload(0x40)\n      tag_16\n      swap2\n      swap1\n      tag_17\n      jump\t// in\n    tag_16:\n      mload(0x40)\n      dup1\n      swap2\n      sub\n      swap1\n      return\n        /* \"crowfunding.sol\":496:734  function newProyect(string memory _name, uint _target) public{... */\n    tag_5:\n      tag_18\n      0x04\n      dup1\n      calldatasize\n      sub\n      dup2\n      add\n      swap1\n      tag_19\n      swap2\n      swap1\n      tag_10\n      jump\t// in\n    tag_19:\n      tag_20\n      jump\t// in\n    tag_18:\n      stop\n        /* \"crowfunding.sol\":1688:1970  function proyectInfo(string memory _name) public view returns(bytes32, uint, uint){... */\n    tag_6:\n      tag_21\n      0x04\n      dup1\n      calldatasize\n      sub\n      dup2\n      add\n      swap1\n      tag_22\n      swap2\n      swap1\n      tag_14\n      jump\t// in\n    tag_22:\n      tag_23\n      jump\t// in\n    tag_21:\n      mload(0x40)\n      tag_24\n      swap4\n      swap3\n      swap2\n      swap1\n      tag_25\n      jump\t// in\n    tag_24:\n      mload(0x40)\n      dup1\n      swap2\n      sub\n      swap1\n      return\n        /* \"crowfunding.sol\":2006:2096  function getProyectsCount() public view returns(uint){... */\n    tag_7:\n      tag_26\n      tag_27\n      jump\t// in\n    tag_26:\n      mload(0x40)\n      tag_28\n      swap2\n      swap1\n      tag_17\n      jump\t// in\n    tag_28:\n      mload(0x40)\n      dup1\n      swap2\n      sub\n      swap1\n      return\n        /* \"crowfunding.sol\":1365:1633  function fundProyect(string memory _name, uint _amount) public{... */\n    tag_11:\n        /* \"crowfunding.sol\":1467:1468  0 */\n      0x00\n        /* \"crowfunding.sol\":1445:1468  proyects[_name].Id != 0 */\n      dup1\n      shl\n        /* \"crowfunding.sol\":1445:1453  proyects */\n      0x01\n        /* \"crowfunding.sol\":1454:1459  _name */\n      dup4\n        /* \"crowfunding.sol\":1445:1460  proyects[_name] */\n      mload(0x40)\n      tag_30\n      swap2\n      swap1\n      tag_31\n      jump\t// in\n    tag_30:\n      swap1\n      dup2\n      mstore\n      0x20\n      add\n      mload(0x40)\n      dup1\n      swap2\n      sub\n      swap1\n      keccak256\n        /* \"crowfunding.sol\":1445:1463  proyects[_name].Id */\n      0x00\n      add\n      sload\n        /* \"crowfunding.sol\":1445:1468  proyects[_name].Id != 0 */\n      sub\n        /* \"crowfunding.sol\":1437:1495  require(proyects[_name].Id != 0, \"Project doesn't exists\") */\n      tag_32\n      jumpi\n      mload(0x40)\n      0x08c379a000000000000000000000000000000000000000000000000000000000\n      dup2\n      mstore\n      0x04\n      add\n      tag_33\n      swap1\n      tag_34\n      jump\t// in\n    tag_33:\n      mload(0x40)\n      dup1\n      swap2\n      sub\n      swap1\n      revert\n    tag_32:\n        /* \"crowfunding.sol\":1514:1549  targetAmountReached(_name, _amount) */\n      tag_35\n        /* \"crowfunding.sol\":1534:1539  _name */\n      dup3\n        /* \"crowfunding.sol\":1541:1548  _amount */\n      dup3\n        /* \"crowfunding.sol\":1514:1533  targetAmountReached */\n      tag_36\n        /* \"crowfunding.sol\":1514:1549  targetAmountReached(_name, _amount) */\n      jump\t// in\n    tag_35:\n        /* \"crowfunding.sol\":1513:1549  !targetAmountReached(_name, _amount) */\n      iszero\n        /* \"crowfunding.sol\":1505:1574  require(!targetAmountReached(_name, _amount),\"TARGET AMOUNT REACHED\") */\n      tag_37\n      jumpi\n      mload(0x40)\n      0x08c379a000000000000000000000000000000000000000000000000000000000\n      dup2\n      mstore\n      0x04\n      add\n      tag_38\n      swap1\n      tag_39\n      jump\t// in\n    tag_38:\n      mload(0x40)\n      dup1\n      swap2\n      sub\n      swap1\n      revert\n    tag_37:\n        /* \"crowfunding.sol\":1619:1626  _amount */\n      dup1\n        /* \"crowfunding.sol\":1584:1592  proyects */\n      0x01\n        /* \"crowfunding.sol\":1593:1598  _name */\n      dup4\n        /* \"crowfunding.sol\":1584:1599  proyects[_name] */\n      mload(0x40)\n      tag_40\n      swap2\n      swap1\n      tag_31\n      jump\t// in\n    tag_40:\n      swap1\n      dup2\n      mstore\n      0x20\n      add\n      mload(0x40)\n      dup1\n      swap2\n      sub\n      swap1\n      keccak256\n        /* \"crowfunding.sol\":1584:1615  proyects[_name].collectedAmount */\n      0x03\n      add\n      0x00\n        /* \"crowfunding.sol\":1584:1626  proyects[_name].collectedAmount += _amount */\n      dup3\n      dup3\n      sload\n      tag_41\n      swap2\n      swap1\n      tag_42\n      jump\t// in\n    tag_41:\n      swap3\n      pop\n      pop\n      dup2\n      swap1\n      sstore\n      pop\n        /* \"crowfunding.sol\":1365:1633  function fundProyect(string memory _name, uint _amount) public{... */\n      pop\n      pop\n      jump\t// out\n        /* \"crowfunding.sol\":1053:1318  function amountToReachTarget(string memory _name) public view returns (uint) {... */\n    tag_15:\n        /* \"crowfunding.sol\":1124:1128  uint */\n      0x00\n        /* \"crowfunding.sol\":1170:1171  0 */\n      dup1\n        /* \"crowfunding.sol\":1148:1171  proyects[_name].Id != 0 */\n      0x00\n      shl\n        /* \"crowfunding.sol\":1148:1156  proyects */\n      0x01\n        /* \"crowfunding.sol\":1157:1162  _name */\n      dup4\n        /* \"crowfunding.sol\":1148:1163  proyects[_name] */\n      mload(0x40)\n      tag_44\n      swap2\n      swap1\n      tag_31\n      jump\t// in\n    tag_44:\n      swap1\n      dup2\n      mstore\n      0x20\n      add\n      mload(0x40)\n      dup1\n      swap2\n      sub\n      swap1\n      keccak256\n        /* \"crowfunding.sol\":1148:1166  proyects[_name].Id */\n      0x00\n      add\n      sload\n        /* \"crowfunding.sol\":1148:1171  proyects[_name].Id != 0 */\n      sub\n        /* \"crowfunding.sol\":1140:1198  require(proyects[_name].Id != 0, \"Project doesn't exists\") */\n      tag_45\n      jumpi\n      mload(0x40)\n      0x08c379a000000000000000000000000000000000000000000000000000000000\n      dup2\n      mstore\n      0x04\n      add\n      tag_46\n      swap1\n      tag_34\n      jump\t// in\n    tag_46:\n      mload(0x40)\n      dup1\n      swap2\n      sub\n      swap1\n      revert\n    tag_45:\n        /* \"crowfunding.sol\":1208:1230  Proyect memory proyect */\n      0x00\n        /* \"crowfunding.sol\":1233:1241  proyects */\n      0x01\n        /* \"crowfunding.sol\":1242:1247  _name */\n      dup4\n        /* \"crowfunding.sol\":1233:1248  proyects[_name] */\n      mload(0x40)\n      tag_47\n      swap2\n      swap1\n      tag_31\n      jump\t// in\n    tag_47:\n      swap1\n      dup2\n      mstore\n      0x20\n      add\n      mload(0x40)\n      dup1\n      swap2\n      sub\n      swap1\n      keccak256\n        /* \"crowfunding.sol\":1208:1248  Proyect memory proyect = proyects[_name] */\n      mload(0x40)\n      dup1\n      0x80\n      add\n      0x40\n      mstore\n      swap1\n      dup2\n      0x00\n      dup3\n      add\n      sload\n      dup2\n      mstore\n      0x20\n      add\n      0x01\n      dup3\n      add\n      dup1\n      sload\n      tag_48\n      swap1\n      tag_49\n      jump\t// in\n    tag_48:\n      dup1\n      0x1f\n      add\n      0x20\n      dup1\n      swap2\n      div\n      mul\n      0x20\n      add\n      mload(0x40)\n      swap1\n      dup2\n      add\n      0x40\n      mstore\n      dup1\n      swap3\n      swap2\n      swap1\n      dup2\n      dup2\n      mstore\n      0x20\n      add\n      dup3\n      dup1\n      sload\n      tag_50\n      swap1\n      tag_49\n      jump\t// in\n    tag_50:\n      dup1\n      iszero\n      tag_51\n      jumpi\n      dup1\n      0x1f\n      lt\n      tag_52\n      jumpi\n      0x0100\n      dup1\n      dup4\n      sload\n      div\n      mul\n      dup4\n      mstore\n      swap2\n      0x20\n      add\n      swap2\n      jump(tag_51)\n    tag_52:\n      dup3\n      add\n      swap2\n      swap1\n      0x00\n      mstore\n      keccak256(0x00, 0x20)\n      swap1\n    tag_53:\n      dup2\n      sload\n      dup2\n      mstore\n      swap1\n      0x01\n      add\n      swap1\n      0x20\n      add\n      dup1\n      dup4\n      gt\n      tag_53\n      jumpi\n      dup3\n      swap1\n      sub\n      0x1f\n      and\n      dup3\n      add\n      swap2\n    tag_51:\n      pop\n      pop\n      pop\n      pop\n      pop\n      dup2\n      mstore\n      0x20\n      add\n      0x02\n      dup3\n      add\n      sload\n      dup2\n      mstore\n      0x20\n      add\n      0x03\n      dup3\n      add\n      sload\n      dup2\n      mstore\n      pop\n      pop\n      swap1\n      pop\n        /* \"crowfunding.sol\":1288:1295  proyect */\n      dup1\n        /* \"crowfunding.sol\":1288:1311  proyect.collectedAmount */\n      0x60\n      add\n      mload\n        /* \"crowfunding.sol\":1265:1272  proyect */\n      dup2\n        /* \"crowfunding.sol\":1265:1285  proyect.targetAmount */\n      0x40\n      add\n      mload\n        /* \"crowfunding.sol\":1265:1311  proyect.targetAmount - proyect.collectedAmount */\n      tag_54\n      swap2\n      swap1\n      tag_55\n      jump\t// in\n    tag_54:\n        /* \"crowfunding.sol\":1258:1311  return proyect.targetAmount - proyect.collectedAmount */\n      swap2\n      pop\n      pop\n        /* \"crowfunding.sol\":1053:1318  function amountToReachTarget(string memory _name) public view returns (uint) {... */\n      swap2\n      swap1\n      pop\n      jump\t// out\n        /* \"crowfunding.sol\":496:734  function newProyect(string memory _name, uint _target) public{... */\n    tag_20:\n        /* \"crowfunding.sol\":597:598  0 */\n      0x00\n        /* \"crowfunding.sol\":575:598  proyects[_name].Id == 0 */\n      dup1\n      shl\n        /* \"crowfunding.sol\":575:583  proyects */\n      0x01\n        /* \"crowfunding.sol\":584:589  _name */\n      dup4\n        /* \"crowfunding.sol\":575:590  proyects[_name] */\n      mload(0x40)\n      tag_57\n      swap2\n      swap1\n      tag_31\n      jump\t// in\n    tag_57:\n      swap1\n      dup2\n      mstore\n      0x20\n      add\n      mload(0x40)\n      dup1\n      swap2\n      sub\n      swap1\n      keccak256\n        /* \"crowfunding.sol\":575:593  proyects[_name].Id */\n      0x00\n      add\n      sload\n        /* \"crowfunding.sol\":575:598  proyects[_name].Id == 0 */\n      eq\n        /* \"crowfunding.sol\":567:640  require(proyects[_name].Id == 0, \"Project with this name already exists\") */\n      tag_58\n      jumpi\n      mload(0x40)\n      0x08c379a000000000000000000000000000000000000000000000000000000000\n      dup2\n      mstore\n      0x04\n      add\n      tag_59\n      swap1\n      tag_60\n      jump\t// in\n    tag_59:\n      mload(0x40)\n      dup1\n      swap2\n      sub\n      swap1\n      revert\n    tag_58:\n        /* \"crowfunding.sol\":650:663  proyectsCount */\n      0x00\n      dup1\n        /* \"crowfunding.sol\":650:665  proyectsCount++ */\n      dup2\n      sload\n      dup1\n      swap3\n      swap2\n      swap1\n      tag_61\n      swap1\n      tag_62\n      jump\t// in\n    tag_61:\n      swap2\n      swap1\n      pop\n      sstore\n      pop\n        /* \"crowfunding.sol\":693:727  Proyect(giveID(),_name,_target, 0) */\n      mload(0x40)\n      dup1\n      0x80\n      add\n      0x40\n      mstore\n      dup1\n        /* \"crowfunding.sol\":701:709  giveID() */\n      tag_63\n        /* \"crowfunding.sol\":701:707  giveID */\n      tag_64\n        /* \"crowfunding.sol\":701:709  giveID() */\n      jump\t// in\n    tag_63:\n        /* \"crowfunding.sol\":693:727  Proyect(giveID(),_name,_target, 0) */\n      dup2\n      mstore\n      0x20\n      add\n        /* \"crowfunding.sol\":710:715  _name */\n      dup4\n        /* \"crowfunding.sol\":693:727  Proyect(giveID(),_name,_target, 0) */\n      dup2\n      mstore\n      0x20\n      add\n        /* \"crowfunding.sol\":716:723  _target */\n      dup3\n        /* \"crowfunding.sol\":693:727  Proyect(giveID(),_name,_target, 0) */\n      dup2\n      mstore\n      0x20\n      add\n        /* \"crowfunding.sol\":725:726  0 */\n      0x00\n        /* \"crowfunding.sol\":693:727  Proyect(giveID(),_name,_target, 0) */\n      dup2\n      mstore\n      pop\n        /* \"crowfunding.sol\":675:683  proyects */\n      0x01\n        /* \"crowfunding.sol\":684:689  _name */\n      dup4\n        /* \"crowfunding.sol\":675:690  proyects[_name] */\n      mload(0x40)\n      tag_65\n      swap2\n      swap1\n      tag_31\n      jump\t// in\n    tag_65:\n      swap1\n      dup2\n      mstore\n      0x20\n      add\n      mload(0x40)\n      dup1\n      swap2\n      sub\n      swap1\n      keccak256\n        /* \"crowfunding.sol\":675:727  proyects[_name] = Proyect(giveID(),_name,_target, 0) */\n      0x00\n      dup3\n      add\n      mload\n      dup2\n      0x00\n      add\n      sstore\n      0x20\n      dup3\n      add\n      mload\n      dup2\n      0x01\n      add\n      swap1\n      dup2\n      tag_66\n      swap2\n      swap1\n      tag_67\n      jump\t// in\n    tag_66:\n      pop\n      0x40\n      dup3\n      add\n      mload\n      dup2\n      0x02\n      add\n      sstore\n      0x60\n      dup3\n      add\n      mload\n      dup2\n      0x03\n      add\n      sstore\n      swap1\n      pop\n      pop\n        /* \"crowfunding.sol\":496:734  function newProyect(string memory _name, uint _target) public{... */\n      pop\n      pop\n      jump\t// out\n        /* \"crowfunding.sol\":1688:1970  function proyectInfo(string memory _name) public view returns(bytes32, uint, uint){... */\n    tag_23:\n        /* \"crowfunding.sol\":1750:1757  bytes32 */\n      0x00\n        /* \"crowfunding.sol\":1759:1763  uint */\n      dup1\n        /* \"crowfunding.sol\":1765:1769  uint */\n      0x00\n        /* \"crowfunding.sol\":1810:1811  0 */\n      dup1\n        /* \"crowfunding.sol\":1788:1811  proyects[_name].Id != 0 */\n      0x00\n      shl\n        /* \"crowfunding.sol\":1788:1796  proyects */\n      0x01\n        /* \"crowfunding.sol\":1797:1802  _name */\n      dup6\n        /* \"crowfunding.sol\":1788:1803  proyects[_name] */\n      mload(0x40)\n      tag_69\n      swap2\n      swap1\n      tag_31\n      jump\t// in\n    tag_69:\n      swap1\n      dup2\n      mstore\n      0x20\n      add\n      mload(0x40)\n      dup1\n      swap2\n      sub\n      swap1\n      keccak256\n        /* \"crowfunding.sol\":1788:1806  proyects[_name].Id */\n      0x00\n      add\n      sload\n        /* \"crowfunding.sol\":1788:1811  proyects[_name].Id != 0 */\n      sub\n        /* \"crowfunding.sol\":1780:1838  require(proyects[_name].Id != 0, \"Project doesn't exists\") */\n      tag_70\n      jumpi\n      mload(0x40)\n      0x08c379a000000000000000000000000000000000000000000000000000000000\n      dup2\n      mstore\n      0x04\n      add\n      tag_71\n      swap1\n      tag_34\n      jump\t// in\n    tag_71:\n      mload(0x40)\n      dup1\n      swap2\n      sub\n      swap1\n      revert\n    tag_70:\n        /* \"crowfunding.sol\":1848:1870  Proyect memory proyect */\n      0x00\n        /* \"crowfunding.sol\":1873:1881  proyects */\n      0x01\n        /* \"crowfunding.sol\":1882:1887  _name */\n      dup6\n        /* \"crowfunding.sol\":1873:1888  proyects[_name] */\n      mload(0x40)\n      tag_72\n      swap2\n      swap1\n      tag_31\n      jump\t// in\n    tag_72:\n      swap1\n      dup2\n      mstore\n      0x20\n      add\n      mload(0x40)\n      dup1\n      swap2\n      sub\n      swap1\n      keccak256\n        /* \"crowfunding.sol\":1848:1888  Proyect memory proyect = proyects[_name] */\n      mload(0x40)\n      dup1\n      0x80\n      add\n      0x40\n      mstore\n      swap1\n      dup2\n      0x00\n      dup3\n      add\n      sload\n      dup2\n      mstore\n      0x20\n      add\n      0x01\n      dup3\n      add\n      dup1\n      sload\n      tag_73\n      swap1\n      tag_49\n      jump\t// in\n    tag_73:\n      dup1\n      0x1f\n      add\n      0x20\n      dup1\n      swap2\n      div\n      mul\n      0x20\n      add\n      mload(0x40)\n      swap1\n      dup2\n      add\n      0x40\n      mstore\n      dup1\n      swap3\n      swap2\n      swap1\n      dup2\n      dup2\n      mstore\n      0x20\n      add\n      dup3\n      dup1\n      sload\n      tag_74\n      swap1\n      tag_49\n      jump\t// in\n    tag_74:\n      dup1\n      iszero\n      tag_75\n      jumpi\n      dup1\n      0x1f\n      lt\n      tag_76\n      jumpi\n      0x0100\n      dup1\n      dup4\n      sload\n      div\n      mul\n      dup4\n      mstore\n      swap2\n      0x20\n      add\n      swap2\n      jump(tag_75)\n    tag_76:\n      dup3\n      add\n      swap2\n      swap1\n      0x00\n      mstore\n      keccak256(0x00, 0x20)\n      swap1\n    tag_77:\n      dup2\n      sload\n      dup2\n      mstore\n      swap1\n      0x01\n      add\n      swap1\n      0x20\n      add\n      dup1\n      dup4\n      gt\n      tag_77\n      jumpi\n      dup3\n      swap1\n      sub\n      0x1f\n      and\n      dup3\n      add\n      swap2\n    tag_75:\n      pop\n      pop\n      pop\n      pop\n      pop\n      dup2\n      mstore\n      0x20\n      add\n      0x02\n      dup3\n      add\n      sload\n      dup2\n      mstore\n      0x20\n      add\n      0x03\n      dup3\n      add\n      sload\n      dup2\n      mstore\n      pop\n      pop\n      swap1\n      pop\n        /* \"crowfunding.sol\":1906:1913  proyect */\n      dup1\n        /* \"crowfunding.sol\":1906:1916  proyect.Id */\n      0x00\n      add\n      mload\n        /* \"crowfunding.sol\":1917:1924  proyect */\n      dup2\n        /* \"crowfunding.sol\":1917:1937  proyect.targetAmount */\n      0x40\n      add\n      mload\n        /* \"crowfunding.sol\":1938:1945  proyect */\n      dup3\n        /* \"crowfunding.sol\":1938:1961  proyect.collectedAmount */\n      0x60\n      add\n      mload\n        /* \"crowfunding.sol\":1898:1962  return (proyect.Id,proyect.targetAmount,proyect.collectedAmount) */\n      swap4\n      pop\n      swap4\n      pop\n      swap4\n      pop\n      pop\n        /* \"crowfunding.sol\":1688:1970  function proyectInfo(string memory _name) public view returns(bytes32, uint, uint){... */\n      swap2\n      swap4\n      swap1\n      swap3\n      pop\n      jump\t// out\n        /* \"crowfunding.sol\":2006:2096  function getProyectsCount() public view returns(uint){... */\n    tag_27:\n        /* \"crowfunding.sol\":2054:2058  uint */\n      0x00\n        /* \"crowfunding.sol\":2076:2089  proyectsCount */\n      dup1\n      sload\n        /* \"crowfunding.sol\":2069:2089  return proyectsCount */\n      swap1\n      pop\n        /* \"crowfunding.sol\":2006:2096  function getProyectsCount() public view returns(uint){... */\n      swap1\n      jump\t// out\n        /* \"crowfunding.sol\":783:1005  function targetAmountReached(string memory _name, uint _amount) private view returns (bool) {... */\n    tag_36:\n        /* \"crowfunding.sol\":869:873  bool */\n      0x00\n        /* \"crowfunding.sol\":885:907  Proyect memory proyect */\n      dup1\n        /* \"crowfunding.sol\":910:918  proyects */\n      0x01\n        /* \"crowfunding.sol\":919:924  _name */\n      dup5\n        /* \"crowfunding.sol\":910:925  proyects[_name] */\n      mload(0x40)\n      tag_80\n      swap2\n      swap1\n      tag_31\n      jump\t// in\n    tag_80:\n      swap1\n      dup2\n      mstore\n      0x20\n      add\n      mload(0x40)\n      dup1\n      swap2\n      sub\n      swap1\n      keccak256\n        /* \"crowfunding.sol\":885:925  Proyect memory proyect = proyects[_name] */\n      mload(0x40)\n      dup1\n      0x80\n      add\n      0x40\n      mstore\n      swap1\n      dup2\n      0x00\n      dup3\n      add\n      sload\n      dup2\n      mstore\n      0x20\n      add\n      0x01\n      dup3\n      add\n      dup1\n      sload\n      tag_81\n      swap1\n      tag_49\n      jump\t// in\n    tag_81:\n      dup1\n      0x1f\n      add\n      0x20\n      dup1\n      swap2\n      div\n      mul\n      0x20\n      add\n      mload(0x40)\n      swap1\n      dup2\n      add\n      0x40\n      mstore\n      dup1\n      swap3\n      swap2\n      swap1\n      dup2\n      dup2\n      mstore\n      0x20\n      add\n      dup3\n      dup1\n      sload\n      tag_82\n      swap1\n      tag_49\n      jump\t// in\n    tag_82:\n      dup1\n      iszero\n      tag_83\n      jumpi\n      dup1\n      0x1f\n      lt\n      tag_84\n      jumpi\n      0x0100\n      dup1\n      dup4\n      sload\n      div\n      mul\n      dup4\n      mstore\n      swap2\n      0x20\n      add\n      swap2\n      jump(tag_83)\n    tag_84:\n      dup3\n      add\n      swap2\n      swap1\n      0x00\n      mstore\n      keccak256(0x00, 0x20)\n      swap1\n    tag_85:\n      dup2\n      sload\n      dup2\n      mstore\n      swap1\n      0x01\n      add\n      swap1\n      0x20\n      add\n      dup1\n      dup4\n      gt\n      tag_85\n      jumpi\n      dup3\n      swap1\n      sub\n      0x1f\n      and\n      dup3\n      add\n      swap2\n    tag_83:\n      pop\n      pop\n      pop\n      pop\n      pop\n      dup2\n      mstore\n      0x20\n      add\n      0x02\n      dup3\n      add\n      sload\n      dup2\n      mstore\n      0x20\n      add\n      0x03\n      dup3\n      add\n      sload\n      dup2\n      mstore\n      pop\n      pop\n      swap1\n      pop\n        /* \"crowfunding.sol\":991:998  _amount */\n      dup3\n        /* \"crowfunding.sol\":965:972  proyect */\n      dup2\n        /* \"crowfunding.sol\":965:988  proyect.collectedAmount */\n      0x60\n      add\n      mload\n        /* \"crowfunding.sol\":965:998  proyect.collectedAmount + _amount */\n      tag_86\n      swap2\n      swap1\n      tag_42\n      jump\t// in\n    tag_86:\n        /* \"crowfunding.sol\":942:949  proyect */\n      dup2\n        /* \"crowfunding.sol\":942:962  proyect.targetAmount */\n      0x40\n      add\n      mload\n        /* \"crowfunding.sol\":942:998  proyect.targetAmount < proyect.collectedAmount + _amount */\n      lt\n        /* \"crowfunding.sol\":935:998  return proyect.targetAmount < proyect.collectedAmount + _amount */\n      swap2\n      pop\n      pop\n        /* \"crowfunding.sol\":783:1005  function targetAmountReached(string memory _name, uint _amount) private view returns (bool) {... */\n      swap3\n      swap2\n      pop\n      pop\n      jump\t// out\n        /* \"crowfunding.sol\":314:453  function giveID() private view returns(bytes32){... */\n    tag_64:\n        /* \"crowfunding.sol\":353:360  bytes32 */\n      0x00\n        /* \"crowfunding.sol\":405:420  block.timestamp */\n      timestamp\n        /* \"crowfunding.sol\":421:431  msg.sender */\n      caller\n        /* \"crowfunding.sol\":432:444  block.number */\n      number\n        /* \"crowfunding.sol\":388:445  abi.encodePacked(block.timestamp,msg.sender,block.number) */\n      add(0x20, mload(0x40))\n      tag_88\n      swap4\n      swap3\n      swap2\n      swap1\n      tag_89\n      jump\t// in\n    tag_88:\n      mload(0x40)\n      0x20\n      dup2\n      dup4\n      sub\n      sub\n      dup2\n      mstore\n      swap1\n      0x40\n      mstore\n        /* \"crowfunding.sol\":378:446  keccak256(abi.encodePacked(block.timestamp,msg.sender,block.number)) */\n      dup1\n      mload\n      swap1\n      0x20\n      add\n      keccak256\n        /* \"crowfunding.sol\":371:446  return keccak256(abi.encodePacked(block.timestamp,msg.sender,block.number)) */\n      swap1\n      pop\n        /* \"crowfunding.sol\":314:453  function giveID() private view returns(bytes32){... */\n      swap1\n      jump\t// out\n        /* \"#utility.yul\":7:82   */\n    tag_90:\n        /* \"#utility.yul\":40:46   */\n      0x00\n        /* \"#utility.yul\":73:75   */\n      0x40\n        /* \"#utility.yul\":67:76   */\n      mload\n        /* \"#utility.yul\":57:76   */\n      swap1\n      pop\n        /* \"#utility.yul\":7:82   */\n      swap1\n      jump\t// out\n        /* \"#utility.yul\":88:205   */\n    tag_91:\n        /* \"#utility.yul\":197:198   */\n      0x00\n        /* \"#utility.yul\":194:195   */\n      dup1\n        /* \"#utility.yul\":187:199   */\n      revert\n        /* \"#utility.yul\":211:328   */\n    tag_92:\n        /* \"#utility.yul\":320:321   */\n      0x00\n        /* \"#utility.yul\":317:318   */\n      dup1\n        /* \"#utility.yul\":310:322   */\n      revert\n        /* \"#utility.yul\":334:451   */\n    tag_93:\n        /* \"#utility.yul\":443:444   */\n      0x00\n        /* \"#utility.yul\":440:441   */\n      dup1\n        /* \"#utility.yul\":433:445   */\n      revert\n        /* \"#utility.yul\":457:574   */\n    tag_94:\n        /* \"#utility.yul\":566:567   */\n      0x00\n        /* \"#utility.yul\":563:564   */\n      dup1\n        /* \"#utility.yul\":556:568   */\n      revert\n        /* \"#utility.yul\":580:682   */\n    tag_95:\n        /* \"#utility.yul\":621:627   */\n      0x00\n        /* \"#utility.yul\":672:674   */\n      0x1f\n        /* \"#utility.yul\":668:675   */\n      not\n        /* \"#utility.yul\":663:665   */\n      0x1f\n        /* \"#utility.yul\":656:661   */\n      dup4\n        /* \"#utility.yul\":652:666   */\n      add\n        /* \"#utility.yul\":648:676   */\n      and\n        /* \"#utility.yul\":638:676   */\n      swap1\n      pop\n        /* \"#utility.yul\":580:682   */\n      swap2\n      swap1\n      pop\n      jump\t// out\n        /* \"#utility.yul\":688:868   */\n    tag_96:\n        /* \"#utility.yul\":736:813   */\n      0x4e487b7100000000000000000000000000000000000000000000000000000000\n        /* \"#utility.yul\":733:734   */\n      0x00\n        /* \"#utility.yul\":726:814   */\n      mstore\n        /* \"#utility.yul\":833:837   */\n      0x41\n        /* \"#utility.yul\":830:831   */\n      0x04\n        /* \"#utility.yul\":823:838   */\n      mstore\n        /* \"#utility.yul\":857:861   */\n      0x24\n        /* \"#utility.yul\":854:855   */\n      0x00\n        /* \"#utility.yul\":847:862   */\n      revert\n        /* \"#utility.yul\":874:1155   */\n    tag_97:\n        /* \"#utility.yul\":957:984   */\n      tag_154\n        /* \"#utility.yul\":979:983   */\n      dup3\n        /* \"#utility.yul\":957:984   */\n      tag_95\n      jump\t// in\n    tag_154:\n        /* \"#utility.yul\":949:955   */\n      dup2\n        /* \"#utility.yul\":945:985   */\n      add\n        /* \"#utility.yul\":1087:1093   */\n      dup2\n        /* \"#utility.yul\":1075:1085   */\n      dup2\n        /* \"#utility.yul\":1072:1094   */\n      lt\n        /* \"#utility.yul\":1051:1069   */\n      0xffffffffffffffff\n        /* \"#utility.yul\":1039:1049   */\n      dup3\n        /* \"#utility.yul\":1036:1070   */\n      gt\n        /* \"#utility.yul\":1033:1095   */\n      or\n        /* \"#utility.yul\":1030:1118   */\n      iszero\n      tag_155\n      jumpi\n        /* \"#utility.yul\":1098:1116   */\n      tag_156\n      tag_96\n      jump\t// in\n    tag_156:\n        /* \"#utility.yul\":1030:1118   */\n    tag_155:\n        /* \"#utility.yul\":1138:1148   */\n      dup1\n        /* \"#utility.yul\":1134:1136   */\n      0x40\n        /* \"#utility.yul\":1127:1149   */\n      mstore\n        /* \"#utility.yul\":917:1155   */\n      pop\n        /* \"#utility.yul\":874:1155   */\n      pop\n      pop\n      jump\t// out\n        /* \"#utility.yul\":1161:1290   */\n    tag_98:\n        /* \"#utility.yul\":1195:1201   */\n      0x00\n        /* \"#utility.yul\":1222:1242   */\n      tag_158\n      tag_90\n      jump\t// in\n    tag_158:\n        /* \"#utility.yul\":1212:1242   */\n      swap1\n      pop\n        /* \"#utility.yul\":1251:1284   */\n      tag_159\n        /* \"#utility.yul\":1279:1283   */\n      dup3\n        /* \"#utility.yul\":1271:1277   */\n      dup3\n        /* \"#utility.yul\":1251:1284   */\n      tag_97\n      jump\t// in\n    tag_159:\n        /* \"#utility.yul\":1161:1290   */\n      swap2\n      swap1\n      pop\n      jump\t// out\n        /* \"#utility.yul\":1296:1604   */\n    tag_99:\n        /* \"#utility.yul\":1358:1362   */\n      0x00\n        /* \"#utility.yul\":1448:1466   */\n      0xffffffffffffffff\n        /* \"#utility.yul\":1440:1446   */\n      dup3\n        /* \"#utility.yul\":1437:1467   */\n      gt\n        /* \"#utility.yul\":1434:1490   */\n      iszero\n      tag_161\n      jumpi\n        /* \"#utility.yul\":1470:1488   */\n      tag_162\n      tag_96\n      jump\t// in\n    tag_162:\n        /* \"#utility.yul\":1434:1490   */\n    tag_161:\n        /* \"#utility.yul\":1508:1537   */\n      tag_163\n        /* \"#utility.yul\":1530:1536   */\n      dup3\n        /* \"#utility.yul\":1508:1537   */\n      tag_95\n      jump\t// in\n    tag_163:\n        /* \"#utility.yul\":1500:1537   */\n      swap1\n      pop\n        /* \"#utility.yul\":1592:1596   */\n      0x20\n        /* \"#utility.yul\":1586:1590   */\n      dup2\n        /* \"#utility.yul\":1582:1597   */\n      add\n        /* \"#utility.yul\":1574:1597   */\n      swap1\n      pop\n        /* \"#utility.yul\":1296:1604   */\n      swap2\n      swap1\n      pop\n      jump\t// out\n        /* \"#utility.yul\":1610:1756   */\n    tag_100:\n        /* \"#utility.yul\":1707:1713   */\n      dup3\n        /* \"#utility.yul\":1702:1705   */\n      dup2\n        /* \"#utility.yul\":1697:1700   */\n      dup4\n        /* \"#utility.yul\":1684:1714   */\n      calldatacopy\n        /* \"#utility.yul\":1748:1749   */\n      0x00\n        /* \"#utility.yul\":1739:1745   */\n      dup4\n        /* \"#utility.yul\":1734:1737   */\n      dup4\n        /* \"#utility.yul\":1730:1746   */\n      add\n        /* \"#utility.yul\":1723:1750   */\n      mstore\n        /* \"#utility.yul\":1610:1756   */\n      pop\n      pop\n      pop\n      jump\t// out\n        /* \"#utility.yul\":1762:2187   */\n    tag_101:\n        /* \"#utility.yul\":1840:1845   */\n      0x00\n        /* \"#utility.yul\":1865:1931   */\n      tag_166\n        /* \"#utility.yul\":1881:1930   */\n      tag_167\n        /* \"#utility.yul\":1923:1929   */\n      dup5\n        /* \"#utility.yul\":1881:1930   */\n      tag_99\n      jump\t// in\n    tag_167:\n        /* \"#utility.yul\":1865:1931   */\n      tag_98\n      jump\t// in\n    tag_166:\n        /* \"#utility.yul\":1856:1931   */\n      swap1\n      pop\n        /* \"#utility.yul\":1954:1960   */\n      dup3\n        /* \"#utility.yul\":1947:1952   */\n      dup2\n        /* \"#utility.yul\":1940:1961   */\n      mstore\n        /* \"#utility.yul\":1992:1996   */\n      0x20\n        /* \"#utility.yul\":1985:1990   */\n      dup2\n        /* \"#utility.yul\":1981:1997   */\n      add\n        /* \"#utility.yul\":2030:2033   */\n      dup5\n        /* \"#utility.yul\":2021:2027   */\n      dup5\n        /* \"#utility.yul\":2016:2019   */\n      dup5\n        /* \"#utility.yul\":2012:2028   */\n      add\n        /* \"#utility.yul\":2009:2034   */\n      gt\n        /* \"#utility.yul\":2006:2118   */\n      iszero\n      tag_168\n      jumpi\n        /* \"#utility.yul\":2037:2116   */\n      tag_169\n      tag_94\n      jump\t// in\n    tag_169:\n        /* \"#utility.yul\":2006:2118   */\n    tag_168:\n        /* \"#utility.yul\":2127:2181   */\n      tag_170\n        /* \"#utility.yul\":2174:2180   */\n      dup5\n        /* \"#utility.yul\":2169:2172   */\n      dup3\n        /* \"#utility.yul\":2164:2167   */\n      dup6\n        /* \"#utility.yul\":2127:2181   */\n      tag_100\n      jump\t// in\n    tag_170:\n        /* \"#utility.yul\":1846:2187   */\n      pop\n        /* \"#utility.yul\":1762:2187   */\n      swap4\n      swap3\n      pop\n      pop\n      pop\n      jump\t// out\n        /* \"#utility.yul\":2207:2547   */\n    tag_102:\n        /* \"#utility.yul\":2263:2268   */\n      0x00\n        /* \"#utility.yul\":2312:2315   */\n      dup3\n        /* \"#utility.yul\":2305:2309   */\n      0x1f\n        /* \"#utility.yul\":2297:2303   */\n      dup4\n        /* \"#utility.yul\":2293:2310   */\n      add\n        /* \"#utility.yul\":2289:2316   */\n      slt\n        /* \"#utility.yul\":2279:2401   */\n      tag_172\n      jumpi\n        /* \"#utility.yul\":2320:2399   */\n      tag_173\n      tag_93\n      jump\t// in\n    tag_173:\n        /* \"#utility.yul\":2279:2401   */\n    tag_172:\n        /* \"#utility.yul\":2437:2443   */\n      dup2\n        /* \"#utility.yul\":2424:2444   */\n      calldataload\n        /* \"#utility.yul\":2462:2541   */\n      tag_174\n        /* \"#utility.yul\":2537:2540   */\n      dup5\n        /* \"#utility.yul\":2529:2535   */\n      dup3\n        /* \"#utility.yul\":2522:2526   */\n      0x20\n        /* \"#utility.yul\":2514:2520   */\n      dup7\n        /* \"#utility.yul\":2510:2527   */\n      add\n        /* \"#utility.yul\":2462:2541   */\n      tag_101\n      jump\t// in\n    tag_174:\n        /* \"#utility.yul\":2453:2541   */\n      swap2\n      pop\n        /* \"#utility.yul\":2269:2547   */\n      pop\n        /* \"#utility.yul\":2207:2547   */\n      swap3\n      swap2\n      pop\n      pop\n      jump\t// out\n        /* \"#utility.yul\":2553:2630   */\n    tag_103:\n        /* \"#utility.yul\":2590:2597   */\n      0x00\n        /* \"#utility.yul\":2619:2624   */\n      dup2\n        /* \"#utility.yul\":2608:2624   */\n      swap1\n      pop\n        /* \"#utility.yul\":2553:2630   */\n      swap2\n      swap1\n      pop\n      jump\t// out\n        /* \"#utility.yul\":2636:2758   */\n    tag_104:\n        /* \"#utility.yul\":2709:2733   */\n      tag_177\n        /* \"#utility.yul\":2727:2732   */\n      dup2\n        /* \"#utility.yul\":2709:2733   */\n      tag_103\n      jump\t// in\n    tag_177:\n        /* \"#utility.yul\":2702:2707   */\n      dup2\n        /* \"#utility.yul\":2699:2734   */\n      eq\n        /* \"#utility.yul\":2689:2752   */\n      tag_178\n      jumpi\n        /* \"#utility.yul\":2748:2749   */\n      0x00\n        /* \"#utility.yul\":2745:2746   */\n      dup1\n        /* \"#utility.yul\":2738:2750   */\n      revert\n        /* \"#utility.yul\":2689:2752   */\n    tag_178:\n        /* \"#utility.yul\":2636:2758   */\n      pop\n      jump\t// out\n        /* \"#utility.yul\":2764:2903   */\n    tag_105:\n        /* \"#utility.yul\":2810:2815   */\n      0x00\n        /* \"#utility.yul\":2848:2854   */\n      dup2\n        /* \"#utility.yul\":2835:2855   */\n      calldataload\n        /* \"#utility.yul\":2826:2855   */\n      swap1\n      pop\n        /* \"#utility.yul\":2864:2897   */\n      tag_180\n        /* \"#utility.yul\":2891:2896   */\n      dup2\n        /* \"#utility.yul\":2864:2897   */\n      tag_104\n      jump\t// in\n    tag_180:\n        /* \"#utility.yul\":2764:2903   */\n      swap3\n      swap2\n      pop\n      pop\n      jump\t// out\n        /* \"#utility.yul\":2909:3563   */\n    tag_10:\n        /* \"#utility.yul\":2987:2993   */\n      0x00\n        /* \"#utility.yul\":2995:3001   */\n      dup1\n        /* \"#utility.yul\":3044:3046   */\n      0x40\n        /* \"#utility.yul\":3032:3041   */\n      dup4\n        /* \"#utility.yul\":3023:3030   */\n      dup6\n        /* \"#utility.yul\":3019:3042   */\n      sub\n        /* \"#utility.yul\":3015:3047   */\n      slt\n        /* \"#utility.yul\":3012:3131   */\n      iszero\n      tag_182\n      jumpi\n        /* \"#utility.yul\":3050:3129   */\n      tag_183\n      tag_91\n      jump\t// in\n    tag_183:\n        /* \"#utility.yul\":3012:3131   */\n    tag_182:\n        /* \"#utility.yul\":3198:3199   */\n      0x00\n        /* \"#utility.yul\":3187:3196   */\n      dup4\n        /* \"#utility.yul\":3183:3200   */\n      add\n        /* \"#utility.yul\":3170:3201   */\n      calldataload\n        /* \"#utility.yul\":3228:3246   */\n      0xffffffffffffffff\n        /* \"#utility.yul\":3220:3226   */\n      dup2\n        /* \"#utility.yul\":3217:3247   */\n      gt\n        /* \"#utility.yul\":3214:3331   */\n      iszero\n      tag_184\n      jumpi\n        /* \"#utility.yul\":3250:3329   */\n      tag_185\n      tag_92\n      jump\t// in\n    tag_185:\n        /* \"#utility.yul\":3214:3331   */\n    tag_184:\n        /* \"#utility.yul\":3355:3418   */\n      tag_186\n        /* \"#utility.yul\":3410:3417   */\n      dup6\n        /* \"#utility.yul\":3401:3407   */\n      dup3\n        /* \"#utility.yul\":3390:3399   */\n      dup7\n        /* \"#utility.yul\":3386:3408   */\n      add\n        /* \"#utility.yul\":3355:3418   */\n      tag_102\n      jump\t// in\n    tag_186:\n        /* \"#utility.yul\":3345:3418   */\n      swap3\n      pop\n        /* \"#utility.yul\":3141:3428   */\n      pop\n        /* \"#utility.yul\":3467:3469   */\n      0x20\n        /* \"#utility.yul\":3493:3546   */\n      tag_187\n        /* \"#utility.yul\":3538:3545   */\n      dup6\n        /* \"#utility.yul\":3529:3535   */\n      dup3\n        /* \"#utility.yul\":3518:3527   */\n      dup7\n        /* \"#utility.yul\":3514:3536   */\n      add\n        /* \"#utility.yul\":3493:3546   */\n      tag_105\n      jump\t// in\n    tag_187:\n        /* \"#utility.yul\":3483:3546   */\n      swap2\n      pop\n        /* \"#utility.yul\":3438:3556   */\n      pop\n        /* \"#utility.yul\":2909:3563   */\n      swap3\n      pop\n      swap3\n      swap1\n      pop\n      jump\t// out\n        /* \"#utility.yul\":3569:4078   */\n    tag_14:\n        /* \"#utility.yul\":3638:3644   */\n      0x00\n        /* \"#utility.yul\":3687:3689   */\n      0x20\n        /* \"#utility.yul\":3675:3684   */\n      dup3\n        /* \"#utility.yul\":3666:3673   */\n      dup5\n        /* \"#utility.yul\":3662:3685   */\n      sub\n        /* \"#utility.yul\":3658:3690   */\n      slt\n        /* \"#utility.yul\":3655:3774   */\n      iszero\n      tag_189\n      jumpi\n        /* \"#utility.yul\":3693:3772   */\n      tag_190\n      tag_91\n      jump\t// in\n    tag_190:\n        /* \"#utility.yul\":3655:3774   */\n    tag_189:\n        /* \"#utility.yul\":3841:3842   */\n      0x00\n        /* \"#utility.yul\":3830:3839   */\n      dup3\n        /* \"#utility.yul\":3826:3843   */\n      add\n        /* \"#utility.yul\":3813:3844   */\n      calldataload\n        /* \"#utility.yul\":3871:3889   */\n      0xffffffffffffffff\n        /* \"#utility.yul\":3863:3869   */\n      dup2\n        /* \"#utility.yul\":3860:3890   */\n      gt\n        /* \"#utility.yul\":3857:3974   */\n      iszero\n      tag_191\n      jumpi\n        /* \"#utility.yul\":3893:3972   */\n      tag_192\n      tag_92\n      jump\t// in\n    tag_192:\n        /* \"#utility.yul\":3857:3974   */\n    tag_191:\n        /* \"#utility.yul\":3998:4061   */\n      tag_193\n        /* \"#utility.yul\":4053:4060   */\n      dup5\n        /* \"#utility.yul\":4044:4050   */\n      dup3\n        /* \"#utility.yul\":4033:4042   */\n      dup6\n        /* \"#utility.yul\":4029:4051   */\n      add\n        /* \"#utility.yul\":3998:4061   */\n      tag_102\n      jump\t// in\n    tag_193:\n        /* \"#utility.yul\":3988:4061   */\n      swap2\n      pop\n        /* \"#utility.yul\":3784:4071   */\n      pop\n        /* \"#utility.yul\":3569:4078   */\n      swap3\n      swap2\n      pop\n      pop\n      jump\t// out\n        /* \"#utility.yul\":4084:4202   */\n    tag_106:\n        /* \"#utility.yul\":4171:4195   */\n      tag_195\n        /* \"#utility.yul\":4189:4194   */\n      dup2\n        /* \"#utility.yul\":4171:4195   */\n      tag_103\n      jump\t// in\n    tag_195:\n        /* \"#utility.yul\":4166:4169   */\n      dup3\n        /* \"#utility.yul\":4159:4196   */\n      mstore\n        /* \"#utility.yul\":4084:4202   */\n      pop\n      pop\n      jump\t// out\n        /* \"#utility.yul\":4208:4430   */\n    tag_17:\n        /* \"#utility.yul\":4301:4305   */\n      0x00\n        /* \"#utility.yul\":4339:4341   */\n      0x20\n        /* \"#utility.yul\":4328:4337   */\n      dup3\n        /* \"#utility.yul\":4324:4342   */\n      add\n        /* \"#utility.yul\":4316:4342   */\n      swap1\n      pop\n        /* \"#utility.yul\":4352:4423   */\n      tag_197\n        /* \"#utility.yul\":4420:4421   */\n      0x00\n        /* \"#utility.yul\":4409:4418   */\n      dup4\n        /* \"#utility.yul\":4405:4422   */\n      add\n        /* \"#utility.yul\":4396:4402   */\n      dup5\n        /* \"#utility.yul\":4352:4423   */\n      tag_106\n      jump\t// in\n    tag_197:\n        /* \"#utility.yul\":4208:4430   */\n      swap3\n      swap2\n      pop\n      pop\n      jump\t// out\n        /* \"#utility.yul\":4436:4513   */\n    tag_107:\n        /* \"#utility.yul\":4473:4480   */\n      0x00\n        /* \"#utility.yul\":4502:4507   */\n      dup2\n        /* \"#utility.yul\":4491:4507   */\n      swap1\n      pop\n        /* \"#utility.yul\":4436:4513   */\n      swap2\n      swap1\n      pop\n      jump\t// out\n        /* \"#utility.yul\":4519:4637   */\n    tag_108:\n        /* \"#utility.yul\":4606:4630   */\n      tag_200\n        /* \"#utility.yul\":4624:4629   */\n      dup2\n        /* \"#utility.yul\":4606:4630   */\n      tag_107\n      jump\t// in\n    tag_200:\n        /* \"#utility.yul\":4601:4604   */\n      dup3\n        /* \"#utility.yul\":4594:4631   */\n      mstore\n        /* \"#utility.yul\":4519:4637   */\n      pop\n      pop\n      jump\t// out\n        /* \"#utility.yul\":4643:5085   */\n    tag_25:\n        /* \"#utility.yul\":4792:4796   */\n      0x00\n        /* \"#utility.yul\":4830:4832   */\n      0x60\n        /* \"#utility.yul\":4819:4828   */\n      dup3\n        /* \"#utility.yul\":4815:4833   */\n      add\n        /* \"#utility.yul\":4807:4833   */\n      swap1\n      pop\n        /* \"#utility.yul\":4843:4914   */\n      tag_202\n        /* \"#utility.yul\":4911:4912   */\n      0x00\n        /* \"#utility.yul\":4900:4909   */\n      dup4\n        /* \"#utility.yul\":4896:4913   */\n      add\n        /* \"#utility.yul\":4887:4893   */\n      dup7\n        /* \"#utility.yul\":4843:4914   */\n      tag_108\n      jump\t// in\n    tag_202:\n        /* \"#utility.yul\":4924:4996   */\n      tag_203\n        /* \"#utility.yul\":4992:4994   */\n      0x20\n        /* \"#utility.yul\":4981:4990   */\n      dup4\n        /* \"#utility.yul\":4977:4995   */\n      add\n        /* \"#utility.yul\":4968:4974   */\n      dup6\n        /* \"#utility.yul\":4924:4996   */\n      tag_106\n      jump\t// in\n    tag_203:\n        /* \"#utility.yul\":5006:5078   */\n      tag_204\n        /* \"#utility.yul\":5074:5076   */\n      0x40\n        /* \"#utility.yul\":5063:5072   */\n      dup4\n        /* \"#utility.yul\":5059:5077   */\n      add\n        /* \"#utility.yul\":5050:5056   */\n      dup5\n        /* \"#utility.yul\":5006:5078   */\n      tag_106\n      jump\t// in\n    tag_204:\n        /* \"#utility.yul\":4643:5085   */\n      swap5\n      swap4\n      pop\n      pop\n      pop\n      pop\n      jump\t// out\n        /* \"#utility.yul\":5091:5190   */\n    tag_109:\n        /* \"#utility.yul\":5143:5149   */\n      0x00\n        /* \"#utility.yul\":5177:5182   */\n      dup2\n        /* \"#utility.yul\":5171:5183   */\n      mload\n        /* \"#utility.yul\":5161:5183   */\n      swap1\n      pop\n        /* \"#utility.yul\":5091:5190   */\n      swap2\n      swap1\n      pop\n      jump\t// out\n        /* \"#utility.yul\":5196:5344   */\n    tag_110:\n        /* \"#utility.yul\":5298:5309   */\n      0x00\n        /* \"#utility.yul\":5335:5338   */\n      dup2\n        /* \"#utility.yul\":5320:5338   */\n      swap1\n      pop\n        /* \"#utility.yul\":5196:5344   */\n      swap3\n      swap2\n      pop\n      pop\n      jump\t// out\n        /* \"#utility.yul\":5350:5596   */\n    tag_111:\n        /* \"#utility.yul\":5431:5432   */\n      0x00\n        /* \"#utility.yul\":5441:5554   */\n    tag_208:\n        /* \"#utility.yul\":5455:5461   */\n      dup4\n        /* \"#utility.yul\":5452:5453   */\n      dup2\n        /* \"#utility.yul\":5449:5462   */\n      lt\n        /* \"#utility.yul\":5441:5554   */\n      iszero\n      tag_210\n      jumpi\n        /* \"#utility.yul\":5540:5541   */\n      dup1\n        /* \"#utility.yul\":5535:5538   */\n      dup3\n        /* \"#utility.yul\":5531:5542   */\n      add\n        /* \"#utility.yul\":5525:5543   */\n      mload\n        /* \"#utility.yul\":5521:5522   */\n      dup2\n        /* \"#utility.yul\":5516:5519   */\n      dup5\n        /* \"#utility.yul\":5512:5523   */\n      add\n        /* \"#utility.yul\":5505:5544   */\n      mstore\n        /* \"#utility.yul\":5477:5479   */\n      0x20\n        /* \"#utility.yul\":5474:5475   */\n      dup2\n        /* \"#utility.yul\":5470:5480   */\n      add\n        /* \"#utility.yul\":5465:5480   */\n      swap1\n      pop\n        /* \"#utility.yul\":5441:5554   */\n      jump(tag_208)\n    tag_210:\n        /* \"#utility.yul\":5588:5589   */\n      0x00\n        /* \"#utility.yul\":5579:5585   */\n      dup5\n        /* \"#utility.yul\":5574:5577   */\n      dup5\n        /* \"#utility.yul\":5570:5586   */\n      add\n        /* \"#utility.yul\":5563:5590   */\n      mstore\n        /* \"#utility.yul\":5412:5596   */\n      pop\n        /* \"#utility.yul\":5350:5596   */\n      pop\n      pop\n      pop\n      jump\t// out\n        /* \"#utility.yul\":5602:5992   */\n    tag_112:\n        /* \"#utility.yul\":5708:5711   */\n      0x00\n        /* \"#utility.yul\":5736:5775   */\n      tag_212\n        /* \"#utility.yul\":5769:5774   */\n      dup3\n        /* \"#utility.yul\":5736:5775   */\n      tag_109\n      jump\t// in\n    tag_212:\n        /* \"#utility.yul\":5791:5880   */\n      tag_213\n        /* \"#utility.yul\":5873:5879   */\n      dup2\n        /* \"#utility.yul\":5868:5871   */\n      dup6\n        /* \"#utility.yul\":5791:5880   */\n      tag_110\n      jump\t// in\n    tag_213:\n        /* \"#utility.yul\":5784:5880   */\n      swap4\n      pop\n        /* \"#utility.yul\":5889:5954   */\n      tag_214\n        /* \"#utility.yul\":5947:5953   */\n      dup2\n        /* \"#utility.yul\":5942:5945   */\n      dup6\n        /* \"#utility.yul\":5935:5939   */\n      0x20\n        /* \"#utility.yul\":5928:5933   */\n      dup7\n        /* \"#utility.yul\":5924:5940   */\n      add\n        /* \"#utility.yul\":5889:5954   */\n      tag_111\n      jump\t// in\n    tag_214:\n        /* \"#utility.yul\":5979:5985   */\n      dup1\n        /* \"#utility.yul\":5974:5977   */\n      dup5\n        /* \"#utility.yul\":5970:5986   */\n      add\n        /* \"#utility.yul\":5963:5986   */\n      swap2\n      pop\n        /* \"#utility.yul\":5712:5992   */\n      pop\n        /* \"#utility.yul\":5602:5992   */\n      swap3\n      swap2\n      pop\n      pop\n      jump\t// out\n        /* \"#utility.yul\":5998:6273   */\n    tag_31:\n        /* \"#utility.yul\":6130:6133   */\n      0x00\n        /* \"#utility.yul\":6152:6247   */\n      tag_216\n        /* \"#utility.yul\":6243:6246   */\n      dup3\n        /* \"#utility.yul\":6234:6240   */\n      dup5\n        /* \"#utility.yul\":6152:6247   */\n      tag_112\n      jump\t// in\n    tag_216:\n        /* \"#utility.yul\":6145:6247   */\n      swap2\n      pop\n        /* \"#utility.yul\":6264:6267   */\n      dup2\n        /* \"#utility.yul\":6257:6267   */\n      swap1\n      pop\n        /* \"#utility.yul\":5998:6273   */\n      swap3\n      swap2\n      pop\n      pop\n      jump\t// out\n        /* \"#utility.yul\":6279:6448   */\n    tag_113:\n        /* \"#utility.yul\":6363:6374   */\n      0x00\n        /* \"#utility.yul\":6397:6403   */\n      dup3\n        /* \"#utility.yul\":6392:6395   */\n      dup3\n        /* \"#utility.yul\":6385:6404   */\n      mstore\n        /* \"#utility.yul\":6437:6441   */\n      0x20\n        /* \"#utility.yul\":6432:6435   */\n      dup3\n        /* \"#utility.yul\":6428:6442   */\n      add\n        /* \"#utility.yul\":6413:6442   */\n      swap1\n      pop\n        /* \"#utility.yul\":6279:6448   */\n      swap3\n      swap2\n      pop\n      pop\n      jump\t// out\n        /* \"#utility.yul\":6454:6626   */\n    tag_114:\n        /* \"#utility.yul\":6594:6618   */\n      0x50726f6a65637420646f65736e27742065786973747300000000000000000000\n        /* \"#utility.yul\":6590:6591   */\n      0x00\n        /* \"#utility.yul\":6582:6588   */\n      dup3\n        /* \"#utility.yul\":6578:6592   */\n      add\n        /* \"#utility.yul\":6571:6619   */\n      mstore\n        /* \"#utility.yul\":6454:6626   */\n      pop\n      jump\t// out\n        /* \"#utility.yul\":6632:6998   */\n    tag_115:\n        /* \"#utility.yul\":6774:6777   */\n      0x00\n        /* \"#utility.yul\":6795:6862   */\n      tag_220\n        /* \"#utility.yul\":6859:6861   */\n      0x16\n        /* \"#utility.yul\":6854:6857   */\n      dup4\n        /* \"#utility.yul\":6795:6862   */\n      tag_113\n      jump\t// in\n    tag_220:\n        /* \"#utility.yul\":6788:6862   */\n      swap2\n      pop\n        /* \"#utility.yul\":6871:6964   */\n      tag_221\n        /* \"#utility.yul\":6960:6963   */\n      dup3\n        /* \"#utility.yul\":6871:6964   */\n      tag_114\n      jump\t// in\n    tag_221:\n        /* \"#utility.yul\":6989:6991   */\n      0x20\n        /* \"#utility.yul\":6984:6987   */\n      dup3\n        /* \"#utility.yul\":6980:6992   */\n      add\n        /* \"#utility.yul\":6973:6992   */\n      swap1\n      pop\n        /* \"#utility.yul\":6632:6998   */\n      swap2\n      swap1\n      pop\n      jump\t// out\n        /* \"#utility.yul\":7004:7423   */\n    tag_34:\n        /* \"#utility.yul\":7170:7174   */\n      0x00\n        /* \"#utility.yul\":7208:7210   */\n      0x20\n        /* \"#utility.yul\":7197:7206   */\n      dup3\n        /* \"#utility.yul\":7193:7211   */\n      add\n        /* \"#utility.yul\":7185:7211   */\n      swap1\n      pop\n        /* \"#utility.yul\":7257:7266   */\n      dup2\n        /* \"#utility.yul\":7251:7255   */\n      dup2\n        /* \"#utility.yul\":7247:7267   */\n      sub\n        /* \"#utility.yul\":7243:7244   */\n      0x00\n        /* \"#utility.yul\":7232:7241   */\n      dup4\n        /* \"#utility.yul\":7228:7245   */\n      add\n        /* \"#utility.yul\":7221:7268   */\n      mstore\n        /* \"#utility.yul\":7285:7416   */\n      tag_223\n        /* \"#utility.yul\":7411:7415   */\n      dup2\n        /* \"#utility.yul\":7285:7416   */\n      tag_115\n      jump\t// in\n    tag_223:\n        /* \"#utility.yul\":7277:7416   */\n      swap1\n      pop\n        /* \"#utility.yul\":7004:7423   */\n      swap2\n      swap1\n      pop\n      jump\t// out\n        /* \"#utility.yul\":7429:7600   */\n    tag_116:\n        /* \"#utility.yul\":7569:7592   */\n      0x54415247455420414d4f554e5420524541434845440000000000000000000000\n        /* \"#utility.yul\":7565:7566   */\n      0x00\n        /* \"#utility.yul\":7557:7563   */\n      dup3\n        /* \"#utility.yul\":7553:7567   */\n      add\n        /* \"#utility.yul\":7546:7593   */\n      mstore\n        /* \"#utility.yul\":7429:7600   */\n      pop\n      jump\t// out\n        /* \"#utility.yul\":7606:7972   */\n    tag_117:\n        /* \"#utility.yul\":7748:7751   */\n      0x00\n        /* \"#utility.yul\":7769:7836   */\n      tag_226\n        /* \"#utility.yul\":7833:7835   */\n      0x15\n        /* \"#utility.yul\":7828:7831   */\n      dup4\n        /* \"#utility.yul\":7769:7836   */\n      tag_113\n      jump\t// in\n    tag_226:\n        /* \"#utility.yul\":7762:7836   */\n      swap2\n      pop\n        /* \"#utility.yul\":7845:7938   */\n      tag_227\n        /* \"#utility.yul\":7934:7937   */\n      dup3\n        /* \"#utility.yul\":7845:7938   */\n      tag_116\n      jump\t// in\n    tag_227:\n        /* \"#utility.yul\":7963:7965   */\n      0x20\n        /* \"#utility.yul\":7958:7961   */\n      dup3\n        /* \"#utility.yul\":7954:7966   */\n      add\n        /* \"#utility.yul\":7947:7966   */\n      swap1\n      pop\n        /* \"#utility.yul\":7606:7972   */\n      swap2\n      swap1\n      pop\n      jump\t// out\n        /* \"#utility.yul\":7978:8397   */\n    tag_39:\n        /* \"#utility.yul\":8144:8148   */\n      0x00\n        /* \"#utility.yul\":8182:8184   */\n      0x20\n        /* \"#utility.yul\":8171:8180   */\n      dup3\n        /* \"#utility.yul\":8167:8185   */\n      add\n        /* \"#utility.yul\":8159:8185   */\n      swap1\n      pop\n        /* \"#utility.yul\":8231:8240   */\n      dup2\n        /* \"#utility.yul\":8225:8229   */\n      dup2\n        /* \"#utility.yul\":8221:8241   */\n      sub\n        /* \"#utility.yul\":8217:8218   */\n      0x00\n        /* \"#utility.yul\":8206:8215   */\n      dup4\n        /* \"#utility.yul\":8202:8219   */\n      add\n        /* \"#utility.yul\":8195:8242   */\n      mstore\n        /* \"#utility.yul\":8259:8390   */\n      tag_229\n        /* \"#utility.yul\":8385:8389   */\n      dup2\n        /* \"#utility.yul\":8259:8390   */\n      tag_117\n      jump\t// in\n    tag_229:\n        /* \"#utility.yul\":8251:8390   */\n      swap1\n      pop\n        /* \"#utility.yul\":7978:8397   */\n      swap2\n      swap1\n      pop\n      jump\t// out\n        /* \"#utility.yul\":8403:8583   */\n    tag_118:\n        /* \"#utility.yul\":8451:8528   */\n      0x4e487b7100000000000000000000000000000000000000000000000000000000\n        /* \"#utility.yul\":8448:8449   */\n      0x00\n        /* \"#utility.yul\":8441:8529   */\n      mstore\n        /* \"#utility.yul\":8548:8552   */\n      0x11\n        /* \"#utility.yul\":8545:8546   */\n      0x04\n        /* \"#utility.yul\":8538:8553   */\n      mstore\n        /* \"#utility.yul\":8572:8576   */\n      0x24\n        /* \"#utility.yul\":8569:8570   */\n      0x00\n        /* \"#utility.yul\":8562:8577   */\n      revert\n        /* \"#utility.yul\":8589:8780   */\n    tag_42:\n        /* \"#utility.yul\":8629:8632   */\n      0x00\n        /* \"#utility.yul\":8648:8668   */\n      tag_232\n        /* \"#utility.yul\":8666:8667   */\n      dup3\n        /* \"#utility.yul\":8648:8668   */\n      tag_103\n      jump\t// in\n    tag_232:\n        /* \"#utility.yul\":8643:8668   */\n      swap2\n      pop\n        /* \"#utility.yul\":8682:8702   */\n      tag_233\n        /* \"#utility.yul\":8700:8701   */\n      dup4\n        /* \"#utility.yul\":8682:8702   */\n      tag_103\n      jump\t// in\n    tag_233:\n        /* \"#utility.yul\":8677:8702   */\n      swap3\n      pop\n        /* \"#utility.yul\":8725:8726   */\n      dup3\n        /* \"#utility.yul\":8722:8723   */\n      dup3\n        /* \"#utility.yul\":8718:8727   */\n      add\n        /* \"#utility.yul\":8711:8727   */\n      swap1\n      pop\n        /* \"#utility.yul\":8746:8749   */\n      dup1\n        /* \"#utility.yul\":8743:8744   */\n      dup3\n        /* \"#utility.yul\":8740:8750   */\n      gt\n        /* \"#utility.yul\":8737:8773   */\n      iszero\n      tag_234\n      jumpi\n        /* \"#utility.yul\":8753:8771   */\n      tag_235\n      tag_118\n      jump\t// in\n    tag_235:\n        /* \"#utility.yul\":8737:8773   */\n    tag_234:\n        /* \"#utility.yul\":8589:8780   */\n      swap3\n      swap2\n      pop\n      pop\n      jump\t// out\n        /* \"#utility.yul\":8786:8966   */\n    tag_119:\n        /* \"#utility.yul\":8834:8911   */\n      0x4e487b7100000000000000000000000000000000000000000000000000000000\n        /* \"#utility.yul\":8831:8832   */\n      0x00\n        /* \"#utility.yul\":8824:8912   */\n      mstore\n        /* \"#utility.yul\":8931:8935   */\n      0x22\n        /* \"#utility.yul\":8928:8929   */\n      0x04\n        /* \"#utility.yul\":8921:8936   */\n      mstore\n        /* \"#utility.yul\":8955:8959   */\n      0x24\n        /* \"#utility.yul\":8952:8953   */\n      0x00\n        /* \"#utility.yul\":8945:8960   */\n      revert\n        /* \"#utility.yul\":8972:9292   */\n    tag_49:\n        /* \"#utility.yul\":9016:9022   */\n      0x00\n        /* \"#utility.yul\":9053:9054   */\n      0x02\n        /* \"#utility.yul\":9047:9051   */\n      dup3\n        /* \"#utility.yul\":9043:9055   */\n      div\n        /* \"#utility.yul\":9033:9055   */\n      swap1\n      pop\n        /* \"#utility.yul\":9100:9101   */\n      0x01\n        /* \"#utility.yul\":9094:9098   */\n      dup3\n        /* \"#utility.yul\":9090:9102   */\n      and\n        /* \"#utility.yul\":9121:9139   */\n      dup1\n        /* \"#utility.yul\":9111:9192   */\n      tag_238\n      jumpi\n        /* \"#utility.yul\":9177:9181   */\n      0x7f\n        /* \"#utility.yul\":9169:9175   */\n      dup3\n        /* \"#utility.yul\":9165:9182   */\n      and\n        /* \"#utility.yul\":9155:9182   */\n      swap2\n      pop\n        /* \"#utility.yul\":9111:9192   */\n    tag_238:\n        /* \"#utility.yul\":9239:9241   */\n      0x20\n        /* \"#utility.yul\":9231:9237   */\n      dup3\n        /* \"#utility.yul\":9228:9242   */\n      lt\n        /* \"#utility.yul\":9208:9226   */\n      dup2\n        /* \"#utility.yul\":9205:9243   */\n      sub\n        /* \"#utility.yul\":9202:9286   */\n      tag_239\n      jumpi\n        /* \"#utility.yul\":9258:9276   */\n      tag_240\n      tag_119\n      jump\t// in\n    tag_240:\n        /* \"#utility.yul\":9202:9286   */\n    tag_239:\n        /* \"#utility.yul\":9023:9292   */\n      pop\n        /* \"#utility.yul\":8972:9292   */\n      swap2\n      swap1\n      pop\n      jump\t// out\n        /* \"#utility.yul\":9298:9492   */\n    tag_55:\n        /* \"#utility.yul\":9338:9342   */\n      0x00\n        /* \"#utility.yul\":9358:9378   */\n      tag_242\n        /* \"#utility.yul\":9376:9377   */\n      dup3\n        /* \"#utility.yul\":9358:9378   */\n      tag_103\n      jump\t// in\n    tag_242:\n        /* \"#utility.yul\":9353:9378   */\n      swap2\n      pop\n        /* \"#utility.yul\":9392:9412   */\n      tag_243\n        /* \"#utility.yul\":9410:9411   */\n      dup4\n        /* \"#utility.yul\":9392:9412   */\n      tag_103\n      jump\t// in\n    tag_243:\n        /* \"#utility.yul\":9387:9412   */\n      swap3\n      pop\n        /* \"#utility.yul\":9436:9437   */\n      dup3\n        /* \"#utility.yul\":9433:9434   */\n      dup3\n        /* \"#utility.yul\":9429:9438   */\n      sub\n        /* \"#utility.yul\":9421:9438   */\n      swap1\n      pop\n        /* \"#utility.yul\":9460:9461   */\n      dup2\n        /* \"#utility.yul\":9454:9458   */\n      dup2\n        /* \"#utility.yul\":9451:9462   */\n      gt\n        /* \"#utility.yul\":9448:9485   */\n      iszero\n      tag_244\n      jumpi\n        /* \"#utility.yul\":9465:9483   */\n      tag_245\n      tag_118\n      jump\t// in\n    tag_245:\n        /* \"#utility.yul\":9448:9485   */\n    tag_244:\n        /* \"#utility.yul\":9298:9492   */\n      swap3\n      swap2\n      pop\n      pop\n      jump\t// out\n        /* \"#utility.yul\":9498:9722   */\n    tag_120:\n        /* \"#utility.yul\":9638:9672   */\n      0x50726f6a65637420776974682074686973206e616d6520616c72656164792065\n        /* \"#utility.yul\":9634:9635   */\n      0x00\n        /* \"#utility.yul\":9626:9632   */\n      dup3\n        /* \"#utility.yul\":9622:9636   */\n      add\n        /* \"#utility.yul\":9615:9673   */\n      mstore\n        /* \"#utility.yul\":9707:9714   */\n      0x7869737473000000000000000000000000000000000000000000000000000000\n        /* \"#utility.yul\":9702:9704   */\n      0x20\n        /* \"#utility.yul\":9694:9700   */\n      dup3\n        /* \"#utility.yul\":9690:9705   */\n      add\n        /* \"#utility.yul\":9683:9715   */\n      mstore\n        /* \"#utility.yul\":9498:9722   */\n      pop\n      jump\t// out\n        /* \"#utility.yul\":9728:10094   */\n    tag_121:\n        /* \"#utility.yul\":9870:9873   */\n      0x00\n        /* \"#utility.yul\":9891:9958   */\n      tag_248\n        /* \"#utility.yul\":9955:9957   */\n      0x25\n        /* \"#utility.yul\":9950:9953   */\n      dup4\n        /* \"#utility.yul\":9891:9958   */\n      tag_113\n      jump\t// in\n    tag_248:\n        /* \"#utility.yul\":9884:9958   */\n      swap2\n      pop\n        /* \"#utility.yul\":9967:10060   */\n      tag_249\n        /* \"#utility.yul\":10056:10059   */\n      dup3\n        /* \"#utility.yul\":9967:10060   */\n      tag_120\n      jump\t// in\n    tag_249:\n        /* \"#utility.yul\":10085:10087   */\n      0x40\n        /* \"#utility.yul\":10080:10083   */\n      dup3\n        /* \"#utility.yul\":10076:10088   */\n      add\n        /* \"#utility.yul\":10069:10088   */\n      swap1\n      pop\n        /* \"#utility.yul\":9728:10094   */\n      swap2\n      swap1\n      pop\n      jump\t// out\n        /* \"#utility.yul\":10100:10519   */\n    tag_60:\n        /* \"#utility.yul\":10266:10270   */\n      0x00\n        /* \"#utility.yul\":10304:10306   */\n      0x20\n        /* \"#utility.yul\":10293:10302   */\n      dup3\n        /* \"#utility.yul\":10289:10307   */\n      add\n        /* \"#utility.yul\":10281:10307   */\n      swap1\n      pop\n        /* \"#utility.yul\":10353:10362   */\n      dup2\n        /* \"#utility.yul\":10347:10351   */\n      dup2\n        /* \"#utility.yul\":10343:10363   */\n      sub\n        /* \"#utility.yul\":10339:10340   */\n      0x00\n        /* \"#utility.yul\":10328:10337   */\n      dup4\n        /* \"#utility.yul\":10324:10341   */\n      add\n        /* \"#utility.yul\":10317:10364   */\n      mstore\n        /* \"#utility.yul\":10381:10512   */\n      tag_251\n        /* \"#utility.yul\":10507:10511   */\n      dup2\n        /* \"#utility.yul\":10381:10512   */\n      tag_121\n      jump\t// in\n    tag_251:\n        /* \"#utility.yul\":10373:10512   */\n      swap1\n      pop\n        /* \"#utility.yul\":10100:10519   */\n      swap2\n      swap1\n      pop\n      jump\t// out\n        /* \"#utility.yul\":10525:10758   */\n    tag_62:\n        /* \"#utility.yul\":10564:10567   */\n      0x00\n        /* \"#utility.yul\":10587:10611   */\n      tag_253\n        /* \"#utility.yul\":10605:10610   */\n      dup3\n        /* \"#utility.yul\":10587:10611   */\n      tag_103\n      jump\t// in\n    tag_253:\n        /* \"#utility.yul\":10578:10611   */\n      swap2\n      pop\n        /* \"#utility.yul\":10633:10699   */\n      0xffffffffffffffffffffffffffffffffffffffffffffffffffffffffffffffff\n        /* \"#utility.yul\":10626:10631   */\n      dup3\n        /* \"#utility.yul\":10623:10700   */\n      sub\n        /* \"#utility.yul\":10620:10723   */\n      tag_254\n      jumpi\n        /* \"#utility.yul\":10703:10721   */\n      tag_255\n      tag_118\n      jump\t// in\n    tag_255:\n        /* \"#utility.yul\":10620:10723   */\n    tag_254:\n        /* \"#utility.yul\":10750:10751   */\n      0x01\n        /* \"#utility.yul\":10743:10748   */\n      dup3\n        /* \"#utility.yul\":10739:10752   */\n      add\n        /* \"#utility.yul\":10732:10752   */\n      swap1\n      pop\n        /* \"#utility.yul\":10525:10758   */\n      swap2\n      swap1\n      pop\n      jump\t// out\n        /* \"#utility.yul\":10764:10905   */\n    tag_122:\n        /* \"#utility.yul\":10813:10817   */\n      0x00\n        /* \"#utility.yul\":10836:10839   */\n      dup2\n        /* \"#utility.yul\":10828:10839   */\n      swap1\n      pop\n        /* \"#utility.yul\":10859:10862   */\n      dup2\n        /* \"#utility.yul\":10856:10857   */\n      0x00\n        /* \"#utility.yul\":10849:10863   */\n      mstore\n        /* \"#utility.yul\":10893:10897   */\n      0x20\n        /* \"#utility.yul\":10890:10891   */\n      0x00\n        /* \"#utility.yul\":10880:10898   */\n      keccak256\n        /* \"#utility.yul\":10872:10898   */\n      swap1\n      pop\n        /* \"#utility.yul\":10764:10905   */\n      swap2\n      swap1\n      pop\n      jump\t// out\n        /* \"#utility.yul\":10911:11004   */\n    tag_123:\n        /* \"#utility.yul\":10948:10954   */\n      0x00\n        /* \"#utility.yul\":10995:10997   */\n      0x20\n        /* \"#utility.yul\":10990:10992   */\n      0x1f\n        /* \"#utility.yul\":10983:10988   */\n      dup4\n        /* \"#utility.yul\":10979:10993   */\n      add\n        /* \"#utility.yul\":10975:10998   */\n      div\n        /* \"#utility.yul\":10965:10998   */\n      swap1\n      pop\n        /* \"#utility.yul\":10911:11004   */\n      swap2\n      swap1\n      pop\n      jump\t// out\n        /* \"#utility.yul\":11010:11117   */\n    tag_124:\n        /* \"#utility.yul\":11054:11062   */\n      0x00\n        /* \"#utility.yul\":11104:11109   */\n      dup3\n        /* \"#utility.yul\":11098:11102   */\n      dup3\n        /* \"#utility.yul\":11094:11110   */\n      shl\n        /* \"#utility.yul\":11073:11110   */\n      swap1\n      pop\n        /* \"#utility.yul\":11010:11117   */\n      swap3\n      swap2\n      pop\n      pop\n      jump\t// out\n        /* \"#utility.yul\":11123:11516   */\n    tag_125:\n        /* \"#utility.yul\":11192:11198   */\n      0x00\n        /* \"#utility.yul\":11242:11243   */\n      0x08\n        /* \"#utility.yul\":11230:11240   */\n      dup4\n        /* \"#utility.yul\":11226:11244   */\n      mul\n        /* \"#utility.yul\":11265:11362   */\n      tag_260\n        /* \"#utility.yul\":11295:11361   */\n      0xffffffffffffffffffffffffffffffffffffffffffffffffffffffffffffffff\n        /* \"#utility.yul\":11284:11293   */\n      dup3\n        /* \"#utility.yul\":11265:11362   */\n      tag_124\n      jump\t// in\n    tag_260:\n        /* \"#utility.yul\":11383:11422   */\n      tag_261\n        /* \"#utility.yul\":11413:11421   */\n      dup7\n        /* \"#utility.yul\":11402:11411   */\n      dup4\n        /* \"#utility.yul\":11383:11422   */\n      tag_124\n      jump\t// in\n    tag_261:\n        /* \"#utility.yul\":11371:11422   */\n      swap6\n      pop\n        /* \"#utility.yul\":11455:11459   */\n      dup1\n        /* \"#utility.yul\":11451:11460   */\n      not\n        /* \"#utility.yul\":11444:11449   */\n      dup5\n        /* \"#utility.yul\":11440:11461   */\n      and\n        /* \"#utility.yul\":11431:11461   */\n      swap4\n      pop\n        /* \"#utility.yul\":11504:11508   */\n      dup1\n        /* \"#utility.yul\":11494:11502   */\n      dup7\n        /* \"#utility.yul\":11490:11509   */\n      and\n        /* \"#utility.yul\":11483:11488   */\n      dup5\n        /* \"#utility.yul\":11480:11510   */\n      or\n        /* \"#utility.yul\":11470:11510   */\n      swap3\n      pop\n        /* \"#utility.yul\":11199:11516   */\n      pop\n      pop\n        /* \"#utility.yul\":11123:11516   */\n      swap4\n      swap3\n      pop\n      pop\n      pop\n      jump\t// out\n        /* \"#utility.yul\":11522:11582   */\n    tag_126:\n        /* \"#utility.yul\":11550:11553   */\n      0x00\n        /* \"#utility.yul\":11571:11576   */\n      dup2\n        /* \"#utility.yul\":11564:11576   */\n      swap1\n      pop\n        /* \"#utility.yul\":11522:11582   */\n      swap2\n      swap1\n      pop\n      jump\t// out\n        /* \"#utility.yul\":11588:11730   */\n    tag_127:\n        /* \"#utility.yul\":11638:11647   */\n      0x00\n        /* \"#utility.yul\":11671:11724   */\n      tag_264\n        /* \"#utility.yul\":11689:11723   */\n      tag_265\n        /* \"#utility.yul\":11698:11722   */\n      tag_266\n        /* \"#utility.yul\":11716:11721   */\n      dup5\n        /* \"#utility.yul\":11698:11722   */\n      tag_103\n      jump\t// in\n    tag_266:\n        /* \"#utility.yul\":11689:11723   */\n      tag_126\n      jump\t// in\n    tag_265:\n        /* \"#utility.yul\":11671:11724   */\n      tag_103\n      jump\t// in\n    tag_264:\n        /* \"#utility.yul\":11658:11724   */\n      swap1\n      pop\n        /* \"#utility.yul\":11588:11730   */\n      swap2\n      swap1\n      pop\n      jump\t// out\n        /* \"#utility.yul\":11736:11811   */\n    tag_128:\n        /* \"#utility.yul\":11779:11782   */\n      0x00\n        /* \"#utility.yul\":11800:11805   */\n      dup2\n        /* \"#utility.yul\":11793:11805   */\n      swap1\n      pop\n        /* \"#utility.yul\":11736:11811   */\n      swap2\n      swap1\n      pop\n      jump\t// out\n        /* \"#utility.yul\":11817:12086   */\n    tag_129:\n        /* \"#utility.yul\":11927:11966   */\n      tag_269\n        /* \"#utility.yul\":11958:11965   */\n      dup4\n        /* \"#utility.yul\":11927:11966   */\n      tag_127\n      jump\t// in\n    tag_269:\n        /* \"#utility.yul\":11988:12079   */\n      tag_270\n        /* \"#utility.yul\":12037:12078   */\n      tag_271\n        /* \"#utility.yul\":12061:12077   */\n      dup3\n        /* \"#utility.yul\":12037:12078   */\n      tag_128\n      jump\t// in\n    tag_271:\n        /* \"#utility.yul\":12029:12035   */\n      dup5\n        /* \"#utility.yul\":12022:12026   */\n      dup5\n        /* \"#utility.yul\":12016:12027   */\n      sload\n        /* \"#utility.yul\":11988:12079   */\n      tag_125\n      jump\t// in\n    tag_270:\n        /* \"#utility.yul\":11982:11986   */\n      dup3\n        /* \"#utility.yul\":11975:12080   */\n      sstore\n        /* \"#utility.yul\":11893:12086   */\n      pop\n        /* \"#utility.yul\":11817:12086   */\n      pop\n      pop\n      pop\n      jump\t// out\n        /* \"#utility.yul\":12092:12165   */\n    tag_130:\n        /* \"#utility.yul\":12137:12140   */\n      0x00\n        /* \"#utility.yul\":12092:12165   */\n      swap1\n      jump\t// out\n        /* \"#utility.yul\":12171:12360   */\n    tag_131:\n        /* \"#utility.yul\":12248:12280   */\n      tag_274\n      tag_130\n      jump\t// in\n    tag_274:\n        /* \"#utility.yul\":12289:12354   */\n      tag_275\n        /* \"#utility.yul\":12347:12353   */\n      dup2\n        /* \"#utility.yul\":12339:12345   */\n      dup5\n        /* \"#utility.yul\":12333:12337   */\n      dup5\n        /* \"#utility.yul\":12289:12354   */\n      tag_129\n      jump\t// in\n    tag_275:\n        /* \"#utility.yul\":12224:12360   */\n      pop\n        /* \"#utility.yul\":12171:12360   */\n      pop\n      pop\n      jump\t// out\n        /* \"#utility.yul\":12366:12552   */\n    tag_132:\n        /* \"#utility.yul\":12426:12546   */\n    tag_277:\n        /* \"#utility.yul\":12443:12446   */\n      dup2\n        /* \"#utility.yul\":12436:12441   */\n      dup2\n        /* \"#utility.yul\":12433:12447   */\n      lt\n        /* \"#utility.yul\":12426:12546   */\n      iszero\n      tag_279\n      jumpi\n        /* \"#utility.yul\":12497:12536   */\n      tag_280\n        /* \"#utility.yul\":12534:12535   */\n      0x00\n        /* \"#utility.yul\":12527:12532   */\n      dup3\n        /* \"#utility.yul\":12497:12536   */\n      tag_131\n      jump\t// in\n    tag_280:\n        /* \"#utility.yul\":12470:12471   */\n      0x01\n        /* \"#utility.yul\":12463:12468   */\n      dup2\n        /* \"#utility.yul\":12459:12472   */\n      add\n        /* \"#utility.yul\":12450:12472   */\n      swap1\n      pop\n        /* \"#utility.yul\":12426:12546   */\n      jump(tag_277)\n    tag_279:\n        /* \"#utility.yul\":12366:12552   */\n      pop\n      pop\n      jump\t// out\n        /* \"#utility.yul\":12558:13101   */\n    tag_133:\n        /* \"#utility.yul\":12659:12661   */\n      0x1f\n        /* \"#utility.yul\":12654:12657   */\n      dup3\n        /* \"#utility.yul\":12651:12662   */\n      gt\n        /* \"#utility.yul\":12648:13094   */\n      iszero\n      tag_282\n      jumpi\n        /* \"#utility.yul\":12693:12731   */\n      tag_283\n        /* \"#utility.yul\":12725:12730   */\n      dup2\n        /* \"#utility.yul\":12693:12731   */\n      tag_122\n      jump\t// in\n    tag_283:\n        /* \"#utility.yul\":12777:12806   */\n      tag_284\n        /* \"#utility.yul\":12795:12805   */\n      dup5\n        /* \"#utility.yul\":12777:12806   */\n      tag_123\n      jump\t// in\n    tag_284:\n        /* \"#utility.yul\":12767:12775   */\n      dup2\n        /* \"#utility.yul\":12763:12807   */\n      add\n        /* \"#utility.yul\":12960:12962   */\n      0x20\n        /* \"#utility.yul\":12948:12958   */\n      dup6\n        /* \"#utility.yul\":12945:12963   */\n      lt\n        /* \"#utility.yul\":12942:12991   */\n      iszero\n      tag_285\n      jumpi\n        /* \"#utility.yul\":12981:12989   */\n      dup2\n        /* \"#utility.yul\":12966:12989   */\n      swap1\n      pop\n        /* \"#utility.yul\":12942:12991   */\n    tag_285:\n        /* \"#utility.yul\":13004:13084   */\n      tag_286\n        /* \"#utility.yul\":13060:13082   */\n      tag_287\n        /* \"#utility.yul\":13078:13081   */\n      dup6\n        /* \"#utility.yul\":13060:13082   */\n      tag_123\n      jump\t// in\n    tag_287:\n        /* \"#utility.yul\":13050:13058   */\n      dup4\n        /* \"#utility.yul\":13046:13083   */\n      add\n        /* \"#utility.yul\":13033:13044   */\n      dup3\n        /* \"#utility.yul\":13004:13084   */\n      tag_132\n      jump\t// in\n    tag_286:\n        /* \"#utility.yul\":12663:13094   */\n      pop\n      pop\n        /* \"#utility.yul\":12648:13094   */\n    tag_282:\n        /* \"#utility.yul\":12558:13101   */\n      pop\n      pop\n      pop\n      jump\t// out\n        /* \"#utility.yul\":13107:13224   */\n    tag_134:\n        /* \"#utility.yul\":13161:13169   */\n      0x00\n        /* \"#utility.yul\":13211:13216   */\n      dup3\n        /* \"#utility.yul\":13205:13209   */\n      dup3\n        /* \"#utility.yul\":13201:13217   */\n      shr\n        /* \"#utility.yul\":13180:13217   */\n      swap1\n      pop\n        /* \"#utility.yul\":13107:13224   */\n      swap3\n      swap2\n      pop\n      pop\n      jump\t// out\n        /* \"#utility.yul\":13230:13399   */\n    tag_135:\n        /* \"#utility.yul\":13274:13280   */\n      0x00\n        /* \"#utility.yul\":13307:13358   */\n      tag_290\n        /* \"#utility.yul\":13355:13356   */\n      0x00\n        /* \"#utility.yul\":13351:13357   */\n      not\n        /* \"#utility.yul\":13343:13348   */\n      dup5\n        /* \"#utility.yul\":13340:13341   */\n      0x08\n        /* \"#utility.yul\":13336:13349   */\n      mul\n        /* \"#utility.yul\":13307:13358   */\n      tag_134\n      jump\t// in\n    tag_290:\n        /* \"#utility.yul\":13303:13359   */\n      not\n        /* \"#utility.yul\":13388:13392   */\n      dup1\n        /* \"#utility.yul\":13382:13386   */\n      dup4\n        /* \"#utility.yul\":13378:13393   */\n      and\n        /* \"#utility.yul\":13368:13393   */\n      swap2\n      pop\n        /* \"#utility.yul\":13281:13399   */\n      pop\n        /* \"#utility.yul\":13230:13399   */\n      swap3\n      swap2\n      pop\n      pop\n      jump\t// out\n        /* \"#utility.yul\":13404:13699   */\n    tag_136:\n        /* \"#utility.yul\":13480:13484   */\n      0x00\n        /* \"#utility.yul\":13626:13655   */\n      tag_292\n        /* \"#utility.yul\":13651:13654   */\n      dup4\n        /* \"#utility.yul\":13645:13649   */\n      dup4\n        /* \"#utility.yul\":13626:13655   */\n      tag_135\n      jump\t// in\n    tag_292:\n        /* \"#utility.yul\":13618:13655   */\n      swap2\n      pop\n        /* \"#utility.yul\":13688:13691   */\n      dup3\n        /* \"#utility.yul\":13685:13686   */\n      0x02\n        /* \"#utility.yul\":13681:13692   */\n      mul\n        /* \"#utility.yul\":13675:13679   */\n      dup3\n        /* \"#utility.yul\":13672:13693   */\n      or\n        /* \"#utility.yul\":13664:13693   */\n      swap1\n      pop\n        /* \"#utility.yul\":13404:13699   */\n      swap3\n      swap2\n      pop\n      pop\n      jump\t// out\n        /* \"#utility.yul\":13704:15099   */\n    tag_67:\n        /* \"#utility.yul\":13821:13858   */\n      tag_294\n        /* \"#utility.yul\":13854:13857   */\n      dup3\n        /* \"#utility.yul\":13821:13858   */\n      tag_109\n      jump\t// in\n    tag_294:\n        /* \"#utility.yul\":13923:13941   */\n      0xffffffffffffffff\n        /* \"#utility.yul\":13915:13921   */\n      dup2\n        /* \"#utility.yul\":13912:13942   */\n      gt\n        /* \"#utility.yul\":13909:13965   */\n      iszero\n      tag_295\n      jumpi\n        /* \"#utility.yul\":13945:13963   */\n      tag_296\n      tag_96\n      jump\t// in\n    tag_296:\n        /* \"#utility.yul\":13909:13965   */\n    tag_295:\n        /* \"#utility.yul\":13989:14027   */\n      tag_297\n        /* \"#utility.yul\":14021:14025   */\n      dup3\n        /* \"#utility.yul\":14015:14026   */\n      sload\n        /* \"#utility.yul\":13989:14027   */\n      tag_49\n      jump\t// in\n    tag_297:\n        /* \"#utility.yul\":14074:14141   */\n      tag_298\n        /* \"#utility.yul\":14134:14140   */\n      dup3\n        /* \"#utility.yul\":14126:14132   */\n      dup3\n        /* \"#utility.yul\":14120:14124   */\n      dup6\n        /* \"#utility.yul\":14074:14141   */\n      tag_133\n      jump\t// in\n    tag_298:\n        /* \"#utility.yul\":14168:14169   */\n      0x00\n        /* \"#utility.yul\":14192:14196   */\n      0x20\n        /* \"#utility.yul\":14179:14196   */\n      swap1\n      pop\n        /* \"#utility.yul\":14224:14226   */\n      0x1f\n        /* \"#utility.yul\":14216:14222   */\n      dup4\n        /* \"#utility.yul\":14213:14227   */\n      gt\n        /* \"#utility.yul\":14241:14242   */\n      0x01\n        /* \"#utility.yul\":14236:14854   */\n      dup2\n      eq\n      tag_300\n      jumpi\n        /* \"#utility.yul\":14898:14899   */\n      0x00\n        /* \"#utility.yul\":14915:14921   */\n      dup5\n        /* \"#utility.yul\":14912:14989   */\n      iszero\n      tag_301\n      jumpi\n        /* \"#utility.yul\":14964:14973   */\n      dup3\n        /* \"#utility.yul\":14959:14962   */\n      dup8\n        /* \"#utility.yul\":14955:14974   */\n      add\n        /* \"#utility.yul\":14949:14975   */\n      mload\n        /* \"#utility.yul\":14940:14975   */\n      swap1\n      pop\n        /* \"#utility.yul\":14912:14989   */\n    tag_301:\n        /* \"#utility.yul\":15015:15082   */\n      tag_302\n        /* \"#utility.yul\":15075:15081   */\n      dup6\n        /* \"#utility.yul\":15068:15073   */\n      dup3\n        /* \"#utility.yul\":15015:15082   */\n      tag_136\n      jump\t// in\n    tag_302:\n        /* \"#utility.yul\":15009:15013   */\n      dup7\n        /* \"#utility.yul\":15002:15083   */\n      sstore\n        /* \"#utility.yul\":14871:15093   */\n      pop\n        /* \"#utility.yul\":14206:15093   */\n      jump(tag_299)\n        /* \"#utility.yul\":14236:14854   */\n    tag_300:\n        /* \"#utility.yul\":14288:14292   */\n      0x1f\n        /* \"#utility.yul\":14284:14293   */\n      not\n        /* \"#utility.yul\":14276:14282   */\n      dup5\n        /* \"#utility.yul\":14272:14294   */\n      and\n        /* \"#utility.yul\":14322:14359   */\n      tag_303\n        /* \"#utility.yul\":14354:14358   */\n      dup7\n        /* \"#utility.yul\":14322:14359   */\n      tag_122\n      jump\t// in\n    tag_303:\n        /* \"#utility.yul\":14381:14382   */\n      0x00\n        /* \"#utility.yul\":14395:14603   */\n    tag_304:\n        /* \"#utility.yul\":14409:14416   */\n      dup3\n        /* \"#utility.yul\":14406:14407   */\n      dup2\n        /* \"#utility.yul\":14403:14417   */\n      lt\n        /* \"#utility.yul\":14395:14603   */\n      iszero\n      tag_306\n      jumpi\n        /* \"#utility.yul\":14488:14497   */\n      dup5\n        /* \"#utility.yul\":14483:14486   */\n      dup10\n        /* \"#utility.yul\":14479:14498   */\n      add\n        /* \"#utility.yul\":14473:14499   */\n      mload\n        /* \"#utility.yul\":14465:14471   */\n      dup3\n        /* \"#utility.yul\":14458:14500   */\n      sstore\n        /* \"#utility.yul\":14539:14540   */\n      0x01\n        /* \"#utility.yul\":14531:14537   */\n      dup3\n        /* \"#utility.yul\":14527:14541   */\n      add\n        /* \"#utility.yul\":14517:14541   */\n      swap2\n      pop\n        /* \"#utility.yul\":14586:14588   */\n      0x20\n        /* \"#utility.yul\":14575:14584   */\n      dup6\n        /* \"#utility.yul\":14571:14589   */\n      add\n        /* \"#utility.yul\":14558:14589   */\n      swap5\n      pop\n        /* \"#utility.yul\":14432:14436   */\n      0x20\n        /* \"#utility.yul\":14429:14430   */\n      dup2\n        /* \"#utility.yul\":14425:14437   */\n      add\n        /* \"#utility.yul\":14420:14437   */\n      swap1\n      pop\n        /* \"#utility.yul\":14395:14603   */\n      jump(tag_304)\n    tag_306:\n        /* \"#utility.yul\":14631:14637   */\n      dup7\n        /* \"#utility.yul\":14622:14629   */\n      dup4\n        /* \"#utility.yul\":14619:14638   */\n      lt\n        /* \"#utility.yul\":14616:14795   */\n      iszero\n      tag_307\n      jumpi\n        /* \"#utility.yul\":14689:14698   */\n      dup5\n        /* \"#utility.yul\":14684:14687   */\n      dup10\n        /* \"#utility.yul\":14680:14699   */\n      add\n        /* \"#utility.yul\":14674:14700   */\n      mload\n        /* \"#utility.yul\":14732:14780   */\n      tag_308\n        /* \"#utility.yul\":14774:14778   */\n      0x1f\n        /* \"#utility.yul\":14766:14772   */\n      dup10\n        /* \"#utility.yul\":14762:14779   */\n      and\n        /* \"#utility.yul\":14751:14760   */\n      dup3\n        /* \"#utility.yul\":14732:14780   */\n      tag_135\n      jump\t// in\n    tag_308:\n        /* \"#utility.yul\":14724:14730   */\n      dup4\n        /* \"#utility.yul\":14717:14781   */\n      sstore\n        /* \"#utility.yul\":14639:14795   */\n      pop\n        /* \"#utility.yul\":14616:14795   */\n    tag_307:\n        /* \"#utility.yul\":14841:14842   */\n      0x01\n        /* \"#utility.yul\":14837:14838   */\n      0x02\n        /* \"#utility.yul\":14829:14835   */\n      dup9\n        /* \"#utility.yul\":14825:14839   */\n      mul\n        /* \"#utility.yul\":14821:14843   */\n      add\n        /* \"#utility.yul\":14815:14819   */\n      dup9\n        /* \"#utility.yul\":14808:14844   */\n      sstore\n        /* \"#utility.yul\":14243:14854   */\n      pop\n      pop\n      pop\n        /* \"#utility.yul\":14206:15093   */\n    tag_299:\n      pop\n        /* \"#utility.yul\":13796:15099   */\n      pop\n      pop\n      pop\n        /* \"#utility.yul\":13704:15099   */\n      pop\n      pop\n      jump\t// out\n        /* \"#utility.yul\":15105:15184   */\n    tag_137:\n        /* \"#utility.yul\":15144:15151   */\n      0x00\n        /* \"#utility.yul\":15173:15178   */\n      dup2\n        /* \"#utility.yul\":15162:15178   */\n      swap1\n      pop\n        /* \"#utility.yul\":15105:15184   */\n      swap2\n      swap1\n      pop\n      jump\t// out\n        /* \"#utility.yul\":15190:15347   */\n    tag_138:\n        /* \"#utility.yul\":15295:15340   */\n      tag_311\n        /* \"#utility.yul\":15315:15339   */\n      tag_312\n        /* \"#utility.yul\":15333:15338   */\n      dup3\n        /* \"#utility.yul\":15315:15339   */\n      tag_103\n      jump\t// in\n    tag_312:\n        /* \"#utility.yul\":15295:15340   */\n      tag_137\n      jump\t// in\n    tag_311:\n        /* \"#utility.yul\":15290:15293   */\n      dup3\n        /* \"#utility.yul\":15283:15341   */\n      mstore\n        /* \"#utility.yul\":15190:15347   */\n      pop\n      pop\n      jump\t// out\n        /* \"#utility.yul\":15353:15479   */\n    tag_139:\n        /* \"#utility.yul\":15390:15397   */\n      0x00\n        /* \"#utility.yul\":15430:15472   */\n      0xffffffffffffffffffffffffffffffffffffffff\n        /* \"#utility.yul\":15423:15428   */\n      dup3\n        /* \"#utility.yul\":15419:15473   */\n      and\n        /* \"#utility.yul\":15408:15473   */\n      swap1\n      pop\n        /* \"#utility.yul\":15353:15479   */\n      swap2\n      swap1\n      pop\n      jump\t// out\n        /* \"#utility.yul\":15485:15581   */\n    tag_140:\n        /* \"#utility.yul\":15522:15529   */\n      0x00\n        /* \"#utility.yul\":15551:15575   */\n      tag_315\n        /* \"#utility.yul\":15569:15574   */\n      dup3\n        /* \"#utility.yul\":15551:15575   */\n      tag_139\n      jump\t// in\n    tag_315:\n        /* \"#utility.yul\":15540:15575   */\n      swap1\n      pop\n        /* \"#utility.yul\":15485:15581   */\n      swap2\n      swap1\n      pop\n      jump\t// out\n        /* \"#utility.yul\":15587:15681   */\n    tag_141:\n        /* \"#utility.yul\":15620:15628   */\n      0x00\n        /* \"#utility.yul\":15668:15673   */\n      dup2\n        /* \"#utility.yul\":15664:15666   */\n      0x60\n        /* \"#utility.yul\":15660:15674   */\n      shl\n        /* \"#utility.yul\":15639:15674   */\n      swap1\n      pop\n        /* \"#utility.yul\":15587:15681   */\n      swap2\n      swap1\n      pop\n      jump\t// out\n        /* \"#utility.yul\":15687:15781   */\n    tag_142:\n        /* \"#utility.yul\":15726:15733   */\n      0x00\n        /* \"#utility.yul\":15755:15775   */\n      tag_318\n        /* \"#utility.yul\":15769:15774   */\n      dup3\n        /* \"#utility.yul\":15755:15775   */\n      tag_141\n      jump\t// in\n    tag_318:\n        /* \"#utility.yul\":15744:15775   */\n      swap1\n      pop\n        /* \"#utility.yul\":15687:15781   */\n      swap2\n      swap1\n      pop\n      jump\t// out\n        /* \"#utility.yul\":15787:15887   */\n    tag_143:\n        /* \"#utility.yul\":15826:15833   */\n      0x00\n        /* \"#utility.yul\":15855:15881   */\n      tag_320\n        /* \"#utility.yul\":15875:15880   */\n      dup3\n        /* \"#utility.yul\":15855:15881   */\n      tag_142\n      jump\t// in\n    tag_320:\n        /* \"#utility.yul\":15844:15881   */\n      swap1\n      pop\n        /* \"#utility.yul\":15787:15887   */\n      swap2\n      swap1\n      pop\n      jump\t// out\n        /* \"#utility.yul\":15893:16050   */\n    tag_144:\n        /* \"#utility.yul\":15998:16043   */\n      tag_322\n        /* \"#utility.yul\":16018:16042   */\n      tag_323\n        /* \"#utility.yul\":16036:16041   */\n      dup3\n        /* \"#utility.yul\":16018:16042   */\n      tag_140\n      jump\t// in\n    tag_323:\n        /* \"#utility.yul\":15998:16043   */\n      tag_143\n      jump\t// in\n    tag_322:\n        /* \"#utility.yul\":15993:15996   */\n      dup3\n        /* \"#utility.yul\":15986:16044   */\n      mstore\n        /* \"#utility.yul\":15893:16050   */\n      pop\n      pop\n      jump\t// out\n        /* \"#utility.yul\":16056:16594   */\n    tag_89:\n        /* \"#utility.yul\":16224:16227   */\n      0x00\n        /* \"#utility.yul\":16239:16314   */\n      tag_325\n        /* \"#utility.yul\":16310:16313   */\n      dup3\n        /* \"#utility.yul\":16301:16307   */\n      dup7\n        /* \"#utility.yul\":16239:16314   */\n      tag_138\n      jump\t// in\n    tag_325:\n        /* \"#utility.yul\":16339:16341   */\n      0x20\n        /* \"#utility.yul\":16334:16337   */\n      dup3\n        /* \"#utility.yul\":16330:16342   */\n      add\n        /* \"#utility.yul\":16323:16342   */\n      swap2\n      pop\n        /* \"#utility.yul\":16352:16427   */\n      tag_326\n        /* \"#utility.yul\":16423:16426   */\n      dup3\n        /* \"#utility.yul\":16414:16420   */\n      dup6\n        /* \"#utility.yul\":16352:16427   */\n      tag_144\n      jump\t// in\n    tag_326:\n        /* \"#utility.yul\":16452:16454   */\n      0x14\n        /* \"#utility.yul\":16447:16450   */\n      dup3\n        /* \"#utility.yul\":16443:16455   */\n      add\n        /* \"#utility.yul\":16436:16455   */\n      swap2\n      pop\n        /* \"#utility.yul\":16465:16540   */\n      tag_327\n        /* \"#utility.yul\":16536:16539   */\n      dup3\n        /* \"#utility.yul\":16527:16533   */\n      dup5\n        /* \"#utility.yul\":16465:16540   */\n      tag_138\n      jump\t// in\n    tag_327:\n        /* \"#utility.yul\":16565:16567   */\n      0x20\n        /* \"#utility.yul\":16560:16563   */\n      dup3\n        /* \"#utility.yul\":16556:16568   */\n      add\n        /* \"#utility.yul\":16549:16568   */\n      swap2\n      pop\n        /* \"#utility.yul\":16585:16588   */\n      dup2\n        /* \"#utility.yul\":16578:16588   */\n      swap1\n      pop\n        /* \"#utility.yul\":16056:16594   */\n      swap5\n      swap4\n      pop\n      pop\n      pop\n      pop\n      jump\t// out\n\n    auxdata: 0xa264697066735822122066d7dc21b1e431dbf3f4158fb664bb4eaf7e1bccfd9ec8f831e1ae7951cb295364736f6c63430008120033\n}\n",
				"bytecode": {
					"linkReferences": {},
					"object": "60806040526000805534801561001457600080fd5b5061107a806100246000396000f3fe608060405234801561001057600080fd5b50600436106100575760003560e01c80630eda4e681461005c57806350b581f514610078578063a5db748d146100a8578063cb42bbf8146100c4578063ec8de889146100f6575b600080fd5b6100766004803603810190610071919061088d565b610114565b005b610092600480360381019061008d91906108e9565b610200565b60405161009f9190610941565b60405180910390f35b6100c260048036038101906100bd919061088d565b610361565b005b6100de60048036038101906100d991906108e9565b610460565b6040516100ed93929190610975565b60405180910390f35b6100fe6105c5565b60405161010b9190610941565b60405180910390f35b6000801b6001836040516101289190610a1d565b9081526020016040518091039020600001540361017a576040517f08c379a000000000000000000000000000000000000000000000000000000000815260040161017190610a91565b60405180910390fd5b61018482826105ce565b156101c4576040517f08c379a00000000000000000000000000000000000000000000000000000000081526004016101bb90610afd565b60405180910390fd5b806001836040516101d59190610a1d565b908152602001604051809103902060030160008282546101f59190610b4c565b925050819055505050565b60008060001b6001836040516102169190610a1d565b90815260200160405180910390206000015403610268576040517f08c379a000000000000000000000000000000000000000000000000000000000815260040161025f90610a91565b60405180910390fd5b600060018360405161027a9190610a1d565b9081526020016040518091039020604051806080016040529081600082015481526020016001820180546102ad90610baf565b80601f01602080910402602001604051908101604052809291908181526020018280546102d990610baf565b80156103265780601f106102fb57610100808354040283529160200191610326565b820191906000526020600020905b81548152906001019060200180831161030957829003601f168201915b50505050508152602001600282015481526020016003820154815250509050806060015181604001516103599190610be0565b915050919050565b6000801b6001836040516103759190610a1d565b908152602001604051809103902060000154146103c7576040517f08c379a00000000000000000000000000000000000000000000000000000000081526004016103be90610c86565b60405180910390fd5b6000808154809291906103d990610ca6565b919050555060405180608001604052806103f16106cb565b815260200183815260200182815260200160008152506001836040516104179190610a1d565b90815260200160405180910390206000820151816000015560208201518160010190816104449190610e9a565b5060408201518160020155606082015181600301559050505050565b60008060008060001b6001856040516104799190610a1d565b908152602001604051809103902060000154036104cb576040517f08c379a00000000000000000000000000000000000000000000000000000000081526004016104c290610a91565b60405180910390fd5b60006001856040516104dd9190610a1d565b90815260200160405180910390206040518060800160405290816000820154815260200160018201805461051090610baf565b80601f016020809104026020016040519081016040528092919081815260200182805461053c90610baf565b80156105895780601f1061055e57610100808354040283529160200191610589565b820191906000526020600020905b81548152906001019060200180831161056c57829003601f168201915b50505050508152602001600282015481526020016003820154815250509050806000015181604001518260600151935093509350509193909250565b60008054905090565b6000806001846040516105e19190610a1d565b90815260200160405180910390206040518060800160405290816000820154815260200160018201805461061490610baf565b80601f016020809104026020016040519081016040528092919081815260200182805461064090610baf565b801561068d5780601f106106625761010080835404028352916020019161068d565b820191906000526020600020905b81548152906001019060200180831161067057829003601f168201915b505050505081526020016002820154815260200160038201548152505090508281606001516106bc9190610b4c565b81604001511091505092915050565b60004233436040516020016106e293929190611007565b60405160208183030381529060405280519060200120905090565b6000604051905090565b600080fd5b600080fd5b600080fd5b600080fd5b6000601f19601f8301169050919050565b7f4e487b7100000000000000000000000000000000000000000000000000000000600052604160045260246000fd5b6107648261071b565b810181811067ffffffffffffffff821117156107835761078261072c565b5b80604052505050565b60006107966106fd565b90506107a2828261075b565b919050565b600067ffffffffffffffff8211156107c2576107c161072c565b5b6107cb8261071b565b9050602081019050919050565b82818337600083830152505050565b60006107fa6107f5846107a7565b61078c565b90508281526020810184848401111561081657610815610716565b5b6108218482856107d8565b509392505050565b600082601f83011261083e5761083d610711565b5b813561084e8482602086016107e7565b91505092915050565b6000819050919050565b61086a81610857565b811461087557600080fd5b50565b60008135905061088781610861565b92915050565b600080604083850312156108a4576108a3610707565b5b600083013567ffffffffffffffff8111156108c2576108c161070c565b5b6108ce85828601610829565b92505060206108df85828601610878565b9150509250929050565b6000602082840312156108ff576108fe610707565b5b600082013567ffffffffffffffff81111561091d5761091c61070c565b5b61092984828501610829565b91505092915050565b61093b81610857565b82525050565b60006020820190506109566000830184610932565b92915050565b6000819050919050565b61096f8161095c565b82525050565b600060608201905061098a6000830186610966565b6109976020830185610932565b6109a46040830184610932565b949350505050565b600081519050919050565b600081905092915050565b60005b838110156109e05780820151818401526020810190506109c5565b60008484015250505050565b60006109f7826109ac565b610a0181856109b7565b9350610a118185602086016109c2565b80840191505092915050565b6000610a2982846109ec565b915081905092915050565b600082825260208201905092915050565b7f50726f6a65637420646f65736e27742065786973747300000000000000000000600082015250565b6000610a7b601683610a34565b9150610a8682610a45565b602082019050919050565b60006020820190508181036000830152610aaa81610a6e565b9050919050565b7f54415247455420414d4f554e5420524541434845440000000000000000000000600082015250565b6000610ae7601583610a34565b9150610af282610ab1565b602082019050919050565b60006020820190508181036000830152610b1681610ada565b9050919050565b7f4e487b7100000000000000000000000000000000000000000000000000000000600052601160045260246000fd5b6000610b5782610857565b9150610b6283610857565b9250828201905080821115610b7a57610b79610b1d565b5b92915050565b7f4e487b7100000000000000000000000000000000000000000000000000000000600052602260045260246000fd5b60006002820490506001821680610bc757607f821691505b602082108103610bda57610bd9610b80565b5b50919050565b6000610beb82610857565b9150610bf683610857565b9250828203905081811115610c0e57610c0d610b1d565b5b92915050565b7f50726f6a65637420776974682074686973206e616d6520616c7265616479206560008201527f7869737473000000000000000000000000000000000000000000000000000000602082015250565b6000610c70602583610a34565b9150610c7b82610c14565b604082019050919050565b60006020820190508181036000830152610c9f81610c63565b9050919050565b6000610cb182610857565b91507fffffffffffffffffffffffffffffffffffffffffffffffffffffffffffffffff8203610ce357610ce2610b1d565b5b600182019050919050565b60008190508160005260206000209050919050565b60006020601f8301049050919050565b600082821b905092915050565b600060088302610d507fffffffffffffffffffffffffffffffffffffffffffffffffffffffffffffffff82610d13565b610d5a8683610d13565b95508019841693508086168417925050509392505050565b6000819050919050565b6000610d97610d92610d8d84610857565b610d72565b610857565b9050919050565b6000819050919050565b610db183610d7c565b610dc5610dbd82610d9e565b848454610d20565b825550505050565b600090565b610dda610dcd565b610de5818484610da8565b505050565b5b81811015610e0957610dfe600082610dd2565b600181019050610deb565b5050565b601f821115610e4e57610e1f81610cee565b610e2884610d03565b81016020851015610e37578190505b610e4b610e4385610d03565b830182610dea565b50505b505050565b600082821c905092915050565b6000610e7160001984600802610e53565b1980831691505092915050565b6000610e8a8383610e60565b9150826002028217905092915050565b610ea3826109ac565b67ffffffffffffffff811115610ebc57610ebb61072c565b5b610ec68254610baf565b610ed1828285610e0d565b600060209050601f831160018114610f045760008415610ef2578287015190505b610efc8582610e7e565b865550610f64565b601f198416610f1286610cee565b60005b82811015610f3a57848901518255600182019150602085019450602081019050610f15565b86831015610f575784890151610f53601f891682610e60565b8355505b6001600288020188555050505b505050505050565b6000819050919050565b610f87610f8282610857565b610f6c565b82525050565b600073ffffffffffffffffffffffffffffffffffffffff82169050919050565b6000610fb882610f8d565b9050919050565b60008160601b9050919050565b6000610fd782610fbf565b9050919050565b6000610fe982610fcc565b9050919050565b611001610ffc82610fad565b610fde565b82525050565b60006110138286610f76565b6020820191506110238285610ff0565b6014820191506110338284610f76565b60208201915081905094935050505056fea264697066735822122066d7dc21b1e431dbf3f4158fb664bb4eaf7e1bccfd9ec8f831e1ae7951cb295364736f6c63430008120033",
					"opcodes": "PUSH1 0x80 PUSH1 0x40 MSTORE PUSH1 0x0 DUP1 SSTORE CALLVALUE DUP1 ISZERO PUSH2 0x14 JUMPI PUSH1 0x0 DUP1 REVERT JUMPDEST POP PUSH2 0x107A DUP1 PUSH2 0x24 PUSH1 0x0 CODECOPY PUSH1 0x0 RETURN INVALID PUSH1 0x80 PUSH1 0x40 MSTORE CALLVALUE DUP1 ISZERO PUSH2 0x10 JUMPI PUSH1 0x0 DUP1 REVERT JUMPDEST POP PUSH1 0x4 CALLDATASIZE LT PUSH2 0x57 JUMPI PUSH1 0x0 CALLDATALOAD PUSH1 0xE0 SHR DUP1 PUSH4 0xEDA4E68 EQ PUSH2 0x5C JUMPI DUP1 PUSH4 0x50B581F5 EQ PUSH2 0x78 JUMPI DUP1 PUSH4 0xA5DB748D EQ PUSH2 0xA8 JUMPI DUP1 PUSH4 0xCB42BBF8 EQ PUSH2 0xC4 JUMPI DUP1 PUSH4 0xEC8DE889 EQ PUSH2 0xF6 JUMPI JUMPDEST PUSH1 0x0 DUP1 REVERT JUMPDEST PUSH2 0x76 PUSH1 0x4 DUP1 CALLDATASIZE SUB DUP2 ADD SWAP1 PUSH2 0x71 SWAP2 SWAP1 PUSH2 0x88D JUMP JUMPDEST PUSH2 0x114 JUMP JUMPDEST STOP JUMPDEST PUSH2 0x92 PUSH1 0x4 DUP1 CALLDATASIZE SUB DUP2 ADD SWAP1 PUSH2 0x8D SWAP2 SWAP1 PUSH2 0x8E9 JUMP JUMPDEST PUSH2 0x200 JUMP JUMPDEST PUSH1 0x40 MLOAD PUSH2 0x9F SWAP2 SWAP1 PUSH2 0x941 JUMP JUMPDEST PUSH1 0x40 MLOAD DUP1 SWAP2 SUB SWAP1 RETURN JUMPDEST PUSH2 0xC2 PUSH1 0x4 DUP1 CALLDATASIZE SUB DUP2 ADD SWAP1 PUSH2 0xBD SWAP2 SWAP1 PUSH2 0x88D JUMP JUMPDEST PUSH2 0x361 JUMP JUMPDEST STOP JUMPDEST PUSH2 0xDE PUSH1 0x4 DUP1 CALLDATASIZE SUB DUP2 ADD SWAP1 PUSH2 0xD9 SWAP2 SWAP1 PUSH2 0x8E9 JUMP JUMPDEST PUSH2 0x460 JUMP JUMPDEST PUSH1 0x40 MLOAD PUSH2 0xED SWAP4 SWAP3 SWAP2 SWAP1 PUSH2 0x975 JUMP JUMPDEST PUSH1 0x40 MLOAD DUP1 SWAP2 SUB SWAP1 RETURN JUMPDEST PUSH2 0xFE PUSH2 0x5C5 JUMP JUMPDEST PUSH1 0x40 MLOAD PUSH2 0x10B SWAP2 SWAP1 PUSH2 0x941 JUMP JUMPDEST PUSH1 0x40 MLOAD DUP1 SWAP2 SUB SWAP1 RETURN JUMPDEST PUSH1 0x0 DUP1 SHL PUSH1 0x1 DUP4 PUSH1 0x40 MLOAD PUSH2 0x128 SWAP2 SWAP1 PUSH2 0xA1D JUMP JUMPDEST SWAP1 DUP2 MSTORE PUSH1 0x20 ADD PUSH1 0x40 MLOAD DUP1 SWAP2 SUB SWAP1 KECCAK256 PUSH1 0x0 ADD SLOAD SUB PUSH2 0x17A JUMPI PUSH1 0x40 MLOAD PUSH32 0x8C379A000000000000000000000000000000000000000000000000000000000 DUP2 MSTORE PUSH1 0x4 ADD PUSH2 0x171 SWAP1 PUSH2 0xA91 JUMP JUMPDEST PUSH1 0x40 MLOAD DUP1 SWAP2 SUB SWAP1 REVERT JUMPDEST PUSH2 0x184 DUP3 DUP3 PUSH2 0x5CE JUMP JUMPDEST ISZERO PUSH2 0x1C4 JUMPI PUSH1 0x40 MLOAD PUSH32 0x8C379A000000000000000000000000000000000000000000000000000000000 DUP2 MSTORE PUSH1 0x4 ADD PUSH2 0x1BB SWAP1 PUSH2 0xAFD JUMP JUMPDEST PUSH1 0x40 MLOAD DUP1 SWAP2 SUB SWAP1 REVERT JUMPDEST DUP1 PUSH1 0x1 DUP4 PUSH1 0x40 MLOAD PUSH2 0x1D5 SWAP2 SWAP1 PUSH2 0xA1D JUMP JUMPDEST SWAP1 DUP2 MSTORE PUSH1 0x20 ADD PUSH1 0x40 MLOAD DUP1 SWAP2 SUB SWAP1 KECCAK256 PUSH1 0x3 ADD PUSH1 0x0 DUP3 DUP3 SLOAD PUSH2 0x1F5 SWAP2 SWAP1 PUSH2 0xB4C JUMP JUMPDEST SWAP3 POP POP DUP2 SWAP1 SSTORE POP POP POP JUMP JUMPDEST PUSH1 0x0 DUP1 PUSH1 0x0 SHL PUSH1 0x1 DUP4 PUSH1 0x40 MLOAD PUSH2 0x216 SWAP2 SWAP1 PUSH2 0xA1D JUMP JUMPDEST SWAP1 DUP2 MSTORE PUSH1 0x20 ADD PUSH1 0x40 MLOAD DUP1 SWAP2 SUB SWAP1 KECCAK256 PUSH1 0x0 ADD SLOAD SUB PUSH2 0x268 JUMPI PUSH1 0x40 MLOAD PUSH32 0x8C379A000000000000000000000000000000000000000000000000000000000 DUP2 MSTORE PUSH1 0x4 ADD PUSH2 0x25F SWAP1 PUSH2 0xA91 JUMP JUMPDEST PUSH1 0x40 MLOAD DUP1 SWAP2 SUB SWAP1 REVERT JUMPDEST PUSH1 0x0 PUSH1 0x1 DUP4 PUSH1 0x40 MLOAD PUSH2 0x27A SWAP2 SWAP1 PUSH2 0xA1D JUMP JUMPDEST SWAP1 DUP2 MSTORE PUSH1 0x20 ADD PUSH1 0x40 MLOAD DUP1 SWAP2 SUB SWAP1 KECCAK256 PUSH1 0x40 MLOAD DUP1 PUSH1 0x80 ADD PUSH1 0x40 MSTORE SWAP1 DUP2 PUSH1 0x0 DUP3 ADD SLOAD DUP2 MSTORE PUSH1 0x20 ADD PUSH1 0x1 DUP3 ADD DUP1 SLOAD PUSH2 0x2AD SWAP1 PUSH2 0xBAF JUMP JUMPDEST DUP1 PUSH1 0x1F ADD PUSH1 0x20 DUP1 SWAP2 DIV MUL PUSH1 0x20 ADD PUSH1 0x40 MLOAD SWAP1 DUP2 ADD PUSH1 0x40 MSTORE DUP1 SWAP3 SWAP2 SWAP1 DUP2 DUP2 MSTORE PUSH1 0x20 ADD DUP3 DUP1 SLOAD PUSH2 0x2D9 SWAP1 PUSH2 0xBAF JUMP JUMPDEST DUP1 ISZERO PUSH2 0x326 JUMPI DUP1 PUSH1 0x1F LT PUSH2 0x2FB JUMPI PUSH2 0x100 DUP1 DUP4 SLOAD DIV MUL DUP4 MSTORE SWAP2 PUSH1 0x20 ADD SWAP2 PUSH2 0x326 JUMP JUMPDEST DUP3 ADD SWAP2 SWAP1 PUSH1 0x0 MSTORE PUSH1 0x20 PUSH1 0x0 KECCAK256 SWAP1 JUMPDEST DUP2 SLOAD DUP2 MSTORE SWAP1 PUSH1 0x1 ADD SWAP1 PUSH1 0x20 ADD DUP1 DUP4 GT PUSH2 0x309 JUMPI DUP3 SWAP1 SUB PUSH1 0x1F AND DUP3 ADD SWAP2 JUMPDEST POP POP POP POP POP DUP2 MSTORE PUSH1 0x20 ADD PUSH1 0x2 DUP3 ADD SLOAD DUP2 MSTORE PUSH1 0x20 ADD PUSH1 0x3 DUP3 ADD SLOAD DUP2 MSTORE POP POP SWAP1 POP DUP1 PUSH1 0x60 ADD MLOAD DUP2 PUSH1 0x40 ADD MLOAD PUSH2 0x359 SWAP2 SWAP1 PUSH2 0xBE0 JUMP JUMPDEST SWAP2 POP POP SWAP2 SWAP1 POP JUMP JUMPDEST PUSH1 0x0 DUP1 SHL PUSH1 0x1 DUP4 PUSH1 0x40 MLOAD PUSH2 0x375 SWAP2 SWAP1 PUSH2 0xA1D JUMP JUMPDEST SWAP1 DUP2 MSTORE PUSH1 0x20 ADD PUSH1 0x40 MLOAD DUP1 SWAP2 SUB SWAP1 KECCAK256 PUSH1 0x0 ADD SLOAD EQ PUSH2 0x3C7 JUMPI PUSH1 0x40 MLOAD PUSH32 0x8C379A000000000000000000000000000000000000000000000000000000000 DUP2 MSTORE PUSH1 0x4 ADD PUSH2 0x3BE SWAP1 PUSH2 0xC86 JUMP JUMPDEST PUSH1 0x40 MLOAD DUP1 SWAP2 SUB SWAP1 REVERT JUMPDEST PUSH1 0x0 DUP1 DUP2 SLOAD DUP1 SWAP3 SWAP2 SWAP1 PUSH2 0x3D9 SWAP1 PUSH2 0xCA6 JUMP JUMPDEST SWAP2 SWAP1 POP SSTORE POP PUSH1 0x40 MLOAD DUP1 PUSH1 0x80 ADD PUSH1 0x40 MSTORE DUP1 PUSH2 0x3F1 PUSH2 0x6CB JUMP JUMPDEST DUP2 MSTORE PUSH1 0x20 ADD DUP4 DUP2 MSTORE PUSH1 0x20 ADD DUP3 DUP2 MSTORE PUSH1 0x20 ADD PUSH1 0x0 DUP2 MSTORE POP PUSH1 0x1 DUP4 PUSH1 0x40 MLOAD PUSH2 0x417 SWAP2 SWAP1 PUSH2 0xA1D JUMP JUMPDEST SWAP1 DUP2 MSTORE PUSH1 0x20 ADD PUSH1 0x40 MLOAD DUP1 SWAP2 SUB SWAP1 KECCAK256 PUSH1 0x0 DUP3 ADD MLOAD DUP2 PUSH1 0x0 ADD SSTORE PUSH1 0x20 DUP3 ADD MLOAD DUP2 PUSH1 0x1 ADD SWAP1 DUP2 PUSH2 0x444 SWAP2 SWAP1 PUSH2 0xE9A JUMP JUMPDEST POP PUSH1 0x40 DUP3 ADD MLOAD DUP2 PUSH1 0x2 ADD SSTORE PUSH1 0x60 DUP3 ADD MLOAD DUP2 PUSH1 0x3 ADD SSTORE SWAP1 POP POP POP POP JUMP JUMPDEST PUSH1 0x0 DUP1 PUSH1 0x0 DUP1 PUSH1 0x0 SHL PUSH1 0x1 DUP6 PUSH1 0x40 MLOAD PUSH2 0x479 SWAP2 SWAP1 PUSH2 0xA1D JUMP JUMPDEST SWAP1 DUP2 MSTORE PUSH1 0x20 ADD PUSH1 0x40 MLOAD DUP1 SWAP2 SUB SWAP1 KECCAK256 PUSH1 0x0 ADD SLOAD SUB PUSH2 0x4CB JUMPI PUSH1 0x40 MLOAD PUSH32 0x8C379A000000000000000000000000000000000000000000000000000000000 DUP2 MSTORE PUSH1 0x4 ADD PUSH2 0x4C2 SWAP1 PUSH2 0xA91 JUMP JUMPDEST PUSH1 0x40 MLOAD DUP1 SWAP2 SUB SWAP1 REVERT JUMPDEST PUSH1 0x0 PUSH1 0x1 DUP6 PUSH1 0x40 MLOAD PUSH2 0x4DD SWAP2 SWAP1 PUSH2 0xA1D JUMP JUMPDEST SWAP1 DUP2 MSTORE PUSH1 0x20 ADD PUSH1 0x40 MLOAD DUP1 SWAP2 SUB SWAP1 KECCAK256 PUSH1 0x40 MLOAD DUP1 PUSH1 0x80 ADD PUSH1 0x40 MSTORE SWAP1 DUP2 PUSH1 0x0 DUP3 ADD SLOAD DUP2 MSTORE PUSH1 0x20 ADD PUSH1 0x1 DUP3 ADD DUP1 SLOAD PUSH2 0x510 SWAP1 PUSH2 0xBAF JUMP JUMPDEST DUP1 PUSH1 0x1F ADD PUSH1 0x20 DUP1 SWAP2 DIV MUL PUSH1 0x20 ADD PUSH1 0x40 MLOAD SWAP1 DUP2 ADD PUSH1 0x40 MSTORE DUP1 SWAP3 SWAP2 SWAP1 DUP2 DUP2 MSTORE PUSH1 0x20 ADD DUP3 DUP1 SLOAD PUSH2 0x53C SWAP1 PUSH2 0xBAF JUMP JUMPDEST DUP1 ISZERO PUSH2 0x589 JUMPI DUP1 PUSH1 0x1F LT PUSH2 0x55E JUMPI PUSH2 0x100 DUP1 DUP4 SLOAD DIV MUL DUP4 MSTORE SWAP2 PUSH1 0x20 ADD SWAP2 PUSH2 0x589 JUMP JUMPDEST DUP3 ADD SWAP2 SWAP1 PUSH1 0x0 MSTORE PUSH1 0x20 PUSH1 0x0 KECCAK256 SWAP1 JUMPDEST DUP2 SLOAD DUP2 MSTORE SWAP1 PUSH1 0x1 ADD SWAP1 PUSH1 0x20 ADD DUP1 DUP4 GT PUSH2 0x56C JUMPI DUP3 SWAP1 SUB PUSH1 0x1F AND DUP3 ADD SWAP2 JUMPDEST POP POP POP POP POP DUP2 MSTORE PUSH1 0x20 ADD PUSH1 0x2 DUP3 ADD SLOAD DUP2 MSTORE PUSH1 0x20 ADD PUSH1 0x3 DUP3 ADD SLOAD DUP2 MSTORE POP POP SWAP1 POP DUP1 PUSH1 0x0 ADD MLOAD DUP2 PUSH1 0x40 ADD MLOAD DUP3 PUSH1 0x60 ADD MLOAD SWAP4 POP SWAP4 POP SWAP4 POP POP SWAP2 SWAP4 SWAP1 SWAP3 POP JUMP JUMPDEST PUSH1 0x0 DUP1 SLOAD SWAP1 POP SWAP1 JUMP JUMPDEST PUSH1 0x0 DUP1 PUSH1 0x1 DUP5 PUSH1 0x40 MLOAD PUSH2 0x5E1 SWAP2 SWAP1 PUSH2 0xA1D JUMP JUMPDEST SWAP1 DUP2 MSTORE PUSH1 0x20 ADD PUSH1 0x40 MLOAD DUP1 SWAP2 SUB SWAP1 KECCAK256 PUSH1 0x40 MLOAD DUP1 PUSH1 0x80 ADD PUSH1 0x40 MSTORE SWAP1 DUP2 PUSH1 0x0 DUP3 ADD SLOAD DUP2 MSTORE PUSH1 0x20 ADD PUSH1 0x1 DUP3 ADD DUP1 SLOAD PUSH2 0x614 SWAP1 PUSH2 0xBAF JUMP JUMPDEST DUP1 PUSH1 0x1F ADD PUSH1 0x20 DUP1 SWAP2 DIV MUL PUSH1 0x20 ADD PUSH1 0x40 MLOAD SWAP1 DUP2 ADD PUSH1 0x40 MSTORE DUP1 SWAP3 SWAP2 SWAP1 DUP2 DUP2 MSTORE PUSH1 0x20 ADD DUP3 DUP1 SLOAD PUSH2 0x640 SWAP1 PUSH2 0xBAF JUMP JUMPDEST DUP1 ISZERO PUSH2 0x68D JUMPI DUP1 PUSH1 0x1F LT PUSH2 0x662 JUMPI PUSH2 0x100 DUP1 DUP4 SLOAD DIV MUL DUP4 MSTORE SWAP2 PUSH1 0x20 ADD SWAP2 PUSH2 0x68D JUMP JUMPDEST DUP3 ADD SWAP2 SWAP1 PUSH1 0x0 MSTORE PUSH1 0x20 PUSH1 0x0 KECCAK256 SWAP1 JUMPDEST DUP2 SLOAD DUP2 MSTORE SWAP1 PUSH1 0x1 ADD SWAP1 PUSH1 0x20 ADD DUP1 DUP4 GT PUSH2 0x670 JUMPI DUP3 SWAP1 SUB PUSH1 0x1F AND DUP3 ADD SWAP2 JUMPDEST POP POP POP POP POP DUP2 MSTORE PUSH1 0x20 ADD PUSH1 0x2 DUP3 ADD SLOAD DUP2 MSTORE PUSH1 0x20 ADD PUSH1 0x3 DUP3 ADD SLOAD DUP2 MSTORE POP POP SWAP1 POP DUP3 DUP2 PUSH1 0x60 ADD MLOAD PUSH2 0x6BC SWAP2 SWAP1 PUSH2 0xB4C JUMP JUMPDEST DUP2 PUSH1 0x40 ADD MLOAD LT SWAP2 POP POP SWAP3 SWAP2 POP POP JUMP JUMPDEST PUSH1 0x0 TIMESTAMP CALLER NUMBER PUSH1 0x40 MLOAD PUSH1 0x20 ADD PUSH2 0x6E2 SWAP4 SWAP3 SWAP2 SWAP1 PUSH2 0x1007 JUMP JUMPDEST PUSH1 0x40 MLOAD PUSH1 0x20 DUP2 DUP4 SUB SUB DUP2 MSTORE SWAP1 PUSH1 0x40 MSTORE DUP1 MLOAD SWAP1 PUSH1 0x20 ADD KECCAK256 SWAP1 POP SWAP1 JUMP JUMPDEST PUSH1 0x0 PUSH1 0x40 MLOAD SWAP1 POP SWAP1 JUMP JUMPDEST PUSH1 0x0 DUP1 REVERT JUMPDEST PUSH1 0x0 DUP1 REVERT JUMPDEST PUSH1 0x0 DUP1 REVERT JUMPDEST PUSH1 0x0 DUP1 REVERT JUMPDEST PUSH1 0x0 PUSH1 0x1F NOT PUSH1 0x1F DUP4 ADD AND SWAP1 POP SWAP2 SWAP1 POP JUMP JUMPDEST PUSH32 0x4E487B7100000000000000000000000000000000000000000000000000000000 PUSH1 0x0 MSTORE PUSH1 0x41 PUSH1 0x4 MSTORE PUSH1 0x24 PUSH1 0x0 REVERT JUMPDEST PUSH2 0x764 DUP3 PUSH2 0x71B JUMP JUMPDEST DUP2 ADD DUP2 DUP2 LT PUSH8 0xFFFFFFFFFFFFFFFF DUP3 GT OR ISZERO PUSH2 0x783 JUMPI PUSH2 0x782 PUSH2 0x72C JUMP JUMPDEST JUMPDEST DUP1 PUSH1 0x40 MSTORE POP POP POP JUMP JUMPDEST PUSH1 0x0 PUSH2 0x796 PUSH2 0x6FD JUMP JUMPDEST SWAP1 POP PUSH2 0x7A2 DUP3 DUP3 PUSH2 0x75B JUMP JUMPDEST SWAP2 SWAP1 POP JUMP JUMPDEST PUSH1 0x0 PUSH8 0xFFFFFFFFFFFFFFFF DUP3 GT ISZERO PUSH2 0x7C2 JUMPI PUSH2 0x7C1 PUSH2 0x72C JUMP JUMPDEST JUMPDEST PUSH2 0x7CB DUP3 PUSH2 0x71B JUMP JUMPDEST SWAP1 POP PUSH1 0x20 DUP2 ADD SWAP1 POP SWAP2 SWAP1 POP JUMP JUMPDEST DUP3 DUP2 DUP4 CALLDATACOPY PUSH1 0x0 DUP4 DUP4 ADD MSTORE POP POP POP JUMP JUMPDEST PUSH1 0x0 PUSH2 0x7FA PUSH2 0x7F5 DUP5 PUSH2 0x7A7 JUMP JUMPDEST PUSH2 0x78C JUMP JUMPDEST SWAP1 POP DUP3 DUP2 MSTORE PUSH1 0x20 DUP2 ADD DUP5 DUP5 DUP5 ADD GT ISZERO PUSH2 0x816 JUMPI PUSH2 0x815 PUSH2 0x716 JUMP JUMPDEST JUMPDEST PUSH2 0x821 DUP5 DUP3 DUP6 PUSH2 0x7D8 JUMP JUMPDEST POP SWAP4 SWAP3 POP POP POP JUMP JUMPDEST PUSH1 0x0 DUP3 PUSH1 0x1F DUP4 ADD SLT PUSH2 0x83E JUMPI PUSH2 0x83D PUSH2 0x711 JUMP JUMPDEST JUMPDEST DUP2 CALLDATALOAD PUSH2 0x84E DUP5 DUP3 PUSH1 0x20 DUP7 ADD PUSH2 0x7E7 JUMP JUMPDEST SWAP2 POP POP SWAP3 SWAP2 POP POP JUMP JUMPDEST PUSH1 0x0 DUP2 SWAP1 POP SWAP2 SWAP1 POP JUMP JUMPDEST PUSH2 0x86A DUP2 PUSH2 0x857 JUMP JUMPDEST DUP2 EQ PUSH2 0x875 JUMPI PUSH1 0x0 DUP1 REVERT JUMPDEST POP JUMP JUMPDEST PUSH1 0x0 DUP2 CALLDATALOAD SWAP1 POP PUSH2 0x887 DUP2 PUSH2 0x861 JUMP JUMPDEST SWAP3 SWAP2 POP POP JUMP JUMPDEST PUSH1 0x0 DUP1 PUSH1 0x40 DUP4 DUP6 SUB SLT ISZERO PUSH2 0x8A4 JUMPI PUSH2 0x8A3 PUSH2 0x707 JUMP JUMPDEST JUMPDEST PUSH1 0x0 DUP4 ADD CALLDATALOAD PUSH8 0xFFFFFFFFFFFFFFFF DUP2 GT ISZERO PUSH2 0x8C2 JUMPI PUSH2 0x8C1 PUSH2 0x70C JUMP JUMPDEST JUMPDEST PUSH2 0x8CE DUP6 DUP3 DUP7 ADD PUSH2 0x829 JUMP JUMPDEST SWAP3 POP POP PUSH1 0x20 PUSH2 0x8DF DUP6 DUP3 DUP7 ADD PUSH2 0x878 JUMP JUMPDEST SWAP2 POP POP SWAP3 POP SWAP3 SWAP1 POP JUMP JUMPDEST PUSH1 0x0 PUSH1 0x20 DUP3 DUP5 SUB SLT ISZERO PUSH2 0x8FF JUMPI PUSH2 0x8FE PUSH2 0x707 JUMP JUMPDEST JUMPDEST PUSH1 0x0 DUP3 ADD CALLDATALOAD PUSH8 0xFFFFFFFFFFFFFFFF DUP2 GT ISZERO PUSH2 0x91D JUMPI PUSH2 0x91C PUSH2 0x70C JUMP JUMPDEST JUMPDEST PUSH2 0x929 DUP5 DUP3 DUP6 ADD PUSH2 0x829 JUMP JUMPDEST SWAP2 POP POP SWAP3 SWAP2 POP POP JUMP JUMPDEST PUSH2 0x93B DUP2 PUSH2 0x857 JUMP JUMPDEST DUP3 MSTORE POP POP JUMP JUMPDEST PUSH1 0x0 PUSH1 0x20 DUP3 ADD SWAP1 POP PUSH2 0x956 PUSH1 0x0 DUP4 ADD DUP5 PUSH2 0x932 JUMP JUMPDEST SWAP3 SWAP2 POP POP JUMP JUMPDEST PUSH1 0x0 DUP2 SWAP1 POP SWAP2 SWAP1 POP JUMP JUMPDEST PUSH2 0x96F DUP2 PUSH2 0x95C JUMP JUMPDEST DUP3 MSTORE POP POP JUMP JUMPDEST PUSH1 0x0 PUSH1 0x60 DUP3 ADD SWAP1 POP PUSH2 0x98A PUSH1 0x0 DUP4 ADD DUP7 PUSH2 0x966 JUMP JUMPDEST PUSH2 0x997 PUSH1 0x20 DUP4 ADD DUP6 PUSH2 0x932 JUMP JUMPDEST PUSH2 0x9A4 PUSH1 0x40 DUP4 ADD DUP5 PUSH2 0x932 JUMP JUMPDEST SWAP5 SWAP4 POP POP POP POP JUMP JUMPDEST PUSH1 0x0 DUP2 MLOAD SWAP1 POP SWAP2 SWAP1 POP JUMP JUMPDEST PUSH1 0x0 DUP2 SWAP1 POP SWAP3 SWAP2 POP POP JUMP JUMPDEST PUSH1 0x0 JUMPDEST DUP4 DUP2 LT ISZERO PUSH2 0x9E0 JUMPI DUP1 DUP3 ADD MLOAD DUP2 DUP5 ADD MSTORE PUSH1 0x20 DUP2 ADD SWAP1 POP PUSH2 0x9C5 JUMP JUMPDEST PUSH1 0x0 DUP5 DUP5 ADD MSTORE POP POP POP POP JUMP JUMPDEST PUSH1 0x0 PUSH2 0x9F7 DUP3 PUSH2 0x9AC JUMP JUMPDEST PUSH2 0xA01 DUP2 DUP6 PUSH2 0x9B7 JUMP JUMPDEST SWAP4 POP PUSH2 0xA11 DUP2 DUP6 PUSH1 0x20 DUP7 ADD PUSH2 0x9C2 JUMP JUMPDEST DUP1 DUP5 ADD SWAP2 POP POP SWAP3 SWAP2 POP POP JUMP JUMPDEST PUSH1 0x0 PUSH2 0xA29 DUP3 DUP5 PUSH2 0x9EC JUMP JUMPDEST SWAP2 POP DUP2 SWAP1 POP SWAP3 SWAP2 POP POP JUMP JUMPDEST PUSH1 0x0 DUP3 DUP3 MSTORE PUSH1 0x20 DUP3 ADD SWAP1 POP SWAP3 SWAP2 POP POP JUMP JUMPDEST PUSH32 0x50726F6A65637420646F65736E27742065786973747300000000000000000000 PUSH1 0x0 DUP3 ADD MSTORE POP JUMP JUMPDEST PUSH1 0x0 PUSH2 0xA7B PUSH1 0x16 DUP4 PUSH2 0xA34 JUMP JUMPDEST SWAP2 POP PUSH2 0xA86 DUP3 PUSH2 0xA45 JUMP JUMPDEST PUSH1 0x20 DUP3 ADD SWAP1 POP SWAP2 SWAP1 POP JUMP JUMPDEST PUSH1 0x0 PUSH1 0x20 DUP3 ADD SWAP1 POP DUP2 DUP2 SUB PUSH1 0x0 DUP4 ADD MSTORE PUSH2 0xAAA DUP2 PUSH2 0xA6E JUMP JUMPDEST SWAP1 POP SWAP2 SWAP1 POP JUMP JUMPDEST PUSH32 0x54415247455420414D4F554E5420524541434845440000000000000000000000 PUSH1 0x0 DUP3 ADD MSTORE POP JUMP JUMPDEST PUSH1 0x0 PUSH2 0xAE7 PUSH1 0x15 DUP4 PUSH2 0xA34 JUMP JUMPDEST SWAP2 POP PUSH2 0xAF2 DUP3 PUSH2 0xAB1 JUMP JUMPDEST PUSH1 0x20 DUP3 ADD SWAP1 POP SWAP2 SWAP1 POP JUMP JUMPDEST PUSH1 0x0 PUSH1 0x20 DUP3 ADD SWAP1 POP DUP2 DUP2 SUB PUSH1 0x0 DUP4 ADD MSTORE PUSH2 0xB16 DUP2 PUSH2 0xADA JUMP JUMPDEST SWAP1 POP SWAP2 SWAP1 POP JUMP JUMPDEST PUSH32 0x4E487B7100000000000000000000000000000000000000000000000000000000 PUSH1 0x0 MSTORE PUSH1 0x11 PUSH1 0x4 MSTORE PUSH1 0x24 PUSH1 0x0 REVERT JUMPDEST PUSH1 0x0 PUSH2 0xB57 DUP3 PUSH2 0x857 JUMP JUMPDEST SWAP2 POP PUSH2 0xB62 DUP4 PUSH2 0x857 JUMP JUMPDEST SWAP3 POP DUP3 DUP3 ADD SWAP1 POP DUP1 DUP3 GT ISZERO PUSH2 0xB7A JUMPI PUSH2 0xB79 PUSH2 0xB1D JUMP JUMPDEST JUMPDEST SWAP3 SWAP2 POP POP JUMP JUMPDEST PUSH32 0x4E487B7100000000000000000000000000000000000000000000000000000000 PUSH1 0x0 MSTORE PUSH1 0x22 PUSH1 0x4 MSTORE PUSH1 0x24 PUSH1 0x0 REVERT JUMPDEST PUSH1 0x0 PUSH1 0x2 DUP3 DIV SWAP1 POP PUSH1 0x1 DUP3 AND DUP1 PUSH2 0xBC7 JUMPI PUSH1 0x7F DUP3 AND SWAP2 POP JUMPDEST PUSH1 0x20 DUP3 LT DUP2 SUB PUSH2 0xBDA JUMPI PUSH2 0xBD9 PUSH2 0xB80 JUMP JUMPDEST JUMPDEST POP SWAP2 SWAP1 POP JUMP JUMPDEST PUSH1 0x0 PUSH2 0xBEB DUP3 PUSH2 0x857 JUMP JUMPDEST SWAP2 POP PUSH2 0xBF6 DUP4 PUSH2 0x857 JUMP JUMPDEST SWAP3 POP DUP3 DUP3 SUB SWAP1 POP DUP2 DUP2 GT ISZERO PUSH2 0xC0E JUMPI PUSH2 0xC0D PUSH2 0xB1D JUMP JUMPDEST JUMPDEST SWAP3 SWAP2 POP POP JUMP JUMPDEST PUSH32 0x50726F6A65637420776974682074686973206E616D6520616C72656164792065 PUSH1 0x0 DUP3 ADD MSTORE PUSH32 0x7869737473000000000000000000000000000000000000000000000000000000 PUSH1 0x20 DUP3 ADD MSTORE POP JUMP JUMPDEST PUSH1 0x0 PUSH2 0xC70 PUSH1 0x25 DUP4 PUSH2 0xA34 JUMP JUMPDEST SWAP2 POP PUSH2 0xC7B DUP3 PUSH2 0xC14 JUMP JUMPDEST PUSH1 0x40 DUP3 ADD SWAP1 POP SWAP2 SWAP1 POP JUMP JUMPDEST PUSH1 0x0 PUSH1 0x20 DUP3 ADD SWAP1 POP DUP2 DUP2 SUB PUSH1 0x0 DUP4 ADD MSTORE PUSH2 0xC9F DUP2 PUSH2 0xC63 JUMP JUMPDEST SWAP1 POP SWAP2 SWAP1 POP JUMP JUMPDEST PUSH1 0x0 PUSH2 0xCB1 DUP3 PUSH2 0x857 JUMP JUMPDEST SWAP2 POP PUSH32 0xFFFFFFFFFFFFFFFFFFFFFFFFFFFFFFFFFFFFFFFFFFFFFFFFFFFFFFFFFFFFFFFF DUP3 SUB PUSH2 0xCE3 JUMPI PUSH2 0xCE2 PUSH2 0xB1D JUMP JUMPDEST JUMPDEST PUSH1 0x1 DUP3 ADD SWAP1 POP SWAP2 SWAP1 POP JUMP JUMPDEST PUSH1 0x0 DUP2 SWAP1 POP DUP2 PUSH1 0x0 MSTORE PUSH1 0x20 PUSH1 0x0 KECCAK256 SWAP1 POP SWAP2 SWAP1 POP JUMP JUMPDEST PUSH1 0x0 PUSH1 0x20 PUSH1 0x1F DUP4 ADD DIV SWAP1 POP SWAP2 SWAP1 POP JUMP JUMPDEST PUSH1 0x0 DUP3 DUP3 SHL SWAP1 POP SWAP3 SWAP2 POP POP JUMP JUMPDEST PUSH1 0x0 PUSH1 0x8 DUP4 MUL PUSH2 0xD50 PUSH32 0xFFFFFFFFFFFFFFFFFFFFFFFFFFFFFFFFFFFFFFFFFFFFFFFFFFFFFFFFFFFFFFFF DUP3 PUSH2 0xD13 JUMP JUMPDEST PUSH2 0xD5A DUP7 DUP4 PUSH2 0xD13 JUMP JUMPDEST SWAP6 POP DUP1 NOT DUP5 AND SWAP4 POP DUP1 DUP7 AND DUP5 OR SWAP3 POP POP POP SWAP4 SWAP3 POP POP POP JUMP JUMPDEST PUSH1 0x0 DUP2 SWAP1 POP SWAP2 SWAP1 POP JUMP JUMPDEST PUSH1 0x0 PUSH2 0xD97 PUSH2 0xD92 PUSH2 0xD8D DUP5 PUSH2 0x857 JUMP JUMPDEST PUSH2 0xD72 JUMP JUMPDEST PUSH2 0x857 JUMP JUMPDEST SWAP1 POP SWAP2 SWAP1 POP JUMP JUMPDEST PUSH1 0x0 DUP2 SWAP1 POP SWAP2 SWAP1 POP JUMP JUMPDEST PUSH2 0xDB1 DUP4 PUSH2 0xD7C JUMP JUMPDEST PUSH2 0xDC5 PUSH2 0xDBD DUP3 PUSH2 0xD9E JUMP JUMPDEST DUP5 DUP5 SLOAD PUSH2 0xD20 JUMP JUMPDEST DUP3 SSTORE POP POP POP POP JUMP JUMPDEST PUSH1 0x0 SWAP1 JUMP JUMPDEST PUSH2 0xDDA PUSH2 0xDCD JUMP JUMPDEST PUSH2 0xDE5 DUP2 DUP5 DUP5 PUSH2 0xDA8 JUMP JUMPDEST POP POP POP JUMP JUMPDEST JUMPDEST DUP2 DUP2 LT ISZERO PUSH2 0xE09 JUMPI PUSH2 0xDFE PUSH1 0x0 DUP3 PUSH2 0xDD2 JUMP JUMPDEST PUSH1 0x1 DUP2 ADD SWAP1 POP PUSH2 0xDEB JUMP JUMPDEST POP POP JUMP JUMPDEST PUSH1 0x1F DUP3 GT ISZERO PUSH2 0xE4E JUMPI PUSH2 0xE1F DUP2 PUSH2 0xCEE JUMP JUMPDEST PUSH2 0xE28 DUP5 PUSH2 0xD03 JUMP JUMPDEST DUP2 ADD PUSH1 0x20 DUP6 LT ISZERO PUSH2 0xE37 JUMPI DUP2 SWAP1 POP JUMPDEST PUSH2 0xE4B PUSH2 0xE43 DUP6 PUSH2 0xD03 JUMP JUMPDEST DUP4 ADD DUP3 PUSH2 0xDEA JUMP JUMPDEST POP POP JUMPDEST POP POP POP JUMP JUMPDEST PUSH1 0x0 DUP3 DUP3 SHR SWAP1 POP SWAP3 SWAP2 POP POP JUMP JUMPDEST PUSH1 0x0 PUSH2 0xE71 PUSH1 0x0 NOT DUP5 PUSH1 0x8 MUL PUSH2 0xE53 JUMP JUMPDEST NOT DUP1 DUP4 AND SWAP2 POP POP SWAP3 SWAP2 POP POP JUMP JUMPDEST PUSH1 0x0 PUSH2 0xE8A DUP4 DUP4 PUSH2 0xE60 JUMP JUMPDEST SWAP2 POP DUP3 PUSH1 0x2 MUL DUP3 OR SWAP1 POP SWAP3 SWAP2 POP POP JUMP JUMPDEST PUSH2 0xEA3 DUP3 PUSH2 0x9AC JUMP JUMPDEST PUSH8 0xFFFFFFFFFFFFFFFF DUP2 GT ISZERO PUSH2 0xEBC JUMPI PUSH2 0xEBB PUSH2 0x72C JUMP JUMPDEST JUMPDEST PUSH2 0xEC6 DUP3 SLOAD PUSH2 0xBAF JUMP JUMPDEST PUSH2 0xED1 DUP3 DUP3 DUP6 PUSH2 0xE0D JUMP JUMPDEST PUSH1 0x0 PUSH1 0x20 SWAP1 POP PUSH1 0x1F DUP4 GT PUSH1 0x1 DUP2 EQ PUSH2 0xF04 JUMPI PUSH1 0x0 DUP5 ISZERO PUSH2 0xEF2 JUMPI DUP3 DUP8 ADD MLOAD SWAP1 POP JUMPDEST PUSH2 0xEFC DUP6 DUP3 PUSH2 0xE7E JUMP JUMPDEST DUP7 SSTORE POP PUSH2 0xF64 JUMP JUMPDEST PUSH1 0x1F NOT DUP5 AND PUSH2 0xF12 DUP7 PUSH2 0xCEE JUMP JUMPDEST PUSH1 0x0 JUMPDEST DUP3 DUP2 LT ISZERO PUSH2 0xF3A JUMPI DUP5 DUP10 ADD MLOAD DUP3 SSTORE PUSH1 0x1 DUP3 ADD SWAP2 POP PUSH1 0x20 DUP6 ADD SWAP5 POP PUSH1 0x20 DUP2 ADD SWAP1 POP PUSH2 0xF15 JUMP JUMPDEST DUP7 DUP4 LT ISZERO PUSH2 0xF57 JUMPI DUP5 DUP10 ADD MLOAD PUSH2 0xF53 PUSH1 0x1F DUP10 AND DUP3 PUSH2 0xE60 JUMP JUMPDEST DUP4 SSTORE POP JUMPDEST PUSH1 0x1 PUSH1 0x2 DUP9 MUL ADD DUP9 SSTORE POP POP POP JUMPDEST POP POP POP POP POP POP JUMP JUMPDEST PUSH1 0x0 DUP2 SWAP1 POP SWAP2 SWAP1 POP JUMP JUMPDEST PUSH2 0xF87 PUSH2 0xF82 DUP3 PUSH2 0x857 JUMP JUMPDEST PUSH2 0xF6C JUMP JUMPDEST DUP3 MSTORE POP POP JUMP JUMPDEST PUSH1 0x0 PUSH20 0xFFFFFFFFFFFFFFFFFFFFFFFFFFFFFFFFFFFFFFFF DUP3 AND SWAP1 POP SWAP2 SWAP1 POP JUMP JUMPDEST PUSH1 0x0 PUSH2 0xFB8 DUP3 PUSH2 0xF8D JUMP JUMPDEST SWAP1 POP SWAP2 SWAP1 POP JUMP JUMPDEST PUSH1 0x0 DUP2 PUSH1 0x60 SHL SWAP1 POP SWAP2 SWAP1 POP JUMP JUMPDEST PUSH1 0x0 PUSH2 0xFD7 DUP3 PUSH2 0xFBF JUMP JUMPDEST SWAP1 POP SWAP2 SWAP1 POP JUMP JUMPDEST PUSH1 0x0 PUSH2 0xFE9 DUP3 PUSH2 0xFCC JUMP JUMPDEST SWAP1 POP SWAP2 SWAP1 POP JUMP JUMPDEST PUSH2 0x1001 PUSH2 0xFFC DUP3 PUSH2 0xFAD JUMP JUMPDEST PUSH2 0xFDE JUMP JUMPDEST DUP3 MSTORE POP POP JUMP JUMPDEST PUSH1 0x0 PUSH2 0x1013 DUP3 DUP7 PUSH2 0xF76 JUMP JUMPDEST PUSH1 0x20 DUP3 ADD SWAP2 POP PUSH2 0x1023 DUP3 DUP6 PUSH2 0xFF0 JUMP JUMPDEST PUSH1 0x14 DUP3 ADD SWAP2 POP PUSH2 0x1033 DUP3 DUP5 PUSH2 0xF76 JUMP JUMPDEST PUSH1 0x20 DUP3 ADD SWAP2 POP DUP2 SWAP1 POP SWAP5 SWAP4 POP POP POP POP JUMP INVALID LOG2 PUSH5 0x6970667358 0x22 SLT KECCAK256 PUSH7 0xD7DC21B1E431DB RETURN DELEGATECALL ISZERO DUP16 0xB6 PUSH5 0xBB4EAF7E1B 0xCC REVERT SWAP15 0xC8 0xF8 BALANCE 0xE1 0xAE PUSH26 0x51CB295364736F6C634300081200330000000000000000000000 "
				},
				"gasEstimates": {
					"creation": {
						"codeDepositCost": "843600",
						"executionCost": "5883",
						"totalCost": "849483"
					},
					"external": {
						"amountToReachTarget(string)": "infinite",
						"fundProyect(string,uint256)": "infinite",
						"getProyectsCount()": "2503",
						"newProyect(string,uint256)": "infinite",
						"proyectInfo(string)": "infinite"
					},
					"internal": {
						"giveID()": "infinite",
						"targetAmountReached(string memory,uint256)": "infinite"
					}
				},
				"methodIdentifiers": {
					"amountToReachTarget(string)": "50b581f5",
					"fundProyect(string,uint256)": "0eda4e68",
					"getProyectsCount()": "ec8de889",
					"newProyect(string,uint256)": "a5db748d",
					"proyectInfo(string)": "cb42bbf8"
				}
			},
			"storageLayout": {
				"storage": [
					{
						"astId": 14,
						"contract": "crowfunding.sol:crowFunding",
						"label": "proyectsCount",
						"offset": 0,
						"slot": "0",
						"type": "t_uint256"
					},
					{
						"astId": 19,
						"contract": "crowfunding.sol:crowFunding",
						"label": "proyects",
						"offset": 0,
						"slot": "1",
						"type": "t_mapping(t_string_memory_ptr,t_struct(Proyect)11_storage)"
					}
				],
				"types": {
					"t_bytes32": {
						"encoding": "inplace",
						"label": "bytes32",
						"numberOfBytes": "32"
					},
					"t_mapping(t_string_memory_ptr,t_struct(Proyect)11_storage)": {
						"encoding": "mapping",
						"key": "t_string_memory_ptr",
						"label": "mapping(string => struct crowFunding.Proyect)",
						"numberOfBytes": "32",
						"value": "t_struct(Proyect)11_storage"
					},
					"t_string_memory_ptr": {
						"encoding": "bytes",
						"label": "string",
						"numberOfBytes": "32"
					},
					"t_string_storage": {
						"encoding": "bytes",
						"label": "string",
						"numberOfBytes": "32"
					},
					"t_struct(Proyect)11_storage": {
						"encoding": "inplace",
						"label": "struct crowFunding.Proyect",
						"members": [
							{
								"astId": 4,
								"contract": "crowfunding.sol:crowFunding",
								"label": "Id",
								"offset": 0,
								"slot": "0",
								"type": "t_bytes32"
							},
							{
								"astId": 6,
								"contract": "crowfunding.sol:crowFunding",
								"label": "name",
								"offset": 0,
								"slot": "1",
								"type": "t_string_storage"
							},
							{
								"astId": 8,
								"contract": "crowfunding.sol:crowFunding",
								"label": "targetAmount",
								"offset": 0,
								"slot": "2",
								"type": "t_uint256"
							},
							{
								"astId": 10,
								"contract": "crowfunding.sol:crowFunding",
								"label": "collectedAmount",
								"offset": 0,
								"slot": "3",
								"type": "t_uint256"
							}
						],
						"numberOfBytes": "128"
					},
					"t_uint256": {
						"encoding": "inplace",
						"label": "uint256",
						"numberOfBytes": "32"
					}
				}
			},
			"userdoc": {
				"kind": "user",
				"methods": {},
				"version": 1
			}
		}
	}
}