{
	"crowfunding.sol": {
		"crowFunding": {
			"abi": [
				{
					"inputs": [
						{
							"internalType": "string",
							"name": "_name",
							"type": "string"
						}
					],
					"name": "amountToReachTarget",
					"outputs": [
						{
							"internalType": "uint256",
							"name": "",
							"type": "uint256"
						}
					],
					"stateMutability": "view",
					"type": "function"
				},
				{
					"inputs": [
						{
							"internalType": "string",
							"name": "_name",
							"type": "string"
						},
						{
							"internalType": "uint256",
							"name": "_amount",
							"type": "uint256"
						}
					],
					"name": "fundProyect",
					"outputs": [],
					"stateMutability": "nonpayable",
					"type": "function"
				},
				{
					"inputs": [
						{
							"internalType": "string",
							"name": "_name",
							"type": "string"
						},
						{
							"internalType": "uint256",
							"name": "_target",
							"type": "uint256"
						}
					],
					"name": "newProyect",
					"outputs": [],
					"stateMutability": "nonpayable",
					"type": "function"
				},
				{
					"inputs": [
						{
							"internalType": "string",
							"name": "_name",
							"type": "string"
						}
					],
					"name": "proyectInfo",
					"outputs": [
						{
							"internalType": "uint256",
							"name": "",
							"type": "uint256"
						},
						{
							"internalType": "uint256",
							"name": "",
							"type": "uint256"
						},
						{
							"internalType": "uint256",
							"name": "",
							"type": "uint256"
						}
					],
					"stateMutability": "view",
					"type": "function"
				}
			],
			"devdoc": {
				"kind": "dev",
				"methods": {},
				"version": 1
			},
			"evm": {
				"assembly": "    /* \"crowfunding.sol\":58:1520  contract crowFunding{... */\n  mstore(0x40, 0x80)\n    /* \"crowfunding.sol\":227:228  0 */\n  0x00\n    /* \"crowfunding.sol\":206:228  uint proyectsCount = 0 */\n  dup1\n  sstore\n    /* \"crowfunding.sol\":58:1520  contract crowFunding{... */\n  callvalue\n  dup1\n  iszero\n  tag_1\n  jumpi\n  0x00\n  dup1\n  revert\ntag_1:\n  pop\n  dataSize(sub_0)\n  dup1\n  dataOffset(sub_0)\n  0x00\n  codecopy\n  0x00\n  return\nstop\n\nsub_0: assembly {\n        /* \"crowfunding.sol\":58:1520  contract crowFunding{... */\n      mstore(0x40, 0x80)\n      callvalue\n      dup1\n      iszero\n      tag_1\n      jumpi\n      0x00\n      dup1\n      revert\n    tag_1:\n      pop\n      jumpi(tag_2, lt(calldatasize, 0x04))\n      shr(0xe0, calldataload(0x00))\n      dup1\n      0x0eda4e68\n      eq\n      tag_3\n      jumpi\n      dup1\n      0x50b581f5\n      eq\n      tag_4\n      jumpi\n      dup1\n      0xa5db748d\n      eq\n      tag_5\n      jumpi\n      dup1\n      0xcb42bbf8\n      eq\n      tag_6\n      jumpi\n    tag_2:\n      0x00\n      dup1\n      revert\n        /* \"crowfunding.sol\":1041:1243  function fundProyect(string memory _name, uint _amount) external{... */\n    tag_3:\n      tag_7\n      0x04\n      dup1\n      calldatasize\n      sub\n      dup2\n      add\n      swap1\n      tag_8\n      swap2\n      swap1\n      tag_9\n      jump\t// in\n    tag_8:\n      tag_10\n      jump\t// in\n    tag_7:\n      stop\n        /* \"crowfunding.sol\":795:994  function amountToReachTarget(string memory _name) external view returns (uint) {... */\n    tag_4:\n      tag_11\n      0x04\n      dup1\n      calldatasize\n      sub\n      dup2\n      add\n      swap1\n      tag_12\n      swap2\n      swap1\n      tag_13\n      jump\t// in\n    tag_12:\n      tag_14\n      jump\t// in\n    tag_11:\n      mload(0x40)\n      tag_15\n      swap2\n      swap1\n      tag_16\n      jump\t// in\n    tag_15:\n      mload(0x40)\n      dup1\n      swap2\n      sub\n      swap1\n      return\n        /* \"crowfunding.sol\":314:476  function newProyect(string memory _name, uint _target) external{... */\n    tag_5:\n      tag_17\n      0x04\n      dup1\n      calldatasize\n      sub\n      dup2\n      add\n      swap1\n      tag_18\n      swap2\n      swap1\n      tag_9\n      jump\t// in\n    tag_18:\n      tag_19\n      jump\t// in\n    tag_17:\n      stop\n        /* \"crowfunding.sol\":1298:1511  function proyectInfo(string memory _name) external view returns(uint, uint, uint){... */\n    tag_6:\n      tag_20\n      0x04\n      dup1\n      calldatasize\n      sub\n      dup2\n      add\n      swap1\n      tag_21\n      swap2\n      swap1\n      tag_13\n      jump\t// in\n    tag_21:\n      tag_22\n      jump\t// in\n    tag_20:\n      mload(0x40)\n      tag_23\n      swap4\n      swap3\n      swap2\n      swap1\n      tag_24\n      jump\t// in\n    tag_23:\n      mload(0x40)\n      dup1\n      swap2\n      sub\n      swap1\n      return\n        /* \"crowfunding.sol\":1041:1243  function fundProyect(string memory _name, uint _amount) external{... */\n    tag_10:\n        /* \"crowfunding.sol\":1124:1159  targetAmountReached(_name, _amount) */\n      tag_26\n        /* \"crowfunding.sol\":1144:1149  _name */\n      dup3\n        /* \"crowfunding.sol\":1151:1158  _amount */\n      dup3\n        /* \"crowfunding.sol\":1124:1143  targetAmountReached */\n      tag_27\n        /* \"crowfunding.sol\":1124:1159  targetAmountReached(_name, _amount) */\n      jump\t// in\n    tag_26:\n        /* \"crowfunding.sol\":1123:1159  !targetAmountReached(_name, _amount) */\n      iszero\n        /* \"crowfunding.sol\":1115:1184  require(!targetAmountReached(_name, _amount),\"TARGET AMOUNT REACHED\") */\n      tag_28\n      jumpi\n      mload(0x40)\n      0x08c379a000000000000000000000000000000000000000000000000000000000\n      dup2\n      mstore\n      0x04\n      add\n      tag_29\n      swap1\n      tag_30\n      jump\t// in\n    tag_29:\n      mload(0x40)\n      dup1\n      swap2\n      sub\n      swap1\n      revert\n    tag_28:\n        /* \"crowfunding.sol\":1229:1236  _amount */\n      dup1\n        /* \"crowfunding.sol\":1194:1202  proyects */\n      0x01\n        /* \"crowfunding.sol\":1203:1208  _name */\n      dup4\n        /* \"crowfunding.sol\":1194:1209  proyects[_name] */\n      mload(0x40)\n      tag_31\n      swap2\n      swap1\n      tag_32\n      jump\t// in\n    tag_31:\n      swap1\n      dup2\n      mstore\n      0x20\n      add\n      mload(0x40)\n      dup1\n      swap2\n      sub\n      swap1\n      keccak256\n        /* \"crowfunding.sol\":1194:1225  proyects[_name].collectedAmount */\n      0x03\n      add\n      0x00\n        /* \"crowfunding.sol\":1194:1236  proyects[_name].collectedAmount += _amount */\n      dup3\n      dup3\n      sload\n      tag_33\n      swap2\n      swap1\n      tag_34\n      jump\t// in\n    tag_33:\n      swap3\n      pop\n      pop\n      dup2\n      swap1\n      sstore\n      pop\n        /* \"crowfunding.sol\":1041:1243  function fundProyect(string memory _name, uint _amount) external{... */\n      pop\n      pop\n      jump\t// out\n        /* \"crowfunding.sol\":795:994  function amountToReachTarget(string memory _name) external view returns (uint) {... */\n    tag_14:\n        /* \"crowfunding.sol\":868:872  uint */\n      0x00\n        /* \"crowfunding.sol\":884:906  Proyect memory proyect */\n      dup1\n        /* \"crowfunding.sol\":909:917  proyects */\n      0x01\n        /* \"crowfunding.sol\":918:923  _name */\n      dup4\n        /* \"crowfunding.sol\":909:924  proyects[_name] */\n      mload(0x40)\n      tag_36\n      swap2\n      swap1\n      tag_32\n      jump\t// in\n    tag_36:\n      swap1\n      dup2\n      mstore\n      0x20\n      add\n      mload(0x40)\n      dup1\n      swap2\n      sub\n      swap1\n      keccak256\n        /* \"crowfunding.sol\":884:924  Proyect memory proyect = proyects[_name] */\n      mload(0x40)\n      dup1\n      0x80\n      add\n      0x40\n      mstore\n      swap1\n      dup2\n      0x00\n      dup3\n      add\n      sload\n      dup2\n      mstore\n      0x20\n      add\n      0x01\n      dup3\n      add\n      dup1\n      sload\n      tag_37\n      swap1\n      tag_38\n      jump\t// in\n    tag_37:\n      dup1\n      0x1f\n      add\n      0x20\n      dup1\n      swap2\n      div\n      mul\n      0x20\n      add\n      mload(0x40)\n      swap1\n      dup2\n      add\n      0x40\n      mstore\n      dup1\n      swap3\n      swap2\n      swap1\n      dup2\n      dup2\n      mstore\n      0x20\n      add\n      dup3\n      dup1\n      sload\n      tag_39\n      swap1\n      tag_38\n      jump\t// in\n    tag_39:\n      dup1\n      iszero\n      tag_40\n      jumpi\n      dup1\n      0x1f\n      lt\n      tag_41\n      jumpi\n      0x0100\n      dup1\n      dup4\n      sload\n      div\n      mul\n      dup4\n      mstore\n      swap2\n      0x20\n      add\n      swap2\n      jump(tag_40)\n    tag_41:\n      dup3\n      add\n      swap2\n      swap1\n      0x00\n      mstore\n      keccak256(0x00, 0x20)\n      swap1\n    tag_42:\n      dup2\n      sload\n      dup2\n      mstore\n      swap1\n      0x01\n      add\n      swap1\n      0x20\n      add\n      dup1\n      dup4\n      gt\n      tag_42\n      jumpi\n      dup3\n      swap1\n      sub\n      0x1f\n      and\n      dup3\n      add\n      swap2\n    tag_40:\n      pop\n      pop\n      pop\n      pop\n      pop\n      dup2\n      mstore\n      0x20\n      add\n      0x02\n      dup3\n      add\n      sload\n      dup2\n      mstore\n      0x20\n      add\n      0x03\n      dup3\n      add\n      sload\n      dup2\n      mstore\n      pop\n      pop\n      swap1\n      pop\n        /* \"crowfunding.sol\":964:971  proyect */\n      dup1\n        /* \"crowfunding.sol\":964:987  proyect.collectedAmount */\n      0x60\n      add\n      mload\n        /* \"crowfunding.sol\":941:948  proyect */\n      dup2\n        /* \"crowfunding.sol\":941:961  proyect.targetAmount */\n      0x40\n      add\n      mload\n        /* \"crowfunding.sol\":941:987  proyect.targetAmount - proyect.collectedAmount */\n      tag_43\n      swap2\n      swap1\n      tag_44\n      jump\t// in\n    tag_43:\n        /* \"crowfunding.sol\":934:987  return proyect.targetAmount - proyect.collectedAmount */\n      swap2\n      pop\n      pop\n        /* \"crowfunding.sol\":795:994  function amountToReachTarget(string memory _name) external view returns (uint) {... */\n      swap2\n      swap1\n      pop\n      jump\t// out\n        /* \"crowfunding.sol\":314:476  function newProyect(string memory _name, uint _target) external{... */\n    tag_19:\n        /* \"crowfunding.sol\":387:400  proyectsCount */\n      0x00\n      dup1\n        /* \"crowfunding.sol\":387:402  proyectsCount++ */\n      dup2\n      sload\n      dup1\n      swap3\n      swap2\n      swap1\n      tag_46\n      swap1\n      tag_47\n      jump\t// in\n    tag_46:\n      swap2\n      swap1\n      pop\n      sstore\n      pop\n        /* \"crowfunding.sol\":430:469  Proyect(proyectsCount,_name,_target, 0) */\n      mload(0x40)\n      dup1\n      0x80\n      add\n      0x40\n      mstore\n      dup1\n        /* \"crowfunding.sol\":438:451  proyectsCount */\n      sload(0x00)\n        /* \"crowfunding.sol\":430:469  Proyect(proyectsCount,_name,_target, 0) */\n      dup2\n      mstore\n      0x20\n      add\n        /* \"crowfunding.sol\":452:457  _name */\n      dup4\n        /* \"crowfunding.sol\":430:469  Proyect(proyectsCount,_name,_target, 0) */\n      dup2\n      mstore\n      0x20\n      add\n        /* \"crowfunding.sol\":458:465  _target */\n      dup3\n        /* \"crowfunding.sol\":430:469  Proyect(proyectsCount,_name,_target, 0) */\n      dup2\n      mstore\n      0x20\n      add\n        /* \"crowfunding.sol\":467:468  0 */\n      0x00\n        /* \"crowfunding.sol\":430:469  Proyect(proyectsCount,_name,_target, 0) */\n      dup2\n      mstore\n      pop\n        /* \"crowfunding.sol\":412:420  proyects */\n      0x01\n        /* \"crowfunding.sol\":421:426  _name */\n      dup4\n        /* \"crowfunding.sol\":412:427  proyects[_name] */\n      mload(0x40)\n      tag_48\n      swap2\n      swap1\n      tag_32\n      jump\t// in\n    tag_48:\n      swap1\n      dup2\n      mstore\n      0x20\n      add\n      mload(0x40)\n      dup1\n      swap2\n      sub\n      swap1\n      keccak256\n        /* \"crowfunding.sol\":412:469  proyects[_name] = Proyect(proyectsCount,_name,_target, 0) */\n      0x00\n      dup3\n      add\n      mload\n      dup2\n      0x00\n      add\n      sstore\n      0x20\n      dup3\n      add\n      mload\n      dup2\n      0x01\n      add\n      swap1\n      dup2\n      tag_49\n      swap2\n      swap1\n      tag_50\n      jump\t// in\n    tag_49:\n      pop\n      0x40\n      dup3\n      add\n      mload\n      dup2\n      0x02\n      add\n      sstore\n      0x60\n      dup3\n      add\n      mload\n      dup2\n      0x03\n      add\n      sstore\n      swap1\n      pop\n      pop\n        /* \"crowfunding.sol\":314:476  function newProyect(string memory _name, uint _target) external{... */\n      pop\n      pop\n      jump\t// out\n        /* \"crowfunding.sol\":1298:1511  function proyectInfo(string memory _name) external view returns(uint, uint, uint){... */\n    tag_22:\n        /* \"crowfunding.sol\":1362:1366  uint */\n      0x00\n        /* \"crowfunding.sol\":1368:1372  uint */\n      dup1\n        /* \"crowfunding.sol\":1374:1378  uint */\n      0x00\n        /* \"crowfunding.sol\":1389:1411  Proyect memory proyect */\n      dup1\n        /* \"crowfunding.sol\":1414:1422  proyects */\n      0x01\n        /* \"crowfunding.sol\":1423:1428  _name */\n      dup6\n        /* \"crowfunding.sol\":1414:1429  proyects[_name] */\n      mload(0x40)\n      tag_52\n      swap2\n      swap1\n      tag_32\n      jump\t// in\n    tag_52:\n      swap1\n      dup2\n      mstore\n      0x20\n      add\n      mload(0x40)\n      dup1\n      swap2\n      sub\n      swap1\n      keccak256\n        /* \"crowfunding.sol\":1389:1429  Proyect memory proyect = proyects[_name] */\n      mload(0x40)\n      dup1\n      0x80\n      add\n      0x40\n      mstore\n      swap1\n      dup2\n      0x00\n      dup3\n      add\n      sload\n      dup2\n      mstore\n      0x20\n      add\n      0x01\n      dup3\n      add\n      dup1\n      sload\n      tag_53\n      swap1\n      tag_38\n      jump\t// in\n    tag_53:\n      dup1\n      0x1f\n      add\n      0x20\n      dup1\n      swap2\n      div\n      mul\n      0x20\n      add\n      mload(0x40)\n      swap1\n      dup2\n      add\n      0x40\n      mstore\n      dup1\n      swap3\n      swap2\n      swap1\n      dup2\n      dup2\n      mstore\n      0x20\n      add\n      dup3\n      dup1\n      sload\n      tag_54\n      swap1\n      tag_38\n      jump\t// in\n    tag_54:\n      dup1\n      iszero\n      tag_55\n      jumpi\n      dup1\n      0x1f\n      lt\n      tag_56\n      jumpi\n      0x0100\n      dup1\n      dup4\n      sload\n      div\n      mul\n      dup4\n      mstore\n      swap2\n      0x20\n      add\n      swap2\n      jump(tag_55)\n    tag_56:\n      dup3\n      add\n      swap2\n      swap1\n      0x00\n      mstore\n      keccak256(0x00, 0x20)\n      swap1\n    tag_57:\n      dup2\n      sload\n      dup2\n      mstore\n      swap1\n      0x01\n      add\n      swap1\n      0x20\n      add\n      dup1\n      dup4\n      gt\n      tag_57\n      jumpi\n      dup3\n      swap1\n      sub\n      0x1f\n      and\n      dup3\n      add\n      swap2\n    tag_55:\n      pop\n      pop\n      pop\n      pop\n      pop\n      dup2\n      mstore\n      0x20\n      add\n      0x02\n      dup3\n      add\n      sload\n      dup2\n      mstore\n      0x20\n      add\n      0x03\n      dup3\n      add\n      sload\n      dup2\n      mstore\n      pop\n      pop\n      swap1\n      pop\n        /* \"crowfunding.sol\":1447:1454  proyect */\n      dup1\n        /* \"crowfunding.sol\":1447:1457  proyect.Id */\n      0x00\n      add\n      mload\n        /* \"crowfunding.sol\":1458:1465  proyect */\n      dup2\n        /* \"crowfunding.sol\":1458:1478  proyect.targetAmount */\n      0x40\n      add\n      mload\n        /* \"crowfunding.sol\":1479:1486  proyect */\n      dup3\n        /* \"crowfunding.sol\":1479:1502  proyect.collectedAmount */\n      0x60\n      add\n      mload\n        /* \"crowfunding.sol\":1439:1503  return (proyect.Id,proyect.targetAmount,proyect.collectedAmount) */\n      swap4\n      pop\n      swap4\n      pop\n      swap4\n      pop\n      pop\n        /* \"crowfunding.sol\":1298:1511  function proyectInfo(string memory _name) external view returns(uint, uint, uint){... */\n      swap2\n      swap4\n      swap1\n      swap3\n      pop\n      jump\t// out\n        /* \"crowfunding.sol\":525:747  function targetAmountReached(string memory _name, uint _amount) private view returns (bool) {... */\n    tag_27:\n        /* \"crowfunding.sol\":611:615  bool */\n      0x00\n        /* \"crowfunding.sol\":627:649  Proyect memory proyect */\n      dup1\n        /* \"crowfunding.sol\":652:660  proyects */\n      0x01\n        /* \"crowfunding.sol\":661:666  _name */\n      dup5\n        /* \"crowfunding.sol\":652:667  proyects[_name] */\n      mload(0x40)\n      tag_59\n      swap2\n      swap1\n      tag_32\n      jump\t// in\n    tag_59:\n      swap1\n      dup2\n      mstore\n      0x20\n      add\n      mload(0x40)\n      dup1\n      swap2\n      sub\n      swap1\n      keccak256\n        /* \"crowfunding.sol\":627:667  Proyect memory proyect = proyects[_name] */\n      mload(0x40)\n      dup1\n      0x80\n      add\n      0x40\n      mstore\n      swap1\n      dup2\n      0x00\n      dup3\n      add\n      sload\n      dup2\n      mstore\n      0x20\n      add\n      0x01\n      dup3\n      add\n      dup1\n      sload\n      tag_60\n      swap1\n      tag_38\n      jump\t// in\n    tag_60:\n      dup1\n      0x1f\n      add\n      0x20\n      dup1\n      swap2\n      div\n      mul\n      0x20\n      add\n      mload(0x40)\n      swap1\n      dup2\n      add\n      0x40\n      mstore\n      dup1\n      swap3\n      swap2\n      swap1\n      dup2\n      dup2\n      mstore\n      0x20\n      add\n      dup3\n      dup1\n      sload\n      tag_61\n      swap1\n      tag_38\n      jump\t// in\n    tag_61:\n      dup1\n      iszero\n      tag_62\n      jumpi\n      dup1\n      0x1f\n      lt\n      tag_63\n      jumpi\n      0x0100\n      dup1\n      dup4\n      sload\n      div\n      mul\n      dup4\n      mstore\n      swap2\n      0x20\n      add\n      swap2\n      jump(tag_62)\n    tag_63:\n      dup3\n      add\n      swap2\n      swap1\n      0x00\n      mstore\n      keccak256(0x00, 0x20)\n      swap1\n    tag_64:\n      dup2\n      sload\n      dup2\n      mstore\n      swap1\n      0x01\n      add\n      swap1\n      0x20\n      add\n      dup1\n      dup4\n      gt\n      tag_64\n      jumpi\n      dup3\n      swap1\n      sub\n      0x1f\n      and\n      dup3\n      add\n      swap2\n    tag_62:\n      pop\n      pop\n      pop\n      pop\n      pop\n      dup2\n      mstore\n      0x20\n      add\n      0x02\n      dup3\n      add\n      sload\n      dup2\n      mstore\n      0x20\n      add\n      0x03\n      dup3\n      add\n      sload\n      dup2\n      mstore\n      pop\n      pop\n      swap1\n      pop\n        /* \"crowfunding.sol\":733:740  _amount */\n      dup3\n        /* \"crowfunding.sol\":707:714  proyect */\n      dup2\n        /* \"crowfunding.sol\":707:730  proyect.collectedAmount */\n      0x60\n      add\n      mload\n        /* \"crowfunding.sol\":707:740  proyect.collectedAmount + _amount */\n      tag_65\n      swap2\n      swap1\n      tag_34\n      jump\t// in\n    tag_65:\n        /* \"crowfunding.sol\":684:691  proyect */\n      dup2\n        /* \"crowfunding.sol\":684:704  proyect.targetAmount */\n      0x40\n      add\n      mload\n        /* \"crowfunding.sol\":684:740  proyect.targetAmount < proyect.collectedAmount + _amount */\n      lt\n        /* \"crowfunding.sol\":677:740  return proyect.targetAmount < proyect.collectedAmount + _amount */\n      swap2\n      pop\n      pop\n        /* \"crowfunding.sol\":525:747  function targetAmountReached(string memory _name, uint _amount) private view returns (bool) {... */\n      swap3\n      swap2\n      pop\n      pop\n      jump\t// out\n        /* \"#utility.yul\":7:82   */\n    tag_66:\n        /* \"#utility.yul\":40:46   */\n      0x00\n        /* \"#utility.yul\":73:75   */\n      0x40\n        /* \"#utility.yul\":67:76   */\n      mload\n        /* \"#utility.yul\":57:76   */\n      swap1\n      pop\n        /* \"#utility.yul\":7:82   */\n      swap1\n      jump\t// out\n        /* \"#utility.yul\":88:205   */\n    tag_67:\n        /* \"#utility.yul\":197:198   */\n      0x00\n        /* \"#utility.yul\":194:195   */\n      dup1\n        /* \"#utility.yul\":187:199   */\n      revert\n        /* \"#utility.yul\":211:328   */\n    tag_68:\n        /* \"#utility.yul\":320:321   */\n      0x00\n        /* \"#utility.yul\":317:318   */\n      dup1\n        /* \"#utility.yul\":310:322   */\n      revert\n        /* \"#utility.yul\":334:451   */\n    tag_69:\n        /* \"#utility.yul\":443:444   */\n      0x00\n        /* \"#utility.yul\":440:441   */\n      dup1\n        /* \"#utility.yul\":433:445   */\n      revert\n        /* \"#utility.yul\":457:574   */\n    tag_70:\n        /* \"#utility.yul\":566:567   */\n      0x00\n        /* \"#utility.yul\":563:564   */\n      dup1\n        /* \"#utility.yul\":556:568   */\n      revert\n        /* \"#utility.yul\":580:682   */\n    tag_71:\n        /* \"#utility.yul\":621:627   */\n      0x00\n        /* \"#utility.yul\":672:674   */\n      0x1f\n        /* \"#utility.yul\":668:675   */\n      not\n        /* \"#utility.yul\":663:665   */\n      0x1f\n        /* \"#utility.yul\":656:661   */\n      dup4\n        /* \"#utility.yul\":652:666   */\n      add\n        /* \"#utility.yul\":648:676   */\n      and\n        /* \"#utility.yul\":638:676   */\n      swap1\n      pop\n        /* \"#utility.yul\":580:682   */\n      swap2\n      swap1\n      pop\n      jump\t// out\n        /* \"#utility.yul\":688:868   */\n    tag_72:\n        /* \"#utility.yul\":736:813   */\n      0x4e487b7100000000000000000000000000000000000000000000000000000000\n        /* \"#utility.yul\":733:734   */\n      0x00\n        /* \"#utility.yul\":726:814   */\n      mstore\n        /* \"#utility.yul\":833:837   */\n      0x41\n        /* \"#utility.yul\":830:831   */\n      0x04\n        /* \"#utility.yul\":823:838   */\n      mstore\n        /* \"#utility.yul\":857:861   */\n      0x24\n        /* \"#utility.yul\":854:855   */\n      0x00\n        /* \"#utility.yul\":847:862   */\n      revert\n        /* \"#utility.yul\":874:1155   */\n    tag_73:\n        /* \"#utility.yul\":957:984   */\n      tag_116\n        /* \"#utility.yul\":979:983   */\n      dup3\n        /* \"#utility.yul\":957:984   */\n      tag_71\n      jump\t// in\n    tag_116:\n        /* \"#utility.yul\":949:955   */\n      dup2\n        /* \"#utility.yul\":945:985   */\n      add\n        /* \"#utility.yul\":1087:1093   */\n      dup2\n        /* \"#utility.yul\":1075:1085   */\n      dup2\n        /* \"#utility.yul\":1072:1094   */\n      lt\n        /* \"#utility.yul\":1051:1069   */\n      0xffffffffffffffff\n        /* \"#utility.yul\":1039:1049   */\n      dup3\n        /* \"#utility.yul\":1036:1070   */\n      gt\n        /* \"#utility.yul\":1033:1095   */\n      or\n        /* \"#utility.yul\":1030:1118   */\n      iszero\n      tag_117\n      jumpi\n        /* \"#utility.yul\":1098:1116   */\n      tag_118\n      tag_72\n      jump\t// in\n    tag_118:\n        /* \"#utility.yul\":1030:1118   */\n    tag_117:\n        /* \"#utility.yul\":1138:1148   */\n      dup1\n        /* \"#utility.yul\":1134:1136   */\n      0x40\n        /* \"#utility.yul\":1127:1149   */\n      mstore\n        /* \"#utility.yul\":917:1155   */\n      pop\n        /* \"#utility.yul\":874:1155   */\n      pop\n      pop\n      jump\t// out\n        /* \"#utility.yul\":1161:1290   */\n    tag_74:\n        /* \"#utility.yul\":1195:1201   */\n      0x00\n        /* \"#utility.yul\":1222:1242   */\n      tag_120\n      tag_66\n      jump\t// in\n    tag_120:\n        /* \"#utility.yul\":1212:1242   */\n      swap1\n      pop\n        /* \"#utility.yul\":1251:1284   */\n      tag_121\n        /* \"#utility.yul\":1279:1283   */\n      dup3\n        /* \"#utility.yul\":1271:1277   */\n      dup3\n        /* \"#utility.yul\":1251:1284   */\n      tag_73\n      jump\t// in\n    tag_121:\n        /* \"#utility.yul\":1161:1290   */\n      swap2\n      swap1\n      pop\n      jump\t// out\n        /* \"#utility.yul\":1296:1604   */\n    tag_75:\n        /* \"#utility.yul\":1358:1362   */\n      0x00\n        /* \"#utility.yul\":1448:1466   */\n      0xffffffffffffffff\n        /* \"#utility.yul\":1440:1446   */\n      dup3\n        /* \"#utility.yul\":1437:1467   */\n      gt\n        /* \"#utility.yul\":1434:1490   */\n      iszero\n      tag_123\n      jumpi\n        /* \"#utility.yul\":1470:1488   */\n      tag_124\n      tag_72\n      jump\t// in\n    tag_124:\n        /* \"#utility.yul\":1434:1490   */\n    tag_123:\n        /* \"#utility.yul\":1508:1537   */\n      tag_125\n        /* \"#utility.yul\":1530:1536   */\n      dup3\n        /* \"#utility.yul\":1508:1537   */\n      tag_71\n      jump\t// in\n    tag_125:\n        /* \"#utility.yul\":1500:1537   */\n      swap1\n      pop\n        /* \"#utility.yul\":1592:1596   */\n      0x20\n        /* \"#utility.yul\":1586:1590   */\n      dup2\n        /* \"#utility.yul\":1582:1597   */\n      add\n        /* \"#utility.yul\":1574:1597   */\n      swap1\n      pop\n        /* \"#utility.yul\":1296:1604   */\n      swap2\n      swap1\n      pop\n      jump\t// out\n        /* \"#utility.yul\":1610:1756   */\n    tag_76:\n        /* \"#utility.yul\":1707:1713   */\n      dup3\n        /* \"#utility.yul\":1702:1705   */\n      dup2\n        /* \"#utility.yul\":1697:1700   */\n      dup4\n        /* \"#utility.yul\":1684:1714   */\n      calldatacopy\n        /* \"#utility.yul\":1748:1749   */\n      0x00\n        /* \"#utility.yul\":1739:1745   */\n      dup4\n        /* \"#utility.yul\":1734:1737   */\n      dup4\n        /* \"#utility.yul\":1730:1746   */\n      add\n        /* \"#utility.yul\":1723:1750   */\n      mstore\n        /* \"#utility.yul\":1610:1756   */\n      pop\n      pop\n      pop\n      jump\t// out\n        /* \"#utility.yul\":1762:2187   */\n    tag_77:\n        /* \"#utility.yul\":1840:1845   */\n      0x00\n        /* \"#utility.yul\":1865:1931   */\n      tag_128\n        /* \"#utility.yul\":1881:1930   */\n      tag_129\n        /* \"#utility.yul\":1923:1929   */\n      dup5\n        /* \"#utility.yul\":1881:1930   */\n      tag_75\n      jump\t// in\n    tag_129:\n        /* \"#utility.yul\":1865:1931   */\n      tag_74\n      jump\t// in\n    tag_128:\n        /* \"#utility.yul\":1856:1931   */\n      swap1\n      pop\n        /* \"#utility.yul\":1954:1960   */\n      dup3\n        /* \"#utility.yul\":1947:1952   */\n      dup2\n        /* \"#utility.yul\":1940:1961   */\n      mstore\n        /* \"#utility.yul\":1992:1996   */\n      0x20\n        /* \"#utility.yul\":1985:1990   */\n      dup2\n        /* \"#utility.yul\":1981:1997   */\n      add\n        /* \"#utility.yul\":2030:2033   */\n      dup5\n        /* \"#utility.yul\":2021:2027   */\n      dup5\n        /* \"#utility.yul\":2016:2019   */\n      dup5\n        /* \"#utility.yul\":2012:2028   */\n      add\n        /* \"#utility.yul\":2009:2034   */\n      gt\n        /* \"#utility.yul\":2006:2118   */\n      iszero\n      tag_130\n      jumpi\n        /* \"#utility.yul\":2037:2116   */\n      tag_131\n      tag_70\n      jump\t// in\n    tag_131:\n        /* \"#utility.yul\":2006:2118   */\n    tag_130:\n        /* \"#utility.yul\":2127:2181   */\n      tag_132\n        /* \"#utility.yul\":2174:2180   */\n      dup5\n        /* \"#utility.yul\":2169:2172   */\n      dup3\n        /* \"#utility.yul\":2164:2167   */\n      dup6\n        /* \"#utility.yul\":2127:2181   */\n      tag_76\n      jump\t// in\n    tag_132:\n        /* \"#utility.yul\":1846:2187   */\n      pop\n        /* \"#utility.yul\":1762:2187   */\n      swap4\n      swap3\n      pop\n      pop\n      pop\n      jump\t// out\n        /* \"#utility.yul\":2207:2547   */\n    tag_78:\n        /* \"#utility.yul\":2263:2268   */\n      0x00\n        /* \"#utility.yul\":2312:2315   */\n      dup3\n        /* \"#utility.yul\":2305:2309   */\n      0x1f\n        /* \"#utility.yul\":2297:2303   */\n      dup4\n        /* \"#utility.yul\":2293:2310   */\n      add\n        /* \"#utility.yul\":2289:2316   */\n      slt\n        /* \"#utility.yul\":2279:2401   */\n      tag_134\n      jumpi\n        /* \"#utility.yul\":2320:2399   */\n      tag_135\n      tag_69\n      jump\t// in\n    tag_135:\n        /* \"#utility.yul\":2279:2401   */\n    tag_134:\n        /* \"#utility.yul\":2437:2443   */\n      dup2\n        /* \"#utility.yul\":2424:2444   */\n      calldataload\n        /* \"#utility.yul\":2462:2541   */\n      tag_136\n        /* \"#utility.yul\":2537:2540   */\n      dup5\n        /* \"#utility.yul\":2529:2535   */\n      dup3\n        /* \"#utility.yul\":2522:2526   */\n      0x20\n        /* \"#utility.yul\":2514:2520   */\n      dup7\n        /* \"#utility.yul\":2510:2527   */\n      add\n        /* \"#utility.yul\":2462:2541   */\n      tag_77\n      jump\t// in\n    tag_136:\n        /* \"#utility.yul\":2453:2541   */\n      swap2\n      pop\n        /* \"#utility.yul\":2269:2547   */\n      pop\n        /* \"#utility.yul\":2207:2547   */\n      swap3\n      swap2\n      pop\n      pop\n      jump\t// out\n        /* \"#utility.yul\":2553:2630   */\n    tag_79:\n        /* \"#utility.yul\":2590:2597   */\n      0x00\n        /* \"#utility.yul\":2619:2624   */\n      dup2\n        /* \"#utility.yul\":2608:2624   */\n      swap1\n      pop\n        /* \"#utility.yul\":2553:2630   */\n      swap2\n      swap1\n      pop\n      jump\t// out\n        /* \"#utility.yul\":2636:2758   */\n    tag_80:\n        /* \"#utility.yul\":2709:2733   */\n      tag_139\n        /* \"#utility.yul\":2727:2732   */\n      dup2\n        /* \"#utility.yul\":2709:2733   */\n      tag_79\n      jump\t// in\n    tag_139:\n        /* \"#utility.yul\":2702:2707   */\n      dup2\n        /* \"#utility.yul\":2699:2734   */\n      eq\n        /* \"#utility.yul\":2689:2752   */\n      tag_140\n      jumpi\n        /* \"#utility.yul\":2748:2749   */\n      0x00\n        /* \"#utility.yul\":2745:2746   */\n      dup1\n        /* \"#utility.yul\":2738:2750   */\n      revert\n        /* \"#utility.yul\":2689:2752   */\n    tag_140:\n        /* \"#utility.yul\":2636:2758   */\n      pop\n      jump\t// out\n        /* \"#utility.yul\":2764:2903   */\n    tag_81:\n        /* \"#utility.yul\":2810:2815   */\n      0x00\n        /* \"#utility.yul\":2848:2854   */\n      dup2\n        /* \"#utility.yul\":2835:2855   */\n      calldataload\n        /* \"#utility.yul\":2826:2855   */\n      swap1\n      pop\n        /* \"#utility.yul\":2864:2897   */\n      tag_142\n        /* \"#utility.yul\":2891:2896   */\n      dup2\n        /* \"#utility.yul\":2864:2897   */\n      tag_80\n      jump\t// in\n    tag_142:\n        /* \"#utility.yul\":2764:2903   */\n      swap3\n      swap2\n      pop\n      pop\n      jump\t// out\n        /* \"#utility.yul\":2909:3563   */\n    tag_9:\n        /* \"#utility.yul\":2987:2993   */\n      0x00\n        /* \"#utility.yul\":2995:3001   */\n      dup1\n        /* \"#utility.yul\":3044:3046   */\n      0x40\n        /* \"#utility.yul\":3032:3041   */\n      dup4\n        /* \"#utility.yul\":3023:3030   */\n      dup6\n        /* \"#utility.yul\":3019:3042   */\n      sub\n        /* \"#utility.yul\":3015:3047   */\n      slt\n        /* \"#utility.yul\":3012:3131   */\n      iszero\n      tag_144\n      jumpi\n        /* \"#utility.yul\":3050:3129   */\n      tag_145\n      tag_67\n      jump\t// in\n    tag_145:\n        /* \"#utility.yul\":3012:3131   */\n    tag_144:\n        /* \"#utility.yul\":3198:3199   */\n      0x00\n        /* \"#utility.yul\":3187:3196   */\n      dup4\n        /* \"#utility.yul\":3183:3200   */\n      add\n        /* \"#utility.yul\":3170:3201   */\n      calldataload\n        /* \"#utility.yul\":3228:3246   */\n      0xffffffffffffffff\n        /* \"#utility.yul\":3220:3226   */\n      dup2\n        /* \"#utility.yul\":3217:3247   */\n      gt\n        /* \"#utility.yul\":3214:3331   */\n      iszero\n      tag_146\n      jumpi\n        /* \"#utility.yul\":3250:3329   */\n      tag_147\n      tag_68\n      jump\t// in\n    tag_147:\n        /* \"#utility.yul\":3214:3331   */\n    tag_146:\n        /* \"#utility.yul\":3355:3418   */\n      tag_148\n        /* \"#utility.yul\":3410:3417   */\n      dup6\n        /* \"#utility.yul\":3401:3407   */\n      dup3\n        /* \"#utility.yul\":3390:3399   */\n      dup7\n        /* \"#utility.yul\":3386:3408   */\n      add\n        /* \"#utility.yul\":3355:3418   */\n      tag_78\n      jump\t// in\n    tag_148:\n        /* \"#utility.yul\":3345:3418   */\n      swap3\n      pop\n        /* \"#utility.yul\":3141:3428   */\n      pop\n        /* \"#utility.yul\":3467:3469   */\n      0x20\n        /* \"#utility.yul\":3493:3546   */\n      tag_149\n        /* \"#utility.yul\":3538:3545   */\n      dup6\n        /* \"#utility.yul\":3529:3535   */\n      dup3\n        /* \"#utility.yul\":3518:3527   */\n      dup7\n        /* \"#utility.yul\":3514:3536   */\n      add\n        /* \"#utility.yul\":3493:3546   */\n      tag_81\n      jump\t// in\n    tag_149:\n        /* \"#utility.yul\":3483:3546   */\n      swap2\n      pop\n        /* \"#utility.yul\":3438:3556   */\n      pop\n        /* \"#utility.yul\":2909:3563   */\n      swap3\n      pop\n      swap3\n      swap1\n      pop\n      jump\t// out\n        /* \"#utility.yul\":3569:4078   */\n    tag_13:\n        /* \"#utility.yul\":3638:3644   */\n      0x00\n        /* \"#utility.yul\":3687:3689   */\n      0x20\n        /* \"#utility.yul\":3675:3684   */\n      dup3\n        /* \"#utility.yul\":3666:3673   */\n      dup5\n        /* \"#utility.yul\":3662:3685   */\n      sub\n        /* \"#utility.yul\":3658:3690   */\n      slt\n        /* \"#utility.yul\":3655:3774   */\n      iszero\n      tag_151\n      jumpi\n        /* \"#utility.yul\":3693:3772   */\n      tag_152\n      tag_67\n      jump\t// in\n    tag_152:\n        /* \"#utility.yul\":3655:3774   */\n    tag_151:\n        /* \"#utility.yul\":3841:3842   */\n      0x00\n        /* \"#utility.yul\":3830:3839   */\n      dup3\n        /* \"#utility.yul\":3826:3843   */\n      add\n        /* \"#utility.yul\":3813:3844   */\n      calldataload\n        /* \"#utility.yul\":3871:3889   */\n      0xffffffffffffffff\n        /* \"#utility.yul\":3863:3869   */\n      dup2\n        /* \"#utility.yul\":3860:3890   */\n      gt\n        /* \"#utility.yul\":3857:3974   */\n      iszero\n      tag_153\n      jumpi\n        /* \"#utility.yul\":3893:3972   */\n      tag_154\n      tag_68\n      jump\t// in\n    tag_154:\n        /* \"#utility.yul\":3857:3974   */\n    tag_153:\n        /* \"#utility.yul\":3998:4061   */\n      tag_155\n        /* \"#utility.yul\":4053:4060   */\n      dup5\n        /* \"#utility.yul\":4044:4050   */\n      dup3\n        /* \"#utility.yul\":4033:4042   */\n      dup6\n        /* \"#utility.yul\":4029:4051   */\n      add\n        /* \"#utility.yul\":3998:4061   */\n      tag_78\n      jump\t// in\n    tag_155:\n        /* \"#utility.yul\":3988:4061   */\n      swap2\n      pop\n        /* \"#utility.yul\":3784:4071   */\n      pop\n        /* \"#utility.yul\":3569:4078   */\n      swap3\n      swap2\n      pop\n      pop\n      jump\t// out\n        /* \"#utility.yul\":4084:4202   */\n    tag_82:\n        /* \"#utility.yul\":4171:4195   */\n      tag_157\n        /* \"#utility.yul\":4189:4194   */\n      dup2\n        /* \"#utility.yul\":4171:4195   */\n      tag_79\n      jump\t// in\n    tag_157:\n        /* \"#utility.yul\":4166:4169   */\n      dup3\n        /* \"#utility.yul\":4159:4196   */\n      mstore\n        /* \"#utility.yul\":4084:4202   */\n      pop\n      pop\n      jump\t// out\n        /* \"#utility.yul\":4208:4430   */\n    tag_16:\n        /* \"#utility.yul\":4301:4305   */\n      0x00\n        /* \"#utility.yul\":4339:4341   */\n      0x20\n        /* \"#utility.yul\":4328:4337   */\n      dup3\n        /* \"#utility.yul\":4324:4342   */\n      add\n        /* \"#utility.yul\":4316:4342   */\n      swap1\n      pop\n        /* \"#utility.yul\":4352:4423   */\n      tag_159\n        /* \"#utility.yul\":4420:4421   */\n      0x00\n        /* \"#utility.yul\":4409:4418   */\n      dup4\n        /* \"#utility.yul\":4405:4422   */\n      add\n        /* \"#utility.yul\":4396:4402   */\n      dup5\n        /* \"#utility.yul\":4352:4423   */\n      tag_82\n      jump\t// in\n    tag_159:\n        /* \"#utility.yul\":4208:4430   */\n      swap3\n      swap2\n      pop\n      pop\n      jump\t// out\n        /* \"#utility.yul\":4436:4878   */\n    tag_24:\n        /* \"#utility.yul\":4585:4589   */\n      0x00\n        /* \"#utility.yul\":4623:4625   */\n      0x60\n        /* \"#utility.yul\":4612:4621   */\n      dup3\n        /* \"#utility.yul\":4608:4626   */\n      add\n        /* \"#utility.yul\":4600:4626   */\n      swap1\n      pop\n        /* \"#utility.yul\":4636:4707   */\n      tag_161\n        /* \"#utility.yul\":4704:4705   */\n      0x00\n        /* \"#utility.yul\":4693:4702   */\n      dup4\n        /* \"#utility.yul\":4689:4706   */\n      add\n        /* \"#utility.yul\":4680:4686   */\n      dup7\n        /* \"#utility.yul\":4636:4707   */\n      tag_82\n      jump\t// in\n    tag_161:\n        /* \"#utility.yul\":4717:4789   */\n      tag_162\n        /* \"#utility.yul\":4785:4787   */\n      0x20\n        /* \"#utility.yul\":4774:4783   */\n      dup4\n        /* \"#utility.yul\":4770:4788   */\n      add\n        /* \"#utility.yul\":4761:4767   */\n      dup6\n        /* \"#utility.yul\":4717:4789   */\n      tag_82\n      jump\t// in\n    tag_162:\n        /* \"#utility.yul\":4799:4871   */\n      tag_163\n        /* \"#utility.yul\":4867:4869   */\n      0x40\n        /* \"#utility.yul\":4856:4865   */\n      dup4\n        /* \"#utility.yul\":4852:4870   */\n      add\n        /* \"#utility.yul\":4843:4849   */\n      dup5\n        /* \"#utility.yul\":4799:4871   */\n      tag_82\n      jump\t// in\n    tag_163:\n        /* \"#utility.yul\":4436:4878   */\n      swap5\n      swap4\n      pop\n      pop\n      pop\n      pop\n      jump\t// out\n        /* \"#utility.yul\":4884:5053   */\n    tag_83:\n        /* \"#utility.yul\":4968:4979   */\n      0x00\n        /* \"#utility.yul\":5002:5008   */\n      dup3\n        /* \"#utility.yul\":4997:5000   */\n      dup3\n        /* \"#utility.yul\":4990:5009   */\n      mstore\n        /* \"#utility.yul\":5042:5046   */\n      0x20\n        /* \"#utility.yul\":5037:5040   */\n      dup3\n        /* \"#utility.yul\":5033:5047   */\n      add\n        /* \"#utility.yul\":5018:5047   */\n      swap1\n      pop\n        /* \"#utility.yul\":4884:5053   */\n      swap3\n      swap2\n      pop\n      pop\n      jump\t// out\n        /* \"#utility.yul\":5059:5230   */\n    tag_84:\n        /* \"#utility.yul\":5199:5222   */\n      0x54415247455420414d4f554e5420524541434845440000000000000000000000\n        /* \"#utility.yul\":5195:5196   */\n      0x00\n        /* \"#utility.yul\":5187:5193   */\n      dup3\n        /* \"#utility.yul\":5183:5197   */\n      add\n        /* \"#utility.yul\":5176:5223   */\n      mstore\n        /* \"#utility.yul\":5059:5230   */\n      pop\n      jump\t// out\n        /* \"#utility.yul\":5236:5602   */\n    tag_85:\n        /* \"#utility.yul\":5378:5381   */\n      0x00\n        /* \"#utility.yul\":5399:5466   */\n      tag_167\n        /* \"#utility.yul\":5463:5465   */\n      0x15\n        /* \"#utility.yul\":5458:5461   */\n      dup4\n        /* \"#utility.yul\":5399:5466   */\n      tag_83\n      jump\t// in\n    tag_167:\n        /* \"#utility.yul\":5392:5466   */\n      swap2\n      pop\n        /* \"#utility.yul\":5475:5568   */\n      tag_168\n        /* \"#utility.yul\":5564:5567   */\n      dup3\n        /* \"#utility.yul\":5475:5568   */\n      tag_84\n      jump\t// in\n    tag_168:\n        /* \"#utility.yul\":5593:5595   */\n      0x20\n        /* \"#utility.yul\":5588:5591   */\n      dup3\n        /* \"#utility.yul\":5584:5596   */\n      add\n        /* \"#utility.yul\":5577:5596   */\n      swap1\n      pop\n        /* \"#utility.yul\":5236:5602   */\n      swap2\n      swap1\n      pop\n      jump\t// out\n        /* \"#utility.yul\":5608:6027   */\n    tag_30:\n        /* \"#utility.yul\":5774:5778   */\n      0x00\n        /* \"#utility.yul\":5812:5814   */\n      0x20\n        /* \"#utility.yul\":5801:5810   */\n      dup3\n        /* \"#utility.yul\":5797:5815   */\n      add\n        /* \"#utility.yul\":5789:5815   */\n      swap1\n      pop\n        /* \"#utility.yul\":5861:5870   */\n      dup2\n        /* \"#utility.yul\":5855:5859   */\n      dup2\n        /* \"#utility.yul\":5851:5871   */\n      sub\n        /* \"#utility.yul\":5847:5848   */\n      0x00\n        /* \"#utility.yul\":5836:5845   */\n      dup4\n        /* \"#utility.yul\":5832:5849   */\n      add\n        /* \"#utility.yul\":5825:5872   */\n      mstore\n        /* \"#utility.yul\":5889:6020   */\n      tag_170\n        /* \"#utility.yul\":6015:6019   */\n      dup2\n        /* \"#utility.yul\":5889:6020   */\n      tag_85\n      jump\t// in\n    tag_170:\n        /* \"#utility.yul\":5881:6020   */\n      swap1\n      pop\n        /* \"#utility.yul\":5608:6027   */\n      swap2\n      swap1\n      pop\n      jump\t// out\n        /* \"#utility.yul\":6033:6132   */\n    tag_86:\n        /* \"#utility.yul\":6085:6091   */\n      0x00\n        /* \"#utility.yul\":6119:6124   */\n      dup2\n        /* \"#utility.yul\":6113:6125   */\n      mload\n        /* \"#utility.yul\":6103:6125   */\n      swap1\n      pop\n        /* \"#utility.yul\":6033:6132   */\n      swap2\n      swap1\n      pop\n      jump\t// out\n        /* \"#utility.yul\":6138:6286   */\n    tag_87:\n        /* \"#utility.yul\":6240:6251   */\n      0x00\n        /* \"#utility.yul\":6277:6280   */\n      dup2\n        /* \"#utility.yul\":6262:6280   */\n      swap1\n      pop\n        /* \"#utility.yul\":6138:6286   */\n      swap3\n      swap2\n      pop\n      pop\n      jump\t// out\n        /* \"#utility.yul\":6292:6538   */\n    tag_88:\n        /* \"#utility.yul\":6373:6374   */\n      0x00\n        /* \"#utility.yul\":6383:6496   */\n    tag_174:\n        /* \"#utility.yul\":6397:6403   */\n      dup4\n        /* \"#utility.yul\":6394:6395   */\n      dup2\n        /* \"#utility.yul\":6391:6404   */\n      lt\n        /* \"#utility.yul\":6383:6496   */\n      iszero\n      tag_176\n      jumpi\n        /* \"#utility.yul\":6482:6483   */\n      dup1\n        /* \"#utility.yul\":6477:6480   */\n      dup3\n        /* \"#utility.yul\":6473:6484   */\n      add\n        /* \"#utility.yul\":6467:6485   */\n      mload\n        /* \"#utility.yul\":6463:6464   */\n      dup2\n        /* \"#utility.yul\":6458:6461   */\n      dup5\n        /* \"#utility.yul\":6454:6465   */\n      add\n        /* \"#utility.yul\":6447:6486   */\n      mstore\n        /* \"#utility.yul\":6419:6421   */\n      0x20\n        /* \"#utility.yul\":6416:6417   */\n      dup2\n        /* \"#utility.yul\":6412:6422   */\n      add\n        /* \"#utility.yul\":6407:6422   */\n      swap1\n      pop\n        /* \"#utility.yul\":6383:6496   */\n      jump(tag_174)\n    tag_176:\n        /* \"#utility.yul\":6530:6531   */\n      0x00\n        /* \"#utility.yul\":6521:6527   */\n      dup5\n        /* \"#utility.yul\":6516:6519   */\n      dup5\n        /* \"#utility.yul\":6512:6528   */\n      add\n        /* \"#utility.yul\":6505:6532   */\n      mstore\n        /* \"#utility.yul\":6354:6538   */\n      pop\n        /* \"#utility.yul\":6292:6538   */\n      pop\n      pop\n      pop\n      jump\t// out\n        /* \"#utility.yul\":6544:6934   */\n    tag_89:\n        /* \"#utility.yul\":6650:6653   */\n      0x00\n        /* \"#utility.yul\":6678:6717   */\n      tag_178\n        /* \"#utility.yul\":6711:6716   */\n      dup3\n        /* \"#utility.yul\":6678:6717   */\n      tag_86\n      jump\t// in\n    tag_178:\n        /* \"#utility.yul\":6733:6822   */\n      tag_179\n        /* \"#utility.yul\":6815:6821   */\n      dup2\n        /* \"#utility.yul\":6810:6813   */\n      dup6\n        /* \"#utility.yul\":6733:6822   */\n      tag_87\n      jump\t// in\n    tag_179:\n        /* \"#utility.yul\":6726:6822   */\n      swap4\n      pop\n        /* \"#utility.yul\":6831:6896   */\n      tag_180\n        /* \"#utility.yul\":6889:6895   */\n      dup2\n        /* \"#utility.yul\":6884:6887   */\n      dup6\n        /* \"#utility.yul\":6877:6881   */\n      0x20\n        /* \"#utility.yul\":6870:6875   */\n      dup7\n        /* \"#utility.yul\":6866:6882   */\n      add\n        /* \"#utility.yul\":6831:6896   */\n      tag_88\n      jump\t// in\n    tag_180:\n        /* \"#utility.yul\":6921:6927   */\n      dup1\n        /* \"#utility.yul\":6916:6919   */\n      dup5\n        /* \"#utility.yul\":6912:6928   */\n      add\n        /* \"#utility.yul\":6905:6928   */\n      swap2\n      pop\n        /* \"#utility.yul\":6654:6934   */\n      pop\n        /* \"#utility.yul\":6544:6934   */\n      swap3\n      swap2\n      pop\n      pop\n      jump\t// out\n        /* \"#utility.yul\":6940:7215   */\n    tag_32:\n        /* \"#utility.yul\":7072:7075   */\n      0x00\n        /* \"#utility.yul\":7094:7189   */\n      tag_182\n        /* \"#utility.yul\":7185:7188   */\n      dup3\n        /* \"#utility.yul\":7176:7182   */\n      dup5\n        /* \"#utility.yul\":7094:7189   */\n      tag_89\n      jump\t// in\n    tag_182:\n        /* \"#utility.yul\":7087:7189   */\n      swap2\n      pop\n        /* \"#utility.yul\":7206:7209   */\n      dup2\n        /* \"#utility.yul\":7199:7209   */\n      swap1\n      pop\n        /* \"#utility.yul\":6940:7215   */\n      swap3\n      swap2\n      pop\n      pop\n      jump\t// out\n        /* \"#utility.yul\":7221:7401   */\n    tag_90:\n        /* \"#utility.yul\":7269:7346   */\n      0x4e487b7100000000000000000000000000000000000000000000000000000000\n        /* \"#utility.yul\":7266:7267   */\n      0x00\n        /* \"#utility.yul\":7259:7347   */\n      mstore\n        /* \"#utility.yul\":7366:7370   */\n      0x11\n        /* \"#utility.yul\":7363:7364   */\n      0x04\n        /* \"#utility.yul\":7356:7371   */\n      mstore\n        /* \"#utility.yul\":7390:7394   */\n      0x24\n        /* \"#utility.yul\":7387:7388   */\n      0x00\n        /* \"#utility.yul\":7380:7395   */\n      revert\n        /* \"#utility.yul\":7407:7598   */\n    tag_34:\n        /* \"#utility.yul\":7447:7450   */\n      0x00\n        /* \"#utility.yul\":7466:7486   */\n      tag_185\n        /* \"#utility.yul\":7484:7485   */\n      dup3\n        /* \"#utility.yul\":7466:7486   */\n      tag_79\n      jump\t// in\n    tag_185:\n        /* \"#utility.yul\":7461:7486   */\n      swap2\n      pop\n        /* \"#utility.yul\":7500:7520   */\n      tag_186\n        /* \"#utility.yul\":7518:7519   */\n      dup4\n        /* \"#utility.yul\":7500:7520   */\n      tag_79\n      jump\t// in\n    tag_186:\n        /* \"#utility.yul\":7495:7520   */\n      swap3\n      pop\n        /* \"#utility.yul\":7543:7544   */\n      dup3\n        /* \"#utility.yul\":7540:7541   */\n      dup3\n        /* \"#utility.yul\":7536:7545   */\n      add\n        /* \"#utility.yul\":7529:7545   */\n      swap1\n      pop\n        /* \"#utility.yul\":7564:7567   */\n      dup1\n        /* \"#utility.yul\":7561:7562   */\n      dup3\n        /* \"#utility.yul\":7558:7568   */\n      gt\n        /* \"#utility.yul\":7555:7591   */\n      iszero\n      tag_187\n      jumpi\n        /* \"#utility.yul\":7571:7589   */\n      tag_188\n      tag_90\n      jump\t// in\n    tag_188:\n        /* \"#utility.yul\":7555:7591   */\n    tag_187:\n        /* \"#utility.yul\":7407:7598   */\n      swap3\n      swap2\n      pop\n      pop\n      jump\t// out\n        /* \"#utility.yul\":7604:7784   */\n    tag_91:\n        /* \"#utility.yul\":7652:7729   */\n      0x4e487b7100000000000000000000000000000000000000000000000000000000\n        /* \"#utility.yul\":7649:7650   */\n      0x00\n        /* \"#utility.yul\":7642:7730   */\n      mstore\n        /* \"#utility.yul\":7749:7753   */\n      0x22\n        /* \"#utility.yul\":7746:7747   */\n      0x04\n        /* \"#utility.yul\":7739:7754   */\n      mstore\n        /* \"#utility.yul\":7773:7777   */\n      0x24\n        /* \"#utility.yul\":7770:7771   */\n      0x00\n        /* \"#utility.yul\":7763:7778   */\n      revert\n        /* \"#utility.yul\":7790:8110   */\n    tag_38:\n        /* \"#utility.yul\":7834:7840   */\n      0x00\n        /* \"#utility.yul\":7871:7872   */\n      0x02\n        /* \"#utility.yul\":7865:7869   */\n      dup3\n        /* \"#utility.yul\":7861:7873   */\n      div\n        /* \"#utility.yul\":7851:7873   */\n      swap1\n      pop\n        /* \"#utility.yul\":7918:7919   */\n      0x01\n        /* \"#utility.yul\":7912:7916   */\n      dup3\n        /* \"#utility.yul\":7908:7920   */\n      and\n        /* \"#utility.yul\":7939:7957   */\n      dup1\n        /* \"#utility.yul\":7929:8010   */\n      tag_191\n      jumpi\n        /* \"#utility.yul\":7995:7999   */\n      0x7f\n        /* \"#utility.yul\":7987:7993   */\n      dup3\n        /* \"#utility.yul\":7983:8000   */\n      and\n        /* \"#utility.yul\":7973:8000   */\n      swap2\n      pop\n        /* \"#utility.yul\":7929:8010   */\n    tag_191:\n        /* \"#utility.yul\":8057:8059   */\n      0x20\n        /* \"#utility.yul\":8049:8055   */\n      dup3\n        /* \"#utility.yul\":8046:8060   */\n      lt\n        /* \"#utility.yul\":8026:8044   */\n      dup2\n        /* \"#utility.yul\":8023:8061   */\n      sub\n        /* \"#utility.yul\":8020:8104   */\n      tag_192\n      jumpi\n        /* \"#utility.yul\":8076:8094   */\n      tag_193\n      tag_91\n      jump\t// in\n    tag_193:\n        /* \"#utility.yul\":8020:8104   */\n    tag_192:\n        /* \"#utility.yul\":7841:8110   */\n      pop\n        /* \"#utility.yul\":7790:8110   */\n      swap2\n      swap1\n      pop\n      jump\t// out\n        /* \"#utility.yul\":8116:8310   */\n    tag_44:\n        /* \"#utility.yul\":8156:8160   */\n      0x00\n        /* \"#utility.yul\":8176:8196   */\n      tag_195\n        /* \"#utility.yul\":8194:8195   */\n      dup3\n        /* \"#utility.yul\":8176:8196   */\n      tag_79\n      jump\t// in\n    tag_195:\n        /* \"#utility.yul\":8171:8196   */\n      swap2\n      pop\n        /* \"#utility.yul\":8210:8230   */\n      tag_196\n        /* \"#utility.yul\":8228:8229   */\n      dup4\n        /* \"#utility.yul\":8210:8230   */\n      tag_79\n      jump\t// in\n    tag_196:\n        /* \"#utility.yul\":8205:8230   */\n      swap3\n      pop\n        /* \"#utility.yul\":8254:8255   */\n      dup3\n        /* \"#utility.yul\":8251:8252   */\n      dup3\n        /* \"#utility.yul\":8247:8256   */\n      sub\n        /* \"#utility.yul\":8239:8256   */\n      swap1\n      pop\n        /* \"#utility.yul\":8278:8279   */\n      dup2\n        /* \"#utility.yul\":8272:8276   */\n      dup2\n        /* \"#utility.yul\":8269:8280   */\n      gt\n        /* \"#utility.yul\":8266:8303   */\n      iszero\n      tag_197\n      jumpi\n        /* \"#utility.yul\":8283:8301   */\n      tag_198\n      tag_90\n      jump\t// in\n    tag_198:\n        /* \"#utility.yul\":8266:8303   */\n    tag_197:\n        /* \"#utility.yul\":8116:8310   */\n      swap3\n      swap2\n      pop\n      pop\n      jump\t// out\n        /* \"#utility.yul\":8316:8549   */\n    tag_47:\n        /* \"#utility.yul\":8355:8358   */\n      0x00\n        /* \"#utility.yul\":8378:8402   */\n      tag_200\n        /* \"#utility.yul\":8396:8401   */\n      dup3\n        /* \"#utility.yul\":8378:8402   */\n      tag_79\n      jump\t// in\n    tag_200:\n        /* \"#utility.yul\":8369:8402   */\n      swap2\n      pop\n        /* \"#utility.yul\":8424:8490   */\n      0xffffffffffffffffffffffffffffffffffffffffffffffffffffffffffffffff\n        /* \"#utility.yul\":8417:8422   */\n      dup3\n        /* \"#utility.yul\":8414:8491   */\n      sub\n        /* \"#utility.yul\":8411:8514   */\n      tag_201\n      jumpi\n        /* \"#utility.yul\":8494:8512   */\n      tag_202\n      tag_90\n      jump\t// in\n    tag_202:\n        /* \"#utility.yul\":8411:8514   */\n    tag_201:\n        /* \"#utility.yul\":8541:8542   */\n      0x01\n        /* \"#utility.yul\":8534:8539   */\n      dup3\n        /* \"#utility.yul\":8530:8543   */\n      add\n        /* \"#utility.yul\":8523:8543   */\n      swap1\n      pop\n        /* \"#utility.yul\":8316:8549   */\n      swap2\n      swap1\n      pop\n      jump\t// out\n        /* \"#utility.yul\":8555:8696   */\n    tag_92:\n        /* \"#utility.yul\":8604:8608   */\n      0x00\n        /* \"#utility.yul\":8627:8630   */\n      dup2\n        /* \"#utility.yul\":8619:8630   */\n      swap1\n      pop\n        /* \"#utility.yul\":8650:8653   */\n      dup2\n        /* \"#utility.yul\":8647:8648   */\n      0x00\n        /* \"#utility.yul\":8640:8654   */\n      mstore\n        /* \"#utility.yul\":8684:8688   */\n      0x20\n        /* \"#utility.yul\":8681:8682   */\n      0x00\n        /* \"#utility.yul\":8671:8689   */\n      keccak256\n        /* \"#utility.yul\":8663:8689   */\n      swap1\n      pop\n        /* \"#utility.yul\":8555:8696   */\n      swap2\n      swap1\n      pop\n      jump\t// out\n        /* \"#utility.yul\":8702:8795   */\n    tag_93:\n        /* \"#utility.yul\":8739:8745   */\n      0x00\n        /* \"#utility.yul\":8786:8788   */\n      0x20\n        /* \"#utility.yul\":8781:8783   */\n      0x1f\n        /* \"#utility.yul\":8774:8779   */\n      dup4\n        /* \"#utility.yul\":8770:8784   */\n      add\n        /* \"#utility.yul\":8766:8789   */\n      div\n        /* \"#utility.yul\":8756:8789   */\n      swap1\n      pop\n        /* \"#utility.yul\":8702:8795   */\n      swap2\n      swap1\n      pop\n      jump\t// out\n        /* \"#utility.yul\":8801:8908   */\n    tag_94:\n        /* \"#utility.yul\":8845:8853   */\n      0x00\n        /* \"#utility.yul\":8895:8900   */\n      dup3\n        /* \"#utility.yul\":8889:8893   */\n      dup3\n        /* \"#utility.yul\":8885:8901   */\n      shl\n        /* \"#utility.yul\":8864:8901   */\n      swap1\n      pop\n        /* \"#utility.yul\":8801:8908   */\n      swap3\n      swap2\n      pop\n      pop\n      jump\t// out\n        /* \"#utility.yul\":8914:9307   */\n    tag_95:\n        /* \"#utility.yul\":8983:8989   */\n      0x00\n        /* \"#utility.yul\":9033:9034   */\n      0x08\n        /* \"#utility.yul\":9021:9031   */\n      dup4\n        /* \"#utility.yul\":9017:9035   */\n      mul\n        /* \"#utility.yul\":9056:9153   */\n      tag_207\n        /* \"#utility.yul\":9086:9152   */\n      0xffffffffffffffffffffffffffffffffffffffffffffffffffffffffffffffff\n        /* \"#utility.yul\":9075:9084   */\n      dup3\n        /* \"#utility.yul\":9056:9153   */\n      tag_94\n      jump\t// in\n    tag_207:\n        /* \"#utility.yul\":9174:9213   */\n      tag_208\n        /* \"#utility.yul\":9204:9212   */\n      dup7\n        /* \"#utility.yul\":9193:9202   */\n      dup4\n        /* \"#utility.yul\":9174:9213   */\n      tag_94\n      jump\t// in\n    tag_208:\n        /* \"#utility.yul\":9162:9213   */\n      swap6\n      pop\n        /* \"#utility.yul\":9246:9250   */\n      dup1\n        /* \"#utility.yul\":9242:9251   */\n      not\n        /* \"#utility.yul\":9235:9240   */\n      dup5\n        /* \"#utility.yul\":9231:9252   */\n      and\n        /* \"#utility.yul\":9222:9252   */\n      swap4\n      pop\n        /* \"#utility.yul\":9295:9299   */\n      dup1\n        /* \"#utility.yul\":9285:9293   */\n      dup7\n        /* \"#utility.yul\":9281:9300   */\n      and\n        /* \"#utility.yul\":9274:9279   */\n      dup5\n        /* \"#utility.yul\":9271:9301   */\n      or\n        /* \"#utility.yul\":9261:9301   */\n      swap3\n      pop\n        /* \"#utility.yul\":8990:9307   */\n      pop\n      pop\n        /* \"#utility.yul\":8914:9307   */\n      swap4\n      swap3\n      pop\n      pop\n      pop\n      jump\t// out\n        /* \"#utility.yul\":9313:9373   */\n    tag_96:\n        /* \"#utility.yul\":9341:9344   */\n      0x00\n        /* \"#utility.yul\":9362:9367   */\n      dup2\n        /* \"#utility.yul\":9355:9367   */\n      swap1\n      pop\n        /* \"#utility.yul\":9313:9373   */\n      swap2\n      swap1\n      pop\n      jump\t// out\n        /* \"#utility.yul\":9379:9521   */\n    tag_97:\n        /* \"#utility.yul\":9429:9438   */\n      0x00\n        /* \"#utility.yul\":9462:9515   */\n      tag_211\n        /* \"#utility.yul\":9480:9514   */\n      tag_212\n        /* \"#utility.yul\":9489:9513   */\n      tag_213\n        /* \"#utility.yul\":9507:9512   */\n      dup5\n        /* \"#utility.yul\":9489:9513   */\n      tag_79\n      jump\t// in\n    tag_213:\n        /* \"#utility.yul\":9480:9514   */\n      tag_96\n      jump\t// in\n    tag_212:\n        /* \"#utility.yul\":9462:9515   */\n      tag_79\n      jump\t// in\n    tag_211:\n        /* \"#utility.yul\":9449:9515   */\n      swap1\n      pop\n        /* \"#utility.yul\":9379:9521   */\n      swap2\n      swap1\n      pop\n      jump\t// out\n        /* \"#utility.yul\":9527:9602   */\n    tag_98:\n        /* \"#utility.yul\":9570:9573   */\n      0x00\n        /* \"#utility.yul\":9591:9596   */\n      dup2\n        /* \"#utility.yul\":9584:9596   */\n      swap1\n      pop\n        /* \"#utility.yul\":9527:9602   */\n      swap2\n      swap1\n      pop\n      jump\t// out\n        /* \"#utility.yul\":9608:9877   */\n    tag_99:\n        /* \"#utility.yul\":9718:9757   */\n      tag_216\n        /* \"#utility.yul\":9749:9756   */\n      dup4\n        /* \"#utility.yul\":9718:9757   */\n      tag_97\n      jump\t// in\n    tag_216:\n        /* \"#utility.yul\":9779:9870   */\n      tag_217\n        /* \"#utility.yul\":9828:9869   */\n      tag_218\n        /* \"#utility.yul\":9852:9868   */\n      dup3\n        /* \"#utility.yul\":9828:9869   */\n      tag_98\n      jump\t// in\n    tag_218:\n        /* \"#utility.yul\":9820:9826   */\n      dup5\n        /* \"#utility.yul\":9813:9817   */\n      dup5\n        /* \"#utility.yul\":9807:9818   */\n      sload\n        /* \"#utility.yul\":9779:9870   */\n      tag_95\n      jump\t// in\n    tag_217:\n        /* \"#utility.yul\":9773:9777   */\n      dup3\n        /* \"#utility.yul\":9766:9871   */\n      sstore\n        /* \"#utility.yul\":9684:9877   */\n      pop\n        /* \"#utility.yul\":9608:9877   */\n      pop\n      pop\n      pop\n      jump\t// out\n        /* \"#utility.yul\":9883:9956   */\n    tag_100:\n        /* \"#utility.yul\":9928:9931   */\n      0x00\n        /* \"#utility.yul\":9883:9956   */\n      swap1\n      jump\t// out\n        /* \"#utility.yul\":9962:10151   */\n    tag_101:\n        /* \"#utility.yul\":10039:10071   */\n      tag_221\n      tag_100\n      jump\t// in\n    tag_221:\n        /* \"#utility.yul\":10080:10145   */\n      tag_222\n        /* \"#utility.yul\":10138:10144   */\n      dup2\n        /* \"#utility.yul\":10130:10136   */\n      dup5\n        /* \"#utility.yul\":10124:10128   */\n      dup5\n        /* \"#utility.yul\":10080:10145   */\n      tag_99\n      jump\t// in\n    tag_222:\n        /* \"#utility.yul\":10015:10151   */\n      pop\n        /* \"#utility.yul\":9962:10151   */\n      pop\n      pop\n      jump\t// out\n        /* \"#utility.yul\":10157:10343   */\n    tag_102:\n        /* \"#utility.yul\":10217:10337   */\n    tag_224:\n        /* \"#utility.yul\":10234:10237   */\n      dup2\n        /* \"#utility.yul\":10227:10232   */\n      dup2\n        /* \"#utility.yul\":10224:10238   */\n      lt\n        /* \"#utility.yul\":10217:10337   */\n      iszero\n      tag_226\n      jumpi\n        /* \"#utility.yul\":10288:10327   */\n      tag_227\n        /* \"#utility.yul\":10325:10326   */\n      0x00\n        /* \"#utility.yul\":10318:10323   */\n      dup3\n        /* \"#utility.yul\":10288:10327   */\n      tag_101\n      jump\t// in\n    tag_227:\n        /* \"#utility.yul\":10261:10262   */\n      0x01\n        /* \"#utility.yul\":10254:10259   */\n      dup2\n        /* \"#utility.yul\":10250:10263   */\n      add\n        /* \"#utility.yul\":10241:10263   */\n      swap1\n      pop\n        /* \"#utility.yul\":10217:10337   */\n      jump(tag_224)\n    tag_226:\n        /* \"#utility.yul\":10157:10343   */\n      pop\n      pop\n      jump\t// out\n        /* \"#utility.yul\":10349:10892   */\n    tag_103:\n        /* \"#utility.yul\":10450:10452   */\n      0x1f\n        /* \"#utility.yul\":10445:10448   */\n      dup3\n        /* \"#utility.yul\":10442:10453   */\n      gt\n        /* \"#utility.yul\":10439:10885   */\n      iszero\n      tag_229\n      jumpi\n        /* \"#utility.yul\":10484:10522   */\n      tag_230\n        /* \"#utility.yul\":10516:10521   */\n      dup2\n        /* \"#utility.yul\":10484:10522   */\n      tag_92\n      jump\t// in\n    tag_230:\n        /* \"#utility.yul\":10568:10597   */\n      tag_231\n        /* \"#utility.yul\":10586:10596   */\n      dup5\n        /* \"#utility.yul\":10568:10597   */\n      tag_93\n      jump\t// in\n    tag_231:\n        /* \"#utility.yul\":10558:10566   */\n      dup2\n        /* \"#utility.yul\":10554:10598   */\n      add\n        /* \"#utility.yul\":10751:10753   */\n      0x20\n        /* \"#utility.yul\":10739:10749   */\n      dup6\n        /* \"#utility.yul\":10736:10754   */\n      lt\n        /* \"#utility.yul\":10733:10782   */\n      iszero\n      tag_232\n      jumpi\n        /* \"#utility.yul\":10772:10780   */\n      dup2\n        /* \"#utility.yul\":10757:10780   */\n      swap1\n      pop\n        /* \"#utility.yul\":10733:10782   */\n    tag_232:\n        /* \"#utility.yul\":10795:10875   */\n      tag_233\n        /* \"#utility.yul\":10851:10873   */\n      tag_234\n        /* \"#utility.yul\":10869:10872   */\n      dup6\n        /* \"#utility.yul\":10851:10873   */\n      tag_93\n      jump\t// in\n    tag_234:\n        /* \"#utility.yul\":10841:10849   */\n      dup4\n        /* \"#utility.yul\":10837:10874   */\n      add\n        /* \"#utility.yul\":10824:10835   */\n      dup3\n        /* \"#utility.yul\":10795:10875   */\n      tag_102\n      jump\t// in\n    tag_233:\n        /* \"#utility.yul\":10454:10885   */\n      pop\n      pop\n        /* \"#utility.yul\":10439:10885   */\n    tag_229:\n        /* \"#utility.yul\":10349:10892   */\n      pop\n      pop\n      pop\n      jump\t// out\n        /* \"#utility.yul\":10898:11015   */\n    tag_104:\n        /* \"#utility.yul\":10952:10960   */\n      0x00\n        /* \"#utility.yul\":11002:11007   */\n      dup3\n        /* \"#utility.yul\":10996:11000   */\n      dup3\n        /* \"#utility.yul\":10992:11008   */\n      shr\n        /* \"#utility.yul\":10971:11008   */\n      swap1\n      pop\n        /* \"#utility.yul\":10898:11015   */\n      swap3\n      swap2\n      pop\n      pop\n      jump\t// out\n        /* \"#utility.yul\":11021:11190   */\n    tag_105:\n        /* \"#utility.yul\":11065:11071   */\n      0x00\n        /* \"#utility.yul\":11098:11149   */\n      tag_237\n        /* \"#utility.yul\":11146:11147   */\n      0x00\n        /* \"#utility.yul\":11142:11148   */\n      not\n        /* \"#utility.yul\":11134:11139   */\n      dup5\n        /* \"#utility.yul\":11131:11132   */\n      0x08\n        /* \"#utility.yul\":11127:11140   */\n      mul\n        /* \"#utility.yul\":11098:11149   */\n      tag_104\n      jump\t// in\n    tag_237:\n        /* \"#utility.yul\":11094:11150   */\n      not\n        /* \"#utility.yul\":11179:11183   */\n      dup1\n        /* \"#utility.yul\":11173:11177   */\n      dup4\n        /* \"#utility.yul\":11169:11184   */\n      and\n        /* \"#utility.yul\":11159:11184   */\n      swap2\n      pop\n        /* \"#utility.yul\":11072:11190   */\n      pop\n        /* \"#utility.yul\":11021:11190   */\n      swap3\n      swap2\n      pop\n      pop\n      jump\t// out\n        /* \"#utility.yul\":11195:11490   */\n    tag_106:\n        /* \"#utility.yul\":11271:11275   */\n      0x00\n        /* \"#utility.yul\":11417:11446   */\n      tag_239\n        /* \"#utility.yul\":11442:11445   */\n      dup4\n        /* \"#utility.yul\":11436:11440   */\n      dup4\n        /* \"#utility.yul\":11417:11446   */\n      tag_105\n      jump\t// in\n    tag_239:\n        /* \"#utility.yul\":11409:11446   */\n      swap2\n      pop\n        /* \"#utility.yul\":11479:11482   */\n      dup3\n        /* \"#utility.yul\":11476:11477   */\n      0x02\n        /* \"#utility.yul\":11472:11483   */\n      mul\n        /* \"#utility.yul\":11466:11470   */\n      dup3\n        /* \"#utility.yul\":11463:11484   */\n      or\n        /* \"#utility.yul\":11455:11484   */\n      swap1\n      pop\n        /* \"#utility.yul\":11195:11490   */\n      swap3\n      swap2\n      pop\n      pop\n      jump\t// out\n        /* \"#utility.yul\":11495:12890   */\n    tag_50:\n        /* \"#utility.yul\":11612:11649   */\n      tag_241\n        /* \"#utility.yul\":11645:11648   */\n      dup3\n        /* \"#utility.yul\":11612:11649   */\n      tag_86\n      jump\t// in\n    tag_241:\n        /* \"#utility.yul\":11714:11732   */\n      0xffffffffffffffff\n        /* \"#utility.yul\":11706:11712   */\n      dup2\n        /* \"#utility.yul\":11703:11733   */\n      gt\n        /* \"#utility.yul\":11700:11756   */\n      iszero\n      tag_242\n      jumpi\n        /* \"#utility.yul\":11736:11754   */\n      tag_243\n      tag_72\n      jump\t// in\n    tag_243:\n        /* \"#utility.yul\":11700:11756   */\n    tag_242:\n        /* \"#utility.yul\":11780:11818   */\n      tag_244\n        /* \"#utility.yul\":11812:11816   */\n      dup3\n        /* \"#utility.yul\":11806:11817   */\n      sload\n        /* \"#utility.yul\":11780:11818   */\n      tag_38\n      jump\t// in\n    tag_244:\n        /* \"#utility.yul\":11865:11932   */\n      tag_245\n        /* \"#utility.yul\":11925:11931   */\n      dup3\n        /* \"#utility.yul\":11917:11923   */\n      dup3\n        /* \"#utility.yul\":11911:11915   */\n      dup6\n        /* \"#utility.yul\":11865:11932   */\n      tag_103\n      jump\t// in\n    tag_245:\n        /* \"#utility.yul\":11959:11960   */\n      0x00\n        /* \"#utility.yul\":11983:11987   */\n      0x20\n        /* \"#utility.yul\":11970:11987   */\n      swap1\n      pop\n        /* \"#utility.yul\":12015:12017   */\n      0x1f\n        /* \"#utility.yul\":12007:12013   */\n      dup4\n        /* \"#utility.yul\":12004:12018   */\n      gt\n        /* \"#utility.yul\":12032:12033   */\n      0x01\n        /* \"#utility.yul\":12027:12645   */\n      dup2\n      eq\n      tag_247\n      jumpi\n        /* \"#utility.yul\":12689:12690   */\n      0x00\n        /* \"#utility.yul\":12706:12712   */\n      dup5\n        /* \"#utility.yul\":12703:12780   */\n      iszero\n      tag_248\n      jumpi\n        /* \"#utility.yul\":12755:12764   */\n      dup3\n        /* \"#utility.yul\":12750:12753   */\n      dup8\n        /* \"#utility.yul\":12746:12765   */\n      add\n        /* \"#utility.yul\":12740:12766   */\n      mload\n        /* \"#utility.yul\":12731:12766   */\n      swap1\n      pop\n        /* \"#utility.yul\":12703:12780   */\n    tag_248:\n        /* \"#utility.yul\":12806:12873   */\n      tag_249\n        /* \"#utility.yul\":12866:12872   */\n      dup6\n        /* \"#utility.yul\":12859:12864   */\n      dup3\n        /* \"#utility.yul\":12806:12873   */\n      tag_106\n      jump\t// in\n    tag_249:\n        /* \"#utility.yul\":12800:12804   */\n      dup7\n        /* \"#utility.yul\":12793:12874   */\n      sstore\n        /* \"#utility.yul\":12662:12884   */\n      pop\n        /* \"#utility.yul\":11997:12884   */\n      jump(tag_246)\n        /* \"#utility.yul\":12027:12645   */\n    tag_247:\n        /* \"#utility.yul\":12079:12083   */\n      0x1f\n        /* \"#utility.yul\":12075:12084   */\n      not\n        /* \"#utility.yul\":12067:12073   */\n      dup5\n        /* \"#utility.yul\":12063:12085   */\n      and\n        /* \"#utility.yul\":12113:12150   */\n      tag_250\n        /* \"#utility.yul\":12145:12149   */\n      dup7\n        /* \"#utility.yul\":12113:12150   */\n      tag_92\n      jump\t// in\n    tag_250:\n        /* \"#utility.yul\":12172:12173   */\n      0x00\n        /* \"#utility.yul\":12186:12394   */\n    tag_251:\n        /* \"#utility.yul\":12200:12207   */\n      dup3\n        /* \"#utility.yul\":12197:12198   */\n      dup2\n        /* \"#utility.yul\":12194:12208   */\n      lt\n        /* \"#utility.yul\":12186:12394   */\n      iszero\n      tag_253\n      jumpi\n        /* \"#utility.yul\":12279:12288   */\n      dup5\n        /* \"#utility.yul\":12274:12277   */\n      dup10\n        /* \"#utility.yul\":12270:12289   */\n      add\n        /* \"#utility.yul\":12264:12290   */\n      mload\n        /* \"#utility.yul\":12256:12262   */\n      dup3\n        /* \"#utility.yul\":12249:12291   */\n      sstore\n        /* \"#utility.yul\":12330:12331   */\n      0x01\n        /* \"#utility.yul\":12322:12328   */\n      dup3\n        /* \"#utility.yul\":12318:12332   */\n      add\n        /* \"#utility.yul\":12308:12332   */\n      swap2\n      pop\n        /* \"#utility.yul\":12377:12379   */\n      0x20\n        /* \"#utility.yul\":12366:12375   */\n      dup6\n        /* \"#utility.yul\":12362:12380   */\n      add\n        /* \"#utility.yul\":12349:12380   */\n      swap5\n      pop\n        /* \"#utility.yul\":12223:12227   */\n      0x20\n        /* \"#utility.yul\":12220:12221   */\n      dup2\n        /* \"#utility.yul\":12216:12228   */\n      add\n        /* \"#utility.yul\":12211:12228   */\n      swap1\n      pop\n        /* \"#utility.yul\":12186:12394   */\n      jump(tag_251)\n    tag_253:\n        /* \"#utility.yul\":12422:12428   */\n      dup7\n        /* \"#utility.yul\":12413:12420   */\n      dup4\n        /* \"#utility.yul\":12410:12429   */\n      lt\n        /* \"#utility.yul\":12407:12586   */\n      iszero\n      tag_254\n      jumpi\n        /* \"#utility.yul\":12480:12489   */\n      dup5\n        /* \"#utility.yul\":12475:12478   */\n      dup10\n        /* \"#utility.yul\":12471:12490   */\n      add\n        /* \"#utility.yul\":12465:12491   */\n      mload\n        /* \"#utility.yul\":12523:12571   */\n      tag_255\n        /* \"#utility.yul\":12565:12569   */\n      0x1f\n        /* \"#utility.yul\":12557:12563   */\n      dup10\n        /* \"#utility.yul\":12553:12570   */\n      and\n        /* \"#utility.yul\":12542:12551   */\n      dup3\n        /* \"#utility.yul\":12523:12571   */\n      tag_105\n      jump\t// in\n    tag_255:\n        /* \"#utility.yul\":12515:12521   */\n      dup4\n        /* \"#utility.yul\":12508:12572   */\n      sstore\n        /* \"#utility.yul\":12430:12586   */\n      pop\n        /* \"#utility.yul\":12407:12586   */\n    tag_254:\n        /* \"#utility.yul\":12632:12633   */\n      0x01\n        /* \"#utility.yul\":12628:12629   */\n      0x02\n        /* \"#utility.yul\":12620:12626   */\n      dup9\n        /* \"#utility.yul\":12616:12630   */\n      mul\n        /* \"#utility.yul\":12612:12634   */\n      add\n        /* \"#utility.yul\":12606:12610   */\n      dup9\n        /* \"#utility.yul\":12599:12635   */\n      sstore\n        /* \"#utility.yul\":12034:12645   */\n      pop\n      pop\n      pop\n        /* \"#utility.yul\":11997:12884   */\n    tag_246:\n      pop\n        /* \"#utility.yul\":11587:12890   */\n      pop\n      pop\n      pop\n        /* \"#utility.yul\":11495:12890   */\n      pop\n      pop\n      jump\t// out\n\n    auxdata: 0xa2646970667358221220a73f1c687c572d3dc392dd0948ff449d02b66a63edb8e7de17f4824e20a7a60e64736f6c63430008120033\n}\n",
				"bytecode": {
					"linkReferences": {},
					"object": "60806040526000805534801561001457600080fd5b50610c88806100246000396000f3fe608060405234801561001057600080fd5b506004361061004c5760003560e01c80630eda4e681461005157806350b581f51461006d578063a5db748d1461009d578063cb42bbf8146100b9575b600080fd5b61006b6004803603810190610066919061068a565b6100eb565b005b610087600480360381019061008291906106e6565b610171565b604051610094919061073e565b60405180910390f35b6100b760048036038101906100b2919061068a565b61026b565b005b6100d360048036038101906100ce91906106e6565b6102ff565b6040516100e293929190610759565b60405180910390f35b6100f582826103fd565b15610135576040517f08c379a000000000000000000000000000000000000000000000000000000000815260040161012c906107ed565b60405180910390fd5b80600183604051610146919061087e565b9081526020016040518091039020600301600082825461016691906108c4565b925050819055505050565b600080600183604051610184919061087e565b9081526020016040518091039020604051806080016040529081600082015481526020016001820180546101b790610927565b80601f01602080910402602001604051908101604052809291908181526020018280546101e390610927565b80156102305780601f1061020557610100808354040283529160200191610230565b820191906000526020600020905b81548152906001019060200180831161021357829003601f168201915b50505050508152602001600282015481526020016003820154815250509050806060015181604001516102639190610958565b915050919050565b60008081548092919061027d9061098c565b91905055506040518060800160405280600054815260200183815260200182815260200160008152506001836040516102b6919061087e565b90815260200160405180910390206000820151816000015560208201518160010190816102e39190610b80565b5060408201518160020155606082015181600301559050505050565b600080600080600185604051610315919061087e565b90815260200160405180910390206040518060800160405290816000820154815260200160018201805461034890610927565b80601f016020809104026020016040519081016040528092919081815260200182805461037490610927565b80156103c15780601f10610396576101008083540402835291602001916103c1565b820191906000526020600020905b8154815290600101906020018083116103a457829003601f168201915b50505050508152602001600282015481526020016003820154815250509050806000015181604001518260600151935093509350509193909250565b600080600184604051610410919061087e565b90815260200160405180910390206040518060800160405290816000820154815260200160018201805461044390610927565b80601f016020809104026020016040519081016040528092919081815260200182805461046f90610927565b80156104bc5780601f10610491576101008083540402835291602001916104bc565b820191906000526020600020905b81548152906001019060200180831161049f57829003601f168201915b505050505081526020016002820154815260200160038201548152505090508281606001516104eb91906108c4565b81604001511091505092915050565b6000604051905090565b600080fd5b600080fd5b600080fd5b600080fd5b6000601f19601f8301169050919050565b7f4e487b7100000000000000000000000000000000000000000000000000000000600052604160045260246000fd5b61056182610518565b810181811067ffffffffffffffff821117156105805761057f610529565b5b80604052505050565b60006105936104fa565b905061059f8282610558565b919050565b600067ffffffffffffffff8211156105bf576105be610529565b5b6105c882610518565b9050602081019050919050565b82818337600083830152505050565b60006105f76105f2846105a4565b610589565b90508281526020810184848401111561061357610612610513565b5b61061e8482856105d5565b509392505050565b600082601f83011261063b5761063a61050e565b5b813561064b8482602086016105e4565b91505092915050565b6000819050919050565b61066781610654565b811461067257600080fd5b50565b6000813590506106848161065e565b92915050565b600080604083850312156106a1576106a0610504565b5b600083013567ffffffffffffffff8111156106bf576106be610509565b5b6106cb85828601610626565b92505060206106dc85828601610675565b9150509250929050565b6000602082840312156106fc576106fb610504565b5b600082013567ffffffffffffffff81111561071a57610719610509565b5b61072684828501610626565b91505092915050565b61073881610654565b82525050565b6000602082019050610753600083018461072f565b92915050565b600060608201905061076e600083018661072f565b61077b602083018561072f565b610788604083018461072f565b949350505050565b600082825260208201905092915050565b7f54415247455420414d4f554e5420524541434845440000000000000000000000600082015250565b60006107d7601583610790565b91506107e2826107a1565b602082019050919050565b60006020820190508181036000830152610806816107ca565b9050919050565b600081519050919050565b600081905092915050565b60005b83811015610841578082015181840152602081019050610826565b60008484015250505050565b60006108588261080d565b6108628185610818565b9350610872818560208601610823565b80840191505092915050565b600061088a828461084d565b915081905092915050565b7f4e487b7100000000000000000000000000000000000000000000000000000000600052601160045260246000fd5b60006108cf82610654565b91506108da83610654565b92508282019050808211156108f2576108f1610895565b5b92915050565b7f4e487b7100000000000000000000000000000000000000000000000000000000600052602260045260246000fd5b6000600282049050600182168061093f57607f821691505b602082108103610952576109516108f8565b5b50919050565b600061096382610654565b915061096e83610654565b925082820390508181111561098657610985610895565b5b92915050565b600061099782610654565b91507fffffffffffffffffffffffffffffffffffffffffffffffffffffffffffffffff82036109c9576109c8610895565b5b600182019050919050565b60008190508160005260206000209050919050565b60006020601f8301049050919050565b600082821b905092915050565b600060088302610a367fffffffffffffffffffffffffffffffffffffffffffffffffffffffffffffffff826109f9565b610a4086836109f9565b95508019841693508086168417925050509392505050565b6000819050919050565b6000610a7d610a78610a7384610654565b610a58565b610654565b9050919050565b6000819050919050565b610a9783610a62565b610aab610aa382610a84565b848454610a06565b825550505050565b600090565b610ac0610ab3565b610acb818484610a8e565b505050565b5b81811015610aef57610ae4600082610ab8565b600181019050610ad1565b5050565b601f821115610b3457610b05816109d4565b610b0e846109e9565b81016020851015610b1d578190505b610b31610b29856109e9565b830182610ad0565b50505b505050565b600082821c905092915050565b6000610b5760001984600802610b39565b1980831691505092915050565b6000610b708383610b46565b9150826002028217905092915050565b610b898261080d565b67ffffffffffffffff811115610ba257610ba1610529565b5b610bac8254610927565b610bb7828285610af3565b600060209050601f831160018114610bea5760008415610bd8578287015190505b610be28582610b64565b865550610c4a565b601f198416610bf8866109d4565b60005b82811015610c2057848901518255600182019150602085019450602081019050610bfb565b86831015610c3d5784890151610c39601f891682610b46565b8355505b6001600288020188555050505b50505050505056fea2646970667358221220a73f1c687c572d3dc392dd0948ff449d02b66a63edb8e7de17f4824e20a7a60e64736f6c63430008120033",
					"opcodes": "PUSH1 0x80 PUSH1 0x40 MSTORE PUSH1 0x0 DUP1 SSTORE CALLVALUE DUP1 ISZERO PUSH2 0x14 JUMPI PUSH1 0x0 DUP1 REVERT JUMPDEST POP PUSH2 0xC88 DUP1 PUSH2 0x24 PUSH1 0x0 CODECOPY PUSH1 0x0 RETURN INVALID PUSH1 0x80 PUSH1 0x40 MSTORE CALLVALUE DUP1 ISZERO PUSH2 0x10 JUMPI PUSH1 0x0 DUP1 REVERT JUMPDEST POP PUSH1 0x4 CALLDATASIZE LT PUSH2 0x4C JUMPI PUSH1 0x0 CALLDATALOAD PUSH1 0xE0 SHR DUP1 PUSH4 0xEDA4E68 EQ PUSH2 0x51 JUMPI DUP1 PUSH4 0x50B581F5 EQ PUSH2 0x6D JUMPI DUP1 PUSH4 0xA5DB748D EQ PUSH2 0x9D JUMPI DUP1 PUSH4 0xCB42BBF8 EQ PUSH2 0xB9 JUMPI JUMPDEST PUSH1 0x0 DUP1 REVERT JUMPDEST PUSH2 0x6B PUSH1 0x4 DUP1 CALLDATASIZE SUB DUP2 ADD SWAP1 PUSH2 0x66 SWAP2 SWAP1 PUSH2 0x68A JUMP JUMPDEST PUSH2 0xEB JUMP JUMPDEST STOP JUMPDEST PUSH2 0x87 PUSH1 0x4 DUP1 CALLDATASIZE SUB DUP2 ADD SWAP1 PUSH2 0x82 SWAP2 SWAP1 PUSH2 0x6E6 JUMP JUMPDEST PUSH2 0x171 JUMP JUMPDEST PUSH1 0x40 MLOAD PUSH2 0x94 SWAP2 SWAP1 PUSH2 0x73E JUMP JUMPDEST PUSH1 0x40 MLOAD DUP1 SWAP2 SUB SWAP1 RETURN JUMPDEST PUSH2 0xB7 PUSH1 0x4 DUP1 CALLDATASIZE SUB DUP2 ADD SWAP1 PUSH2 0xB2 SWAP2 SWAP1 PUSH2 0x68A JUMP JUMPDEST PUSH2 0x26B JUMP JUMPDEST STOP JUMPDEST PUSH2 0xD3 PUSH1 0x4 DUP1 CALLDATASIZE SUB DUP2 ADD SWAP1 PUSH2 0xCE SWAP2 SWAP1 PUSH2 0x6E6 JUMP JUMPDEST PUSH2 0x2FF JUMP JUMPDEST PUSH1 0x40 MLOAD PUSH2 0xE2 SWAP4 SWAP3 SWAP2 SWAP1 PUSH2 0x759 JUMP JUMPDEST PUSH1 0x40 MLOAD DUP1 SWAP2 SUB SWAP1 RETURN JUMPDEST PUSH2 0xF5 DUP3 DUP3 PUSH2 0x3FD JUMP JUMPDEST ISZERO PUSH2 0x135 JUMPI PUSH1 0x40 MLOAD PUSH32 0x8C379A000000000000000000000000000000000000000000000000000000000 DUP2 MSTORE PUSH1 0x4 ADD PUSH2 0x12C SWAP1 PUSH2 0x7ED JUMP JUMPDEST PUSH1 0x40 MLOAD DUP1 SWAP2 SUB SWAP1 REVERT JUMPDEST DUP1 PUSH1 0x1 DUP4 PUSH1 0x40 MLOAD PUSH2 0x146 SWAP2 SWAP1 PUSH2 0x87E JUMP JUMPDEST SWAP1 DUP2 MSTORE PUSH1 0x20 ADD PUSH1 0x40 MLOAD DUP1 SWAP2 SUB SWAP1 KECCAK256 PUSH1 0x3 ADD PUSH1 0x0 DUP3 DUP3 SLOAD PUSH2 0x166 SWAP2 SWAP1 PUSH2 0x8C4 JUMP JUMPDEST SWAP3 POP POP DUP2 SWAP1 SSTORE POP POP POP JUMP JUMPDEST PUSH1 0x0 DUP1 PUSH1 0x1 DUP4 PUSH1 0x40 MLOAD PUSH2 0x184 SWAP2 SWAP1 PUSH2 0x87E JUMP JUMPDEST SWAP1 DUP2 MSTORE PUSH1 0x20 ADD PUSH1 0x40 MLOAD DUP1 SWAP2 SUB SWAP1 KECCAK256 PUSH1 0x40 MLOAD DUP1 PUSH1 0x80 ADD PUSH1 0x40 MSTORE SWAP1 DUP2 PUSH1 0x0 DUP3 ADD SLOAD DUP2 MSTORE PUSH1 0x20 ADD PUSH1 0x1 DUP3 ADD DUP1 SLOAD PUSH2 0x1B7 SWAP1 PUSH2 0x927 JUMP JUMPDEST DUP1 PUSH1 0x1F ADD PUSH1 0x20 DUP1 SWAP2 DIV MUL PUSH1 0x20 ADD PUSH1 0x40 MLOAD SWAP1 DUP2 ADD PUSH1 0x40 MSTORE DUP1 SWAP3 SWAP2 SWAP1 DUP2 DUP2 MSTORE PUSH1 0x20 ADD DUP3 DUP1 SLOAD PUSH2 0x1E3 SWAP1 PUSH2 0x927 JUMP JUMPDEST DUP1 ISZERO PUSH2 0x230 JUMPI DUP1 PUSH1 0x1F LT PUSH2 0x205 JUMPI PUSH2 0x100 DUP1 DUP4 SLOAD DIV MUL DUP4 MSTORE SWAP2 PUSH1 0x20 ADD SWAP2 PUSH2 0x230 JUMP JUMPDEST DUP3 ADD SWAP2 SWAP1 PUSH1 0x0 MSTORE PUSH1 0x20 PUSH1 0x0 KECCAK256 SWAP1 JUMPDEST DUP2 SLOAD DUP2 MSTORE SWAP1 PUSH1 0x1 ADD SWAP1 PUSH1 0x20 ADD DUP1 DUP4 GT PUSH2 0x213 JUMPI DUP3 SWAP1 SUB PUSH1 0x1F AND DUP3 ADD SWAP2 JUMPDEST POP POP POP POP POP DUP2 MSTORE PUSH1 0x20 ADD PUSH1 0x2 DUP3 ADD SLOAD DUP2 MSTORE PUSH1 0x20 ADD PUSH1 0x3 DUP3 ADD SLOAD DUP2 MSTORE POP POP SWAP1 POP DUP1 PUSH1 0x60 ADD MLOAD DUP2 PUSH1 0x40 ADD MLOAD PUSH2 0x263 SWAP2 SWAP1 PUSH2 0x958 JUMP JUMPDEST SWAP2 POP POP SWAP2 SWAP1 POP JUMP JUMPDEST PUSH1 0x0 DUP1 DUP2 SLOAD DUP1 SWAP3 SWAP2 SWAP1 PUSH2 0x27D SWAP1 PUSH2 0x98C JUMP JUMPDEST SWAP2 SWAP1 POP SSTORE POP PUSH1 0x40 MLOAD DUP1 PUSH1 0x80 ADD PUSH1 0x40 MSTORE DUP1 PUSH1 0x0 SLOAD DUP2 MSTORE PUSH1 0x20 ADD DUP4 DUP2 MSTORE PUSH1 0x20 ADD DUP3 DUP2 MSTORE PUSH1 0x20 ADD PUSH1 0x0 DUP2 MSTORE POP PUSH1 0x1 DUP4 PUSH1 0x40 MLOAD PUSH2 0x2B6 SWAP2 SWAP1 PUSH2 0x87E JUMP JUMPDEST SWAP1 DUP2 MSTORE PUSH1 0x20 ADD PUSH1 0x40 MLOAD DUP1 SWAP2 SUB SWAP1 KECCAK256 PUSH1 0x0 DUP3 ADD MLOAD DUP2 PUSH1 0x0 ADD SSTORE PUSH1 0x20 DUP3 ADD MLOAD DUP2 PUSH1 0x1 ADD SWAP1 DUP2 PUSH2 0x2E3 SWAP2 SWAP1 PUSH2 0xB80 JUMP JUMPDEST POP PUSH1 0x40 DUP3 ADD MLOAD DUP2 PUSH1 0x2 ADD SSTORE PUSH1 0x60 DUP3 ADD MLOAD DUP2 PUSH1 0x3 ADD SSTORE SWAP1 POP POP POP POP JUMP JUMPDEST PUSH1 0x0 DUP1 PUSH1 0x0 DUP1 PUSH1 0x1 DUP6 PUSH1 0x40 MLOAD PUSH2 0x315 SWAP2 SWAP1 PUSH2 0x87E JUMP JUMPDEST SWAP1 DUP2 MSTORE PUSH1 0x20 ADD PUSH1 0x40 MLOAD DUP1 SWAP2 SUB SWAP1 KECCAK256 PUSH1 0x40 MLOAD DUP1 PUSH1 0x80 ADD PUSH1 0x40 MSTORE SWAP1 DUP2 PUSH1 0x0 DUP3 ADD SLOAD DUP2 MSTORE PUSH1 0x20 ADD PUSH1 0x1 DUP3 ADD DUP1 SLOAD PUSH2 0x348 SWAP1 PUSH2 0x927 JUMP JUMPDEST DUP1 PUSH1 0x1F ADD PUSH1 0x20 DUP1 SWAP2 DIV MUL PUSH1 0x20 ADD PUSH1 0x40 MLOAD SWAP1 DUP2 ADD PUSH1 0x40 MSTORE DUP1 SWAP3 SWAP2 SWAP1 DUP2 DUP2 MSTORE PUSH1 0x20 ADD DUP3 DUP1 SLOAD PUSH2 0x374 SWAP1 PUSH2 0x927 JUMP JUMPDEST DUP1 ISZERO PUSH2 0x3C1 JUMPI DUP1 PUSH1 0x1F LT PUSH2 0x396 JUMPI PUSH2 0x100 DUP1 DUP4 SLOAD DIV MUL DUP4 MSTORE SWAP2 PUSH1 0x20 ADD SWAP2 PUSH2 0x3C1 JUMP JUMPDEST DUP3 ADD SWAP2 SWAP1 PUSH1 0x0 MSTORE PUSH1 0x20 PUSH1 0x0 KECCAK256 SWAP1 JUMPDEST DUP2 SLOAD DUP2 MSTORE SWAP1 PUSH1 0x1 ADD SWAP1 PUSH1 0x20 ADD DUP1 DUP4 GT PUSH2 0x3A4 JUMPI DUP3 SWAP1 SUB PUSH1 0x1F AND DUP3 ADD SWAP2 JUMPDEST POP POP POP POP POP DUP2 MSTORE PUSH1 0x20 ADD PUSH1 0x2 DUP3 ADD SLOAD DUP2 MSTORE PUSH1 0x20 ADD PUSH1 0x3 DUP3 ADD SLOAD DUP2 MSTORE POP POP SWAP1 POP DUP1 PUSH1 0x0 ADD MLOAD DUP2 PUSH1 0x40 ADD MLOAD DUP3 PUSH1 0x60 ADD MLOAD SWAP4 POP SWAP4 POP SWAP4 POP POP SWAP2 SWAP4 SWAP1 SWAP3 POP JUMP JUMPDEST PUSH1 0x0 DUP1 PUSH1 0x1 DUP5 PUSH1 0x40 MLOAD PUSH2 0x410 SWAP2 SWAP1 PUSH2 0x87E JUMP JUMPDEST SWAP1 DUP2 MSTORE PUSH1 0x20 ADD PUSH1 0x40 MLOAD DUP1 SWAP2 SUB SWAP1 KECCAK256 PUSH1 0x40 MLOAD DUP1 PUSH1 0x80 ADD PUSH1 0x40 MSTORE SWAP1 DUP2 PUSH1 0x0 DUP3 ADD SLOAD DUP2 MSTORE PUSH1 0x20 ADD PUSH1 0x1 DUP3 ADD DUP1 SLOAD PUSH2 0x443 SWAP1 PUSH2 0x927 JUMP JUMPDEST DUP1 PUSH1 0x1F ADD PUSH1 0x20 DUP1 SWAP2 DIV MUL PUSH1 0x20 ADD PUSH1 0x40 MLOAD SWAP1 DUP2 ADD PUSH1 0x40 MSTORE DUP1 SWAP3 SWAP2 SWAP1 DUP2 DUP2 MSTORE PUSH1 0x20 ADD DUP3 DUP1 SLOAD PUSH2 0x46F SWAP1 PUSH2 0x927 JUMP JUMPDEST DUP1 ISZERO PUSH2 0x4BC JUMPI DUP1 PUSH1 0x1F LT PUSH2 0x491 JUMPI PUSH2 0x100 DUP1 DUP4 SLOAD DIV MUL DUP4 MSTORE SWAP2 PUSH1 0x20 ADD SWAP2 PUSH2 0x4BC JUMP JUMPDEST DUP3 ADD SWAP2 SWAP1 PUSH1 0x0 MSTORE PUSH1 0x20 PUSH1 0x0 KECCAK256 SWAP1 JUMPDEST DUP2 SLOAD DUP2 MSTORE SWAP1 PUSH1 0x1 ADD SWAP1 PUSH1 0x20 ADD DUP1 DUP4 GT PUSH2 0x49F JUMPI DUP3 SWAP1 SUB PUSH1 0x1F AND DUP3 ADD SWAP2 JUMPDEST POP POP POP POP POP DUP2 MSTORE PUSH1 0x20 ADD PUSH1 0x2 DUP3 ADD SLOAD DUP2 MSTORE PUSH1 0x20 ADD PUSH1 0x3 DUP3 ADD SLOAD DUP2 MSTORE POP POP SWAP1 POP DUP3 DUP2 PUSH1 0x60 ADD MLOAD PUSH2 0x4EB SWAP2 SWAP1 PUSH2 0x8C4 JUMP JUMPDEST DUP2 PUSH1 0x40 ADD MLOAD LT SWAP2 POP POP SWAP3 SWAP2 POP POP JUMP JUMPDEST PUSH1 0x0 PUSH1 0x40 MLOAD SWAP1 POP SWAP1 JUMP JUMPDEST PUSH1 0x0 DUP1 REVERT JUMPDEST PUSH1 0x0 DUP1 REVERT JUMPDEST PUSH1 0x0 DUP1 REVERT JUMPDEST PUSH1 0x0 DUP1 REVERT JUMPDEST PUSH1 0x0 PUSH1 0x1F NOT PUSH1 0x1F DUP4 ADD AND SWAP1 POP SWAP2 SWAP1 POP JUMP JUMPDEST PUSH32 0x4E487B7100000000000000000000000000000000000000000000000000000000 PUSH1 0x0 MSTORE PUSH1 0x41 PUSH1 0x4 MSTORE PUSH1 0x24 PUSH1 0x0 REVERT JUMPDEST PUSH2 0x561 DUP3 PUSH2 0x518 JUMP JUMPDEST DUP2 ADD DUP2 DUP2 LT PUSH8 0xFFFFFFFFFFFFFFFF DUP3 GT OR ISZERO PUSH2 0x580 JUMPI PUSH2 0x57F PUSH2 0x529 JUMP JUMPDEST JUMPDEST DUP1 PUSH1 0x40 MSTORE POP POP POP JUMP JUMPDEST PUSH1 0x0 PUSH2 0x593 PUSH2 0x4FA JUMP JUMPDEST SWAP1 POP PUSH2 0x59F DUP3 DUP3 PUSH2 0x558 JUMP JUMPDEST SWAP2 SWAP1 POP JUMP JUMPDEST PUSH1 0x0 PUSH8 0xFFFFFFFFFFFFFFFF DUP3 GT ISZERO PUSH2 0x5BF JUMPI PUSH2 0x5BE PUSH2 0x529 JUMP JUMPDEST JUMPDEST PUSH2 0x5C8 DUP3 PUSH2 0x518 JUMP JUMPDEST SWAP1 POP PUSH1 0x20 DUP2 ADD SWAP1 POP SWAP2 SWAP1 POP JUMP JUMPDEST DUP3 DUP2 DUP4 CALLDATACOPY PUSH1 0x0 DUP4 DUP4 ADD MSTORE POP POP POP JUMP JUMPDEST PUSH1 0x0 PUSH2 0x5F7 PUSH2 0x5F2 DUP5 PUSH2 0x5A4 JUMP JUMPDEST PUSH2 0x589 JUMP JUMPDEST SWAP1 POP DUP3 DUP2 MSTORE PUSH1 0x20 DUP2 ADD DUP5 DUP5 DUP5 ADD GT ISZERO PUSH2 0x613 JUMPI PUSH2 0x612 PUSH2 0x513 JUMP JUMPDEST JUMPDEST PUSH2 0x61E DUP5 DUP3 DUP6 PUSH2 0x5D5 JUMP JUMPDEST POP SWAP4 SWAP3 POP POP POP JUMP JUMPDEST PUSH1 0x0 DUP3 PUSH1 0x1F DUP4 ADD SLT PUSH2 0x63B JUMPI PUSH2 0x63A PUSH2 0x50E JUMP JUMPDEST JUMPDEST DUP2 CALLDATALOAD PUSH2 0x64B DUP5 DUP3 PUSH1 0x20 DUP7 ADD PUSH2 0x5E4 JUMP JUMPDEST SWAP2 POP POP SWAP3 SWAP2 POP POP JUMP JUMPDEST PUSH1 0x0 DUP2 SWAP1 POP SWAP2 SWAP1 POP JUMP JUMPDEST PUSH2 0x667 DUP2 PUSH2 0x654 JUMP JUMPDEST DUP2 EQ PUSH2 0x672 JUMPI PUSH1 0x0 DUP1 REVERT JUMPDEST POP JUMP JUMPDEST PUSH1 0x0 DUP2 CALLDATALOAD SWAP1 POP PUSH2 0x684 DUP2 PUSH2 0x65E JUMP JUMPDEST SWAP3 SWAP2 POP POP JUMP JUMPDEST PUSH1 0x0 DUP1 PUSH1 0x40 DUP4 DUP6 SUB SLT ISZERO PUSH2 0x6A1 JUMPI PUSH2 0x6A0 PUSH2 0x504 JUMP JUMPDEST JUMPDEST PUSH1 0x0 DUP4 ADD CALLDATALOAD PUSH8 0xFFFFFFFFFFFFFFFF DUP2 GT ISZERO PUSH2 0x6BF JUMPI PUSH2 0x6BE PUSH2 0x509 JUMP JUMPDEST JUMPDEST PUSH2 0x6CB DUP6 DUP3 DUP7 ADD PUSH2 0x626 JUMP JUMPDEST SWAP3 POP POP PUSH1 0x20 PUSH2 0x6DC DUP6 DUP3 DUP7 ADD PUSH2 0x675 JUMP JUMPDEST SWAP2 POP POP SWAP3 POP SWAP3 SWAP1 POP JUMP JUMPDEST PUSH1 0x0 PUSH1 0x20 DUP3 DUP5 SUB SLT ISZERO PUSH2 0x6FC JUMPI PUSH2 0x6FB PUSH2 0x504 JUMP JUMPDEST JUMPDEST PUSH1 0x0 DUP3 ADD CALLDATALOAD PUSH8 0xFFFFFFFFFFFFFFFF DUP2 GT ISZERO PUSH2 0x71A JUMPI PUSH2 0x719 PUSH2 0x509 JUMP JUMPDEST JUMPDEST PUSH2 0x726 DUP5 DUP3 DUP6 ADD PUSH2 0x626 JUMP JUMPDEST SWAP2 POP POP SWAP3 SWAP2 POP POP JUMP JUMPDEST PUSH2 0x738 DUP2 PUSH2 0x654 JUMP JUMPDEST DUP3 MSTORE POP POP JUMP JUMPDEST PUSH1 0x0 PUSH1 0x20 DUP3 ADD SWAP1 POP PUSH2 0x753 PUSH1 0x0 DUP4 ADD DUP5 PUSH2 0x72F JUMP JUMPDEST SWAP3 SWAP2 POP POP JUMP JUMPDEST PUSH1 0x0 PUSH1 0x60 DUP3 ADD SWAP1 POP PUSH2 0x76E PUSH1 0x0 DUP4 ADD DUP7 PUSH2 0x72F JUMP JUMPDEST PUSH2 0x77B PUSH1 0x20 DUP4 ADD DUP6 PUSH2 0x72F JUMP JUMPDEST PUSH2 0x788 PUSH1 0x40 DUP4 ADD DUP5 PUSH2 0x72F JUMP JUMPDEST SWAP5 SWAP4 POP POP POP POP JUMP JUMPDEST PUSH1 0x0 DUP3 DUP3 MSTORE PUSH1 0x20 DUP3 ADD SWAP1 POP SWAP3 SWAP2 POP POP JUMP JUMPDEST PUSH32 0x54415247455420414D4F554E5420524541434845440000000000000000000000 PUSH1 0x0 DUP3 ADD MSTORE POP JUMP JUMPDEST PUSH1 0x0 PUSH2 0x7D7 PUSH1 0x15 DUP4 PUSH2 0x790 JUMP JUMPDEST SWAP2 POP PUSH2 0x7E2 DUP3 PUSH2 0x7A1 JUMP JUMPDEST PUSH1 0x20 DUP3 ADD SWAP1 POP SWAP2 SWAP1 POP JUMP JUMPDEST PUSH1 0x0 PUSH1 0x20 DUP3 ADD SWAP1 POP DUP2 DUP2 SUB PUSH1 0x0 DUP4 ADD MSTORE PUSH2 0x806 DUP2 PUSH2 0x7CA JUMP JUMPDEST SWAP1 POP SWAP2 SWAP1 POP JUMP JUMPDEST PUSH1 0x0 DUP2 MLOAD SWAP1 POP SWAP2 SWAP1 POP JUMP JUMPDEST PUSH1 0x0 DUP2 SWAP1 POP SWAP3 SWAP2 POP POP JUMP JUMPDEST PUSH1 0x0 JUMPDEST DUP4 DUP2 LT ISZERO PUSH2 0x841 JUMPI DUP1 DUP3 ADD MLOAD DUP2 DUP5 ADD MSTORE PUSH1 0x20 DUP2 ADD SWAP1 POP PUSH2 0x826 JUMP JUMPDEST PUSH1 0x0 DUP5 DUP5 ADD MSTORE POP POP POP POP JUMP JUMPDEST PUSH1 0x0 PUSH2 0x858 DUP3 PUSH2 0x80D JUMP JUMPDEST PUSH2 0x862 DUP2 DUP6 PUSH2 0x818 JUMP JUMPDEST SWAP4 POP PUSH2 0x872 DUP2 DUP6 PUSH1 0x20 DUP7 ADD PUSH2 0x823 JUMP JUMPDEST DUP1 DUP5 ADD SWAP2 POP POP SWAP3 SWAP2 POP POP JUMP JUMPDEST PUSH1 0x0 PUSH2 0x88A DUP3 DUP5 PUSH2 0x84D JUMP JUMPDEST SWAP2 POP DUP2 SWAP1 POP SWAP3 SWAP2 POP POP JUMP JUMPDEST PUSH32 0x4E487B7100000000000000000000000000000000000000000000000000000000 PUSH1 0x0 MSTORE PUSH1 0x11 PUSH1 0x4 MSTORE PUSH1 0x24 PUSH1 0x0 REVERT JUMPDEST PUSH1 0x0 PUSH2 0x8CF DUP3 PUSH2 0x654 JUMP JUMPDEST SWAP2 POP PUSH2 0x8DA DUP4 PUSH2 0x654 JUMP JUMPDEST SWAP3 POP DUP3 DUP3 ADD SWAP1 POP DUP1 DUP3 GT ISZERO PUSH2 0x8F2 JUMPI PUSH2 0x8F1 PUSH2 0x895 JUMP JUMPDEST JUMPDEST SWAP3 SWAP2 POP POP JUMP JUMPDEST PUSH32 0x4E487B7100000000000000000000000000000000000000000000000000000000 PUSH1 0x0 MSTORE PUSH1 0x22 PUSH1 0x4 MSTORE PUSH1 0x24 PUSH1 0x0 REVERT JUMPDEST PUSH1 0x0 PUSH1 0x2 DUP3 DIV SWAP1 POP PUSH1 0x1 DUP3 AND DUP1 PUSH2 0x93F JUMPI PUSH1 0x7F DUP3 AND SWAP2 POP JUMPDEST PUSH1 0x20 DUP3 LT DUP2 SUB PUSH2 0x952 JUMPI PUSH2 0x951 PUSH2 0x8F8 JUMP JUMPDEST JUMPDEST POP SWAP2 SWAP1 POP JUMP JUMPDEST PUSH1 0x0 PUSH2 0x963 DUP3 PUSH2 0x654 JUMP JUMPDEST SWAP2 POP PUSH2 0x96E DUP4 PUSH2 0x654 JUMP JUMPDEST SWAP3 POP DUP3 DUP3 SUB SWAP1 POP DUP2 DUP2 GT ISZERO PUSH2 0x986 JUMPI PUSH2 0x985 PUSH2 0x895 JUMP JUMPDEST JUMPDEST SWAP3 SWAP2 POP POP JUMP JUMPDEST PUSH1 0x0 PUSH2 0x997 DUP3 PUSH2 0x654 JUMP JUMPDEST SWAP2 POP PUSH32 0xFFFFFFFFFFFFFFFFFFFFFFFFFFFFFFFFFFFFFFFFFFFFFFFFFFFFFFFFFFFFFFFF DUP3 SUB PUSH2 0x9C9 JUMPI PUSH2 0x9C8 PUSH2 0x895 JUMP JUMPDEST JUMPDEST PUSH1 0x1 DUP3 ADD SWAP1 POP SWAP2 SWAP1 POP JUMP JUMPDEST PUSH1 0x0 DUP2 SWAP1 POP DUP2 PUSH1 0x0 MSTORE PUSH1 0x20 PUSH1 0x0 KECCAK256 SWAP1 POP SWAP2 SWAP1 POP JUMP JUMPDEST PUSH1 0x0 PUSH1 0x20 PUSH1 0x1F DUP4 ADD DIV SWAP1 POP SWAP2 SWAP1 POP JUMP JUMPDEST PUSH1 0x0 DUP3 DUP3 SHL SWAP1 POP SWAP3 SWAP2 POP POP JUMP JUMPDEST PUSH1 0x0 PUSH1 0x8 DUP4 MUL PUSH2 0xA36 PUSH32 0xFFFFFFFFFFFFFFFFFFFFFFFFFFFFFFFFFFFFFFFFFFFFFFFFFFFFFFFFFFFFFFFF DUP3 PUSH2 0x9F9 JUMP JUMPDEST PUSH2 0xA40 DUP7 DUP4 PUSH2 0x9F9 JUMP JUMPDEST SWAP6 POP DUP1 NOT DUP5 AND SWAP4 POP DUP1 DUP7 AND DUP5 OR SWAP3 POP POP POP SWAP4 SWAP3 POP POP POP JUMP JUMPDEST PUSH1 0x0 DUP2 SWAP1 POP SWAP2 SWAP1 POP JUMP JUMPDEST PUSH1 0x0 PUSH2 0xA7D PUSH2 0xA78 PUSH2 0xA73 DUP5 PUSH2 0x654 JUMP JUMPDEST PUSH2 0xA58 JUMP JUMPDEST PUSH2 0x654 JUMP JUMPDEST SWAP1 POP SWAP2 SWAP1 POP JUMP JUMPDEST PUSH1 0x0 DUP2 SWAP1 POP SWAP2 SWAP1 POP JUMP JUMPDEST PUSH2 0xA97 DUP4 PUSH2 0xA62 JUMP JUMPDEST PUSH2 0xAAB PUSH2 0xAA3 DUP3 PUSH2 0xA84 JUMP JUMPDEST DUP5 DUP5 SLOAD PUSH2 0xA06 JUMP JUMPDEST DUP3 SSTORE POP POP POP POP JUMP JUMPDEST PUSH1 0x0 SWAP1 JUMP JUMPDEST PUSH2 0xAC0 PUSH2 0xAB3 JUMP JUMPDEST PUSH2 0xACB DUP2 DUP5 DUP5 PUSH2 0xA8E JUMP JUMPDEST POP POP POP JUMP JUMPDEST JUMPDEST DUP2 DUP2 LT ISZERO PUSH2 0xAEF JUMPI PUSH2 0xAE4 PUSH1 0x0 DUP3 PUSH2 0xAB8 JUMP JUMPDEST PUSH1 0x1 DUP2 ADD SWAP1 POP PUSH2 0xAD1 JUMP JUMPDEST POP POP JUMP JUMPDEST PUSH1 0x1F DUP3 GT ISZERO PUSH2 0xB34 JUMPI PUSH2 0xB05 DUP2 PUSH2 0x9D4 JUMP JUMPDEST PUSH2 0xB0E DUP5 PUSH2 0x9E9 JUMP JUMPDEST DUP2 ADD PUSH1 0x20 DUP6 LT ISZERO PUSH2 0xB1D JUMPI DUP2 SWAP1 POP JUMPDEST PUSH2 0xB31 PUSH2 0xB29 DUP6 PUSH2 0x9E9 JUMP JUMPDEST DUP4 ADD DUP3 PUSH2 0xAD0 JUMP JUMPDEST POP POP JUMPDEST POP POP POP JUMP JUMPDEST PUSH1 0x0 DUP3 DUP3 SHR SWAP1 POP SWAP3 SWAP2 POP POP JUMP JUMPDEST PUSH1 0x0 PUSH2 0xB57 PUSH1 0x0 NOT DUP5 PUSH1 0x8 MUL PUSH2 0xB39 JUMP JUMPDEST NOT DUP1 DUP4 AND SWAP2 POP POP SWAP3 SWAP2 POP POP JUMP JUMPDEST PUSH1 0x0 PUSH2 0xB70 DUP4 DUP4 PUSH2 0xB46 JUMP JUMPDEST SWAP2 POP DUP3 PUSH1 0x2 MUL DUP3 OR SWAP1 POP SWAP3 SWAP2 POP POP JUMP JUMPDEST PUSH2 0xB89 DUP3 PUSH2 0x80D JUMP JUMPDEST PUSH8 0xFFFFFFFFFFFFFFFF DUP2 GT ISZERO PUSH2 0xBA2 JUMPI PUSH2 0xBA1 PUSH2 0x529 JUMP JUMPDEST JUMPDEST PUSH2 0xBAC DUP3 SLOAD PUSH2 0x927 JUMP JUMPDEST PUSH2 0xBB7 DUP3 DUP3 DUP6 PUSH2 0xAF3 JUMP JUMPDEST PUSH1 0x0 PUSH1 0x20 SWAP1 POP PUSH1 0x1F DUP4 GT PUSH1 0x1 DUP2 EQ PUSH2 0xBEA JUMPI PUSH1 0x0 DUP5 ISZERO PUSH2 0xBD8 JUMPI DUP3 DUP8 ADD MLOAD SWAP1 POP JUMPDEST PUSH2 0xBE2 DUP6 DUP3 PUSH2 0xB64 JUMP JUMPDEST DUP7 SSTORE POP PUSH2 0xC4A JUMP JUMPDEST PUSH1 0x1F NOT DUP5 AND PUSH2 0xBF8 DUP7 PUSH2 0x9D4 JUMP JUMPDEST PUSH1 0x0 JUMPDEST DUP3 DUP2 LT ISZERO PUSH2 0xC20 JUMPI DUP5 DUP10 ADD MLOAD DUP3 SSTORE PUSH1 0x1 DUP3 ADD SWAP2 POP PUSH1 0x20 DUP6 ADD SWAP5 POP PUSH1 0x20 DUP2 ADD SWAP1 POP PUSH2 0xBFB JUMP JUMPDEST DUP7 DUP4 LT ISZERO PUSH2 0xC3D JUMPI DUP5 DUP10 ADD MLOAD PUSH2 0xC39 PUSH1 0x1F DUP10 AND DUP3 PUSH2 0xB46 JUMP JUMPDEST DUP4 SSTORE POP JUMPDEST PUSH1 0x1 PUSH1 0x2 DUP9 MUL ADD DUP9 SSTORE POP POP POP JUMPDEST POP POP POP POP POP POP JUMP INVALID LOG2 PUSH5 0x6970667358 0x22 SLT KECCAK256 0xA7 EXTCODEHASH SHR PUSH9 0x7C572D3DC392DD0948 SELFDESTRUCT PREVRANDAO SWAP14 MUL 0xB6 PUSH11 0x63EDB8E7DE17F4824E20A7 0xA6 0xE PUSH5 0x736F6C6343 STOP ADDMOD SLT STOP CALLER "
				},
				"gasEstimates": {
					"creation": {
						"codeDepositCost": "641600",
						"executionCost": "5682",
						"totalCost": "647282"
					},
					"external": {
						"amountToReachTarget(string)": "infinite",
						"fundProyect(string,uint256)": "infinite",
						"newProyect(string,uint256)": "infinite",
						"proyectInfo(string)": "infinite"
					},
					"internal": {
						"targetAmountReached(string memory,uint256)": "infinite"
					}
				},
				"methodIdentifiers": {
					"amountToReachTarget(string)": "50b581f5",
					"fundProyect(string,uint256)": "0eda4e68",
					"newProyect(string,uint256)": "a5db748d",
					"proyectInfo(string)": "cb42bbf8"
				}
			},
			"storageLayout": {
				"storage": [
					{
						"astId": 13,
						"contract": "crowfunding.sol:crowFunding",
						"label": "proyectsCount",
						"offset": 0,
						"slot": "0",
						"type": "t_uint256"
					},
					{
						"astId": 18,
						"contract": "crowfunding.sol:crowFunding",
						"label": "proyects",
						"offset": 0,
						"slot": "1",
						"type": "t_mapping(t_string_memory_ptr,t_struct(Proyect)10_storage)"
					}
				],
				"types": {
					"t_mapping(t_string_memory_ptr,t_struct(Proyect)10_storage)": {
						"encoding": "mapping",
						"key": "t_string_memory_ptr",
						"label": "mapping(string => struct crowFunding.Proyect)",
						"numberOfBytes": "32",
						"value": "t_struct(Proyect)10_storage"
					},
					"t_string_memory_ptr": {
						"encoding": "bytes",
						"label": "string",
						"numberOfBytes": "32"
					},
					"t_string_storage": {
						"encoding": "bytes",
						"label": "string",
						"numberOfBytes": "32"
					},
					"t_struct(Proyect)10_storage": {
						"encoding": "inplace",
						"label": "struct crowFunding.Proyect",
						"members": [
							{
								"astId": 3,
								"contract": "crowfunding.sol:crowFunding",
								"label": "Id",
								"offset": 0,
								"slot": "0",
								"type": "t_uint256"
							},
							{
								"astId": 5,
								"contract": "crowfunding.sol:crowFunding",
								"label": "name",
								"offset": 0,
								"slot": "1",
								"type": "t_string_storage"
							},
							{
								"astId": 7,
								"contract": "crowfunding.sol:crowFunding",
								"label": "targetAmount",
								"offset": 0,
								"slot": "2",
								"type": "t_uint256"
							},
							{
								"astId": 9,
								"contract": "crowfunding.sol:crowFunding",
								"label": "collectedAmount",
								"offset": 0,
								"slot": "3",
								"type": "t_uint256"
							}
						],
						"numberOfBytes": "128"
					},
					"t_uint256": {
						"encoding": "inplace",
						"label": "uint256",
						"numberOfBytes": "32"
					}
				}
			},
			"userdoc": {
				"kind": "user",
				"methods": {},
				"version": 1
			}
		}
	}
}