{
	"crowfunding.sol": {
		"crowFunding": {
			"abi": [
				{
					"inputs": [
						{
							"internalType": "string",
							"name": "_name",
							"type": "string"
						}
					],
					"name": "amountToReachTarget",
					"outputs": [
						{
							"internalType": "uint256",
							"name": "",
							"type": "uint256"
						}
					],
					"stateMutability": "view",
					"type": "function"
				},
				{
					"inputs": [
						{
							"internalType": "string",
							"name": "_name",
							"type": "string"
						},
						{
							"internalType": "uint256",
							"name": "_amount",
							"type": "uint256"
						}
					],
					"name": "fundProyect",
					"outputs": [],
					"stateMutability": "nonpayable",
					"type": "function"
				},
				{
					"inputs": [
						{
							"internalType": "string",
							"name": "_name",
							"type": "string"
						},
						{
							"internalType": "uint256",
							"name": "_target",
							"type": "uint256"
						}
					],
					"name": "newProyect",
					"outputs": [],
					"stateMutability": "nonpayable",
					"type": "function"
				}
			],
			"devdoc": {
				"kind": "dev",
				"methods": {},
				"version": 1
			},
			"evm": {
				"assembly": "    /* \"crowfunding.sol\":58:1239  contract crowFunding{... */\n  mstore(0x40, 0x80)\n    /* \"crowfunding.sol\":227:228  0 */\n  0x00\n    /* \"crowfunding.sol\":206:228  uint proyectsCount = 0 */\n  dup1\n  sstore\n    /* \"crowfunding.sol\":58:1239  contract crowFunding{... */\n  callvalue\n  dup1\n  iszero\n  tag_1\n  jumpi\n  0x00\n  dup1\n  revert\ntag_1:\n  pop\n  dataSize(sub_0)\n  dup1\n  dataOffset(sub_0)\n  0x00\n  codecopy\n  0x00\n  return\nstop\n\nsub_0: assembly {\n        /* \"crowfunding.sol\":58:1239  contract crowFunding{... */\n      mstore(0x40, 0x80)\n      callvalue\n      dup1\n      iszero\n      tag_1\n      jumpi\n      0x00\n      dup1\n      revert\n    tag_1:\n      pop\n      jumpi(tag_2, lt(calldatasize, 0x04))\n      shr(0xe0, calldataload(0x00))\n      dup1\n      0x0eda4e68\n      eq\n      tag_3\n      jumpi\n      dup1\n      0x50b581f5\n      eq\n      tag_4\n      jumpi\n      dup1\n      0xa5db748d\n      eq\n      tag_5\n      jumpi\n    tag_2:\n      0x00\n      dup1\n      revert\n        /* \"crowfunding.sol\":1037:1237  function fundProyect(string memory _name, uint _amount) public{... */\n    tag_3:\n      tag_6\n      0x04\n      dup1\n      calldatasize\n      sub\n      dup2\n      add\n      swap1\n      tag_7\n      swap2\n      swap1\n      tag_8\n      jump\t// in\n    tag_7:\n      tag_9\n      jump\t// in\n    tag_6:\n      stop\n        /* \"crowfunding.sol\":793:990  function amountToReachTarget(string memory _name) public view returns (uint) {... */\n    tag_4:\n      tag_10\n      0x04\n      dup1\n      calldatasize\n      sub\n      dup2\n      add\n      swap1\n      tag_11\n      swap2\n      swap1\n      tag_12\n      jump\t// in\n    tag_11:\n      tag_13\n      jump\t// in\n    tag_10:\n      mload(0x40)\n      tag_14\n      swap2\n      swap1\n      tag_15\n      jump\t// in\n    tag_14:\n      mload(0x40)\n      dup1\n      swap2\n      sub\n      swap1\n      return\n        /* \"crowfunding.sol\":314:474  function newProyect(string memory _name, uint _target) public{... */\n    tag_5:\n      tag_16\n      0x04\n      dup1\n      calldatasize\n      sub\n      dup2\n      add\n      swap1\n      tag_17\n      swap2\n      swap1\n      tag_8\n      jump\t// in\n    tag_17:\n      tag_18\n      jump\t// in\n    tag_16:\n      stop\n        /* \"crowfunding.sol\":1037:1237  function fundProyect(string memory _name, uint _amount) public{... */\n    tag_9:\n        /* \"crowfunding.sol\":1118:1153  targetAmountReached(_name, _amount) */\n      tag_20\n        /* \"crowfunding.sol\":1138:1143  _name */\n      dup3\n        /* \"crowfunding.sol\":1145:1152  _amount */\n      dup3\n        /* \"crowfunding.sol\":1118:1137  targetAmountReached */\n      tag_21\n        /* \"crowfunding.sol\":1118:1153  targetAmountReached(_name, _amount) */\n      jump\t// in\n    tag_20:\n        /* \"crowfunding.sol\":1117:1153  !targetAmountReached(_name, _amount) */\n      iszero\n        /* \"crowfunding.sol\":1109:1178  require(!targetAmountReached(_name, _amount),\"TARGET AMOUNT REACHED\") */\n      tag_22\n      jumpi\n      mload(0x40)\n      0x08c379a000000000000000000000000000000000000000000000000000000000\n      dup2\n      mstore\n      0x04\n      add\n      tag_23\n      swap1\n      tag_24\n      jump\t// in\n    tag_23:\n      mload(0x40)\n      dup1\n      swap2\n      sub\n      swap1\n      revert\n    tag_22:\n        /* \"crowfunding.sol\":1223:1230  _amount */\n      dup1\n        /* \"crowfunding.sol\":1188:1196  proyects */\n      0x01\n        /* \"crowfunding.sol\":1197:1202  _name */\n      dup4\n        /* \"crowfunding.sol\":1188:1203  proyects[_name] */\n      mload(0x40)\n      tag_25\n      swap2\n      swap1\n      tag_26\n      jump\t// in\n    tag_25:\n      swap1\n      dup2\n      mstore\n      0x20\n      add\n      mload(0x40)\n      dup1\n      swap2\n      sub\n      swap1\n      keccak256\n        /* \"crowfunding.sol\":1188:1219  proyects[_name].collectedAmount */\n      0x03\n      add\n      0x00\n        /* \"crowfunding.sol\":1188:1230  proyects[_name].collectedAmount += _amount */\n      dup3\n      dup3\n      sload\n      tag_27\n      swap2\n      swap1\n      tag_28\n      jump\t// in\n    tag_27:\n      swap3\n      pop\n      pop\n      dup2\n      swap1\n      sstore\n      pop\n        /* \"crowfunding.sol\":1037:1237  function fundProyect(string memory _name, uint _amount) public{... */\n      pop\n      pop\n      jump\t// out\n        /* \"crowfunding.sol\":793:990  function amountToReachTarget(string memory _name) public view returns (uint) {... */\n    tag_13:\n        /* \"crowfunding.sol\":864:868  uint */\n      0x00\n        /* \"crowfunding.sol\":880:902  Proyect memory proyect */\n      dup1\n        /* \"crowfunding.sol\":905:913  proyects */\n      0x01\n        /* \"crowfunding.sol\":914:919  _name */\n      dup4\n        /* \"crowfunding.sol\":905:920  proyects[_name] */\n      mload(0x40)\n      tag_30\n      swap2\n      swap1\n      tag_26\n      jump\t// in\n    tag_30:\n      swap1\n      dup2\n      mstore\n      0x20\n      add\n      mload(0x40)\n      dup1\n      swap2\n      sub\n      swap1\n      keccak256\n        /* \"crowfunding.sol\":880:920  Proyect memory proyect = proyects[_name] */\n      mload(0x40)\n      dup1\n      0x80\n      add\n      0x40\n      mstore\n      swap1\n      dup2\n      0x00\n      dup3\n      add\n      sload\n      dup2\n      mstore\n      0x20\n      add\n      0x01\n      dup3\n      add\n      dup1\n      sload\n      tag_31\n      swap1\n      tag_32\n      jump\t// in\n    tag_31:\n      dup1\n      0x1f\n      add\n      0x20\n      dup1\n      swap2\n      div\n      mul\n      0x20\n      add\n      mload(0x40)\n      swap1\n      dup2\n      add\n      0x40\n      mstore\n      dup1\n      swap3\n      swap2\n      swap1\n      dup2\n      dup2\n      mstore\n      0x20\n      add\n      dup3\n      dup1\n      sload\n      tag_33\n      swap1\n      tag_32\n      jump\t// in\n    tag_33:\n      dup1\n      iszero\n      tag_34\n      jumpi\n      dup1\n      0x1f\n      lt\n      tag_35\n      jumpi\n      0x0100\n      dup1\n      dup4\n      sload\n      div\n      mul\n      dup4\n      mstore\n      swap2\n      0x20\n      add\n      swap2\n      jump(tag_34)\n    tag_35:\n      dup3\n      add\n      swap2\n      swap1\n      0x00\n      mstore\n      keccak256(0x00, 0x20)\n      swap1\n    tag_36:\n      dup2\n      sload\n      dup2\n      mstore\n      swap1\n      0x01\n      add\n      swap1\n      0x20\n      add\n      dup1\n      dup4\n      gt\n      tag_36\n      jumpi\n      dup3\n      swap1\n      sub\n      0x1f\n      and\n      dup3\n      add\n      swap2\n    tag_34:\n      pop\n      pop\n      pop\n      pop\n      pop\n      dup2\n      mstore\n      0x20\n      add\n      0x02\n      dup3\n      add\n      sload\n      dup2\n      mstore\n      0x20\n      add\n      0x03\n      dup3\n      add\n      sload\n      dup2\n      mstore\n      pop\n      pop\n      swap1\n      pop\n        /* \"crowfunding.sol\":960:967  proyect */\n      dup1\n        /* \"crowfunding.sol\":960:983  proyect.collectedAmount */\n      0x60\n      add\n      mload\n        /* \"crowfunding.sol\":937:944  proyect */\n      dup2\n        /* \"crowfunding.sol\":937:957  proyect.targetAmount */\n      0x40\n      add\n      mload\n        /* \"crowfunding.sol\":937:983  proyect.targetAmount - proyect.collectedAmount */\n      tag_37\n      swap2\n      swap1\n      tag_38\n      jump\t// in\n    tag_37:\n        /* \"crowfunding.sol\":930:983  return proyect.targetAmount - proyect.collectedAmount */\n      swap2\n      pop\n      pop\n        /* \"crowfunding.sol\":793:990  function amountToReachTarget(string memory _name) public view returns (uint) {... */\n      swap2\n      swap1\n      pop\n      jump\t// out\n        /* \"crowfunding.sol\":314:474  function newProyect(string memory _name, uint _target) public{... */\n    tag_18:\n        /* \"crowfunding.sol\":385:398  proyectsCount */\n      0x00\n      dup1\n        /* \"crowfunding.sol\":385:400  proyectsCount++ */\n      dup2\n      sload\n      dup1\n      swap3\n      swap2\n      swap1\n      tag_40\n      swap1\n      tag_41\n      jump\t// in\n    tag_40:\n      swap2\n      swap1\n      pop\n      sstore\n      pop\n        /* \"crowfunding.sol\":428:467  Proyect(proyectsCount,_name,_target, 0) */\n      mload(0x40)\n      dup1\n      0x80\n      add\n      0x40\n      mstore\n      dup1\n        /* \"crowfunding.sol\":436:449  proyectsCount */\n      sload(0x00)\n        /* \"crowfunding.sol\":428:467  Proyect(proyectsCount,_name,_target, 0) */\n      dup2\n      mstore\n      0x20\n      add\n        /* \"crowfunding.sol\":450:455  _name */\n      dup4\n        /* \"crowfunding.sol\":428:467  Proyect(proyectsCount,_name,_target, 0) */\n      dup2\n      mstore\n      0x20\n      add\n        /* \"crowfunding.sol\":456:463  _target */\n      dup3\n        /* \"crowfunding.sol\":428:467  Proyect(proyectsCount,_name,_target, 0) */\n      dup2\n      mstore\n      0x20\n      add\n        /* \"crowfunding.sol\":465:466  0 */\n      0x00\n        /* \"crowfunding.sol\":428:467  Proyect(proyectsCount,_name,_target, 0) */\n      dup2\n      mstore\n      pop\n        /* \"crowfunding.sol\":410:418  proyects */\n      0x01\n        /* \"crowfunding.sol\":419:424  _name */\n      dup4\n        /* \"crowfunding.sol\":410:425  proyects[_name] */\n      mload(0x40)\n      tag_42\n      swap2\n      swap1\n      tag_26\n      jump\t// in\n    tag_42:\n      swap1\n      dup2\n      mstore\n      0x20\n      add\n      mload(0x40)\n      dup1\n      swap2\n      sub\n      swap1\n      keccak256\n        /* \"crowfunding.sol\":410:467  proyects[_name] = Proyect(proyectsCount,_name,_target, 0) */\n      0x00\n      dup3\n      add\n      mload\n      dup2\n      0x00\n      add\n      sstore\n      0x20\n      dup3\n      add\n      mload\n      dup2\n      0x01\n      add\n      swap1\n      dup2\n      tag_43\n      swap2\n      swap1\n      tag_44\n      jump\t// in\n    tag_43:\n      pop\n      0x40\n      dup3\n      add\n      mload\n      dup2\n      0x02\n      add\n      sstore\n      0x60\n      dup3\n      add\n      mload\n      dup2\n      0x03\n      add\n      sstore\n      swap1\n      pop\n      pop\n        /* \"crowfunding.sol\":314:474  function newProyect(string memory _name, uint _target) public{... */\n      pop\n      pop\n      jump\t// out\n        /* \"crowfunding.sol\":523:745  function targetAmountReached(string memory _name, uint _amount) private view returns (bool) {... */\n    tag_21:\n        /* \"crowfunding.sol\":609:613  bool */\n      0x00\n        /* \"crowfunding.sol\":625:647  Proyect memory proyect */\n      dup1\n        /* \"crowfunding.sol\":650:658  proyects */\n      0x01\n        /* \"crowfunding.sol\":659:664  _name */\n      dup5\n        /* \"crowfunding.sol\":650:665  proyects[_name] */\n      mload(0x40)\n      tag_46\n      swap2\n      swap1\n      tag_26\n      jump\t// in\n    tag_46:\n      swap1\n      dup2\n      mstore\n      0x20\n      add\n      mload(0x40)\n      dup1\n      swap2\n      sub\n      swap1\n      keccak256\n        /* \"crowfunding.sol\":625:665  Proyect memory proyect = proyects[_name] */\n      mload(0x40)\n      dup1\n      0x80\n      add\n      0x40\n      mstore\n      swap1\n      dup2\n      0x00\n      dup3\n      add\n      sload\n      dup2\n      mstore\n      0x20\n      add\n      0x01\n      dup3\n      add\n      dup1\n      sload\n      tag_47\n      swap1\n      tag_32\n      jump\t// in\n    tag_47:\n      dup1\n      0x1f\n      add\n      0x20\n      dup1\n      swap2\n      div\n      mul\n      0x20\n      add\n      mload(0x40)\n      swap1\n      dup2\n      add\n      0x40\n      mstore\n      dup1\n      swap3\n      swap2\n      swap1\n      dup2\n      dup2\n      mstore\n      0x20\n      add\n      dup3\n      dup1\n      sload\n      tag_48\n      swap1\n      tag_32\n      jump\t// in\n    tag_48:\n      dup1\n      iszero\n      tag_49\n      jumpi\n      dup1\n      0x1f\n      lt\n      tag_50\n      jumpi\n      0x0100\n      dup1\n      dup4\n      sload\n      div\n      mul\n      dup4\n      mstore\n      swap2\n      0x20\n      add\n      swap2\n      jump(tag_49)\n    tag_50:\n      dup3\n      add\n      swap2\n      swap1\n      0x00\n      mstore\n      keccak256(0x00, 0x20)\n      swap1\n    tag_51:\n      dup2\n      sload\n      dup2\n      mstore\n      swap1\n      0x01\n      add\n      swap1\n      0x20\n      add\n      dup1\n      dup4\n      gt\n      tag_51\n      jumpi\n      dup3\n      swap1\n      sub\n      0x1f\n      and\n      dup3\n      add\n      swap2\n    tag_49:\n      pop\n      pop\n      pop\n      pop\n      pop\n      dup2\n      mstore\n      0x20\n      add\n      0x02\n      dup3\n      add\n      sload\n      dup2\n      mstore\n      0x20\n      add\n      0x03\n      dup3\n      add\n      sload\n      dup2\n      mstore\n      pop\n      pop\n      swap1\n      pop\n        /* \"crowfunding.sol\":731:738  _amount */\n      dup3\n        /* \"crowfunding.sol\":705:712  proyect */\n      dup2\n        /* \"crowfunding.sol\":705:728  proyect.collectedAmount */\n      0x60\n      add\n      mload\n        /* \"crowfunding.sol\":705:738  proyect.collectedAmount + _amount */\n      tag_52\n      swap2\n      swap1\n      tag_28\n      jump\t// in\n    tag_52:\n        /* \"crowfunding.sol\":682:689  proyect */\n      dup2\n        /* \"crowfunding.sol\":682:702  proyect.targetAmount */\n      0x40\n      add\n      mload\n        /* \"crowfunding.sol\":682:738  proyect.targetAmount < proyect.collectedAmount + _amount */\n      lt\n        /* \"crowfunding.sol\":675:738  return proyect.targetAmount < proyect.collectedAmount + _amount */\n      swap2\n      pop\n      pop\n        /* \"crowfunding.sol\":523:745  function targetAmountReached(string memory _name, uint _amount) private view returns (bool) {... */\n      swap3\n      swap2\n      pop\n      pop\n      jump\t// out\n        /* \"#utility.yul\":7:82   */\n    tag_53:\n        /* \"#utility.yul\":40:46   */\n      0x00\n        /* \"#utility.yul\":73:75   */\n      0x40\n        /* \"#utility.yul\":67:76   */\n      mload\n        /* \"#utility.yul\":57:76   */\n      swap1\n      pop\n        /* \"#utility.yul\":7:82   */\n      swap1\n      jump\t// out\n        /* \"#utility.yul\":88:205   */\n    tag_54:\n        /* \"#utility.yul\":197:198   */\n      0x00\n        /* \"#utility.yul\":194:195   */\n      dup1\n        /* \"#utility.yul\":187:199   */\n      revert\n        /* \"#utility.yul\":211:328   */\n    tag_55:\n        /* \"#utility.yul\":320:321   */\n      0x00\n        /* \"#utility.yul\":317:318   */\n      dup1\n        /* \"#utility.yul\":310:322   */\n      revert\n        /* \"#utility.yul\":334:451   */\n    tag_56:\n        /* \"#utility.yul\":443:444   */\n      0x00\n        /* \"#utility.yul\":440:441   */\n      dup1\n        /* \"#utility.yul\":433:445   */\n      revert\n        /* \"#utility.yul\":457:574   */\n    tag_57:\n        /* \"#utility.yul\":566:567   */\n      0x00\n        /* \"#utility.yul\":563:564   */\n      dup1\n        /* \"#utility.yul\":556:568   */\n      revert\n        /* \"#utility.yul\":580:682   */\n    tag_58:\n        /* \"#utility.yul\":621:627   */\n      0x00\n        /* \"#utility.yul\":672:674   */\n      0x1f\n        /* \"#utility.yul\":668:675   */\n      not\n        /* \"#utility.yul\":663:665   */\n      0x1f\n        /* \"#utility.yul\":656:661   */\n      dup4\n        /* \"#utility.yul\":652:666   */\n      add\n        /* \"#utility.yul\":648:676   */\n      and\n        /* \"#utility.yul\":638:676   */\n      swap1\n      pop\n        /* \"#utility.yul\":580:682   */\n      swap2\n      swap1\n      pop\n      jump\t// out\n        /* \"#utility.yul\":688:868   */\n    tag_59:\n        /* \"#utility.yul\":736:813   */\n      0x4e487b7100000000000000000000000000000000000000000000000000000000\n        /* \"#utility.yul\":733:734   */\n      0x00\n        /* \"#utility.yul\":726:814   */\n      mstore\n        /* \"#utility.yul\":833:837   */\n      0x41\n        /* \"#utility.yul\":830:831   */\n      0x04\n        /* \"#utility.yul\":823:838   */\n      mstore\n        /* \"#utility.yul\":857:861   */\n      0x24\n        /* \"#utility.yul\":854:855   */\n      0x00\n        /* \"#utility.yul\":847:862   */\n      revert\n        /* \"#utility.yul\":874:1155   */\n    tag_60:\n        /* \"#utility.yul\":957:984   */\n      tag_103\n        /* \"#utility.yul\":979:983   */\n      dup3\n        /* \"#utility.yul\":957:984   */\n      tag_58\n      jump\t// in\n    tag_103:\n        /* \"#utility.yul\":949:955   */\n      dup2\n        /* \"#utility.yul\":945:985   */\n      add\n        /* \"#utility.yul\":1087:1093   */\n      dup2\n        /* \"#utility.yul\":1075:1085   */\n      dup2\n        /* \"#utility.yul\":1072:1094   */\n      lt\n        /* \"#utility.yul\":1051:1069   */\n      0xffffffffffffffff\n        /* \"#utility.yul\":1039:1049   */\n      dup3\n        /* \"#utility.yul\":1036:1070   */\n      gt\n        /* \"#utility.yul\":1033:1095   */\n      or\n        /* \"#utility.yul\":1030:1118   */\n      iszero\n      tag_104\n      jumpi\n        /* \"#utility.yul\":1098:1116   */\n      tag_105\n      tag_59\n      jump\t// in\n    tag_105:\n        /* \"#utility.yul\":1030:1118   */\n    tag_104:\n        /* \"#utility.yul\":1138:1148   */\n      dup1\n        /* \"#utility.yul\":1134:1136   */\n      0x40\n        /* \"#utility.yul\":1127:1149   */\n      mstore\n        /* \"#utility.yul\":917:1155   */\n      pop\n        /* \"#utility.yul\":874:1155   */\n      pop\n      pop\n      jump\t// out\n        /* \"#utility.yul\":1161:1290   */\n    tag_61:\n        /* \"#utility.yul\":1195:1201   */\n      0x00\n        /* \"#utility.yul\":1222:1242   */\n      tag_107\n      tag_53\n      jump\t// in\n    tag_107:\n        /* \"#utility.yul\":1212:1242   */\n      swap1\n      pop\n        /* \"#utility.yul\":1251:1284   */\n      tag_108\n        /* \"#utility.yul\":1279:1283   */\n      dup3\n        /* \"#utility.yul\":1271:1277   */\n      dup3\n        /* \"#utility.yul\":1251:1284   */\n      tag_60\n      jump\t// in\n    tag_108:\n        /* \"#utility.yul\":1161:1290   */\n      swap2\n      swap1\n      pop\n      jump\t// out\n        /* \"#utility.yul\":1296:1604   */\n    tag_62:\n        /* \"#utility.yul\":1358:1362   */\n      0x00\n        /* \"#utility.yul\":1448:1466   */\n      0xffffffffffffffff\n        /* \"#utility.yul\":1440:1446   */\n      dup3\n        /* \"#utility.yul\":1437:1467   */\n      gt\n        /* \"#utility.yul\":1434:1490   */\n      iszero\n      tag_110\n      jumpi\n        /* \"#utility.yul\":1470:1488   */\n      tag_111\n      tag_59\n      jump\t// in\n    tag_111:\n        /* \"#utility.yul\":1434:1490   */\n    tag_110:\n        /* \"#utility.yul\":1508:1537   */\n      tag_112\n        /* \"#utility.yul\":1530:1536   */\n      dup3\n        /* \"#utility.yul\":1508:1537   */\n      tag_58\n      jump\t// in\n    tag_112:\n        /* \"#utility.yul\":1500:1537   */\n      swap1\n      pop\n        /* \"#utility.yul\":1592:1596   */\n      0x20\n        /* \"#utility.yul\":1586:1590   */\n      dup2\n        /* \"#utility.yul\":1582:1597   */\n      add\n        /* \"#utility.yul\":1574:1597   */\n      swap1\n      pop\n        /* \"#utility.yul\":1296:1604   */\n      swap2\n      swap1\n      pop\n      jump\t// out\n        /* \"#utility.yul\":1610:1756   */\n    tag_63:\n        /* \"#utility.yul\":1707:1713   */\n      dup3\n        /* \"#utility.yul\":1702:1705   */\n      dup2\n        /* \"#utility.yul\":1697:1700   */\n      dup4\n        /* \"#utility.yul\":1684:1714   */\n      calldatacopy\n        /* \"#utility.yul\":1748:1749   */\n      0x00\n        /* \"#utility.yul\":1739:1745   */\n      dup4\n        /* \"#utility.yul\":1734:1737   */\n      dup4\n        /* \"#utility.yul\":1730:1746   */\n      add\n        /* \"#utility.yul\":1723:1750   */\n      mstore\n        /* \"#utility.yul\":1610:1756   */\n      pop\n      pop\n      pop\n      jump\t// out\n        /* \"#utility.yul\":1762:2187   */\n    tag_64:\n        /* \"#utility.yul\":1840:1845   */\n      0x00\n        /* \"#utility.yul\":1865:1931   */\n      tag_115\n        /* \"#utility.yul\":1881:1930   */\n      tag_116\n        /* \"#utility.yul\":1923:1929   */\n      dup5\n        /* \"#utility.yul\":1881:1930   */\n      tag_62\n      jump\t// in\n    tag_116:\n        /* \"#utility.yul\":1865:1931   */\n      tag_61\n      jump\t// in\n    tag_115:\n        /* \"#utility.yul\":1856:1931   */\n      swap1\n      pop\n        /* \"#utility.yul\":1954:1960   */\n      dup3\n        /* \"#utility.yul\":1947:1952   */\n      dup2\n        /* \"#utility.yul\":1940:1961   */\n      mstore\n        /* \"#utility.yul\":1992:1996   */\n      0x20\n        /* \"#utility.yul\":1985:1990   */\n      dup2\n        /* \"#utility.yul\":1981:1997   */\n      add\n        /* \"#utility.yul\":2030:2033   */\n      dup5\n        /* \"#utility.yul\":2021:2027   */\n      dup5\n        /* \"#utility.yul\":2016:2019   */\n      dup5\n        /* \"#utility.yul\":2012:2028   */\n      add\n        /* \"#utility.yul\":2009:2034   */\n      gt\n        /* \"#utility.yul\":2006:2118   */\n      iszero\n      tag_117\n      jumpi\n        /* \"#utility.yul\":2037:2116   */\n      tag_118\n      tag_57\n      jump\t// in\n    tag_118:\n        /* \"#utility.yul\":2006:2118   */\n    tag_117:\n        /* \"#utility.yul\":2127:2181   */\n      tag_119\n        /* \"#utility.yul\":2174:2180   */\n      dup5\n        /* \"#utility.yul\":2169:2172   */\n      dup3\n        /* \"#utility.yul\":2164:2167   */\n      dup6\n        /* \"#utility.yul\":2127:2181   */\n      tag_63\n      jump\t// in\n    tag_119:\n        /* \"#utility.yul\":1846:2187   */\n      pop\n        /* \"#utility.yul\":1762:2187   */\n      swap4\n      swap3\n      pop\n      pop\n      pop\n      jump\t// out\n        /* \"#utility.yul\":2207:2547   */\n    tag_65:\n        /* \"#utility.yul\":2263:2268   */\n      0x00\n        /* \"#utility.yul\":2312:2315   */\n      dup3\n        /* \"#utility.yul\":2305:2309   */\n      0x1f\n        /* \"#utility.yul\":2297:2303   */\n      dup4\n        /* \"#utility.yul\":2293:2310   */\n      add\n        /* \"#utility.yul\":2289:2316   */\n      slt\n        /* \"#utility.yul\":2279:2401   */\n      tag_121\n      jumpi\n        /* \"#utility.yul\":2320:2399   */\n      tag_122\n      tag_56\n      jump\t// in\n    tag_122:\n        /* \"#utility.yul\":2279:2401   */\n    tag_121:\n        /* \"#utility.yul\":2437:2443   */\n      dup2\n        /* \"#utility.yul\":2424:2444   */\n      calldataload\n        /* \"#utility.yul\":2462:2541   */\n      tag_123\n        /* \"#utility.yul\":2537:2540   */\n      dup5\n        /* \"#utility.yul\":2529:2535   */\n      dup3\n        /* \"#utility.yul\":2522:2526   */\n      0x20\n        /* \"#utility.yul\":2514:2520   */\n      dup7\n        /* \"#utility.yul\":2510:2527   */\n      add\n        /* \"#utility.yul\":2462:2541   */\n      tag_64\n      jump\t// in\n    tag_123:\n        /* \"#utility.yul\":2453:2541   */\n      swap2\n      pop\n        /* \"#utility.yul\":2269:2547   */\n      pop\n        /* \"#utility.yul\":2207:2547   */\n      swap3\n      swap2\n      pop\n      pop\n      jump\t// out\n        /* \"#utility.yul\":2553:2630   */\n    tag_66:\n        /* \"#utility.yul\":2590:2597   */\n      0x00\n        /* \"#utility.yul\":2619:2624   */\n      dup2\n        /* \"#utility.yul\":2608:2624   */\n      swap1\n      pop\n        /* \"#utility.yul\":2553:2630   */\n      swap2\n      swap1\n      pop\n      jump\t// out\n        /* \"#utility.yul\":2636:2758   */\n    tag_67:\n        /* \"#utility.yul\":2709:2733   */\n      tag_126\n        /* \"#utility.yul\":2727:2732   */\n      dup2\n        /* \"#utility.yul\":2709:2733   */\n      tag_66\n      jump\t// in\n    tag_126:\n        /* \"#utility.yul\":2702:2707   */\n      dup2\n        /* \"#utility.yul\":2699:2734   */\n      eq\n        /* \"#utility.yul\":2689:2752   */\n      tag_127\n      jumpi\n        /* \"#utility.yul\":2748:2749   */\n      0x00\n        /* \"#utility.yul\":2745:2746   */\n      dup1\n        /* \"#utility.yul\":2738:2750   */\n      revert\n        /* \"#utility.yul\":2689:2752   */\n    tag_127:\n        /* \"#utility.yul\":2636:2758   */\n      pop\n      jump\t// out\n        /* \"#utility.yul\":2764:2903   */\n    tag_68:\n        /* \"#utility.yul\":2810:2815   */\n      0x00\n        /* \"#utility.yul\":2848:2854   */\n      dup2\n        /* \"#utility.yul\":2835:2855   */\n      calldataload\n        /* \"#utility.yul\":2826:2855   */\n      swap1\n      pop\n        /* \"#utility.yul\":2864:2897   */\n      tag_129\n        /* \"#utility.yul\":2891:2896   */\n      dup2\n        /* \"#utility.yul\":2864:2897   */\n      tag_67\n      jump\t// in\n    tag_129:\n        /* \"#utility.yul\":2764:2903   */\n      swap3\n      swap2\n      pop\n      pop\n      jump\t// out\n        /* \"#utility.yul\":2909:3563   */\n    tag_8:\n        /* \"#utility.yul\":2987:2993   */\n      0x00\n        /* \"#utility.yul\":2995:3001   */\n      dup1\n        /* \"#utility.yul\":3044:3046   */\n      0x40\n        /* \"#utility.yul\":3032:3041   */\n      dup4\n        /* \"#utility.yul\":3023:3030   */\n      dup6\n        /* \"#utility.yul\":3019:3042   */\n      sub\n        /* \"#utility.yul\":3015:3047   */\n      slt\n        /* \"#utility.yul\":3012:3131   */\n      iszero\n      tag_131\n      jumpi\n        /* \"#utility.yul\":3050:3129   */\n      tag_132\n      tag_54\n      jump\t// in\n    tag_132:\n        /* \"#utility.yul\":3012:3131   */\n    tag_131:\n        /* \"#utility.yul\":3198:3199   */\n      0x00\n        /* \"#utility.yul\":3187:3196   */\n      dup4\n        /* \"#utility.yul\":3183:3200   */\n      add\n        /* \"#utility.yul\":3170:3201   */\n      calldataload\n        /* \"#utility.yul\":3228:3246   */\n      0xffffffffffffffff\n        /* \"#utility.yul\":3220:3226   */\n      dup2\n        /* \"#utility.yul\":3217:3247   */\n      gt\n        /* \"#utility.yul\":3214:3331   */\n      iszero\n      tag_133\n      jumpi\n        /* \"#utility.yul\":3250:3329   */\n      tag_134\n      tag_55\n      jump\t// in\n    tag_134:\n        /* \"#utility.yul\":3214:3331   */\n    tag_133:\n        /* \"#utility.yul\":3355:3418   */\n      tag_135\n        /* \"#utility.yul\":3410:3417   */\n      dup6\n        /* \"#utility.yul\":3401:3407   */\n      dup3\n        /* \"#utility.yul\":3390:3399   */\n      dup7\n        /* \"#utility.yul\":3386:3408   */\n      add\n        /* \"#utility.yul\":3355:3418   */\n      tag_65\n      jump\t// in\n    tag_135:\n        /* \"#utility.yul\":3345:3418   */\n      swap3\n      pop\n        /* \"#utility.yul\":3141:3428   */\n      pop\n        /* \"#utility.yul\":3467:3469   */\n      0x20\n        /* \"#utility.yul\":3493:3546   */\n      tag_136\n        /* \"#utility.yul\":3538:3545   */\n      dup6\n        /* \"#utility.yul\":3529:3535   */\n      dup3\n        /* \"#utility.yul\":3518:3527   */\n      dup7\n        /* \"#utility.yul\":3514:3536   */\n      add\n        /* \"#utility.yul\":3493:3546   */\n      tag_68\n      jump\t// in\n    tag_136:\n        /* \"#utility.yul\":3483:3546   */\n      swap2\n      pop\n        /* \"#utility.yul\":3438:3556   */\n      pop\n        /* \"#utility.yul\":2909:3563   */\n      swap3\n      pop\n      swap3\n      swap1\n      pop\n      jump\t// out\n        /* \"#utility.yul\":3569:4078   */\n    tag_12:\n        /* \"#utility.yul\":3638:3644   */\n      0x00\n        /* \"#utility.yul\":3687:3689   */\n      0x20\n        /* \"#utility.yul\":3675:3684   */\n      dup3\n        /* \"#utility.yul\":3666:3673   */\n      dup5\n        /* \"#utility.yul\":3662:3685   */\n      sub\n        /* \"#utility.yul\":3658:3690   */\n      slt\n        /* \"#utility.yul\":3655:3774   */\n      iszero\n      tag_138\n      jumpi\n        /* \"#utility.yul\":3693:3772   */\n      tag_139\n      tag_54\n      jump\t// in\n    tag_139:\n        /* \"#utility.yul\":3655:3774   */\n    tag_138:\n        /* \"#utility.yul\":3841:3842   */\n      0x00\n        /* \"#utility.yul\":3830:3839   */\n      dup3\n        /* \"#utility.yul\":3826:3843   */\n      add\n        /* \"#utility.yul\":3813:3844   */\n      calldataload\n        /* \"#utility.yul\":3871:3889   */\n      0xffffffffffffffff\n        /* \"#utility.yul\":3863:3869   */\n      dup2\n        /* \"#utility.yul\":3860:3890   */\n      gt\n        /* \"#utility.yul\":3857:3974   */\n      iszero\n      tag_140\n      jumpi\n        /* \"#utility.yul\":3893:3972   */\n      tag_141\n      tag_55\n      jump\t// in\n    tag_141:\n        /* \"#utility.yul\":3857:3974   */\n    tag_140:\n        /* \"#utility.yul\":3998:4061   */\n      tag_142\n        /* \"#utility.yul\":4053:4060   */\n      dup5\n        /* \"#utility.yul\":4044:4050   */\n      dup3\n        /* \"#utility.yul\":4033:4042   */\n      dup6\n        /* \"#utility.yul\":4029:4051   */\n      add\n        /* \"#utility.yul\":3998:4061   */\n      tag_65\n      jump\t// in\n    tag_142:\n        /* \"#utility.yul\":3988:4061   */\n      swap2\n      pop\n        /* \"#utility.yul\":3784:4071   */\n      pop\n        /* \"#utility.yul\":3569:4078   */\n      swap3\n      swap2\n      pop\n      pop\n      jump\t// out\n        /* \"#utility.yul\":4084:4202   */\n    tag_69:\n        /* \"#utility.yul\":4171:4195   */\n      tag_144\n        /* \"#utility.yul\":4189:4194   */\n      dup2\n        /* \"#utility.yul\":4171:4195   */\n      tag_66\n      jump\t// in\n    tag_144:\n        /* \"#utility.yul\":4166:4169   */\n      dup3\n        /* \"#utility.yul\":4159:4196   */\n      mstore\n        /* \"#utility.yul\":4084:4202   */\n      pop\n      pop\n      jump\t// out\n        /* \"#utility.yul\":4208:4430   */\n    tag_15:\n        /* \"#utility.yul\":4301:4305   */\n      0x00\n        /* \"#utility.yul\":4339:4341   */\n      0x20\n        /* \"#utility.yul\":4328:4337   */\n      dup3\n        /* \"#utility.yul\":4324:4342   */\n      add\n        /* \"#utility.yul\":4316:4342   */\n      swap1\n      pop\n        /* \"#utility.yul\":4352:4423   */\n      tag_146\n        /* \"#utility.yul\":4420:4421   */\n      0x00\n        /* \"#utility.yul\":4409:4418   */\n      dup4\n        /* \"#utility.yul\":4405:4422   */\n      add\n        /* \"#utility.yul\":4396:4402   */\n      dup5\n        /* \"#utility.yul\":4352:4423   */\n      tag_69\n      jump\t// in\n    tag_146:\n        /* \"#utility.yul\":4208:4430   */\n      swap3\n      swap2\n      pop\n      pop\n      jump\t// out\n        /* \"#utility.yul\":4436:4605   */\n    tag_70:\n        /* \"#utility.yul\":4520:4531   */\n      0x00\n        /* \"#utility.yul\":4554:4560   */\n      dup3\n        /* \"#utility.yul\":4549:4552   */\n      dup3\n        /* \"#utility.yul\":4542:4561   */\n      mstore\n        /* \"#utility.yul\":4594:4598   */\n      0x20\n        /* \"#utility.yul\":4589:4592   */\n      dup3\n        /* \"#utility.yul\":4585:4599   */\n      add\n        /* \"#utility.yul\":4570:4599   */\n      swap1\n      pop\n        /* \"#utility.yul\":4436:4605   */\n      swap3\n      swap2\n      pop\n      pop\n      jump\t// out\n        /* \"#utility.yul\":4611:4782   */\n    tag_71:\n        /* \"#utility.yul\":4751:4774   */\n      0x54415247455420414d4f554e5420524541434845440000000000000000000000\n        /* \"#utility.yul\":4747:4748   */\n      0x00\n        /* \"#utility.yul\":4739:4745   */\n      dup3\n        /* \"#utility.yul\":4735:4749   */\n      add\n        /* \"#utility.yul\":4728:4775   */\n      mstore\n        /* \"#utility.yul\":4611:4782   */\n      pop\n      jump\t// out\n        /* \"#utility.yul\":4788:5154   */\n    tag_72:\n        /* \"#utility.yul\":4930:4933   */\n      0x00\n        /* \"#utility.yul\":4951:5018   */\n      tag_150\n        /* \"#utility.yul\":5015:5017   */\n      0x15\n        /* \"#utility.yul\":5010:5013   */\n      dup4\n        /* \"#utility.yul\":4951:5018   */\n      tag_70\n      jump\t// in\n    tag_150:\n        /* \"#utility.yul\":4944:5018   */\n      swap2\n      pop\n        /* \"#utility.yul\":5027:5120   */\n      tag_151\n        /* \"#utility.yul\":5116:5119   */\n      dup3\n        /* \"#utility.yul\":5027:5120   */\n      tag_71\n      jump\t// in\n    tag_151:\n        /* \"#utility.yul\":5145:5147   */\n      0x20\n        /* \"#utility.yul\":5140:5143   */\n      dup3\n        /* \"#utility.yul\":5136:5148   */\n      add\n        /* \"#utility.yul\":5129:5148   */\n      swap1\n      pop\n        /* \"#utility.yul\":4788:5154   */\n      swap2\n      swap1\n      pop\n      jump\t// out\n        /* \"#utility.yul\":5160:5579   */\n    tag_24:\n        /* \"#utility.yul\":5326:5330   */\n      0x00\n        /* \"#utility.yul\":5364:5366   */\n      0x20\n        /* \"#utility.yul\":5353:5362   */\n      dup3\n        /* \"#utility.yul\":5349:5367   */\n      add\n        /* \"#utility.yul\":5341:5367   */\n      swap1\n      pop\n        /* \"#utility.yul\":5413:5422   */\n      dup2\n        /* \"#utility.yul\":5407:5411   */\n      dup2\n        /* \"#utility.yul\":5403:5423   */\n      sub\n        /* \"#utility.yul\":5399:5400   */\n      0x00\n        /* \"#utility.yul\":5388:5397   */\n      dup4\n        /* \"#utility.yul\":5384:5401   */\n      add\n        /* \"#utility.yul\":5377:5424   */\n      mstore\n        /* \"#utility.yul\":5441:5572   */\n      tag_153\n        /* \"#utility.yul\":5567:5571   */\n      dup2\n        /* \"#utility.yul\":5441:5572   */\n      tag_72\n      jump\t// in\n    tag_153:\n        /* \"#utility.yul\":5433:5572   */\n      swap1\n      pop\n        /* \"#utility.yul\":5160:5579   */\n      swap2\n      swap1\n      pop\n      jump\t// out\n        /* \"#utility.yul\":5585:5684   */\n    tag_73:\n        /* \"#utility.yul\":5637:5643   */\n      0x00\n        /* \"#utility.yul\":5671:5676   */\n      dup2\n        /* \"#utility.yul\":5665:5677   */\n      mload\n        /* \"#utility.yul\":5655:5677   */\n      swap1\n      pop\n        /* \"#utility.yul\":5585:5684   */\n      swap2\n      swap1\n      pop\n      jump\t// out\n        /* \"#utility.yul\":5690:5838   */\n    tag_74:\n        /* \"#utility.yul\":5792:5803   */\n      0x00\n        /* \"#utility.yul\":5829:5832   */\n      dup2\n        /* \"#utility.yul\":5814:5832   */\n      swap1\n      pop\n        /* \"#utility.yul\":5690:5838   */\n      swap3\n      swap2\n      pop\n      pop\n      jump\t// out\n        /* \"#utility.yul\":5844:6090   */\n    tag_75:\n        /* \"#utility.yul\":5925:5926   */\n      0x00\n        /* \"#utility.yul\":5935:6048   */\n    tag_157:\n        /* \"#utility.yul\":5949:5955   */\n      dup4\n        /* \"#utility.yul\":5946:5947   */\n      dup2\n        /* \"#utility.yul\":5943:5956   */\n      lt\n        /* \"#utility.yul\":5935:6048   */\n      iszero\n      tag_159\n      jumpi\n        /* \"#utility.yul\":6034:6035   */\n      dup1\n        /* \"#utility.yul\":6029:6032   */\n      dup3\n        /* \"#utility.yul\":6025:6036   */\n      add\n        /* \"#utility.yul\":6019:6037   */\n      mload\n        /* \"#utility.yul\":6015:6016   */\n      dup2\n        /* \"#utility.yul\":6010:6013   */\n      dup5\n        /* \"#utility.yul\":6006:6017   */\n      add\n        /* \"#utility.yul\":5999:6038   */\n      mstore\n        /* \"#utility.yul\":5971:5973   */\n      0x20\n        /* \"#utility.yul\":5968:5969   */\n      dup2\n        /* \"#utility.yul\":5964:5974   */\n      add\n        /* \"#utility.yul\":5959:5974   */\n      swap1\n      pop\n        /* \"#utility.yul\":5935:6048   */\n      jump(tag_157)\n    tag_159:\n        /* \"#utility.yul\":6082:6083   */\n      0x00\n        /* \"#utility.yul\":6073:6079   */\n      dup5\n        /* \"#utility.yul\":6068:6071   */\n      dup5\n        /* \"#utility.yul\":6064:6080   */\n      add\n        /* \"#utility.yul\":6057:6084   */\n      mstore\n        /* \"#utility.yul\":5906:6090   */\n      pop\n        /* \"#utility.yul\":5844:6090   */\n      pop\n      pop\n      pop\n      jump\t// out\n        /* \"#utility.yul\":6096:6486   */\n    tag_76:\n        /* \"#utility.yul\":6202:6205   */\n      0x00\n        /* \"#utility.yul\":6230:6269   */\n      tag_161\n        /* \"#utility.yul\":6263:6268   */\n      dup3\n        /* \"#utility.yul\":6230:6269   */\n      tag_73\n      jump\t// in\n    tag_161:\n        /* \"#utility.yul\":6285:6374   */\n      tag_162\n        /* \"#utility.yul\":6367:6373   */\n      dup2\n        /* \"#utility.yul\":6362:6365   */\n      dup6\n        /* \"#utility.yul\":6285:6374   */\n      tag_74\n      jump\t// in\n    tag_162:\n        /* \"#utility.yul\":6278:6374   */\n      swap4\n      pop\n        /* \"#utility.yul\":6383:6448   */\n      tag_163\n        /* \"#utility.yul\":6441:6447   */\n      dup2\n        /* \"#utility.yul\":6436:6439   */\n      dup6\n        /* \"#utility.yul\":6429:6433   */\n      0x20\n        /* \"#utility.yul\":6422:6427   */\n      dup7\n        /* \"#utility.yul\":6418:6434   */\n      add\n        /* \"#utility.yul\":6383:6448   */\n      tag_75\n      jump\t// in\n    tag_163:\n        /* \"#utility.yul\":6473:6479   */\n      dup1\n        /* \"#utility.yul\":6468:6471   */\n      dup5\n        /* \"#utility.yul\":6464:6480   */\n      add\n        /* \"#utility.yul\":6457:6480   */\n      swap2\n      pop\n        /* \"#utility.yul\":6206:6486   */\n      pop\n        /* \"#utility.yul\":6096:6486   */\n      swap3\n      swap2\n      pop\n      pop\n      jump\t// out\n        /* \"#utility.yul\":6492:6767   */\n    tag_26:\n        /* \"#utility.yul\":6624:6627   */\n      0x00\n        /* \"#utility.yul\":6646:6741   */\n      tag_165\n        /* \"#utility.yul\":6737:6740   */\n      dup3\n        /* \"#utility.yul\":6728:6734   */\n      dup5\n        /* \"#utility.yul\":6646:6741   */\n      tag_76\n      jump\t// in\n    tag_165:\n        /* \"#utility.yul\":6639:6741   */\n      swap2\n      pop\n        /* \"#utility.yul\":6758:6761   */\n      dup2\n        /* \"#utility.yul\":6751:6761   */\n      swap1\n      pop\n        /* \"#utility.yul\":6492:6767   */\n      swap3\n      swap2\n      pop\n      pop\n      jump\t// out\n        /* \"#utility.yul\":6773:6953   */\n    tag_77:\n        /* \"#utility.yul\":6821:6898   */\n      0x4e487b7100000000000000000000000000000000000000000000000000000000\n        /* \"#utility.yul\":6818:6819   */\n      0x00\n        /* \"#utility.yul\":6811:6899   */\n      mstore\n        /* \"#utility.yul\":6918:6922   */\n      0x11\n        /* \"#utility.yul\":6915:6916   */\n      0x04\n        /* \"#utility.yul\":6908:6923   */\n      mstore\n        /* \"#utility.yul\":6942:6946   */\n      0x24\n        /* \"#utility.yul\":6939:6940   */\n      0x00\n        /* \"#utility.yul\":6932:6947   */\n      revert\n        /* \"#utility.yul\":6959:7150   */\n    tag_28:\n        /* \"#utility.yul\":6999:7002   */\n      0x00\n        /* \"#utility.yul\":7018:7038   */\n      tag_168\n        /* \"#utility.yul\":7036:7037   */\n      dup3\n        /* \"#utility.yul\":7018:7038   */\n      tag_66\n      jump\t// in\n    tag_168:\n        /* \"#utility.yul\":7013:7038   */\n      swap2\n      pop\n        /* \"#utility.yul\":7052:7072   */\n      tag_169\n        /* \"#utility.yul\":7070:7071   */\n      dup4\n        /* \"#utility.yul\":7052:7072   */\n      tag_66\n      jump\t// in\n    tag_169:\n        /* \"#utility.yul\":7047:7072   */\n      swap3\n      pop\n        /* \"#utility.yul\":7095:7096   */\n      dup3\n        /* \"#utility.yul\":7092:7093   */\n      dup3\n        /* \"#utility.yul\":7088:7097   */\n      add\n        /* \"#utility.yul\":7081:7097   */\n      swap1\n      pop\n        /* \"#utility.yul\":7116:7119   */\n      dup1\n        /* \"#utility.yul\":7113:7114   */\n      dup3\n        /* \"#utility.yul\":7110:7120   */\n      gt\n        /* \"#utility.yul\":7107:7143   */\n      iszero\n      tag_170\n      jumpi\n        /* \"#utility.yul\":7123:7141   */\n      tag_171\n      tag_77\n      jump\t// in\n    tag_171:\n        /* \"#utility.yul\":7107:7143   */\n    tag_170:\n        /* \"#utility.yul\":6959:7150   */\n      swap3\n      swap2\n      pop\n      pop\n      jump\t// out\n        /* \"#utility.yul\":7156:7336   */\n    tag_78:\n        /* \"#utility.yul\":7204:7281   */\n      0x4e487b7100000000000000000000000000000000000000000000000000000000\n        /* \"#utility.yul\":7201:7202   */\n      0x00\n        /* \"#utility.yul\":7194:7282   */\n      mstore\n        /* \"#utility.yul\":7301:7305   */\n      0x22\n        /* \"#utility.yul\":7298:7299   */\n      0x04\n        /* \"#utility.yul\":7291:7306   */\n      mstore\n        /* \"#utility.yul\":7325:7329   */\n      0x24\n        /* \"#utility.yul\":7322:7323   */\n      0x00\n        /* \"#utility.yul\":7315:7330   */\n      revert\n        /* \"#utility.yul\":7342:7662   */\n    tag_32:\n        /* \"#utility.yul\":7386:7392   */\n      0x00\n        /* \"#utility.yul\":7423:7424   */\n      0x02\n        /* \"#utility.yul\":7417:7421   */\n      dup3\n        /* \"#utility.yul\":7413:7425   */\n      div\n        /* \"#utility.yul\":7403:7425   */\n      swap1\n      pop\n        /* \"#utility.yul\":7470:7471   */\n      0x01\n        /* \"#utility.yul\":7464:7468   */\n      dup3\n        /* \"#utility.yul\":7460:7472   */\n      and\n        /* \"#utility.yul\":7491:7509   */\n      dup1\n        /* \"#utility.yul\":7481:7562   */\n      tag_174\n      jumpi\n        /* \"#utility.yul\":7547:7551   */\n      0x7f\n        /* \"#utility.yul\":7539:7545   */\n      dup3\n        /* \"#utility.yul\":7535:7552   */\n      and\n        /* \"#utility.yul\":7525:7552   */\n      swap2\n      pop\n        /* \"#utility.yul\":7481:7562   */\n    tag_174:\n        /* \"#utility.yul\":7609:7611   */\n      0x20\n        /* \"#utility.yul\":7601:7607   */\n      dup3\n        /* \"#utility.yul\":7598:7612   */\n      lt\n        /* \"#utility.yul\":7578:7596   */\n      dup2\n        /* \"#utility.yul\":7575:7613   */\n      sub\n        /* \"#utility.yul\":7572:7656   */\n      tag_175\n      jumpi\n        /* \"#utility.yul\":7628:7646   */\n      tag_176\n      tag_78\n      jump\t// in\n    tag_176:\n        /* \"#utility.yul\":7572:7656   */\n    tag_175:\n        /* \"#utility.yul\":7393:7662   */\n      pop\n        /* \"#utility.yul\":7342:7662   */\n      swap2\n      swap1\n      pop\n      jump\t// out\n        /* \"#utility.yul\":7668:7862   */\n    tag_38:\n        /* \"#utility.yul\":7708:7712   */\n      0x00\n        /* \"#utility.yul\":7728:7748   */\n      tag_178\n        /* \"#utility.yul\":7746:7747   */\n      dup3\n        /* \"#utility.yul\":7728:7748   */\n      tag_66\n      jump\t// in\n    tag_178:\n        /* \"#utility.yul\":7723:7748   */\n      swap2\n      pop\n        /* \"#utility.yul\":7762:7782   */\n      tag_179\n        /* \"#utility.yul\":7780:7781   */\n      dup4\n        /* \"#utility.yul\":7762:7782   */\n      tag_66\n      jump\t// in\n    tag_179:\n        /* \"#utility.yul\":7757:7782   */\n      swap3\n      pop\n        /* \"#utility.yul\":7806:7807   */\n      dup3\n        /* \"#utility.yul\":7803:7804   */\n      dup3\n        /* \"#utility.yul\":7799:7808   */\n      sub\n        /* \"#utility.yul\":7791:7808   */\n      swap1\n      pop\n        /* \"#utility.yul\":7830:7831   */\n      dup2\n        /* \"#utility.yul\":7824:7828   */\n      dup2\n        /* \"#utility.yul\":7821:7832   */\n      gt\n        /* \"#utility.yul\":7818:7855   */\n      iszero\n      tag_180\n      jumpi\n        /* \"#utility.yul\":7835:7853   */\n      tag_181\n      tag_77\n      jump\t// in\n    tag_181:\n        /* \"#utility.yul\":7818:7855   */\n    tag_180:\n        /* \"#utility.yul\":7668:7862   */\n      swap3\n      swap2\n      pop\n      pop\n      jump\t// out\n        /* \"#utility.yul\":7868:8101   */\n    tag_41:\n        /* \"#utility.yul\":7907:7910   */\n      0x00\n        /* \"#utility.yul\":7930:7954   */\n      tag_183\n        /* \"#utility.yul\":7948:7953   */\n      dup3\n        /* \"#utility.yul\":7930:7954   */\n      tag_66\n      jump\t// in\n    tag_183:\n        /* \"#utility.yul\":7921:7954   */\n      swap2\n      pop\n        /* \"#utility.yul\":7976:8042   */\n      0xffffffffffffffffffffffffffffffffffffffffffffffffffffffffffffffff\n        /* \"#utility.yul\":7969:7974   */\n      dup3\n        /* \"#utility.yul\":7966:8043   */\n      sub\n        /* \"#utility.yul\":7963:8066   */\n      tag_184\n      jumpi\n        /* \"#utility.yul\":8046:8064   */\n      tag_185\n      tag_77\n      jump\t// in\n    tag_185:\n        /* \"#utility.yul\":7963:8066   */\n    tag_184:\n        /* \"#utility.yul\":8093:8094   */\n      0x01\n        /* \"#utility.yul\":8086:8091   */\n      dup3\n        /* \"#utility.yul\":8082:8095   */\n      add\n        /* \"#utility.yul\":8075:8095   */\n      swap1\n      pop\n        /* \"#utility.yul\":7868:8101   */\n      swap2\n      swap1\n      pop\n      jump\t// out\n        /* \"#utility.yul\":8107:8248   */\n    tag_79:\n        /* \"#utility.yul\":8156:8160   */\n      0x00\n        /* \"#utility.yul\":8179:8182   */\n      dup2\n        /* \"#utility.yul\":8171:8182   */\n      swap1\n      pop\n        /* \"#utility.yul\":8202:8205   */\n      dup2\n        /* \"#utility.yul\":8199:8200   */\n      0x00\n        /* \"#utility.yul\":8192:8206   */\n      mstore\n        /* \"#utility.yul\":8236:8240   */\n      0x20\n        /* \"#utility.yul\":8233:8234   */\n      0x00\n        /* \"#utility.yul\":8223:8241   */\n      keccak256\n        /* \"#utility.yul\":8215:8241   */\n      swap1\n      pop\n        /* \"#utility.yul\":8107:8248   */\n      swap2\n      swap1\n      pop\n      jump\t// out\n        /* \"#utility.yul\":8254:8347   */\n    tag_80:\n        /* \"#utility.yul\":8291:8297   */\n      0x00\n        /* \"#utility.yul\":8338:8340   */\n      0x20\n        /* \"#utility.yul\":8333:8335   */\n      0x1f\n        /* \"#utility.yul\":8326:8331   */\n      dup4\n        /* \"#utility.yul\":8322:8336   */\n      add\n        /* \"#utility.yul\":8318:8341   */\n      div\n        /* \"#utility.yul\":8308:8341   */\n      swap1\n      pop\n        /* \"#utility.yul\":8254:8347   */\n      swap2\n      swap1\n      pop\n      jump\t// out\n        /* \"#utility.yul\":8353:8460   */\n    tag_81:\n        /* \"#utility.yul\":8397:8405   */\n      0x00\n        /* \"#utility.yul\":8447:8452   */\n      dup3\n        /* \"#utility.yul\":8441:8445   */\n      dup3\n        /* \"#utility.yul\":8437:8453   */\n      shl\n        /* \"#utility.yul\":8416:8453   */\n      swap1\n      pop\n        /* \"#utility.yul\":8353:8460   */\n      swap3\n      swap2\n      pop\n      pop\n      jump\t// out\n        /* \"#utility.yul\":8466:8859   */\n    tag_82:\n        /* \"#utility.yul\":8535:8541   */\n      0x00\n        /* \"#utility.yul\":8585:8586   */\n      0x08\n        /* \"#utility.yul\":8573:8583   */\n      dup4\n        /* \"#utility.yul\":8569:8587   */\n      mul\n        /* \"#utility.yul\":8608:8705   */\n      tag_190\n        /* \"#utility.yul\":8638:8704   */\n      0xffffffffffffffffffffffffffffffffffffffffffffffffffffffffffffffff\n        /* \"#utility.yul\":8627:8636   */\n      dup3\n        /* \"#utility.yul\":8608:8705   */\n      tag_81\n      jump\t// in\n    tag_190:\n        /* \"#utility.yul\":8726:8765   */\n      tag_191\n        /* \"#utility.yul\":8756:8764   */\n      dup7\n        /* \"#utility.yul\":8745:8754   */\n      dup4\n        /* \"#utility.yul\":8726:8765   */\n      tag_81\n      jump\t// in\n    tag_191:\n        /* \"#utility.yul\":8714:8765   */\n      swap6\n      pop\n        /* \"#utility.yul\":8798:8802   */\n      dup1\n        /* \"#utility.yul\":8794:8803   */\n      not\n        /* \"#utility.yul\":8787:8792   */\n      dup5\n        /* \"#utility.yul\":8783:8804   */\n      and\n        /* \"#utility.yul\":8774:8804   */\n      swap4\n      pop\n        /* \"#utility.yul\":8847:8851   */\n      dup1\n        /* \"#utility.yul\":8837:8845   */\n      dup7\n        /* \"#utility.yul\":8833:8852   */\n      and\n        /* \"#utility.yul\":8826:8831   */\n      dup5\n        /* \"#utility.yul\":8823:8853   */\n      or\n        /* \"#utility.yul\":8813:8853   */\n      swap3\n      pop\n        /* \"#utility.yul\":8542:8859   */\n      pop\n      pop\n        /* \"#utility.yul\":8466:8859   */\n      swap4\n      swap3\n      pop\n      pop\n      pop\n      jump\t// out\n        /* \"#utility.yul\":8865:8925   */\n    tag_83:\n        /* \"#utility.yul\":8893:8896   */\n      0x00\n        /* \"#utility.yul\":8914:8919   */\n      dup2\n        /* \"#utility.yul\":8907:8919   */\n      swap1\n      pop\n        /* \"#utility.yul\":8865:8925   */\n      swap2\n      swap1\n      pop\n      jump\t// out\n        /* \"#utility.yul\":8931:9073   */\n    tag_84:\n        /* \"#utility.yul\":8981:8990   */\n      0x00\n        /* \"#utility.yul\":9014:9067   */\n      tag_194\n        /* \"#utility.yul\":9032:9066   */\n      tag_195\n        /* \"#utility.yul\":9041:9065   */\n      tag_196\n        /* \"#utility.yul\":9059:9064   */\n      dup5\n        /* \"#utility.yul\":9041:9065   */\n      tag_66\n      jump\t// in\n    tag_196:\n        /* \"#utility.yul\":9032:9066   */\n      tag_83\n      jump\t// in\n    tag_195:\n        /* \"#utility.yul\":9014:9067   */\n      tag_66\n      jump\t// in\n    tag_194:\n        /* \"#utility.yul\":9001:9067   */\n      swap1\n      pop\n        /* \"#utility.yul\":8931:9073   */\n      swap2\n      swap1\n      pop\n      jump\t// out\n        /* \"#utility.yul\":9079:9154   */\n    tag_85:\n        /* \"#utility.yul\":9122:9125   */\n      0x00\n        /* \"#utility.yul\":9143:9148   */\n      dup2\n        /* \"#utility.yul\":9136:9148   */\n      swap1\n      pop\n        /* \"#utility.yul\":9079:9154   */\n      swap2\n      swap1\n      pop\n      jump\t// out\n        /* \"#utility.yul\":9160:9429   */\n    tag_86:\n        /* \"#utility.yul\":9270:9309   */\n      tag_199\n        /* \"#utility.yul\":9301:9308   */\n      dup4\n        /* \"#utility.yul\":9270:9309   */\n      tag_84\n      jump\t// in\n    tag_199:\n        /* \"#utility.yul\":9331:9422   */\n      tag_200\n        /* \"#utility.yul\":9380:9421   */\n      tag_201\n        /* \"#utility.yul\":9404:9420   */\n      dup3\n        /* \"#utility.yul\":9380:9421   */\n      tag_85\n      jump\t// in\n    tag_201:\n        /* \"#utility.yul\":9372:9378   */\n      dup5\n        /* \"#utility.yul\":9365:9369   */\n      dup5\n        /* \"#utility.yul\":9359:9370   */\n      sload\n        /* \"#utility.yul\":9331:9422   */\n      tag_82\n      jump\t// in\n    tag_200:\n        /* \"#utility.yul\":9325:9329   */\n      dup3\n        /* \"#utility.yul\":9318:9423   */\n      sstore\n        /* \"#utility.yul\":9236:9429   */\n      pop\n        /* \"#utility.yul\":9160:9429   */\n      pop\n      pop\n      pop\n      jump\t// out\n        /* \"#utility.yul\":9435:9508   */\n    tag_87:\n        /* \"#utility.yul\":9480:9483   */\n      0x00\n        /* \"#utility.yul\":9435:9508   */\n      swap1\n      jump\t// out\n        /* \"#utility.yul\":9514:9703   */\n    tag_88:\n        /* \"#utility.yul\":9591:9623   */\n      tag_204\n      tag_87\n      jump\t// in\n    tag_204:\n        /* \"#utility.yul\":9632:9697   */\n      tag_205\n        /* \"#utility.yul\":9690:9696   */\n      dup2\n        /* \"#utility.yul\":9682:9688   */\n      dup5\n        /* \"#utility.yul\":9676:9680   */\n      dup5\n        /* \"#utility.yul\":9632:9697   */\n      tag_86\n      jump\t// in\n    tag_205:\n        /* \"#utility.yul\":9567:9703   */\n      pop\n        /* \"#utility.yul\":9514:9703   */\n      pop\n      pop\n      jump\t// out\n        /* \"#utility.yul\":9709:9895   */\n    tag_89:\n        /* \"#utility.yul\":9769:9889   */\n    tag_207:\n        /* \"#utility.yul\":9786:9789   */\n      dup2\n        /* \"#utility.yul\":9779:9784   */\n      dup2\n        /* \"#utility.yul\":9776:9790   */\n      lt\n        /* \"#utility.yul\":9769:9889   */\n      iszero\n      tag_209\n      jumpi\n        /* \"#utility.yul\":9840:9879   */\n      tag_210\n        /* \"#utility.yul\":9877:9878   */\n      0x00\n        /* \"#utility.yul\":9870:9875   */\n      dup3\n        /* \"#utility.yul\":9840:9879   */\n      tag_88\n      jump\t// in\n    tag_210:\n        /* \"#utility.yul\":9813:9814   */\n      0x01\n        /* \"#utility.yul\":9806:9811   */\n      dup2\n        /* \"#utility.yul\":9802:9815   */\n      add\n        /* \"#utility.yul\":9793:9815   */\n      swap1\n      pop\n        /* \"#utility.yul\":9769:9889   */\n      jump(tag_207)\n    tag_209:\n        /* \"#utility.yul\":9709:9895   */\n      pop\n      pop\n      jump\t// out\n        /* \"#utility.yul\":9901:10444   */\n    tag_90:\n        /* \"#utility.yul\":10002:10004   */\n      0x1f\n        /* \"#utility.yul\":9997:10000   */\n      dup3\n        /* \"#utility.yul\":9994:10005   */\n      gt\n        /* \"#utility.yul\":9991:10437   */\n      iszero\n      tag_212\n      jumpi\n        /* \"#utility.yul\":10036:10074   */\n      tag_213\n        /* \"#utility.yul\":10068:10073   */\n      dup2\n        /* \"#utility.yul\":10036:10074   */\n      tag_79\n      jump\t// in\n    tag_213:\n        /* \"#utility.yul\":10120:10149   */\n      tag_214\n        /* \"#utility.yul\":10138:10148   */\n      dup5\n        /* \"#utility.yul\":10120:10149   */\n      tag_80\n      jump\t// in\n    tag_214:\n        /* \"#utility.yul\":10110:10118   */\n      dup2\n        /* \"#utility.yul\":10106:10150   */\n      add\n        /* \"#utility.yul\":10303:10305   */\n      0x20\n        /* \"#utility.yul\":10291:10301   */\n      dup6\n        /* \"#utility.yul\":10288:10306   */\n      lt\n        /* \"#utility.yul\":10285:10334   */\n      iszero\n      tag_215\n      jumpi\n        /* \"#utility.yul\":10324:10332   */\n      dup2\n        /* \"#utility.yul\":10309:10332   */\n      swap1\n      pop\n        /* \"#utility.yul\":10285:10334   */\n    tag_215:\n        /* \"#utility.yul\":10347:10427   */\n      tag_216\n        /* \"#utility.yul\":10403:10425   */\n      tag_217\n        /* \"#utility.yul\":10421:10424   */\n      dup6\n        /* \"#utility.yul\":10403:10425   */\n      tag_80\n      jump\t// in\n    tag_217:\n        /* \"#utility.yul\":10393:10401   */\n      dup4\n        /* \"#utility.yul\":10389:10426   */\n      add\n        /* \"#utility.yul\":10376:10387   */\n      dup3\n        /* \"#utility.yul\":10347:10427   */\n      tag_89\n      jump\t// in\n    tag_216:\n        /* \"#utility.yul\":10006:10437   */\n      pop\n      pop\n        /* \"#utility.yul\":9991:10437   */\n    tag_212:\n        /* \"#utility.yul\":9901:10444   */\n      pop\n      pop\n      pop\n      jump\t// out\n        /* \"#utility.yul\":10450:10567   */\n    tag_91:\n        /* \"#utility.yul\":10504:10512   */\n      0x00\n        /* \"#utility.yul\":10554:10559   */\n      dup3\n        /* \"#utility.yul\":10548:10552   */\n      dup3\n        /* \"#utility.yul\":10544:10560   */\n      shr\n        /* \"#utility.yul\":10523:10560   */\n      swap1\n      pop\n        /* \"#utility.yul\":10450:10567   */\n      swap3\n      swap2\n      pop\n      pop\n      jump\t// out\n        /* \"#utility.yul\":10573:10742   */\n    tag_92:\n        /* \"#utility.yul\":10617:10623   */\n      0x00\n        /* \"#utility.yul\":10650:10701   */\n      tag_220\n        /* \"#utility.yul\":10698:10699   */\n      0x00\n        /* \"#utility.yul\":10694:10700   */\n      not\n        /* \"#utility.yul\":10686:10691   */\n      dup5\n        /* \"#utility.yul\":10683:10684   */\n      0x08\n        /* \"#utility.yul\":10679:10692   */\n      mul\n        /* \"#utility.yul\":10650:10701   */\n      tag_91\n      jump\t// in\n    tag_220:\n        /* \"#utility.yul\":10646:10702   */\n      not\n        /* \"#utility.yul\":10731:10735   */\n      dup1\n        /* \"#utility.yul\":10725:10729   */\n      dup4\n        /* \"#utility.yul\":10721:10736   */\n      and\n        /* \"#utility.yul\":10711:10736   */\n      swap2\n      pop\n        /* \"#utility.yul\":10624:10742   */\n      pop\n        /* \"#utility.yul\":10573:10742   */\n      swap3\n      swap2\n      pop\n      pop\n      jump\t// out\n        /* \"#utility.yul\":10747:11042   */\n    tag_93:\n        /* \"#utility.yul\":10823:10827   */\n      0x00\n        /* \"#utility.yul\":10969:10998   */\n      tag_222\n        /* \"#utility.yul\":10994:10997   */\n      dup4\n        /* \"#utility.yul\":10988:10992   */\n      dup4\n        /* \"#utility.yul\":10969:10998   */\n      tag_92\n      jump\t// in\n    tag_222:\n        /* \"#utility.yul\":10961:10998   */\n      swap2\n      pop\n        /* \"#utility.yul\":11031:11034   */\n      dup3\n        /* \"#utility.yul\":11028:11029   */\n      0x02\n        /* \"#utility.yul\":11024:11035   */\n      mul\n        /* \"#utility.yul\":11018:11022   */\n      dup3\n        /* \"#utility.yul\":11015:11036   */\n      or\n        /* \"#utility.yul\":11007:11036   */\n      swap1\n      pop\n        /* \"#utility.yul\":10747:11042   */\n      swap3\n      swap2\n      pop\n      pop\n      jump\t// out\n        /* \"#utility.yul\":11047:12442   */\n    tag_44:\n        /* \"#utility.yul\":11164:11201   */\n      tag_224\n        /* \"#utility.yul\":11197:11200   */\n      dup3\n        /* \"#utility.yul\":11164:11201   */\n      tag_73\n      jump\t// in\n    tag_224:\n        /* \"#utility.yul\":11266:11284   */\n      0xffffffffffffffff\n        /* \"#utility.yul\":11258:11264   */\n      dup2\n        /* \"#utility.yul\":11255:11285   */\n      gt\n        /* \"#utility.yul\":11252:11308   */\n      iszero\n      tag_225\n      jumpi\n        /* \"#utility.yul\":11288:11306   */\n      tag_226\n      tag_59\n      jump\t// in\n    tag_226:\n        /* \"#utility.yul\":11252:11308   */\n    tag_225:\n        /* \"#utility.yul\":11332:11370   */\n      tag_227\n        /* \"#utility.yul\":11364:11368   */\n      dup3\n        /* \"#utility.yul\":11358:11369   */\n      sload\n        /* \"#utility.yul\":11332:11370   */\n      tag_32\n      jump\t// in\n    tag_227:\n        /* \"#utility.yul\":11417:11484   */\n      tag_228\n        /* \"#utility.yul\":11477:11483   */\n      dup3\n        /* \"#utility.yul\":11469:11475   */\n      dup3\n        /* \"#utility.yul\":11463:11467   */\n      dup6\n        /* \"#utility.yul\":11417:11484   */\n      tag_90\n      jump\t// in\n    tag_228:\n        /* \"#utility.yul\":11511:11512   */\n      0x00\n        /* \"#utility.yul\":11535:11539   */\n      0x20\n        /* \"#utility.yul\":11522:11539   */\n      swap1\n      pop\n        /* \"#utility.yul\":11567:11569   */\n      0x1f\n        /* \"#utility.yul\":11559:11565   */\n      dup4\n        /* \"#utility.yul\":11556:11570   */\n      gt\n        /* \"#utility.yul\":11584:11585   */\n      0x01\n        /* \"#utility.yul\":11579:12197   */\n      dup2\n      eq\n      tag_230\n      jumpi\n        /* \"#utility.yul\":12241:12242   */\n      0x00\n        /* \"#utility.yul\":12258:12264   */\n      dup5\n        /* \"#utility.yul\":12255:12332   */\n      iszero\n      tag_231\n      jumpi\n        /* \"#utility.yul\":12307:12316   */\n      dup3\n        /* \"#utility.yul\":12302:12305   */\n      dup8\n        /* \"#utility.yul\":12298:12317   */\n      add\n        /* \"#utility.yul\":12292:12318   */\n      mload\n        /* \"#utility.yul\":12283:12318   */\n      swap1\n      pop\n        /* \"#utility.yul\":12255:12332   */\n    tag_231:\n        /* \"#utility.yul\":12358:12425   */\n      tag_232\n        /* \"#utility.yul\":12418:12424   */\n      dup6\n        /* \"#utility.yul\":12411:12416   */\n      dup3\n        /* \"#utility.yul\":12358:12425   */\n      tag_93\n      jump\t// in\n    tag_232:\n        /* \"#utility.yul\":12352:12356   */\n      dup7\n        /* \"#utility.yul\":12345:12426   */\n      sstore\n        /* \"#utility.yul\":12214:12436   */\n      pop\n        /* \"#utility.yul\":11549:12436   */\n      jump(tag_229)\n        /* \"#utility.yul\":11579:12197   */\n    tag_230:\n        /* \"#utility.yul\":11631:11635   */\n      0x1f\n        /* \"#utility.yul\":11627:11636   */\n      not\n        /* \"#utility.yul\":11619:11625   */\n      dup5\n        /* \"#utility.yul\":11615:11637   */\n      and\n        /* \"#utility.yul\":11665:11702   */\n      tag_233\n        /* \"#utility.yul\":11697:11701   */\n      dup7\n        /* \"#utility.yul\":11665:11702   */\n      tag_79\n      jump\t// in\n    tag_233:\n        /* \"#utility.yul\":11724:11725   */\n      0x00\n        /* \"#utility.yul\":11738:11946   */\n    tag_234:\n        /* \"#utility.yul\":11752:11759   */\n      dup3\n        /* \"#utility.yul\":11749:11750   */\n      dup2\n        /* \"#utility.yul\":11746:11760   */\n      lt\n        /* \"#utility.yul\":11738:11946   */\n      iszero\n      tag_236\n      jumpi\n        /* \"#utility.yul\":11831:11840   */\n      dup5\n        /* \"#utility.yul\":11826:11829   */\n      dup10\n        /* \"#utility.yul\":11822:11841   */\n      add\n        /* \"#utility.yul\":11816:11842   */\n      mload\n        /* \"#utility.yul\":11808:11814   */\n      dup3\n        /* \"#utility.yul\":11801:11843   */\n      sstore\n        /* \"#utility.yul\":11882:11883   */\n      0x01\n        /* \"#utility.yul\":11874:11880   */\n      dup3\n        /* \"#utility.yul\":11870:11884   */\n      add\n        /* \"#utility.yul\":11860:11884   */\n      swap2\n      pop\n        /* \"#utility.yul\":11929:11931   */\n      0x20\n        /* \"#utility.yul\":11918:11927   */\n      dup6\n        /* \"#utility.yul\":11914:11932   */\n      add\n        /* \"#utility.yul\":11901:11932   */\n      swap5\n      pop\n        /* \"#utility.yul\":11775:11779   */\n      0x20\n        /* \"#utility.yul\":11772:11773   */\n      dup2\n        /* \"#utility.yul\":11768:11780   */\n      add\n        /* \"#utility.yul\":11763:11780   */\n      swap1\n      pop\n        /* \"#utility.yul\":11738:11946   */\n      jump(tag_234)\n    tag_236:\n        /* \"#utility.yul\":11974:11980   */\n      dup7\n        /* \"#utility.yul\":11965:11972   */\n      dup4\n        /* \"#utility.yul\":11962:11981   */\n      lt\n        /* \"#utility.yul\":11959:12138   */\n      iszero\n      tag_237\n      jumpi\n        /* \"#utility.yul\":12032:12041   */\n      dup5\n        /* \"#utility.yul\":12027:12030   */\n      dup10\n        /* \"#utility.yul\":12023:12042   */\n      add\n        /* \"#utility.yul\":12017:12043   */\n      mload\n        /* \"#utility.yul\":12075:12123   */\n      tag_238\n        /* \"#utility.yul\":12117:12121   */\n      0x1f\n        /* \"#utility.yul\":12109:12115   */\n      dup10\n        /* \"#utility.yul\":12105:12122   */\n      and\n        /* \"#utility.yul\":12094:12103   */\n      dup3\n        /* \"#utility.yul\":12075:12123   */\n      tag_92\n      jump\t// in\n    tag_238:\n        /* \"#utility.yul\":12067:12073   */\n      dup4\n        /* \"#utility.yul\":12060:12124   */\n      sstore\n        /* \"#utility.yul\":11982:12138   */\n      pop\n        /* \"#utility.yul\":11959:12138   */\n    tag_237:\n        /* \"#utility.yul\":12184:12185   */\n      0x01\n        /* \"#utility.yul\":12180:12181   */\n      0x02\n        /* \"#utility.yul\":12172:12178   */\n      dup9\n        /* \"#utility.yul\":12168:12182   */\n      mul\n        /* \"#utility.yul\":12164:12186   */\n      add\n        /* \"#utility.yul\":12158:12162   */\n      dup9\n        /* \"#utility.yul\":12151:12187   */\n      sstore\n        /* \"#utility.yul\":11586:12197   */\n      pop\n      pop\n      pop\n        /* \"#utility.yul\":11549:12436   */\n    tag_229:\n      pop\n        /* \"#utility.yul\":11139:12442   */\n      pop\n      pop\n      pop\n        /* \"#utility.yul\":11047:12442   */\n      pop\n      pop\n      jump\t// out\n\n    auxdata: 0xa26469706673582212202d97befd1f495409644ee4c592ff8ad0b7b4bef0ee454403459b92e5eebf4b9664736f6c63430008120033\n}\n",
				"bytecode": {
					"linkReferences": {},
					"object": "60806040526000805534801561001457600080fd5b50610b16806100246000396000f3fe608060405234801561001057600080fd5b50600436106100415760003560e01c80630eda4e681461004657806350b581f514610062578063a5db748d14610092575b600080fd5b610060600480360381019061005b919061054f565b6100ae565b005b61007c600480360381019061007791906105ab565b610134565b6040516100899190610603565b60405180910390f35b6100ac60048036038101906100a7919061054f565b61022e565b005b6100b882826102c2565b156100f8576040517f08c379a00000000000000000000000000000000000000000000000000000000081526004016100ef9061067b565b60405180910390fd5b80600183604051610109919061070c565b908152602001604051809103902060030160008282546101299190610752565b925050819055505050565b600080600183604051610147919061070c565b90815260200160405180910390206040518060800160405290816000820154815260200160018201805461017a906107b5565b80601f01602080910402602001604051908101604052809291908181526020018280546101a6906107b5565b80156101f35780601f106101c8576101008083540402835291602001916101f3565b820191906000526020600020905b8154815290600101906020018083116101d657829003601f168201915b505050505081526020016002820154815260200160038201548152505090508060600151816040015161022691906107e6565b915050919050565b6000808154809291906102409061081a565b9190505550604051806080016040528060005481526020018381526020018281526020016000815250600183604051610279919061070c565b90815260200160405180910390206000820151816000015560208201518160010190816102a69190610a0e565b5060408201518160020155606082015181600301559050505050565b6000806001846040516102d5919061070c565b908152602001604051809103902060405180608001604052908160008201548152602001600182018054610308906107b5565b80601f0160208091040260200160405190810160405280929190818152602001828054610334906107b5565b80156103815780601f1061035657610100808354040283529160200191610381565b820191906000526020600020905b81548152906001019060200180831161036457829003601f168201915b505050505081526020016002820154815260200160038201548152505090508281606001516103b09190610752565b81604001511091505092915050565b6000604051905090565b600080fd5b600080fd5b600080fd5b600080fd5b6000601f19601f8301169050919050565b7f4e487b7100000000000000000000000000000000000000000000000000000000600052604160045260246000fd5b610426826103dd565b810181811067ffffffffffffffff82111715610445576104446103ee565b5b80604052505050565b60006104586103bf565b9050610464828261041d565b919050565b600067ffffffffffffffff821115610484576104836103ee565b5b61048d826103dd565b9050602081019050919050565b82818337600083830152505050565b60006104bc6104b784610469565b61044e565b9050828152602081018484840111156104d8576104d76103d8565b5b6104e384828561049a565b509392505050565b600082601f830112610500576104ff6103d3565b5b81356105108482602086016104a9565b91505092915050565b6000819050919050565b61052c81610519565b811461053757600080fd5b50565b60008135905061054981610523565b92915050565b60008060408385031215610566576105656103c9565b5b600083013567ffffffffffffffff811115610584576105836103ce565b5b610590858286016104eb565b92505060206105a18582860161053a565b9150509250929050565b6000602082840312156105c1576105c06103c9565b5b600082013567ffffffffffffffff8111156105df576105de6103ce565b5b6105eb848285016104eb565b91505092915050565b6105fd81610519565b82525050565b600060208201905061061860008301846105f4565b92915050565b600082825260208201905092915050565b7f54415247455420414d4f554e5420524541434845440000000000000000000000600082015250565b600061066560158361061e565b91506106708261062f565b602082019050919050565b6000602082019050818103600083015261069481610658565b9050919050565b600081519050919050565b600081905092915050565b60005b838110156106cf5780820151818401526020810190506106b4565b60008484015250505050565b60006106e68261069b565b6106f081856106a6565b93506107008185602086016106b1565b80840191505092915050565b600061071882846106db565b915081905092915050565b7f4e487b7100000000000000000000000000000000000000000000000000000000600052601160045260246000fd5b600061075d82610519565b915061076883610519565b92508282019050808211156107805761077f610723565b5b92915050565b7f4e487b7100000000000000000000000000000000000000000000000000000000600052602260045260246000fd5b600060028204905060018216806107cd57607f821691505b6020821081036107e0576107df610786565b5b50919050565b60006107f182610519565b91506107fc83610519565b925082820390508181111561081457610813610723565b5b92915050565b600061082582610519565b91507fffffffffffffffffffffffffffffffffffffffffffffffffffffffffffffffff820361085757610856610723565b5b600182019050919050565b60008190508160005260206000209050919050565b60006020601f8301049050919050565b600082821b905092915050565b6000600883026108c47fffffffffffffffffffffffffffffffffffffffffffffffffffffffffffffffff82610887565b6108ce8683610887565b95508019841693508086168417925050509392505050565b6000819050919050565b600061090b61090661090184610519565b6108e6565b610519565b9050919050565b6000819050919050565b610925836108f0565b61093961093182610912565b848454610894565b825550505050565b600090565b61094e610941565b61095981848461091c565b505050565b5b8181101561097d57610972600082610946565b60018101905061095f565b5050565b601f8211156109c25761099381610862565b61099c84610877565b810160208510156109ab578190505b6109bf6109b785610877565b83018261095e565b50505b505050565b600082821c905092915050565b60006109e5600019846008026109c7565b1980831691505092915050565b60006109fe83836109d4565b9150826002028217905092915050565b610a178261069b565b67ffffffffffffffff811115610a3057610a2f6103ee565b5b610a3a82546107b5565b610a45828285610981565b600060209050601f831160018114610a785760008415610a66578287015190505b610a7085826109f2565b865550610ad8565b601f198416610a8686610862565b60005b82811015610aae57848901518255600182019150602085019450602081019050610a89565b86831015610acb5784890151610ac7601f8916826109d4565b8355505b6001600288020188555050505b50505050505056fea26469706673582212202d97befd1f495409644ee4c592ff8ad0b7b4bef0ee454403459b92e5eebf4b9664736f6c63430008120033",
					"opcodes": "PUSH1 0x80 PUSH1 0x40 MSTORE PUSH1 0x0 DUP1 SSTORE CALLVALUE DUP1 ISZERO PUSH2 0x14 JUMPI PUSH1 0x0 DUP1 REVERT JUMPDEST POP PUSH2 0xB16 DUP1 PUSH2 0x24 PUSH1 0x0 CODECOPY PUSH1 0x0 RETURN INVALID PUSH1 0x80 PUSH1 0x40 MSTORE CALLVALUE DUP1 ISZERO PUSH2 0x10 JUMPI PUSH1 0x0 DUP1 REVERT JUMPDEST POP PUSH1 0x4 CALLDATASIZE LT PUSH2 0x41 JUMPI PUSH1 0x0 CALLDATALOAD PUSH1 0xE0 SHR DUP1 PUSH4 0xEDA4E68 EQ PUSH2 0x46 JUMPI DUP1 PUSH4 0x50B581F5 EQ PUSH2 0x62 JUMPI DUP1 PUSH4 0xA5DB748D EQ PUSH2 0x92 JUMPI JUMPDEST PUSH1 0x0 DUP1 REVERT JUMPDEST PUSH2 0x60 PUSH1 0x4 DUP1 CALLDATASIZE SUB DUP2 ADD SWAP1 PUSH2 0x5B SWAP2 SWAP1 PUSH2 0x54F JUMP JUMPDEST PUSH2 0xAE JUMP JUMPDEST STOP JUMPDEST PUSH2 0x7C PUSH1 0x4 DUP1 CALLDATASIZE SUB DUP2 ADD SWAP1 PUSH2 0x77 SWAP2 SWAP1 PUSH2 0x5AB JUMP JUMPDEST PUSH2 0x134 JUMP JUMPDEST PUSH1 0x40 MLOAD PUSH2 0x89 SWAP2 SWAP1 PUSH2 0x603 JUMP JUMPDEST PUSH1 0x40 MLOAD DUP1 SWAP2 SUB SWAP1 RETURN JUMPDEST PUSH2 0xAC PUSH1 0x4 DUP1 CALLDATASIZE SUB DUP2 ADD SWAP1 PUSH2 0xA7 SWAP2 SWAP1 PUSH2 0x54F JUMP JUMPDEST PUSH2 0x22E JUMP JUMPDEST STOP JUMPDEST PUSH2 0xB8 DUP3 DUP3 PUSH2 0x2C2 JUMP JUMPDEST ISZERO PUSH2 0xF8 JUMPI PUSH1 0x40 MLOAD PUSH32 0x8C379A000000000000000000000000000000000000000000000000000000000 DUP2 MSTORE PUSH1 0x4 ADD PUSH2 0xEF SWAP1 PUSH2 0x67B JUMP JUMPDEST PUSH1 0x40 MLOAD DUP1 SWAP2 SUB SWAP1 REVERT JUMPDEST DUP1 PUSH1 0x1 DUP4 PUSH1 0x40 MLOAD PUSH2 0x109 SWAP2 SWAP1 PUSH2 0x70C JUMP JUMPDEST SWAP1 DUP2 MSTORE PUSH1 0x20 ADD PUSH1 0x40 MLOAD DUP1 SWAP2 SUB SWAP1 KECCAK256 PUSH1 0x3 ADD PUSH1 0x0 DUP3 DUP3 SLOAD PUSH2 0x129 SWAP2 SWAP1 PUSH2 0x752 JUMP JUMPDEST SWAP3 POP POP DUP2 SWAP1 SSTORE POP POP POP JUMP JUMPDEST PUSH1 0x0 DUP1 PUSH1 0x1 DUP4 PUSH1 0x40 MLOAD PUSH2 0x147 SWAP2 SWAP1 PUSH2 0x70C JUMP JUMPDEST SWAP1 DUP2 MSTORE PUSH1 0x20 ADD PUSH1 0x40 MLOAD DUP1 SWAP2 SUB SWAP1 KECCAK256 PUSH1 0x40 MLOAD DUP1 PUSH1 0x80 ADD PUSH1 0x40 MSTORE SWAP1 DUP2 PUSH1 0x0 DUP3 ADD SLOAD DUP2 MSTORE PUSH1 0x20 ADD PUSH1 0x1 DUP3 ADD DUP1 SLOAD PUSH2 0x17A SWAP1 PUSH2 0x7B5 JUMP JUMPDEST DUP1 PUSH1 0x1F ADD PUSH1 0x20 DUP1 SWAP2 DIV MUL PUSH1 0x20 ADD PUSH1 0x40 MLOAD SWAP1 DUP2 ADD PUSH1 0x40 MSTORE DUP1 SWAP3 SWAP2 SWAP1 DUP2 DUP2 MSTORE PUSH1 0x20 ADD DUP3 DUP1 SLOAD PUSH2 0x1A6 SWAP1 PUSH2 0x7B5 JUMP JUMPDEST DUP1 ISZERO PUSH2 0x1F3 JUMPI DUP1 PUSH1 0x1F LT PUSH2 0x1C8 JUMPI PUSH2 0x100 DUP1 DUP4 SLOAD DIV MUL DUP4 MSTORE SWAP2 PUSH1 0x20 ADD SWAP2 PUSH2 0x1F3 JUMP JUMPDEST DUP3 ADD SWAP2 SWAP1 PUSH1 0x0 MSTORE PUSH1 0x20 PUSH1 0x0 KECCAK256 SWAP1 JUMPDEST DUP2 SLOAD DUP2 MSTORE SWAP1 PUSH1 0x1 ADD SWAP1 PUSH1 0x20 ADD DUP1 DUP4 GT PUSH2 0x1D6 JUMPI DUP3 SWAP1 SUB PUSH1 0x1F AND DUP3 ADD SWAP2 JUMPDEST POP POP POP POP POP DUP2 MSTORE PUSH1 0x20 ADD PUSH1 0x2 DUP3 ADD SLOAD DUP2 MSTORE PUSH1 0x20 ADD PUSH1 0x3 DUP3 ADD SLOAD DUP2 MSTORE POP POP SWAP1 POP DUP1 PUSH1 0x60 ADD MLOAD DUP2 PUSH1 0x40 ADD MLOAD PUSH2 0x226 SWAP2 SWAP1 PUSH2 0x7E6 JUMP JUMPDEST SWAP2 POP POP SWAP2 SWAP1 POP JUMP JUMPDEST PUSH1 0x0 DUP1 DUP2 SLOAD DUP1 SWAP3 SWAP2 SWAP1 PUSH2 0x240 SWAP1 PUSH2 0x81A JUMP JUMPDEST SWAP2 SWAP1 POP SSTORE POP PUSH1 0x40 MLOAD DUP1 PUSH1 0x80 ADD PUSH1 0x40 MSTORE DUP1 PUSH1 0x0 SLOAD DUP2 MSTORE PUSH1 0x20 ADD DUP4 DUP2 MSTORE PUSH1 0x20 ADD DUP3 DUP2 MSTORE PUSH1 0x20 ADD PUSH1 0x0 DUP2 MSTORE POP PUSH1 0x1 DUP4 PUSH1 0x40 MLOAD PUSH2 0x279 SWAP2 SWAP1 PUSH2 0x70C JUMP JUMPDEST SWAP1 DUP2 MSTORE PUSH1 0x20 ADD PUSH1 0x40 MLOAD DUP1 SWAP2 SUB SWAP1 KECCAK256 PUSH1 0x0 DUP3 ADD MLOAD DUP2 PUSH1 0x0 ADD SSTORE PUSH1 0x20 DUP3 ADD MLOAD DUP2 PUSH1 0x1 ADD SWAP1 DUP2 PUSH2 0x2A6 SWAP2 SWAP1 PUSH2 0xA0E JUMP JUMPDEST POP PUSH1 0x40 DUP3 ADD MLOAD DUP2 PUSH1 0x2 ADD SSTORE PUSH1 0x60 DUP3 ADD MLOAD DUP2 PUSH1 0x3 ADD SSTORE SWAP1 POP POP POP POP JUMP JUMPDEST PUSH1 0x0 DUP1 PUSH1 0x1 DUP5 PUSH1 0x40 MLOAD PUSH2 0x2D5 SWAP2 SWAP1 PUSH2 0x70C JUMP JUMPDEST SWAP1 DUP2 MSTORE PUSH1 0x20 ADD PUSH1 0x40 MLOAD DUP1 SWAP2 SUB SWAP1 KECCAK256 PUSH1 0x40 MLOAD DUP1 PUSH1 0x80 ADD PUSH1 0x40 MSTORE SWAP1 DUP2 PUSH1 0x0 DUP3 ADD SLOAD DUP2 MSTORE PUSH1 0x20 ADD PUSH1 0x1 DUP3 ADD DUP1 SLOAD PUSH2 0x308 SWAP1 PUSH2 0x7B5 JUMP JUMPDEST DUP1 PUSH1 0x1F ADD PUSH1 0x20 DUP1 SWAP2 DIV MUL PUSH1 0x20 ADD PUSH1 0x40 MLOAD SWAP1 DUP2 ADD PUSH1 0x40 MSTORE DUP1 SWAP3 SWAP2 SWAP1 DUP2 DUP2 MSTORE PUSH1 0x20 ADD DUP3 DUP1 SLOAD PUSH2 0x334 SWAP1 PUSH2 0x7B5 JUMP JUMPDEST DUP1 ISZERO PUSH2 0x381 JUMPI DUP1 PUSH1 0x1F LT PUSH2 0x356 JUMPI PUSH2 0x100 DUP1 DUP4 SLOAD DIV MUL DUP4 MSTORE SWAP2 PUSH1 0x20 ADD SWAP2 PUSH2 0x381 JUMP JUMPDEST DUP3 ADD SWAP2 SWAP1 PUSH1 0x0 MSTORE PUSH1 0x20 PUSH1 0x0 KECCAK256 SWAP1 JUMPDEST DUP2 SLOAD DUP2 MSTORE SWAP1 PUSH1 0x1 ADD SWAP1 PUSH1 0x20 ADD DUP1 DUP4 GT PUSH2 0x364 JUMPI DUP3 SWAP1 SUB PUSH1 0x1F AND DUP3 ADD SWAP2 JUMPDEST POP POP POP POP POP DUP2 MSTORE PUSH1 0x20 ADD PUSH1 0x2 DUP3 ADD SLOAD DUP2 MSTORE PUSH1 0x20 ADD PUSH1 0x3 DUP3 ADD SLOAD DUP2 MSTORE POP POP SWAP1 POP DUP3 DUP2 PUSH1 0x60 ADD MLOAD PUSH2 0x3B0 SWAP2 SWAP1 PUSH2 0x752 JUMP JUMPDEST DUP2 PUSH1 0x40 ADD MLOAD LT SWAP2 POP POP SWAP3 SWAP2 POP POP JUMP JUMPDEST PUSH1 0x0 PUSH1 0x40 MLOAD SWAP1 POP SWAP1 JUMP JUMPDEST PUSH1 0x0 DUP1 REVERT JUMPDEST PUSH1 0x0 DUP1 REVERT JUMPDEST PUSH1 0x0 DUP1 REVERT JUMPDEST PUSH1 0x0 DUP1 REVERT JUMPDEST PUSH1 0x0 PUSH1 0x1F NOT PUSH1 0x1F DUP4 ADD AND SWAP1 POP SWAP2 SWAP1 POP JUMP JUMPDEST PUSH32 0x4E487B7100000000000000000000000000000000000000000000000000000000 PUSH1 0x0 MSTORE PUSH1 0x41 PUSH1 0x4 MSTORE PUSH1 0x24 PUSH1 0x0 REVERT JUMPDEST PUSH2 0x426 DUP3 PUSH2 0x3DD JUMP JUMPDEST DUP2 ADD DUP2 DUP2 LT PUSH8 0xFFFFFFFFFFFFFFFF DUP3 GT OR ISZERO PUSH2 0x445 JUMPI PUSH2 0x444 PUSH2 0x3EE JUMP JUMPDEST JUMPDEST DUP1 PUSH1 0x40 MSTORE POP POP POP JUMP JUMPDEST PUSH1 0x0 PUSH2 0x458 PUSH2 0x3BF JUMP JUMPDEST SWAP1 POP PUSH2 0x464 DUP3 DUP3 PUSH2 0x41D JUMP JUMPDEST SWAP2 SWAP1 POP JUMP JUMPDEST PUSH1 0x0 PUSH8 0xFFFFFFFFFFFFFFFF DUP3 GT ISZERO PUSH2 0x484 JUMPI PUSH2 0x483 PUSH2 0x3EE JUMP JUMPDEST JUMPDEST PUSH2 0x48D DUP3 PUSH2 0x3DD JUMP JUMPDEST SWAP1 POP PUSH1 0x20 DUP2 ADD SWAP1 POP SWAP2 SWAP1 POP JUMP JUMPDEST DUP3 DUP2 DUP4 CALLDATACOPY PUSH1 0x0 DUP4 DUP4 ADD MSTORE POP POP POP JUMP JUMPDEST PUSH1 0x0 PUSH2 0x4BC PUSH2 0x4B7 DUP5 PUSH2 0x469 JUMP JUMPDEST PUSH2 0x44E JUMP JUMPDEST SWAP1 POP DUP3 DUP2 MSTORE PUSH1 0x20 DUP2 ADD DUP5 DUP5 DUP5 ADD GT ISZERO PUSH2 0x4D8 JUMPI PUSH2 0x4D7 PUSH2 0x3D8 JUMP JUMPDEST JUMPDEST PUSH2 0x4E3 DUP5 DUP3 DUP6 PUSH2 0x49A JUMP JUMPDEST POP SWAP4 SWAP3 POP POP POP JUMP JUMPDEST PUSH1 0x0 DUP3 PUSH1 0x1F DUP4 ADD SLT PUSH2 0x500 JUMPI PUSH2 0x4FF PUSH2 0x3D3 JUMP JUMPDEST JUMPDEST DUP2 CALLDATALOAD PUSH2 0x510 DUP5 DUP3 PUSH1 0x20 DUP7 ADD PUSH2 0x4A9 JUMP JUMPDEST SWAP2 POP POP SWAP3 SWAP2 POP POP JUMP JUMPDEST PUSH1 0x0 DUP2 SWAP1 POP SWAP2 SWAP1 POP JUMP JUMPDEST PUSH2 0x52C DUP2 PUSH2 0x519 JUMP JUMPDEST DUP2 EQ PUSH2 0x537 JUMPI PUSH1 0x0 DUP1 REVERT JUMPDEST POP JUMP JUMPDEST PUSH1 0x0 DUP2 CALLDATALOAD SWAP1 POP PUSH2 0x549 DUP2 PUSH2 0x523 JUMP JUMPDEST SWAP3 SWAP2 POP POP JUMP JUMPDEST PUSH1 0x0 DUP1 PUSH1 0x40 DUP4 DUP6 SUB SLT ISZERO PUSH2 0x566 JUMPI PUSH2 0x565 PUSH2 0x3C9 JUMP JUMPDEST JUMPDEST PUSH1 0x0 DUP4 ADD CALLDATALOAD PUSH8 0xFFFFFFFFFFFFFFFF DUP2 GT ISZERO PUSH2 0x584 JUMPI PUSH2 0x583 PUSH2 0x3CE JUMP JUMPDEST JUMPDEST PUSH2 0x590 DUP6 DUP3 DUP7 ADD PUSH2 0x4EB JUMP JUMPDEST SWAP3 POP POP PUSH1 0x20 PUSH2 0x5A1 DUP6 DUP3 DUP7 ADD PUSH2 0x53A JUMP JUMPDEST SWAP2 POP POP SWAP3 POP SWAP3 SWAP1 POP JUMP JUMPDEST PUSH1 0x0 PUSH1 0x20 DUP3 DUP5 SUB SLT ISZERO PUSH2 0x5C1 JUMPI PUSH2 0x5C0 PUSH2 0x3C9 JUMP JUMPDEST JUMPDEST PUSH1 0x0 DUP3 ADD CALLDATALOAD PUSH8 0xFFFFFFFFFFFFFFFF DUP2 GT ISZERO PUSH2 0x5DF JUMPI PUSH2 0x5DE PUSH2 0x3CE JUMP JUMPDEST JUMPDEST PUSH2 0x5EB DUP5 DUP3 DUP6 ADD PUSH2 0x4EB JUMP JUMPDEST SWAP2 POP POP SWAP3 SWAP2 POP POP JUMP JUMPDEST PUSH2 0x5FD DUP2 PUSH2 0x519 JUMP JUMPDEST DUP3 MSTORE POP POP JUMP JUMPDEST PUSH1 0x0 PUSH1 0x20 DUP3 ADD SWAP1 POP PUSH2 0x618 PUSH1 0x0 DUP4 ADD DUP5 PUSH2 0x5F4 JUMP JUMPDEST SWAP3 SWAP2 POP POP JUMP JUMPDEST PUSH1 0x0 DUP3 DUP3 MSTORE PUSH1 0x20 DUP3 ADD SWAP1 POP SWAP3 SWAP2 POP POP JUMP JUMPDEST PUSH32 0x54415247455420414D4F554E5420524541434845440000000000000000000000 PUSH1 0x0 DUP3 ADD MSTORE POP JUMP JUMPDEST PUSH1 0x0 PUSH2 0x665 PUSH1 0x15 DUP4 PUSH2 0x61E JUMP JUMPDEST SWAP2 POP PUSH2 0x670 DUP3 PUSH2 0x62F JUMP JUMPDEST PUSH1 0x20 DUP3 ADD SWAP1 POP SWAP2 SWAP1 POP JUMP JUMPDEST PUSH1 0x0 PUSH1 0x20 DUP3 ADD SWAP1 POP DUP2 DUP2 SUB PUSH1 0x0 DUP4 ADD MSTORE PUSH2 0x694 DUP2 PUSH2 0x658 JUMP JUMPDEST SWAP1 POP SWAP2 SWAP1 POP JUMP JUMPDEST PUSH1 0x0 DUP2 MLOAD SWAP1 POP SWAP2 SWAP1 POP JUMP JUMPDEST PUSH1 0x0 DUP2 SWAP1 POP SWAP3 SWAP2 POP POP JUMP JUMPDEST PUSH1 0x0 JUMPDEST DUP4 DUP2 LT ISZERO PUSH2 0x6CF JUMPI DUP1 DUP3 ADD MLOAD DUP2 DUP5 ADD MSTORE PUSH1 0x20 DUP2 ADD SWAP1 POP PUSH2 0x6B4 JUMP JUMPDEST PUSH1 0x0 DUP5 DUP5 ADD MSTORE POP POP POP POP JUMP JUMPDEST PUSH1 0x0 PUSH2 0x6E6 DUP3 PUSH2 0x69B JUMP JUMPDEST PUSH2 0x6F0 DUP2 DUP6 PUSH2 0x6A6 JUMP JUMPDEST SWAP4 POP PUSH2 0x700 DUP2 DUP6 PUSH1 0x20 DUP7 ADD PUSH2 0x6B1 JUMP JUMPDEST DUP1 DUP5 ADD SWAP2 POP POP SWAP3 SWAP2 POP POP JUMP JUMPDEST PUSH1 0x0 PUSH2 0x718 DUP3 DUP5 PUSH2 0x6DB JUMP JUMPDEST SWAP2 POP DUP2 SWAP1 POP SWAP3 SWAP2 POP POP JUMP JUMPDEST PUSH32 0x4E487B7100000000000000000000000000000000000000000000000000000000 PUSH1 0x0 MSTORE PUSH1 0x11 PUSH1 0x4 MSTORE PUSH1 0x24 PUSH1 0x0 REVERT JUMPDEST PUSH1 0x0 PUSH2 0x75D DUP3 PUSH2 0x519 JUMP JUMPDEST SWAP2 POP PUSH2 0x768 DUP4 PUSH2 0x519 JUMP JUMPDEST SWAP3 POP DUP3 DUP3 ADD SWAP1 POP DUP1 DUP3 GT ISZERO PUSH2 0x780 JUMPI PUSH2 0x77F PUSH2 0x723 JUMP JUMPDEST JUMPDEST SWAP3 SWAP2 POP POP JUMP JUMPDEST PUSH32 0x4E487B7100000000000000000000000000000000000000000000000000000000 PUSH1 0x0 MSTORE PUSH1 0x22 PUSH1 0x4 MSTORE PUSH1 0x24 PUSH1 0x0 REVERT JUMPDEST PUSH1 0x0 PUSH1 0x2 DUP3 DIV SWAP1 POP PUSH1 0x1 DUP3 AND DUP1 PUSH2 0x7CD JUMPI PUSH1 0x7F DUP3 AND SWAP2 POP JUMPDEST PUSH1 0x20 DUP3 LT DUP2 SUB PUSH2 0x7E0 JUMPI PUSH2 0x7DF PUSH2 0x786 JUMP JUMPDEST JUMPDEST POP SWAP2 SWAP1 POP JUMP JUMPDEST PUSH1 0x0 PUSH2 0x7F1 DUP3 PUSH2 0x519 JUMP JUMPDEST SWAP2 POP PUSH2 0x7FC DUP4 PUSH2 0x519 JUMP JUMPDEST SWAP3 POP DUP3 DUP3 SUB SWAP1 POP DUP2 DUP2 GT ISZERO PUSH2 0x814 JUMPI PUSH2 0x813 PUSH2 0x723 JUMP JUMPDEST JUMPDEST SWAP3 SWAP2 POP POP JUMP JUMPDEST PUSH1 0x0 PUSH2 0x825 DUP3 PUSH2 0x519 JUMP JUMPDEST SWAP2 POP PUSH32 0xFFFFFFFFFFFFFFFFFFFFFFFFFFFFFFFFFFFFFFFFFFFFFFFFFFFFFFFFFFFFFFFF DUP3 SUB PUSH2 0x857 JUMPI PUSH2 0x856 PUSH2 0x723 JUMP JUMPDEST JUMPDEST PUSH1 0x1 DUP3 ADD SWAP1 POP SWAP2 SWAP1 POP JUMP JUMPDEST PUSH1 0x0 DUP2 SWAP1 POP DUP2 PUSH1 0x0 MSTORE PUSH1 0x20 PUSH1 0x0 KECCAK256 SWAP1 POP SWAP2 SWAP1 POP JUMP JUMPDEST PUSH1 0x0 PUSH1 0x20 PUSH1 0x1F DUP4 ADD DIV SWAP1 POP SWAP2 SWAP1 POP JUMP JUMPDEST PUSH1 0x0 DUP3 DUP3 SHL SWAP1 POP SWAP3 SWAP2 POP POP JUMP JUMPDEST PUSH1 0x0 PUSH1 0x8 DUP4 MUL PUSH2 0x8C4 PUSH32 0xFFFFFFFFFFFFFFFFFFFFFFFFFFFFFFFFFFFFFFFFFFFFFFFFFFFFFFFFFFFFFFFF DUP3 PUSH2 0x887 JUMP JUMPDEST PUSH2 0x8CE DUP7 DUP4 PUSH2 0x887 JUMP JUMPDEST SWAP6 POP DUP1 NOT DUP5 AND SWAP4 POP DUP1 DUP7 AND DUP5 OR SWAP3 POP POP POP SWAP4 SWAP3 POP POP POP JUMP JUMPDEST PUSH1 0x0 DUP2 SWAP1 POP SWAP2 SWAP1 POP JUMP JUMPDEST PUSH1 0x0 PUSH2 0x90B PUSH2 0x906 PUSH2 0x901 DUP5 PUSH2 0x519 JUMP JUMPDEST PUSH2 0x8E6 JUMP JUMPDEST PUSH2 0x519 JUMP JUMPDEST SWAP1 POP SWAP2 SWAP1 POP JUMP JUMPDEST PUSH1 0x0 DUP2 SWAP1 POP SWAP2 SWAP1 POP JUMP JUMPDEST PUSH2 0x925 DUP4 PUSH2 0x8F0 JUMP JUMPDEST PUSH2 0x939 PUSH2 0x931 DUP3 PUSH2 0x912 JUMP JUMPDEST DUP5 DUP5 SLOAD PUSH2 0x894 JUMP JUMPDEST DUP3 SSTORE POP POP POP POP JUMP JUMPDEST PUSH1 0x0 SWAP1 JUMP JUMPDEST PUSH2 0x94E PUSH2 0x941 JUMP JUMPDEST PUSH2 0x959 DUP2 DUP5 DUP5 PUSH2 0x91C JUMP JUMPDEST POP POP POP JUMP JUMPDEST JUMPDEST DUP2 DUP2 LT ISZERO PUSH2 0x97D JUMPI PUSH2 0x972 PUSH1 0x0 DUP3 PUSH2 0x946 JUMP JUMPDEST PUSH1 0x1 DUP2 ADD SWAP1 POP PUSH2 0x95F JUMP JUMPDEST POP POP JUMP JUMPDEST PUSH1 0x1F DUP3 GT ISZERO PUSH2 0x9C2 JUMPI PUSH2 0x993 DUP2 PUSH2 0x862 JUMP JUMPDEST PUSH2 0x99C DUP5 PUSH2 0x877 JUMP JUMPDEST DUP2 ADD PUSH1 0x20 DUP6 LT ISZERO PUSH2 0x9AB JUMPI DUP2 SWAP1 POP JUMPDEST PUSH2 0x9BF PUSH2 0x9B7 DUP6 PUSH2 0x877 JUMP JUMPDEST DUP4 ADD DUP3 PUSH2 0x95E JUMP JUMPDEST POP POP JUMPDEST POP POP POP JUMP JUMPDEST PUSH1 0x0 DUP3 DUP3 SHR SWAP1 POP SWAP3 SWAP2 POP POP JUMP JUMPDEST PUSH1 0x0 PUSH2 0x9E5 PUSH1 0x0 NOT DUP5 PUSH1 0x8 MUL PUSH2 0x9C7 JUMP JUMPDEST NOT DUP1 DUP4 AND SWAP2 POP POP SWAP3 SWAP2 POP POP JUMP JUMPDEST PUSH1 0x0 PUSH2 0x9FE DUP4 DUP4 PUSH2 0x9D4 JUMP JUMPDEST SWAP2 POP DUP3 PUSH1 0x2 MUL DUP3 OR SWAP1 POP SWAP3 SWAP2 POP POP JUMP JUMPDEST PUSH2 0xA17 DUP3 PUSH2 0x69B JUMP JUMPDEST PUSH8 0xFFFFFFFFFFFFFFFF DUP2 GT ISZERO PUSH2 0xA30 JUMPI PUSH2 0xA2F PUSH2 0x3EE JUMP JUMPDEST JUMPDEST PUSH2 0xA3A DUP3 SLOAD PUSH2 0x7B5 JUMP JUMPDEST PUSH2 0xA45 DUP3 DUP3 DUP6 PUSH2 0x981 JUMP JUMPDEST PUSH1 0x0 PUSH1 0x20 SWAP1 POP PUSH1 0x1F DUP4 GT PUSH1 0x1 DUP2 EQ PUSH2 0xA78 JUMPI PUSH1 0x0 DUP5 ISZERO PUSH2 0xA66 JUMPI DUP3 DUP8 ADD MLOAD SWAP1 POP JUMPDEST PUSH2 0xA70 DUP6 DUP3 PUSH2 0x9F2 JUMP JUMPDEST DUP7 SSTORE POP PUSH2 0xAD8 JUMP JUMPDEST PUSH1 0x1F NOT DUP5 AND PUSH2 0xA86 DUP7 PUSH2 0x862 JUMP JUMPDEST PUSH1 0x0 JUMPDEST DUP3 DUP2 LT ISZERO PUSH2 0xAAE JUMPI DUP5 DUP10 ADD MLOAD DUP3 SSTORE PUSH1 0x1 DUP3 ADD SWAP2 POP PUSH1 0x20 DUP6 ADD SWAP5 POP PUSH1 0x20 DUP2 ADD SWAP1 POP PUSH2 0xA89 JUMP JUMPDEST DUP7 DUP4 LT ISZERO PUSH2 0xACB JUMPI DUP5 DUP10 ADD MLOAD PUSH2 0xAC7 PUSH1 0x1F DUP10 AND DUP3 PUSH2 0x9D4 JUMP JUMPDEST DUP4 SSTORE POP JUMPDEST PUSH1 0x1 PUSH1 0x2 DUP9 MUL ADD DUP9 SSTORE POP POP POP JUMPDEST POP POP POP POP POP POP JUMP INVALID LOG2 PUSH5 0x6970667358 0x22 SLT KECCAK256 0x2D SWAP8 0xBE REVERT 0x1F 0x49 SLOAD MULMOD PUSH5 0x4EE4C592FF DUP11 0xD0 0xB7 0xB4 0xBE CREATE 0xEE GASLIMIT PREVRANDAO SUB GASLIMIT SWAP12 SWAP3 0xE5 0xEE 0xBF 0x4B SWAP7 PUSH5 0x736F6C6343 STOP ADDMOD SLT STOP CALLER "
				},
				"gasEstimates": {
					"creation": {
						"codeDepositCost": "567600",
						"executionCost": "5606",
						"totalCost": "573206"
					},
					"external": {
						"amountToReachTarget(string)": "infinite",
						"fundProyect(string,uint256)": "infinite",
						"newProyect(string,uint256)": "infinite"
					},
					"internal": {
						"targetAmountReached(string memory,uint256)": "infinite"
					}
				},
				"methodIdentifiers": {
					"amountToReachTarget(string)": "50b581f5",
					"fundProyect(string,uint256)": "0eda4e68",
					"newProyect(string,uint256)": "a5db748d"
				}
			},
			"storageLayout": {
				"storage": [
					{
						"astId": 13,
						"contract": "crowfunding.sol:crowFunding",
						"label": "proyectsCount",
						"offset": 0,
						"slot": "0",
						"type": "t_uint256"
					},
					{
						"astId": 18,
						"contract": "crowfunding.sol:crowFunding",
						"label": "proyects",
						"offset": 0,
						"slot": "1",
						"type": "t_mapping(t_string_memory_ptr,t_struct(Proyect)10_storage)"
					}
				],
				"types": {
					"t_mapping(t_string_memory_ptr,t_struct(Proyect)10_storage)": {
						"encoding": "mapping",
						"key": "t_string_memory_ptr",
						"label": "mapping(string => struct crowFunding.Proyect)",
						"numberOfBytes": "32",
						"value": "t_struct(Proyect)10_storage"
					},
					"t_string_memory_ptr": {
						"encoding": "bytes",
						"label": "string",
						"numberOfBytes": "32"
					},
					"t_string_storage": {
						"encoding": "bytes",
						"label": "string",
						"numberOfBytes": "32"
					},
					"t_struct(Proyect)10_storage": {
						"encoding": "inplace",
						"label": "struct crowFunding.Proyect",
						"members": [
							{
								"astId": 3,
								"contract": "crowfunding.sol:crowFunding",
								"label": "Id",
								"offset": 0,
								"slot": "0",
								"type": "t_uint256"
							},
							{
								"astId": 5,
								"contract": "crowfunding.sol:crowFunding",
								"label": "name",
								"offset": 0,
								"slot": "1",
								"type": "t_string_storage"
							},
							{
								"astId": 7,
								"contract": "crowfunding.sol:crowFunding",
								"label": "targetAmount",
								"offset": 0,
								"slot": "2",
								"type": "t_uint256"
							},
							{
								"astId": 9,
								"contract": "crowfunding.sol:crowFunding",
								"label": "collectedAmount",
								"offset": 0,
								"slot": "3",
								"type": "t_uint256"
							}
						],
						"numberOfBytes": "128"
					},
					"t_uint256": {
						"encoding": "inplace",
						"label": "uint256",
						"numberOfBytes": "32"
					}
				}
			},
			"userdoc": {
				"kind": "user",
				"methods": {},
				"version": 1
			}
		}
	}
}