{
	"crowfunding.sol": {
		"crowFunding": {
			"abi": [
				{
					"inputs": [
						{
							"internalType": "string",
							"name": "_name",
							"type": "string"
						}
					],
					"name": "amountToReachTarget",
					"outputs": [
						{
							"internalType": "uint256",
							"name": "",
							"type": "uint256"
						}
					],
					"stateMutability": "view",
					"type": "function"
				},
				{
					"inputs": [
						{
							"internalType": "string",
							"name": "_name",
							"type": "string"
						},
						{
							"internalType": "uint256",
							"name": "_amount",
							"type": "uint256"
						}
					],
					"name": "fundProyect",
					"outputs": [],
					"stateMutability": "nonpayable",
					"type": "function"
				},
				{
					"inputs": [],
					"name": "getProyectsCount",
					"outputs": [
						{
							"internalType": "uint256",
							"name": "",
							"type": "uint256"
						}
					],
					"stateMutability": "view",
					"type": "function"
				},
				{
					"inputs": [
						{
							"internalType": "string",
							"name": "_name",
							"type": "string"
						},
						{
							"internalType": "uint256",
							"name": "_target",
							"type": "uint256"
						}
					],
					"name": "newProyect",
					"outputs": [],
					"stateMutability": "nonpayable",
					"type": "function"
				},
				{
					"inputs": [
						{
							"internalType": "string",
							"name": "_name",
							"type": "string"
						}
					],
					"name": "proyectInfo",
					"outputs": [
						{
							"internalType": "bytes32",
							"name": "",
							"type": "bytes32"
						},
						{
							"internalType": "uint256",
							"name": "",
							"type": "uint256"
						},
						{
							"internalType": "uint256",
							"name": "",
							"type": "uint256"
						}
					],
					"stateMutability": "view",
					"type": "function"
				},
				{
					"inputs": [
						{
							"internalType": "string",
							"name": "_name",
							"type": "string"
						},
						{
							"internalType": "uint256",
							"name": "_amount",
							"type": "uint256"
						}
					],
					"name": "targetAmountReached",
					"outputs": [
						{
							"internalType": "bool",
							"name": "",
							"type": "bool"
						}
					],
					"stateMutability": "view",
					"type": "function"
				}
			],
			"devdoc": {
				"kind": "dev",
				"methods": {},
				"version": 1
			},
			"evm": {
				"assembly": "    /* \"crowfunding.sol\":58:2145  contract crowFunding{... */\n  mstore(0x40, 0x80)\n    /* \"crowfunding.sol\":230:231  0 */\n  0x00\n    /* \"crowfunding.sol\":209:231  uint proyectsCount = 0 */\n  dup1\n  sstore\n    /* \"crowfunding.sol\":58:2145  contract crowFunding{... */\n  callvalue\n  dup1\n  iszero\n  tag_1\n  jumpi\n  0x00\n  dup1\n  revert\ntag_1:\n  pop\n  dataSize(sub_0)\n  dup1\n  dataOffset(sub_0)\n  0x00\n  codecopy\n  0x00\n  return\nstop\n\nsub_0: assembly {\n        /* \"crowfunding.sol\":58:2145  contract crowFunding{... */\n      mstore(0x40, 0x80)\n      callvalue\n      dup1\n      iszero\n      tag_1\n      jumpi\n      0x00\n      dup1\n      revert\n    tag_1:\n      pop\n      jumpi(tag_2, lt(calldatasize, 0x04))\n      shr(0xe0, calldataload(0x00))\n      dup1\n      0x0eda4e68\n      eq\n      tag_3\n      jumpi\n      dup1\n      0x50b581f5\n      eq\n      tag_4\n      jumpi\n      dup1\n      0x744afe5f\n      eq\n      tag_5\n      jumpi\n      dup1\n      0xa5db748d\n      eq\n      tag_6\n      jumpi\n      dup1\n      0xcb42bbf8\n      eq\n      tag_7\n      jumpi\n      dup1\n      0xec8de889\n      eq\n      tag_8\n      jumpi\n    tag_2:\n      0x00\n      dup1\n      revert\n        /* \"crowfunding.sol\":1401:1669  function fundProyect(string memory _name, uint _amount) public{... */\n    tag_3:\n      tag_9\n      0x04\n      dup1\n      calldatasize\n      sub\n      dup2\n      add\n      swap1\n      tag_10\n      swap2\n      swap1\n      tag_11\n      jump\t// in\n    tag_10:\n      tag_12\n      jump\t// in\n    tag_9:\n      stop\n        /* \"crowfunding.sol\":1087:1354  function amountToReachTarget(string memory _name) external view returns (uint) {... */\n    tag_4:\n      tag_13\n      0x04\n      dup1\n      calldatasize\n      sub\n      dup2\n      add\n      swap1\n      tag_14\n      swap2\n      swap1\n      tag_15\n      jump\t// in\n    tag_14:\n      tag_16\n      jump\t// in\n    tag_13:\n      mload(0x40)\n      tag_17\n      swap2\n      swap1\n      tag_18\n      jump\t// in\n    tag_17:\n      mload(0x40)\n      dup1\n      swap2\n      sub\n      swap1\n      return\n        /* \"crowfunding.sol\":750:1039  function targetAmountReached(string memory _name, uint _amount) public view returns (bool) {... */\n    tag_5:\n      tag_19\n      0x04\n      dup1\n      calldatasize\n      sub\n      dup2\n      add\n      swap1\n      tag_20\n      swap2\n      swap1\n      tag_11\n      jump\t// in\n    tag_20:\n      tag_21\n      jump\t// in\n    tag_19:\n      mload(0x40)\n      tag_22\n      swap2\n      swap1\n      tag_23\n      jump\t// in\n    tag_22:\n      mload(0x40)\n      dup1\n      swap2\n      sub\n      swap1\n      return\n        /* \"crowfunding.sol\":461:701  function newProyect(string memory _name, uint _target) external{... */\n    tag_6:\n      tag_24\n      0x04\n      dup1\n      calldatasize\n      sub\n      dup2\n      add\n      swap1\n      tag_25\n      swap2\n      swap1\n      tag_11\n      jump\t// in\n    tag_25:\n      tag_26\n      jump\t// in\n    tag_24:\n      stop\n        /* \"crowfunding.sol\":1724:2008  function proyectInfo(string memory _name) external view returns(bytes32, uint, uint){... */\n    tag_7:\n      tag_27\n      0x04\n      dup1\n      calldatasize\n      sub\n      dup2\n      add\n      swap1\n      tag_28\n      swap2\n      swap1\n      tag_15\n      jump\t// in\n    tag_28:\n      tag_29\n      jump\t// in\n    tag_27:\n      mload(0x40)\n      tag_30\n      swap4\n      swap3\n      swap2\n      swap1\n      tag_31\n      jump\t// in\n    tag_30:\n      mload(0x40)\n      dup1\n      swap2\n      sub\n      swap1\n      return\n        /* \"crowfunding.sol\":2044:2136  function getProyectsCount() external view returns(uint){... */\n    tag_8:\n      tag_32\n      tag_33\n      jump\t// in\n    tag_32:\n      mload(0x40)\n      tag_34\n      swap2\n      swap1\n      tag_18\n      jump\t// in\n    tag_34:\n      mload(0x40)\n      dup1\n      swap2\n      sub\n      swap1\n      return\n        /* \"crowfunding.sol\":1401:1669  function fundProyect(string memory _name, uint _amount) public{... */\n    tag_12:\n        /* \"crowfunding.sol\":1503:1504  0 */\n      0x00\n        /* \"crowfunding.sol\":1481:1504  proyects[_name].Id != 0 */\n      dup1\n      shl\n        /* \"crowfunding.sol\":1481:1489  proyects */\n      0x01\n        /* \"crowfunding.sol\":1490:1495  _name */\n      dup4\n        /* \"crowfunding.sol\":1481:1496  proyects[_name] */\n      mload(0x40)\n      tag_36\n      swap2\n      swap1\n      tag_37\n      jump\t// in\n    tag_36:\n      swap1\n      dup2\n      mstore\n      0x20\n      add\n      mload(0x40)\n      dup1\n      swap2\n      sub\n      swap1\n      keccak256\n        /* \"crowfunding.sol\":1481:1499  proyects[_name].Id */\n      0x00\n      add\n      sload\n        /* \"crowfunding.sol\":1481:1504  proyects[_name].Id != 0 */\n      sub\n        /* \"crowfunding.sol\":1473:1531  require(proyects[_name].Id != 0, \"Project doesn't exists\") */\n      tag_38\n      jumpi\n      mload(0x40)\n      0x08c379a000000000000000000000000000000000000000000000000000000000\n      dup2\n      mstore\n      0x04\n      add\n      tag_39\n      swap1\n      tag_40\n      jump\t// in\n    tag_39:\n      mload(0x40)\n      dup1\n      swap2\n      sub\n      swap1\n      revert\n    tag_38:\n        /* \"crowfunding.sol\":1550:1585  targetAmountReached(_name, _amount) */\n      tag_41\n        /* \"crowfunding.sol\":1570:1575  _name */\n      dup3\n        /* \"crowfunding.sol\":1577:1584  _amount */\n      dup3\n        /* \"crowfunding.sol\":1550:1569  targetAmountReached */\n      tag_21\n        /* \"crowfunding.sol\":1550:1585  targetAmountReached(_name, _amount) */\n      jump\t// in\n    tag_41:\n        /* \"crowfunding.sol\":1549:1585  !targetAmountReached(_name, _amount) */\n      iszero\n        /* \"crowfunding.sol\":1541:1610  require(!targetAmountReached(_name, _amount),\"TARGET AMOUNT REACHED\") */\n      tag_42\n      jumpi\n      mload(0x40)\n      0x08c379a000000000000000000000000000000000000000000000000000000000\n      dup2\n      mstore\n      0x04\n      add\n      tag_43\n      swap1\n      tag_44\n      jump\t// in\n    tag_43:\n      mload(0x40)\n      dup1\n      swap2\n      sub\n      swap1\n      revert\n    tag_42:\n        /* \"crowfunding.sol\":1655:1662  _amount */\n      dup1\n        /* \"crowfunding.sol\":1620:1628  proyects */\n      0x01\n        /* \"crowfunding.sol\":1629:1634  _name */\n      dup4\n        /* \"crowfunding.sol\":1620:1635  proyects[_name] */\n      mload(0x40)\n      tag_45\n      swap2\n      swap1\n      tag_37\n      jump\t// in\n    tag_45:\n      swap1\n      dup2\n      mstore\n      0x20\n      add\n      mload(0x40)\n      dup1\n      swap2\n      sub\n      swap1\n      keccak256\n        /* \"crowfunding.sol\":1620:1651  proyects[_name].collectedAmount */\n      0x03\n      add\n      0x00\n        /* \"crowfunding.sol\":1620:1662  proyects[_name].collectedAmount += _amount */\n      dup3\n      dup3\n      sload\n      tag_46\n      swap2\n      swap1\n      tag_47\n      jump\t// in\n    tag_46:\n      swap3\n      pop\n      pop\n      dup2\n      swap1\n      sstore\n      pop\n        /* \"crowfunding.sol\":1401:1669  function fundProyect(string memory _name, uint _amount) public{... */\n      pop\n      pop\n      jump\t// out\n        /* \"crowfunding.sol\":1087:1354  function amountToReachTarget(string memory _name) external view returns (uint) {... */\n    tag_16:\n        /* \"crowfunding.sol\":1160:1164  uint */\n      0x00\n        /* \"crowfunding.sol\":1206:1207  0 */\n      dup1\n        /* \"crowfunding.sol\":1184:1207  proyects[_name].Id != 0 */\n      0x00\n      shl\n        /* \"crowfunding.sol\":1184:1192  proyects */\n      0x01\n        /* \"crowfunding.sol\":1193:1198  _name */\n      dup4\n        /* \"crowfunding.sol\":1184:1199  proyects[_name] */\n      mload(0x40)\n      tag_49\n      swap2\n      swap1\n      tag_37\n      jump\t// in\n    tag_49:\n      swap1\n      dup2\n      mstore\n      0x20\n      add\n      mload(0x40)\n      dup1\n      swap2\n      sub\n      swap1\n      keccak256\n        /* \"crowfunding.sol\":1184:1202  proyects[_name].Id */\n      0x00\n      add\n      sload\n        /* \"crowfunding.sol\":1184:1207  proyects[_name].Id != 0 */\n      sub\n        /* \"crowfunding.sol\":1176:1234  require(proyects[_name].Id != 0, \"Project doesn't exists\") */\n      tag_50\n      jumpi\n      mload(0x40)\n      0x08c379a000000000000000000000000000000000000000000000000000000000\n      dup2\n      mstore\n      0x04\n      add\n      tag_51\n      swap1\n      tag_40\n      jump\t// in\n    tag_51:\n      mload(0x40)\n      dup1\n      swap2\n      sub\n      swap1\n      revert\n    tag_50:\n        /* \"crowfunding.sol\":1244:1266  Proyect memory proyect */\n      0x00\n        /* \"crowfunding.sol\":1269:1277  proyects */\n      0x01\n        /* \"crowfunding.sol\":1278:1283  _name */\n      dup4\n        /* \"crowfunding.sol\":1269:1284  proyects[_name] */\n      mload(0x40)\n      tag_52\n      swap2\n      swap1\n      tag_37\n      jump\t// in\n    tag_52:\n      swap1\n      dup2\n      mstore\n      0x20\n      add\n      mload(0x40)\n      dup1\n      swap2\n      sub\n      swap1\n      keccak256\n        /* \"crowfunding.sol\":1244:1284  Proyect memory proyect = proyects[_name] */\n      mload(0x40)\n      dup1\n      0x80\n      add\n      0x40\n      mstore\n      swap1\n      dup2\n      0x00\n      dup3\n      add\n      sload\n      dup2\n      mstore\n      0x20\n      add\n      0x01\n      dup3\n      add\n      dup1\n      sload\n      tag_53\n      swap1\n      tag_54\n      jump\t// in\n    tag_53:\n      dup1\n      0x1f\n      add\n      0x20\n      dup1\n      swap2\n      div\n      mul\n      0x20\n      add\n      mload(0x40)\n      swap1\n      dup2\n      add\n      0x40\n      mstore\n      dup1\n      swap3\n      swap2\n      swap1\n      dup2\n      dup2\n      mstore\n      0x20\n      add\n      dup3\n      dup1\n      sload\n      tag_55\n      swap1\n      tag_54\n      jump\t// in\n    tag_55:\n      dup1\n      iszero\n      tag_56\n      jumpi\n      dup1\n      0x1f\n      lt\n      tag_57\n      jumpi\n      0x0100\n      dup1\n      dup4\n      sload\n      div\n      mul\n      dup4\n      mstore\n      swap2\n      0x20\n      add\n      swap2\n      jump(tag_56)\n    tag_57:\n      dup3\n      add\n      swap2\n      swap1\n      0x00\n      mstore\n      keccak256(0x00, 0x20)\n      swap1\n    tag_58:\n      dup2\n      sload\n      dup2\n      mstore\n      swap1\n      0x01\n      add\n      swap1\n      0x20\n      add\n      dup1\n      dup4\n      gt\n      tag_58\n      jumpi\n      dup3\n      swap1\n      sub\n      0x1f\n      and\n      dup3\n      add\n      swap2\n    tag_56:\n      pop\n      pop\n      pop\n      pop\n      pop\n      dup2\n      mstore\n      0x20\n      add\n      0x02\n      dup3\n      add\n      sload\n      dup2\n      mstore\n      0x20\n      add\n      0x03\n      dup3\n      add\n      sload\n      dup2\n      mstore\n      pop\n      pop\n      swap1\n      pop\n        /* \"crowfunding.sol\":1324:1331  proyect */\n      dup1\n        /* \"crowfunding.sol\":1324:1347  proyect.collectedAmount */\n      0x60\n      add\n      mload\n        /* \"crowfunding.sol\":1301:1308  proyect */\n      dup2\n        /* \"crowfunding.sol\":1301:1321  proyect.targetAmount */\n      0x40\n      add\n      mload\n        /* \"crowfunding.sol\":1301:1347  proyect.targetAmount - proyect.collectedAmount */\n      tag_59\n      swap2\n      swap1\n      tag_60\n      jump\t// in\n    tag_59:\n        /* \"crowfunding.sol\":1294:1347  return proyect.targetAmount - proyect.collectedAmount */\n      swap2\n      pop\n      pop\n        /* \"crowfunding.sol\":1087:1354  function amountToReachTarget(string memory _name) external view returns (uint) {... */\n      swap2\n      swap1\n      pop\n      jump\t// out\n        /* \"crowfunding.sol\":750:1039  function targetAmountReached(string memory _name, uint _amount) public view returns (bool) {... */\n    tag_21:\n        /* \"crowfunding.sol\":835:839  bool */\n      0x00\n        /* \"crowfunding.sol\":881:882  0 */\n      dup1\n        /* \"crowfunding.sol\":859:882  proyects[_name].Id != 0 */\n      0x00\n      shl\n        /* \"crowfunding.sol\":859:867  proyects */\n      0x01\n        /* \"crowfunding.sol\":868:873  _name */\n      dup5\n        /* \"crowfunding.sol\":859:874  proyects[_name] */\n      mload(0x40)\n      tag_62\n      swap2\n      swap1\n      tag_37\n      jump\t// in\n    tag_62:\n      swap1\n      dup2\n      mstore\n      0x20\n      add\n      mload(0x40)\n      dup1\n      swap2\n      sub\n      swap1\n      keccak256\n        /* \"crowfunding.sol\":859:877  proyects[_name].Id */\n      0x00\n      add\n      sload\n        /* \"crowfunding.sol\":859:882  proyects[_name].Id != 0 */\n      sub\n        /* \"crowfunding.sol\":851:909  require(proyects[_name].Id != 0, \"Project doesn't exists\") */\n      tag_63\n      jumpi\n      mload(0x40)\n      0x08c379a000000000000000000000000000000000000000000000000000000000\n      dup2\n      mstore\n      0x04\n      add\n      tag_64\n      swap1\n      tag_40\n      jump\t// in\n    tag_64:\n      mload(0x40)\n      dup1\n      swap2\n      sub\n      swap1\n      revert\n    tag_63:\n        /* \"crowfunding.sol\":919:941  Proyect memory proyect */\n      0x00\n        /* \"crowfunding.sol\":944:952  proyects */\n      0x01\n        /* \"crowfunding.sol\":953:958  _name */\n      dup5\n        /* \"crowfunding.sol\":944:959  proyects[_name] */\n      mload(0x40)\n      tag_65\n      swap2\n      swap1\n      tag_37\n      jump\t// in\n    tag_65:\n      swap1\n      dup2\n      mstore\n      0x20\n      add\n      mload(0x40)\n      dup1\n      swap2\n      sub\n      swap1\n      keccak256\n        /* \"crowfunding.sol\":919:959  Proyect memory proyect = proyects[_name] */\n      mload(0x40)\n      dup1\n      0x80\n      add\n      0x40\n      mstore\n      swap1\n      dup2\n      0x00\n      dup3\n      add\n      sload\n      dup2\n      mstore\n      0x20\n      add\n      0x01\n      dup3\n      add\n      dup1\n      sload\n      tag_66\n      swap1\n      tag_54\n      jump\t// in\n    tag_66:\n      dup1\n      0x1f\n      add\n      0x20\n      dup1\n      swap2\n      div\n      mul\n      0x20\n      add\n      mload(0x40)\n      swap1\n      dup2\n      add\n      0x40\n      mstore\n      dup1\n      swap3\n      swap2\n      swap1\n      dup2\n      dup2\n      mstore\n      0x20\n      add\n      dup3\n      dup1\n      sload\n      tag_67\n      swap1\n      tag_54\n      jump\t// in\n    tag_67:\n      dup1\n      iszero\n      tag_68\n      jumpi\n      dup1\n      0x1f\n      lt\n      tag_69\n      jumpi\n      0x0100\n      dup1\n      dup4\n      sload\n      div\n      mul\n      dup4\n      mstore\n      swap2\n      0x20\n      add\n      swap2\n      jump(tag_68)\n    tag_69:\n      dup3\n      add\n      swap2\n      swap1\n      0x00\n      mstore\n      keccak256(0x00, 0x20)\n      swap1\n    tag_70:\n      dup2\n      sload\n      dup2\n      mstore\n      swap1\n      0x01\n      add\n      swap1\n      0x20\n      add\n      dup1\n      dup4\n      gt\n      tag_70\n      jumpi\n      dup3\n      swap1\n      sub\n      0x1f\n      and\n      dup3\n      add\n      swap2\n    tag_68:\n      pop\n      pop\n      pop\n      pop\n      pop\n      dup2\n      mstore\n      0x20\n      add\n      0x02\n      dup3\n      add\n      sload\n      dup2\n      mstore\n      0x20\n      add\n      0x03\n      dup3\n      add\n      sload\n      dup2\n      mstore\n      pop\n      pop\n      swap1\n      pop\n        /* \"crowfunding.sol\":1025:1032  _amount */\n      dup3\n        /* \"crowfunding.sol\":999:1006  proyect */\n      dup2\n        /* \"crowfunding.sol\":999:1022  proyect.collectedAmount */\n      0x60\n      add\n      mload\n        /* \"crowfunding.sol\":999:1032  proyect.collectedAmount + _amount */\n      tag_71\n      swap2\n      swap1\n      tag_47\n      jump\t// in\n    tag_71:\n        /* \"crowfunding.sol\":976:983  proyect */\n      dup2\n        /* \"crowfunding.sol\":976:996  proyect.targetAmount */\n      0x40\n      add\n      mload\n        /* \"crowfunding.sol\":976:1032  proyect.targetAmount < proyect.collectedAmount + _amount */\n      lt\n        /* \"crowfunding.sol\":969:1032  return proyect.targetAmount < proyect.collectedAmount + _amount */\n      swap2\n      pop\n      pop\n        /* \"crowfunding.sol\":750:1039  function targetAmountReached(string memory _name, uint _amount) public view returns (bool) {... */\n      swap3\n      swap2\n      pop\n      pop\n      jump\t// out\n        /* \"crowfunding.sol\":461:701  function newProyect(string memory _name, uint _target) external{... */\n    tag_26:\n        /* \"crowfunding.sol\":564:565  0 */\n      0x00\n        /* \"crowfunding.sol\":542:565  proyects[_name].Id == 0 */\n      dup1\n      shl\n        /* \"crowfunding.sol\":542:550  proyects */\n      0x01\n        /* \"crowfunding.sol\":551:556  _name */\n      dup4\n        /* \"crowfunding.sol\":542:557  proyects[_name] */\n      mload(0x40)\n      tag_73\n      swap2\n      swap1\n      tag_37\n      jump\t// in\n    tag_73:\n      swap1\n      dup2\n      mstore\n      0x20\n      add\n      mload(0x40)\n      dup1\n      swap2\n      sub\n      swap1\n      keccak256\n        /* \"crowfunding.sol\":542:560  proyects[_name].Id */\n      0x00\n      add\n      sload\n        /* \"crowfunding.sol\":542:565  proyects[_name].Id == 0 */\n      eq\n        /* \"crowfunding.sol\":534:607  require(proyects[_name].Id == 0, \"Project with this name already exists\") */\n      tag_74\n      jumpi\n      mload(0x40)\n      0x08c379a000000000000000000000000000000000000000000000000000000000\n      dup2\n      mstore\n      0x04\n      add\n      tag_75\n      swap1\n      tag_76\n      jump\t// in\n    tag_75:\n      mload(0x40)\n      dup1\n      swap2\n      sub\n      swap1\n      revert\n    tag_74:\n        /* \"crowfunding.sol\":617:630  proyectsCount */\n      0x00\n      dup1\n        /* \"crowfunding.sol\":617:632  proyectsCount++ */\n      dup2\n      sload\n      dup1\n      swap3\n      swap2\n      swap1\n      tag_77\n      swap1\n      tag_78\n      jump\t// in\n    tag_77:\n      swap2\n      swap1\n      pop\n      sstore\n      pop\n        /* \"crowfunding.sol\":660:694  Proyect(giveID(),_name,_target, 0) */\n      mload(0x40)\n      dup1\n      0x80\n      add\n      0x40\n      mstore\n      dup1\n        /* \"crowfunding.sol\":668:676  giveID() */\n      tag_79\n        /* \"crowfunding.sol\":668:674  giveID */\n      tag_80\n        /* \"crowfunding.sol\":668:676  giveID() */\n      jump\t// in\n    tag_79:\n        /* \"crowfunding.sol\":660:694  Proyect(giveID(),_name,_target, 0) */\n      dup2\n      mstore\n      0x20\n      add\n        /* \"crowfunding.sol\":677:682  _name */\n      dup4\n        /* \"crowfunding.sol\":660:694  Proyect(giveID(),_name,_target, 0) */\n      dup2\n      mstore\n      0x20\n      add\n        /* \"crowfunding.sol\":683:690  _target */\n      dup3\n        /* \"crowfunding.sol\":660:694  Proyect(giveID(),_name,_target, 0) */\n      dup2\n      mstore\n      0x20\n      add\n        /* \"crowfunding.sol\":692:693  0 */\n      0x00\n        /* \"crowfunding.sol\":660:694  Proyect(giveID(),_name,_target, 0) */\n      dup2\n      mstore\n      pop\n        /* \"crowfunding.sol\":642:650  proyects */\n      0x01\n        /* \"crowfunding.sol\":651:656  _name */\n      dup4\n        /* \"crowfunding.sol\":642:657  proyects[_name] */\n      mload(0x40)\n      tag_81\n      swap2\n      swap1\n      tag_37\n      jump\t// in\n    tag_81:\n      swap1\n      dup2\n      mstore\n      0x20\n      add\n      mload(0x40)\n      dup1\n      swap2\n      sub\n      swap1\n      keccak256\n        /* \"crowfunding.sol\":642:694  proyects[_name] = Proyect(giveID(),_name,_target, 0) */\n      0x00\n      dup3\n      add\n      mload\n      dup2\n      0x00\n      add\n      sstore\n      0x20\n      dup3\n      add\n      mload\n      dup2\n      0x01\n      add\n      swap1\n      dup2\n      tag_82\n      swap2\n      swap1\n      tag_83\n      jump\t// in\n    tag_82:\n      pop\n      0x40\n      dup3\n      add\n      mload\n      dup2\n      0x02\n      add\n      sstore\n      0x60\n      dup3\n      add\n      mload\n      dup2\n      0x03\n      add\n      sstore\n      swap1\n      pop\n      pop\n        /* \"crowfunding.sol\":461:701  function newProyect(string memory _name, uint _target) external{... */\n      pop\n      pop\n      jump\t// out\n        /* \"crowfunding.sol\":1724:2008  function proyectInfo(string memory _name) external view returns(bytes32, uint, uint){... */\n    tag_29:\n        /* \"crowfunding.sol\":1788:1795  bytes32 */\n      0x00\n        /* \"crowfunding.sol\":1797:1801  uint */\n      dup1\n        /* \"crowfunding.sol\":1803:1807  uint */\n      0x00\n        /* \"crowfunding.sol\":1848:1849  0 */\n      dup1\n        /* \"crowfunding.sol\":1826:1849  proyects[_name].Id != 0 */\n      0x00\n      shl\n        /* \"crowfunding.sol\":1826:1834  proyects */\n      0x01\n        /* \"crowfunding.sol\":1835:1840  _name */\n      dup6\n        /* \"crowfunding.sol\":1826:1841  proyects[_name] */\n      mload(0x40)\n      tag_85\n      swap2\n      swap1\n      tag_37\n      jump\t// in\n    tag_85:\n      swap1\n      dup2\n      mstore\n      0x20\n      add\n      mload(0x40)\n      dup1\n      swap2\n      sub\n      swap1\n      keccak256\n        /* \"crowfunding.sol\":1826:1844  proyects[_name].Id */\n      0x00\n      add\n      sload\n        /* \"crowfunding.sol\":1826:1849  proyects[_name].Id != 0 */\n      sub\n        /* \"crowfunding.sol\":1818:1876  require(proyects[_name].Id != 0, \"Project doesn't exists\") */\n      tag_86\n      jumpi\n      mload(0x40)\n      0x08c379a000000000000000000000000000000000000000000000000000000000\n      dup2\n      mstore\n      0x04\n      add\n      tag_87\n      swap1\n      tag_40\n      jump\t// in\n    tag_87:\n      mload(0x40)\n      dup1\n      swap2\n      sub\n      swap1\n      revert\n    tag_86:\n        /* \"crowfunding.sol\":1886:1908  Proyect memory proyect */\n      0x00\n        /* \"crowfunding.sol\":1911:1919  proyects */\n      0x01\n        /* \"crowfunding.sol\":1920:1925  _name */\n      dup6\n        /* \"crowfunding.sol\":1911:1926  proyects[_name] */\n      mload(0x40)\n      tag_88\n      swap2\n      swap1\n      tag_37\n      jump\t// in\n    tag_88:\n      swap1\n      dup2\n      mstore\n      0x20\n      add\n      mload(0x40)\n      dup1\n      swap2\n      sub\n      swap1\n      keccak256\n        /* \"crowfunding.sol\":1886:1926  Proyect memory proyect = proyects[_name] */\n      mload(0x40)\n      dup1\n      0x80\n      add\n      0x40\n      mstore\n      swap1\n      dup2\n      0x00\n      dup3\n      add\n      sload\n      dup2\n      mstore\n      0x20\n      add\n      0x01\n      dup3\n      add\n      dup1\n      sload\n      tag_89\n      swap1\n      tag_54\n      jump\t// in\n    tag_89:\n      dup1\n      0x1f\n      add\n      0x20\n      dup1\n      swap2\n      div\n      mul\n      0x20\n      add\n      mload(0x40)\n      swap1\n      dup2\n      add\n      0x40\n      mstore\n      dup1\n      swap3\n      swap2\n      swap1\n      dup2\n      dup2\n      mstore\n      0x20\n      add\n      dup3\n      dup1\n      sload\n      tag_90\n      swap1\n      tag_54\n      jump\t// in\n    tag_90:\n      dup1\n      iszero\n      tag_91\n      jumpi\n      dup1\n      0x1f\n      lt\n      tag_92\n      jumpi\n      0x0100\n      dup1\n      dup4\n      sload\n      div\n      mul\n      dup4\n      mstore\n      swap2\n      0x20\n      add\n      swap2\n      jump(tag_91)\n    tag_92:\n      dup3\n      add\n      swap2\n      swap1\n      0x00\n      mstore\n      keccak256(0x00, 0x20)\n      swap1\n    tag_93:\n      dup2\n      sload\n      dup2\n      mstore\n      swap1\n      0x01\n      add\n      swap1\n      0x20\n      add\n      dup1\n      dup4\n      gt\n      tag_93\n      jumpi\n      dup3\n      swap1\n      sub\n      0x1f\n      and\n      dup3\n      add\n      swap2\n    tag_91:\n      pop\n      pop\n      pop\n      pop\n      pop\n      dup2\n      mstore\n      0x20\n      add\n      0x02\n      dup3\n      add\n      sload\n      dup2\n      mstore\n      0x20\n      add\n      0x03\n      dup3\n      add\n      sload\n      dup2\n      mstore\n      pop\n      pop\n      swap1\n      pop\n        /* \"crowfunding.sol\":1944:1951  proyect */\n      dup1\n        /* \"crowfunding.sol\":1944:1954  proyect.Id */\n      0x00\n      add\n      mload\n        /* \"crowfunding.sol\":1955:1962  proyect */\n      dup2\n        /* \"crowfunding.sol\":1955:1975  proyect.targetAmount */\n      0x40\n      add\n      mload\n        /* \"crowfunding.sol\":1976:1983  proyect */\n      dup3\n        /* \"crowfunding.sol\":1976:1999  proyect.collectedAmount */\n      0x60\n      add\n      mload\n        /* \"crowfunding.sol\":1936:2000  return (proyect.Id,proyect.targetAmount,proyect.collectedAmount) */\n      swap4\n      pop\n      swap4\n      pop\n      swap4\n      pop\n      pop\n        /* \"crowfunding.sol\":1724:2008  function proyectInfo(string memory _name) external view returns(bytes32, uint, uint){... */\n      swap2\n      swap4\n      swap1\n      swap3\n      pop\n      jump\t// out\n        /* \"crowfunding.sol\":2044:2136  function getProyectsCount() external view returns(uint){... */\n    tag_33:\n        /* \"crowfunding.sol\":2094:2098  uint */\n      0x00\n        /* \"crowfunding.sol\":2116:2129  proyectsCount */\n      dup1\n      sload\n        /* \"crowfunding.sol\":2109:2129  return proyectsCount */\n      swap1\n      pop\n        /* \"crowfunding.sol\":2044:2136  function getProyectsCount() external view returns(uint){... */\n      swap1\n      jump\t// out\n        /* \"crowfunding.sol\":280:419  function giveID() private view returns(bytes32){... */\n    tag_80:\n        /* \"crowfunding.sol\":319:326  bytes32 */\n      0x00\n        /* \"crowfunding.sol\":371:386  block.timestamp */\n      timestamp\n        /* \"crowfunding.sol\":387:397  msg.sender */\n      caller\n        /* \"crowfunding.sol\":398:410  block.number */\n      number\n        /* \"crowfunding.sol\":354:411  abi.encodePacked(block.timestamp,msg.sender,block.number) */\n      add(0x20, mload(0x40))\n      tag_96\n      swap4\n      swap3\n      swap2\n      swap1\n      tag_97\n      jump\t// in\n    tag_96:\n      mload(0x40)\n      0x20\n      dup2\n      dup4\n      sub\n      sub\n      dup2\n      mstore\n      swap1\n      0x40\n      mstore\n        /* \"crowfunding.sol\":344:412  keccak256(abi.encodePacked(block.timestamp,msg.sender,block.number)) */\n      dup1\n      mload\n      swap1\n      0x20\n      add\n      keccak256\n        /* \"crowfunding.sol\":337:412  return keccak256(abi.encodePacked(block.timestamp,msg.sender,block.number)) */\n      swap1\n      pop\n        /* \"crowfunding.sol\":280:419  function giveID() private view returns(bytes32){... */\n      swap1\n      jump\t// out\n        /* \"#utility.yul\":7:82   */\n    tag_98:\n        /* \"#utility.yul\":40:46   */\n      0x00\n        /* \"#utility.yul\":73:75   */\n      0x40\n        /* \"#utility.yul\":67:76   */\n      mload\n        /* \"#utility.yul\":57:76   */\n      swap1\n      pop\n        /* \"#utility.yul\":7:82   */\n      swap1\n      jump\t// out\n        /* \"#utility.yul\":88:205   */\n    tag_99:\n        /* \"#utility.yul\":197:198   */\n      0x00\n        /* \"#utility.yul\":194:195   */\n      dup1\n        /* \"#utility.yul\":187:199   */\n      revert\n        /* \"#utility.yul\":211:328   */\n    tag_100:\n        /* \"#utility.yul\":320:321   */\n      0x00\n        /* \"#utility.yul\":317:318   */\n      dup1\n        /* \"#utility.yul\":310:322   */\n      revert\n        /* \"#utility.yul\":334:451   */\n    tag_101:\n        /* \"#utility.yul\":443:444   */\n      0x00\n        /* \"#utility.yul\":440:441   */\n      dup1\n        /* \"#utility.yul\":433:445   */\n      revert\n        /* \"#utility.yul\":457:574   */\n    tag_102:\n        /* \"#utility.yul\":566:567   */\n      0x00\n        /* \"#utility.yul\":563:564   */\n      dup1\n        /* \"#utility.yul\":556:568   */\n      revert\n        /* \"#utility.yul\":580:682   */\n    tag_103:\n        /* \"#utility.yul\":621:627   */\n      0x00\n        /* \"#utility.yul\":672:674   */\n      0x1f\n        /* \"#utility.yul\":668:675   */\n      not\n        /* \"#utility.yul\":663:665   */\n      0x1f\n        /* \"#utility.yul\":656:661   */\n      dup4\n        /* \"#utility.yul\":652:666   */\n      add\n        /* \"#utility.yul\":648:676   */\n      and\n        /* \"#utility.yul\":638:676   */\n      swap1\n      pop\n        /* \"#utility.yul\":580:682   */\n      swap2\n      swap1\n      pop\n      jump\t// out\n        /* \"#utility.yul\":688:868   */\n    tag_104:\n        /* \"#utility.yul\":736:813   */\n      0x4e487b7100000000000000000000000000000000000000000000000000000000\n        /* \"#utility.yul\":733:734   */\n      0x00\n        /* \"#utility.yul\":726:814   */\n      mstore\n        /* \"#utility.yul\":833:837   */\n      0x41\n        /* \"#utility.yul\":830:831   */\n      0x04\n        /* \"#utility.yul\":823:838   */\n      mstore\n        /* \"#utility.yul\":857:861   */\n      0x24\n        /* \"#utility.yul\":854:855   */\n      0x00\n        /* \"#utility.yul\":847:862   */\n      revert\n        /* \"#utility.yul\":874:1155   */\n    tag_105:\n        /* \"#utility.yul\":957:984   */\n      tag_164\n        /* \"#utility.yul\":979:983   */\n      dup3\n        /* \"#utility.yul\":957:984   */\n      tag_103\n      jump\t// in\n    tag_164:\n        /* \"#utility.yul\":949:955   */\n      dup2\n        /* \"#utility.yul\":945:985   */\n      add\n        /* \"#utility.yul\":1087:1093   */\n      dup2\n        /* \"#utility.yul\":1075:1085   */\n      dup2\n        /* \"#utility.yul\":1072:1094   */\n      lt\n        /* \"#utility.yul\":1051:1069   */\n      0xffffffffffffffff\n        /* \"#utility.yul\":1039:1049   */\n      dup3\n        /* \"#utility.yul\":1036:1070   */\n      gt\n        /* \"#utility.yul\":1033:1095   */\n      or\n        /* \"#utility.yul\":1030:1118   */\n      iszero\n      tag_165\n      jumpi\n        /* \"#utility.yul\":1098:1116   */\n      tag_166\n      tag_104\n      jump\t// in\n    tag_166:\n        /* \"#utility.yul\":1030:1118   */\n    tag_165:\n        /* \"#utility.yul\":1138:1148   */\n      dup1\n        /* \"#utility.yul\":1134:1136   */\n      0x40\n        /* \"#utility.yul\":1127:1149   */\n      mstore\n        /* \"#utility.yul\":917:1155   */\n      pop\n        /* \"#utility.yul\":874:1155   */\n      pop\n      pop\n      jump\t// out\n        /* \"#utility.yul\":1161:1290   */\n    tag_106:\n        /* \"#utility.yul\":1195:1201   */\n      0x00\n        /* \"#utility.yul\":1222:1242   */\n      tag_168\n      tag_98\n      jump\t// in\n    tag_168:\n        /* \"#utility.yul\":1212:1242   */\n      swap1\n      pop\n        /* \"#utility.yul\":1251:1284   */\n      tag_169\n        /* \"#utility.yul\":1279:1283   */\n      dup3\n        /* \"#utility.yul\":1271:1277   */\n      dup3\n        /* \"#utility.yul\":1251:1284   */\n      tag_105\n      jump\t// in\n    tag_169:\n        /* \"#utility.yul\":1161:1290   */\n      swap2\n      swap1\n      pop\n      jump\t// out\n        /* \"#utility.yul\":1296:1604   */\n    tag_107:\n        /* \"#utility.yul\":1358:1362   */\n      0x00\n        /* \"#utility.yul\":1448:1466   */\n      0xffffffffffffffff\n        /* \"#utility.yul\":1440:1446   */\n      dup3\n        /* \"#utility.yul\":1437:1467   */\n      gt\n        /* \"#utility.yul\":1434:1490   */\n      iszero\n      tag_171\n      jumpi\n        /* \"#utility.yul\":1470:1488   */\n      tag_172\n      tag_104\n      jump\t// in\n    tag_172:\n        /* \"#utility.yul\":1434:1490   */\n    tag_171:\n        /* \"#utility.yul\":1508:1537   */\n      tag_173\n        /* \"#utility.yul\":1530:1536   */\n      dup3\n        /* \"#utility.yul\":1508:1537   */\n      tag_103\n      jump\t// in\n    tag_173:\n        /* \"#utility.yul\":1500:1537   */\n      swap1\n      pop\n        /* \"#utility.yul\":1592:1596   */\n      0x20\n        /* \"#utility.yul\":1586:1590   */\n      dup2\n        /* \"#utility.yul\":1582:1597   */\n      add\n        /* \"#utility.yul\":1574:1597   */\n      swap1\n      pop\n        /* \"#utility.yul\":1296:1604   */\n      swap2\n      swap1\n      pop\n      jump\t// out\n        /* \"#utility.yul\":1610:1756   */\n    tag_108:\n        /* \"#utility.yul\":1707:1713   */\n      dup3\n        /* \"#utility.yul\":1702:1705   */\n      dup2\n        /* \"#utility.yul\":1697:1700   */\n      dup4\n        /* \"#utility.yul\":1684:1714   */\n      calldatacopy\n        /* \"#utility.yul\":1748:1749   */\n      0x00\n        /* \"#utility.yul\":1739:1745   */\n      dup4\n        /* \"#utility.yul\":1734:1737   */\n      dup4\n        /* \"#utility.yul\":1730:1746   */\n      add\n        /* \"#utility.yul\":1723:1750   */\n      mstore\n        /* \"#utility.yul\":1610:1756   */\n      pop\n      pop\n      pop\n      jump\t// out\n        /* \"#utility.yul\":1762:2187   */\n    tag_109:\n        /* \"#utility.yul\":1840:1845   */\n      0x00\n        /* \"#utility.yul\":1865:1931   */\n      tag_176\n        /* \"#utility.yul\":1881:1930   */\n      tag_177\n        /* \"#utility.yul\":1923:1929   */\n      dup5\n        /* \"#utility.yul\":1881:1930   */\n      tag_107\n      jump\t// in\n    tag_177:\n        /* \"#utility.yul\":1865:1931   */\n      tag_106\n      jump\t// in\n    tag_176:\n        /* \"#utility.yul\":1856:1931   */\n      swap1\n      pop\n        /* \"#utility.yul\":1954:1960   */\n      dup3\n        /* \"#utility.yul\":1947:1952   */\n      dup2\n        /* \"#utility.yul\":1940:1961   */\n      mstore\n        /* \"#utility.yul\":1992:1996   */\n      0x20\n        /* \"#utility.yul\":1985:1990   */\n      dup2\n        /* \"#utility.yul\":1981:1997   */\n      add\n        /* \"#utility.yul\":2030:2033   */\n      dup5\n        /* \"#utility.yul\":2021:2027   */\n      dup5\n        /* \"#utility.yul\":2016:2019   */\n      dup5\n        /* \"#utility.yul\":2012:2028   */\n      add\n        /* \"#utility.yul\":2009:2034   */\n      gt\n        /* \"#utility.yul\":2006:2118   */\n      iszero\n      tag_178\n      jumpi\n        /* \"#utility.yul\":2037:2116   */\n      tag_179\n      tag_102\n      jump\t// in\n    tag_179:\n        /* \"#utility.yul\":2006:2118   */\n    tag_178:\n        /* \"#utility.yul\":2127:2181   */\n      tag_180\n        /* \"#utility.yul\":2174:2180   */\n      dup5\n        /* \"#utility.yul\":2169:2172   */\n      dup3\n        /* \"#utility.yul\":2164:2167   */\n      dup6\n        /* \"#utility.yul\":2127:2181   */\n      tag_108\n      jump\t// in\n    tag_180:\n        /* \"#utility.yul\":1846:2187   */\n      pop\n        /* \"#utility.yul\":1762:2187   */\n      swap4\n      swap3\n      pop\n      pop\n      pop\n      jump\t// out\n        /* \"#utility.yul\":2207:2547   */\n    tag_110:\n        /* \"#utility.yul\":2263:2268   */\n      0x00\n        /* \"#utility.yul\":2312:2315   */\n      dup3\n        /* \"#utility.yul\":2305:2309   */\n      0x1f\n        /* \"#utility.yul\":2297:2303   */\n      dup4\n        /* \"#utility.yul\":2293:2310   */\n      add\n        /* \"#utility.yul\":2289:2316   */\n      slt\n        /* \"#utility.yul\":2279:2401   */\n      tag_182\n      jumpi\n        /* \"#utility.yul\":2320:2399   */\n      tag_183\n      tag_101\n      jump\t// in\n    tag_183:\n        /* \"#utility.yul\":2279:2401   */\n    tag_182:\n        /* \"#utility.yul\":2437:2443   */\n      dup2\n        /* \"#utility.yul\":2424:2444   */\n      calldataload\n        /* \"#utility.yul\":2462:2541   */\n      tag_184\n        /* \"#utility.yul\":2537:2540   */\n      dup5\n        /* \"#utility.yul\":2529:2535   */\n      dup3\n        /* \"#utility.yul\":2522:2526   */\n      0x20\n        /* \"#utility.yul\":2514:2520   */\n      dup7\n        /* \"#utility.yul\":2510:2527   */\n      add\n        /* \"#utility.yul\":2462:2541   */\n      tag_109\n      jump\t// in\n    tag_184:\n        /* \"#utility.yul\":2453:2541   */\n      swap2\n      pop\n        /* \"#utility.yul\":2269:2547   */\n      pop\n        /* \"#utility.yul\":2207:2547   */\n      swap3\n      swap2\n      pop\n      pop\n      jump\t// out\n        /* \"#utility.yul\":2553:2630   */\n    tag_111:\n        /* \"#utility.yul\":2590:2597   */\n      0x00\n        /* \"#utility.yul\":2619:2624   */\n      dup2\n        /* \"#utility.yul\":2608:2624   */\n      swap1\n      pop\n        /* \"#utility.yul\":2553:2630   */\n      swap2\n      swap1\n      pop\n      jump\t// out\n        /* \"#utility.yul\":2636:2758   */\n    tag_112:\n        /* \"#utility.yul\":2709:2733   */\n      tag_187\n        /* \"#utility.yul\":2727:2732   */\n      dup2\n        /* \"#utility.yul\":2709:2733   */\n      tag_111\n      jump\t// in\n    tag_187:\n        /* \"#utility.yul\":2702:2707   */\n      dup2\n        /* \"#utility.yul\":2699:2734   */\n      eq\n        /* \"#utility.yul\":2689:2752   */\n      tag_188\n      jumpi\n        /* \"#utility.yul\":2748:2749   */\n      0x00\n        /* \"#utility.yul\":2745:2746   */\n      dup1\n        /* \"#utility.yul\":2738:2750   */\n      revert\n        /* \"#utility.yul\":2689:2752   */\n    tag_188:\n        /* \"#utility.yul\":2636:2758   */\n      pop\n      jump\t// out\n        /* \"#utility.yul\":2764:2903   */\n    tag_113:\n        /* \"#utility.yul\":2810:2815   */\n      0x00\n        /* \"#utility.yul\":2848:2854   */\n      dup2\n        /* \"#utility.yul\":2835:2855   */\n      calldataload\n        /* \"#utility.yul\":2826:2855   */\n      swap1\n      pop\n        /* \"#utility.yul\":2864:2897   */\n      tag_190\n        /* \"#utility.yul\":2891:2896   */\n      dup2\n        /* \"#utility.yul\":2864:2897   */\n      tag_112\n      jump\t// in\n    tag_190:\n        /* \"#utility.yul\":2764:2903   */\n      swap3\n      swap2\n      pop\n      pop\n      jump\t// out\n        /* \"#utility.yul\":2909:3563   */\n    tag_11:\n        /* \"#utility.yul\":2987:2993   */\n      0x00\n        /* \"#utility.yul\":2995:3001   */\n      dup1\n        /* \"#utility.yul\":3044:3046   */\n      0x40\n        /* \"#utility.yul\":3032:3041   */\n      dup4\n        /* \"#utility.yul\":3023:3030   */\n      dup6\n        /* \"#utility.yul\":3019:3042   */\n      sub\n        /* \"#utility.yul\":3015:3047   */\n      slt\n        /* \"#utility.yul\":3012:3131   */\n      iszero\n      tag_192\n      jumpi\n        /* \"#utility.yul\":3050:3129   */\n      tag_193\n      tag_99\n      jump\t// in\n    tag_193:\n        /* \"#utility.yul\":3012:3131   */\n    tag_192:\n        /* \"#utility.yul\":3198:3199   */\n      0x00\n        /* \"#utility.yul\":3187:3196   */\n      dup4\n        /* \"#utility.yul\":3183:3200   */\n      add\n        /* \"#utility.yul\":3170:3201   */\n      calldataload\n        /* \"#utility.yul\":3228:3246   */\n      0xffffffffffffffff\n        /* \"#utility.yul\":3220:3226   */\n      dup2\n        /* \"#utility.yul\":3217:3247   */\n      gt\n        /* \"#utility.yul\":3214:3331   */\n      iszero\n      tag_194\n      jumpi\n        /* \"#utility.yul\":3250:3329   */\n      tag_195\n      tag_100\n      jump\t// in\n    tag_195:\n        /* \"#utility.yul\":3214:3331   */\n    tag_194:\n        /* \"#utility.yul\":3355:3418   */\n      tag_196\n        /* \"#utility.yul\":3410:3417   */\n      dup6\n        /* \"#utility.yul\":3401:3407   */\n      dup3\n        /* \"#utility.yul\":3390:3399   */\n      dup7\n        /* \"#utility.yul\":3386:3408   */\n      add\n        /* \"#utility.yul\":3355:3418   */\n      tag_110\n      jump\t// in\n    tag_196:\n        /* \"#utility.yul\":3345:3418   */\n      swap3\n      pop\n        /* \"#utility.yul\":3141:3428   */\n      pop\n        /* \"#utility.yul\":3467:3469   */\n      0x20\n        /* \"#utility.yul\":3493:3546   */\n      tag_197\n        /* \"#utility.yul\":3538:3545   */\n      dup6\n        /* \"#utility.yul\":3529:3535   */\n      dup3\n        /* \"#utility.yul\":3518:3527   */\n      dup7\n        /* \"#utility.yul\":3514:3536   */\n      add\n        /* \"#utility.yul\":3493:3546   */\n      tag_113\n      jump\t// in\n    tag_197:\n        /* \"#utility.yul\":3483:3546   */\n      swap2\n      pop\n        /* \"#utility.yul\":3438:3556   */\n      pop\n        /* \"#utility.yul\":2909:3563   */\n      swap3\n      pop\n      swap3\n      swap1\n      pop\n      jump\t// out\n        /* \"#utility.yul\":3569:4078   */\n    tag_15:\n        /* \"#utility.yul\":3638:3644   */\n      0x00\n        /* \"#utility.yul\":3687:3689   */\n      0x20\n        /* \"#utility.yul\":3675:3684   */\n      dup3\n        /* \"#utility.yul\":3666:3673   */\n      dup5\n        /* \"#utility.yul\":3662:3685   */\n      sub\n        /* \"#utility.yul\":3658:3690   */\n      slt\n        /* \"#utility.yul\":3655:3774   */\n      iszero\n      tag_199\n      jumpi\n        /* \"#utility.yul\":3693:3772   */\n      tag_200\n      tag_99\n      jump\t// in\n    tag_200:\n        /* \"#utility.yul\":3655:3774   */\n    tag_199:\n        /* \"#utility.yul\":3841:3842   */\n      0x00\n        /* \"#utility.yul\":3830:3839   */\n      dup3\n        /* \"#utility.yul\":3826:3843   */\n      add\n        /* \"#utility.yul\":3813:3844   */\n      calldataload\n        /* \"#utility.yul\":3871:3889   */\n      0xffffffffffffffff\n        /* \"#utility.yul\":3863:3869   */\n      dup2\n        /* \"#utility.yul\":3860:3890   */\n      gt\n        /* \"#utility.yul\":3857:3974   */\n      iszero\n      tag_201\n      jumpi\n        /* \"#utility.yul\":3893:3972   */\n      tag_202\n      tag_100\n      jump\t// in\n    tag_202:\n        /* \"#utility.yul\":3857:3974   */\n    tag_201:\n        /* \"#utility.yul\":3998:4061   */\n      tag_203\n        /* \"#utility.yul\":4053:4060   */\n      dup5\n        /* \"#utility.yul\":4044:4050   */\n      dup3\n        /* \"#utility.yul\":4033:4042   */\n      dup6\n        /* \"#utility.yul\":4029:4051   */\n      add\n        /* \"#utility.yul\":3998:4061   */\n      tag_110\n      jump\t// in\n    tag_203:\n        /* \"#utility.yul\":3988:4061   */\n      swap2\n      pop\n        /* \"#utility.yul\":3784:4071   */\n      pop\n        /* \"#utility.yul\":3569:4078   */\n      swap3\n      swap2\n      pop\n      pop\n      jump\t// out\n        /* \"#utility.yul\":4084:4202   */\n    tag_114:\n        /* \"#utility.yul\":4171:4195   */\n      tag_205\n        /* \"#utility.yul\":4189:4194   */\n      dup2\n        /* \"#utility.yul\":4171:4195   */\n      tag_111\n      jump\t// in\n    tag_205:\n        /* \"#utility.yul\":4166:4169   */\n      dup3\n        /* \"#utility.yul\":4159:4196   */\n      mstore\n        /* \"#utility.yul\":4084:4202   */\n      pop\n      pop\n      jump\t// out\n        /* \"#utility.yul\":4208:4430   */\n    tag_18:\n        /* \"#utility.yul\":4301:4305   */\n      0x00\n        /* \"#utility.yul\":4339:4341   */\n      0x20\n        /* \"#utility.yul\":4328:4337   */\n      dup3\n        /* \"#utility.yul\":4324:4342   */\n      add\n        /* \"#utility.yul\":4316:4342   */\n      swap1\n      pop\n        /* \"#utility.yul\":4352:4423   */\n      tag_207\n        /* \"#utility.yul\":4420:4421   */\n      0x00\n        /* \"#utility.yul\":4409:4418   */\n      dup4\n        /* \"#utility.yul\":4405:4422   */\n      add\n        /* \"#utility.yul\":4396:4402   */\n      dup5\n        /* \"#utility.yul\":4352:4423   */\n      tag_114\n      jump\t// in\n    tag_207:\n        /* \"#utility.yul\":4208:4430   */\n      swap3\n      swap2\n      pop\n      pop\n      jump\t// out\n        /* \"#utility.yul\":4436:4526   */\n    tag_115:\n        /* \"#utility.yul\":4470:4477   */\n      0x00\n        /* \"#utility.yul\":4513:4518   */\n      dup2\n        /* \"#utility.yul\":4506:4519   */\n      iszero\n        /* \"#utility.yul\":4499:4520   */\n      iszero\n        /* \"#utility.yul\":4488:4520   */\n      swap1\n      pop\n        /* \"#utility.yul\":4436:4526   */\n      swap2\n      swap1\n      pop\n      jump\t// out\n        /* \"#utility.yul\":4532:4641   */\n    tag_116:\n        /* \"#utility.yul\":4613:4634   */\n      tag_210\n        /* \"#utility.yul\":4628:4633   */\n      dup2\n        /* \"#utility.yul\":4613:4634   */\n      tag_115\n      jump\t// in\n    tag_210:\n        /* \"#utility.yul\":4608:4611   */\n      dup3\n        /* \"#utility.yul\":4601:4635   */\n      mstore\n        /* \"#utility.yul\":4532:4641   */\n      pop\n      pop\n      jump\t// out\n        /* \"#utility.yul\":4647:4857   */\n    tag_23:\n        /* \"#utility.yul\":4734:4738   */\n      0x00\n        /* \"#utility.yul\":4772:4774   */\n      0x20\n        /* \"#utility.yul\":4761:4770   */\n      dup3\n        /* \"#utility.yul\":4757:4775   */\n      add\n        /* \"#utility.yul\":4749:4775   */\n      swap1\n      pop\n        /* \"#utility.yul\":4785:4850   */\n      tag_212\n        /* \"#utility.yul\":4847:4848   */\n      0x00\n        /* \"#utility.yul\":4836:4845   */\n      dup4\n        /* \"#utility.yul\":4832:4849   */\n      add\n        /* \"#utility.yul\":4823:4829   */\n      dup5\n        /* \"#utility.yul\":4785:4850   */\n      tag_116\n      jump\t// in\n    tag_212:\n        /* \"#utility.yul\":4647:4857   */\n      swap3\n      swap2\n      pop\n      pop\n      jump\t// out\n        /* \"#utility.yul\":4863:4940   */\n    tag_117:\n        /* \"#utility.yul\":4900:4907   */\n      0x00\n        /* \"#utility.yul\":4929:4934   */\n      dup2\n        /* \"#utility.yul\":4918:4934   */\n      swap1\n      pop\n        /* \"#utility.yul\":4863:4940   */\n      swap2\n      swap1\n      pop\n      jump\t// out\n        /* \"#utility.yul\":4946:5064   */\n    tag_118:\n        /* \"#utility.yul\":5033:5057   */\n      tag_215\n        /* \"#utility.yul\":5051:5056   */\n      dup2\n        /* \"#utility.yul\":5033:5057   */\n      tag_117\n      jump\t// in\n    tag_215:\n        /* \"#utility.yul\":5028:5031   */\n      dup3\n        /* \"#utility.yul\":5021:5058   */\n      mstore\n        /* \"#utility.yul\":4946:5064   */\n      pop\n      pop\n      jump\t// out\n        /* \"#utility.yul\":5070:5512   */\n    tag_31:\n        /* \"#utility.yul\":5219:5223   */\n      0x00\n        /* \"#utility.yul\":5257:5259   */\n      0x60\n        /* \"#utility.yul\":5246:5255   */\n      dup3\n        /* \"#utility.yul\":5242:5260   */\n      add\n        /* \"#utility.yul\":5234:5260   */\n      swap1\n      pop\n        /* \"#utility.yul\":5270:5341   */\n      tag_217\n        /* \"#utility.yul\":5338:5339   */\n      0x00\n        /* \"#utility.yul\":5327:5336   */\n      dup4\n        /* \"#utility.yul\":5323:5340   */\n      add\n        /* \"#utility.yul\":5314:5320   */\n      dup7\n        /* \"#utility.yul\":5270:5341   */\n      tag_118\n      jump\t// in\n    tag_217:\n        /* \"#utility.yul\":5351:5423   */\n      tag_218\n        /* \"#utility.yul\":5419:5421   */\n      0x20\n        /* \"#utility.yul\":5408:5417   */\n      dup4\n        /* \"#utility.yul\":5404:5422   */\n      add\n        /* \"#utility.yul\":5395:5401   */\n      dup6\n        /* \"#utility.yul\":5351:5423   */\n      tag_114\n      jump\t// in\n    tag_218:\n        /* \"#utility.yul\":5433:5505   */\n      tag_219\n        /* \"#utility.yul\":5501:5503   */\n      0x40\n        /* \"#utility.yul\":5490:5499   */\n      dup4\n        /* \"#utility.yul\":5486:5504   */\n      add\n        /* \"#utility.yul\":5477:5483   */\n      dup5\n        /* \"#utility.yul\":5433:5505   */\n      tag_114\n      jump\t// in\n    tag_219:\n        /* \"#utility.yul\":5070:5512   */\n      swap5\n      swap4\n      pop\n      pop\n      pop\n      pop\n      jump\t// out\n        /* \"#utility.yul\":5518:5617   */\n    tag_119:\n        /* \"#utility.yul\":5570:5576   */\n      0x00\n        /* \"#utility.yul\":5604:5609   */\n      dup2\n        /* \"#utility.yul\":5598:5610   */\n      mload\n        /* \"#utility.yul\":5588:5610   */\n      swap1\n      pop\n        /* \"#utility.yul\":5518:5617   */\n      swap2\n      swap1\n      pop\n      jump\t// out\n        /* \"#utility.yul\":5623:5771   */\n    tag_120:\n        /* \"#utility.yul\":5725:5736   */\n      0x00\n        /* \"#utility.yul\":5762:5765   */\n      dup2\n        /* \"#utility.yul\":5747:5765   */\n      swap1\n      pop\n        /* \"#utility.yul\":5623:5771   */\n      swap3\n      swap2\n      pop\n      pop\n      jump\t// out\n        /* \"#utility.yul\":5777:6023   */\n    tag_121:\n        /* \"#utility.yul\":5858:5859   */\n      0x00\n        /* \"#utility.yul\":5868:5981   */\n    tag_223:\n        /* \"#utility.yul\":5882:5888   */\n      dup4\n        /* \"#utility.yul\":5879:5880   */\n      dup2\n        /* \"#utility.yul\":5876:5889   */\n      lt\n        /* \"#utility.yul\":5868:5981   */\n      iszero\n      tag_225\n      jumpi\n        /* \"#utility.yul\":5967:5968   */\n      dup1\n        /* \"#utility.yul\":5962:5965   */\n      dup3\n        /* \"#utility.yul\":5958:5969   */\n      add\n        /* \"#utility.yul\":5952:5970   */\n      mload\n        /* \"#utility.yul\":5948:5949   */\n      dup2\n        /* \"#utility.yul\":5943:5946   */\n      dup5\n        /* \"#utility.yul\":5939:5950   */\n      add\n        /* \"#utility.yul\":5932:5971   */\n      mstore\n        /* \"#utility.yul\":5904:5906   */\n      0x20\n        /* \"#utility.yul\":5901:5902   */\n      dup2\n        /* \"#utility.yul\":5897:5907   */\n      add\n        /* \"#utility.yul\":5892:5907   */\n      swap1\n      pop\n        /* \"#utility.yul\":5868:5981   */\n      jump(tag_223)\n    tag_225:\n        /* \"#utility.yul\":6015:6016   */\n      0x00\n        /* \"#utility.yul\":6006:6012   */\n      dup5\n        /* \"#utility.yul\":6001:6004   */\n      dup5\n        /* \"#utility.yul\":5997:6013   */\n      add\n        /* \"#utility.yul\":5990:6017   */\n      mstore\n        /* \"#utility.yul\":5839:6023   */\n      pop\n        /* \"#utility.yul\":5777:6023   */\n      pop\n      pop\n      pop\n      jump\t// out\n        /* \"#utility.yul\":6029:6419   */\n    tag_122:\n        /* \"#utility.yul\":6135:6138   */\n      0x00\n        /* \"#utility.yul\":6163:6202   */\n      tag_227\n        /* \"#utility.yul\":6196:6201   */\n      dup3\n        /* \"#utility.yul\":6163:6202   */\n      tag_119\n      jump\t// in\n    tag_227:\n        /* \"#utility.yul\":6218:6307   */\n      tag_228\n        /* \"#utility.yul\":6300:6306   */\n      dup2\n        /* \"#utility.yul\":6295:6298   */\n      dup6\n        /* \"#utility.yul\":6218:6307   */\n      tag_120\n      jump\t// in\n    tag_228:\n        /* \"#utility.yul\":6211:6307   */\n      swap4\n      pop\n        /* \"#utility.yul\":6316:6381   */\n      tag_229\n        /* \"#utility.yul\":6374:6380   */\n      dup2\n        /* \"#utility.yul\":6369:6372   */\n      dup6\n        /* \"#utility.yul\":6362:6366   */\n      0x20\n        /* \"#utility.yul\":6355:6360   */\n      dup7\n        /* \"#utility.yul\":6351:6367   */\n      add\n        /* \"#utility.yul\":6316:6381   */\n      tag_121\n      jump\t// in\n    tag_229:\n        /* \"#utility.yul\":6406:6412   */\n      dup1\n        /* \"#utility.yul\":6401:6404   */\n      dup5\n        /* \"#utility.yul\":6397:6413   */\n      add\n        /* \"#utility.yul\":6390:6413   */\n      swap2\n      pop\n        /* \"#utility.yul\":6139:6419   */\n      pop\n        /* \"#utility.yul\":6029:6419   */\n      swap3\n      swap2\n      pop\n      pop\n      jump\t// out\n        /* \"#utility.yul\":6425:6700   */\n    tag_37:\n        /* \"#utility.yul\":6557:6560   */\n      0x00\n        /* \"#utility.yul\":6579:6674   */\n      tag_231\n        /* \"#utility.yul\":6670:6673   */\n      dup3\n        /* \"#utility.yul\":6661:6667   */\n      dup5\n        /* \"#utility.yul\":6579:6674   */\n      tag_122\n      jump\t// in\n    tag_231:\n        /* \"#utility.yul\":6572:6674   */\n      swap2\n      pop\n        /* \"#utility.yul\":6691:6694   */\n      dup2\n        /* \"#utility.yul\":6684:6694   */\n      swap1\n      pop\n        /* \"#utility.yul\":6425:6700   */\n      swap3\n      swap2\n      pop\n      pop\n      jump\t// out\n        /* \"#utility.yul\":6706:6875   */\n    tag_123:\n        /* \"#utility.yul\":6790:6801   */\n      0x00\n        /* \"#utility.yul\":6824:6830   */\n      dup3\n        /* \"#utility.yul\":6819:6822   */\n      dup3\n        /* \"#utility.yul\":6812:6831   */\n      mstore\n        /* \"#utility.yul\":6864:6868   */\n      0x20\n        /* \"#utility.yul\":6859:6862   */\n      dup3\n        /* \"#utility.yul\":6855:6869   */\n      add\n        /* \"#utility.yul\":6840:6869   */\n      swap1\n      pop\n        /* \"#utility.yul\":6706:6875   */\n      swap3\n      swap2\n      pop\n      pop\n      jump\t// out\n        /* \"#utility.yul\":6881:7053   */\n    tag_124:\n        /* \"#utility.yul\":7021:7045   */\n      0x50726f6a65637420646f65736e27742065786973747300000000000000000000\n        /* \"#utility.yul\":7017:7018   */\n      0x00\n        /* \"#utility.yul\":7009:7015   */\n      dup3\n        /* \"#utility.yul\":7005:7019   */\n      add\n        /* \"#utility.yul\":6998:7046   */\n      mstore\n        /* \"#utility.yul\":6881:7053   */\n      pop\n      jump\t// out\n        /* \"#utility.yul\":7059:7425   */\n    tag_125:\n        /* \"#utility.yul\":7201:7204   */\n      0x00\n        /* \"#utility.yul\":7222:7289   */\n      tag_235\n        /* \"#utility.yul\":7286:7288   */\n      0x16\n        /* \"#utility.yul\":7281:7284   */\n      dup4\n        /* \"#utility.yul\":7222:7289   */\n      tag_123\n      jump\t// in\n    tag_235:\n        /* \"#utility.yul\":7215:7289   */\n      swap2\n      pop\n        /* \"#utility.yul\":7298:7391   */\n      tag_236\n        /* \"#utility.yul\":7387:7390   */\n      dup3\n        /* \"#utility.yul\":7298:7391   */\n      tag_124\n      jump\t// in\n    tag_236:\n        /* \"#utility.yul\":7416:7418   */\n      0x20\n        /* \"#utility.yul\":7411:7414   */\n      dup3\n        /* \"#utility.yul\":7407:7419   */\n      add\n        /* \"#utility.yul\":7400:7419   */\n      swap1\n      pop\n        /* \"#utility.yul\":7059:7425   */\n      swap2\n      swap1\n      pop\n      jump\t// out\n        /* \"#utility.yul\":7431:7850   */\n    tag_40:\n        /* \"#utility.yul\":7597:7601   */\n      0x00\n        /* \"#utility.yul\":7635:7637   */\n      0x20\n        /* \"#utility.yul\":7624:7633   */\n      dup3\n        /* \"#utility.yul\":7620:7638   */\n      add\n        /* \"#utility.yul\":7612:7638   */\n      swap1\n      pop\n        /* \"#utility.yul\":7684:7693   */\n      dup2\n        /* \"#utility.yul\":7678:7682   */\n      dup2\n        /* \"#utility.yul\":7674:7694   */\n      sub\n        /* \"#utility.yul\":7670:7671   */\n      0x00\n        /* \"#utility.yul\":7659:7668   */\n      dup4\n        /* \"#utility.yul\":7655:7672   */\n      add\n        /* \"#utility.yul\":7648:7695   */\n      mstore\n        /* \"#utility.yul\":7712:7843   */\n      tag_238\n        /* \"#utility.yul\":7838:7842   */\n      dup2\n        /* \"#utility.yul\":7712:7843   */\n      tag_125\n      jump\t// in\n    tag_238:\n        /* \"#utility.yul\":7704:7843   */\n      swap1\n      pop\n        /* \"#utility.yul\":7431:7850   */\n      swap2\n      swap1\n      pop\n      jump\t// out\n        /* \"#utility.yul\":7856:8027   */\n    tag_126:\n        /* \"#utility.yul\":7996:8019   */\n      0x54415247455420414d4f554e5420524541434845440000000000000000000000\n        /* \"#utility.yul\":7992:7993   */\n      0x00\n        /* \"#utility.yul\":7984:7990   */\n      dup3\n        /* \"#utility.yul\":7980:7994   */\n      add\n        /* \"#utility.yul\":7973:8020   */\n      mstore\n        /* \"#utility.yul\":7856:8027   */\n      pop\n      jump\t// out\n        /* \"#utility.yul\":8033:8399   */\n    tag_127:\n        /* \"#utility.yul\":8175:8178   */\n      0x00\n        /* \"#utility.yul\":8196:8263   */\n      tag_241\n        /* \"#utility.yul\":8260:8262   */\n      0x15\n        /* \"#utility.yul\":8255:8258   */\n      dup4\n        /* \"#utility.yul\":8196:8263   */\n      tag_123\n      jump\t// in\n    tag_241:\n        /* \"#utility.yul\":8189:8263   */\n      swap2\n      pop\n        /* \"#utility.yul\":8272:8365   */\n      tag_242\n        /* \"#utility.yul\":8361:8364   */\n      dup3\n        /* \"#utility.yul\":8272:8365   */\n      tag_126\n      jump\t// in\n    tag_242:\n        /* \"#utility.yul\":8390:8392   */\n      0x20\n        /* \"#utility.yul\":8385:8388   */\n      dup3\n        /* \"#utility.yul\":8381:8393   */\n      add\n        /* \"#utility.yul\":8374:8393   */\n      swap1\n      pop\n        /* \"#utility.yul\":8033:8399   */\n      swap2\n      swap1\n      pop\n      jump\t// out\n        /* \"#utility.yul\":8405:8824   */\n    tag_44:\n        /* \"#utility.yul\":8571:8575   */\n      0x00\n        /* \"#utility.yul\":8609:8611   */\n      0x20\n        /* \"#utility.yul\":8598:8607   */\n      dup3\n        /* \"#utility.yul\":8594:8612   */\n      add\n        /* \"#utility.yul\":8586:8612   */\n      swap1\n      pop\n        /* \"#utility.yul\":8658:8667   */\n      dup2\n        /* \"#utility.yul\":8652:8656   */\n      dup2\n        /* \"#utility.yul\":8648:8668   */\n      sub\n        /* \"#utility.yul\":8644:8645   */\n      0x00\n        /* \"#utility.yul\":8633:8642   */\n      dup4\n        /* \"#utility.yul\":8629:8646   */\n      add\n        /* \"#utility.yul\":8622:8669   */\n      mstore\n        /* \"#utility.yul\":8686:8817   */\n      tag_244\n        /* \"#utility.yul\":8812:8816   */\n      dup2\n        /* \"#utility.yul\":8686:8817   */\n      tag_127\n      jump\t// in\n    tag_244:\n        /* \"#utility.yul\":8678:8817   */\n      swap1\n      pop\n        /* \"#utility.yul\":8405:8824   */\n      swap2\n      swap1\n      pop\n      jump\t// out\n        /* \"#utility.yul\":8830:9010   */\n    tag_128:\n        /* \"#utility.yul\":8878:8955   */\n      0x4e487b7100000000000000000000000000000000000000000000000000000000\n        /* \"#utility.yul\":8875:8876   */\n      0x00\n        /* \"#utility.yul\":8868:8956   */\n      mstore\n        /* \"#utility.yul\":8975:8979   */\n      0x11\n        /* \"#utility.yul\":8972:8973   */\n      0x04\n        /* \"#utility.yul\":8965:8980   */\n      mstore\n        /* \"#utility.yul\":8999:9003   */\n      0x24\n        /* \"#utility.yul\":8996:8997   */\n      0x00\n        /* \"#utility.yul\":8989:9004   */\n      revert\n        /* \"#utility.yul\":9016:9207   */\n    tag_47:\n        /* \"#utility.yul\":9056:9059   */\n      0x00\n        /* \"#utility.yul\":9075:9095   */\n      tag_247\n        /* \"#utility.yul\":9093:9094   */\n      dup3\n        /* \"#utility.yul\":9075:9095   */\n      tag_111\n      jump\t// in\n    tag_247:\n        /* \"#utility.yul\":9070:9095   */\n      swap2\n      pop\n        /* \"#utility.yul\":9109:9129   */\n      tag_248\n        /* \"#utility.yul\":9127:9128   */\n      dup4\n        /* \"#utility.yul\":9109:9129   */\n      tag_111\n      jump\t// in\n    tag_248:\n        /* \"#utility.yul\":9104:9129   */\n      swap3\n      pop\n        /* \"#utility.yul\":9152:9153   */\n      dup3\n        /* \"#utility.yul\":9149:9150   */\n      dup3\n        /* \"#utility.yul\":9145:9154   */\n      add\n        /* \"#utility.yul\":9138:9154   */\n      swap1\n      pop\n        /* \"#utility.yul\":9173:9176   */\n      dup1\n        /* \"#utility.yul\":9170:9171   */\n      dup3\n        /* \"#utility.yul\":9167:9177   */\n      gt\n        /* \"#utility.yul\":9164:9200   */\n      iszero\n      tag_249\n      jumpi\n        /* \"#utility.yul\":9180:9198   */\n      tag_250\n      tag_128\n      jump\t// in\n    tag_250:\n        /* \"#utility.yul\":9164:9200   */\n    tag_249:\n        /* \"#utility.yul\":9016:9207   */\n      swap3\n      swap2\n      pop\n      pop\n      jump\t// out\n        /* \"#utility.yul\":9213:9393   */\n    tag_129:\n        /* \"#utility.yul\":9261:9338   */\n      0x4e487b7100000000000000000000000000000000000000000000000000000000\n        /* \"#utility.yul\":9258:9259   */\n      0x00\n        /* \"#utility.yul\":9251:9339   */\n      mstore\n        /* \"#utility.yul\":9358:9362   */\n      0x22\n        /* \"#utility.yul\":9355:9356   */\n      0x04\n        /* \"#utility.yul\":9348:9363   */\n      mstore\n        /* \"#utility.yul\":9382:9386   */\n      0x24\n        /* \"#utility.yul\":9379:9380   */\n      0x00\n        /* \"#utility.yul\":9372:9387   */\n      revert\n        /* \"#utility.yul\":9399:9719   */\n    tag_54:\n        /* \"#utility.yul\":9443:9449   */\n      0x00\n        /* \"#utility.yul\":9480:9481   */\n      0x02\n        /* \"#utility.yul\":9474:9478   */\n      dup3\n        /* \"#utility.yul\":9470:9482   */\n      div\n        /* \"#utility.yul\":9460:9482   */\n      swap1\n      pop\n        /* \"#utility.yul\":9527:9528   */\n      0x01\n        /* \"#utility.yul\":9521:9525   */\n      dup3\n        /* \"#utility.yul\":9517:9529   */\n      and\n        /* \"#utility.yul\":9548:9566   */\n      dup1\n        /* \"#utility.yul\":9538:9619   */\n      tag_253\n      jumpi\n        /* \"#utility.yul\":9604:9608   */\n      0x7f\n        /* \"#utility.yul\":9596:9602   */\n      dup3\n        /* \"#utility.yul\":9592:9609   */\n      and\n        /* \"#utility.yul\":9582:9609   */\n      swap2\n      pop\n        /* \"#utility.yul\":9538:9619   */\n    tag_253:\n        /* \"#utility.yul\":9666:9668   */\n      0x20\n        /* \"#utility.yul\":9658:9664   */\n      dup3\n        /* \"#utility.yul\":9655:9669   */\n      lt\n        /* \"#utility.yul\":9635:9653   */\n      dup2\n        /* \"#utility.yul\":9632:9670   */\n      sub\n        /* \"#utility.yul\":9629:9713   */\n      tag_254\n      jumpi\n        /* \"#utility.yul\":9685:9703   */\n      tag_255\n      tag_129\n      jump\t// in\n    tag_255:\n        /* \"#utility.yul\":9629:9713   */\n    tag_254:\n        /* \"#utility.yul\":9450:9719   */\n      pop\n        /* \"#utility.yul\":9399:9719   */\n      swap2\n      swap1\n      pop\n      jump\t// out\n        /* \"#utility.yul\":9725:9919   */\n    tag_60:\n        /* \"#utility.yul\":9765:9769   */\n      0x00\n        /* \"#utility.yul\":9785:9805   */\n      tag_257\n        /* \"#utility.yul\":9803:9804   */\n      dup3\n        /* \"#utility.yul\":9785:9805   */\n      tag_111\n      jump\t// in\n    tag_257:\n        /* \"#utility.yul\":9780:9805   */\n      swap2\n      pop\n        /* \"#utility.yul\":9819:9839   */\n      tag_258\n        /* \"#utility.yul\":9837:9838   */\n      dup4\n        /* \"#utility.yul\":9819:9839   */\n      tag_111\n      jump\t// in\n    tag_258:\n        /* \"#utility.yul\":9814:9839   */\n      swap3\n      pop\n        /* \"#utility.yul\":9863:9864   */\n      dup3\n        /* \"#utility.yul\":9860:9861   */\n      dup3\n        /* \"#utility.yul\":9856:9865   */\n      sub\n        /* \"#utility.yul\":9848:9865   */\n      swap1\n      pop\n        /* \"#utility.yul\":9887:9888   */\n      dup2\n        /* \"#utility.yul\":9881:9885   */\n      dup2\n        /* \"#utility.yul\":9878:9889   */\n      gt\n        /* \"#utility.yul\":9875:9912   */\n      iszero\n      tag_259\n      jumpi\n        /* \"#utility.yul\":9892:9910   */\n      tag_260\n      tag_128\n      jump\t// in\n    tag_260:\n        /* \"#utility.yul\":9875:9912   */\n    tag_259:\n        /* \"#utility.yul\":9725:9919   */\n      swap3\n      swap2\n      pop\n      pop\n      jump\t// out\n        /* \"#utility.yul\":9925:10149   */\n    tag_130:\n        /* \"#utility.yul\":10065:10099   */\n      0x50726f6a65637420776974682074686973206e616d6520616c72656164792065\n        /* \"#utility.yul\":10061:10062   */\n      0x00\n        /* \"#utility.yul\":10053:10059   */\n      dup3\n        /* \"#utility.yul\":10049:10063   */\n      add\n        /* \"#utility.yul\":10042:10100   */\n      mstore\n        /* \"#utility.yul\":10134:10141   */\n      0x7869737473000000000000000000000000000000000000000000000000000000\n        /* \"#utility.yul\":10129:10131   */\n      0x20\n        /* \"#utility.yul\":10121:10127   */\n      dup3\n        /* \"#utility.yul\":10117:10132   */\n      add\n        /* \"#utility.yul\":10110:10142   */\n      mstore\n        /* \"#utility.yul\":9925:10149   */\n      pop\n      jump\t// out\n        /* \"#utility.yul\":10155:10521   */\n    tag_131:\n        /* \"#utility.yul\":10297:10300   */\n      0x00\n        /* \"#utility.yul\":10318:10385   */\n      tag_263\n        /* \"#utility.yul\":10382:10384   */\n      0x25\n        /* \"#utility.yul\":10377:10380   */\n      dup4\n        /* \"#utility.yul\":10318:10385   */\n      tag_123\n      jump\t// in\n    tag_263:\n        /* \"#utility.yul\":10311:10385   */\n      swap2\n      pop\n        /* \"#utility.yul\":10394:10487   */\n      tag_264\n        /* \"#utility.yul\":10483:10486   */\n      dup3\n        /* \"#utility.yul\":10394:10487   */\n      tag_130\n      jump\t// in\n    tag_264:\n        /* \"#utility.yul\":10512:10514   */\n      0x40\n        /* \"#utility.yul\":10507:10510   */\n      dup3\n        /* \"#utility.yul\":10503:10515   */\n      add\n        /* \"#utility.yul\":10496:10515   */\n      swap1\n      pop\n        /* \"#utility.yul\":10155:10521   */\n      swap2\n      swap1\n      pop\n      jump\t// out\n        /* \"#utility.yul\":10527:10946   */\n    tag_76:\n        /* \"#utility.yul\":10693:10697   */\n      0x00\n        /* \"#utility.yul\":10731:10733   */\n      0x20\n        /* \"#utility.yul\":10720:10729   */\n      dup3\n        /* \"#utility.yul\":10716:10734   */\n      add\n        /* \"#utility.yul\":10708:10734   */\n      swap1\n      pop\n        /* \"#utility.yul\":10780:10789   */\n      dup2\n        /* \"#utility.yul\":10774:10778   */\n      dup2\n        /* \"#utility.yul\":10770:10790   */\n      sub\n        /* \"#utility.yul\":10766:10767   */\n      0x00\n        /* \"#utility.yul\":10755:10764   */\n      dup4\n        /* \"#utility.yul\":10751:10768   */\n      add\n        /* \"#utility.yul\":10744:10791   */\n      mstore\n        /* \"#utility.yul\":10808:10939   */\n      tag_266\n        /* \"#utility.yul\":10934:10938   */\n      dup2\n        /* \"#utility.yul\":10808:10939   */\n      tag_131\n      jump\t// in\n    tag_266:\n        /* \"#utility.yul\":10800:10939   */\n      swap1\n      pop\n        /* \"#utility.yul\":10527:10946   */\n      swap2\n      swap1\n      pop\n      jump\t// out\n        /* \"#utility.yul\":10952:11185   */\n    tag_78:\n        /* \"#utility.yul\":10991:10994   */\n      0x00\n        /* \"#utility.yul\":11014:11038   */\n      tag_268\n        /* \"#utility.yul\":11032:11037   */\n      dup3\n        /* \"#utility.yul\":11014:11038   */\n      tag_111\n      jump\t// in\n    tag_268:\n        /* \"#utility.yul\":11005:11038   */\n      swap2\n      pop\n        /* \"#utility.yul\":11060:11126   */\n      0xffffffffffffffffffffffffffffffffffffffffffffffffffffffffffffffff\n        /* \"#utility.yul\":11053:11058   */\n      dup3\n        /* \"#utility.yul\":11050:11127   */\n      sub\n        /* \"#utility.yul\":11047:11150   */\n      tag_269\n      jumpi\n        /* \"#utility.yul\":11130:11148   */\n      tag_270\n      tag_128\n      jump\t// in\n    tag_270:\n        /* \"#utility.yul\":11047:11150   */\n    tag_269:\n        /* \"#utility.yul\":11177:11178   */\n      0x01\n        /* \"#utility.yul\":11170:11175   */\n      dup3\n        /* \"#utility.yul\":11166:11179   */\n      add\n        /* \"#utility.yul\":11159:11179   */\n      swap1\n      pop\n        /* \"#utility.yul\":10952:11185   */\n      swap2\n      swap1\n      pop\n      jump\t// out\n        /* \"#utility.yul\":11191:11332   */\n    tag_132:\n        /* \"#utility.yul\":11240:11244   */\n      0x00\n        /* \"#utility.yul\":11263:11266   */\n      dup2\n        /* \"#utility.yul\":11255:11266   */\n      swap1\n      pop\n        /* \"#utility.yul\":11286:11289   */\n      dup2\n        /* \"#utility.yul\":11283:11284   */\n      0x00\n        /* \"#utility.yul\":11276:11290   */\n      mstore\n        /* \"#utility.yul\":11320:11324   */\n      0x20\n        /* \"#utility.yul\":11317:11318   */\n      0x00\n        /* \"#utility.yul\":11307:11325   */\n      keccak256\n        /* \"#utility.yul\":11299:11325   */\n      swap1\n      pop\n        /* \"#utility.yul\":11191:11332   */\n      swap2\n      swap1\n      pop\n      jump\t// out\n        /* \"#utility.yul\":11338:11431   */\n    tag_133:\n        /* \"#utility.yul\":11375:11381   */\n      0x00\n        /* \"#utility.yul\":11422:11424   */\n      0x20\n        /* \"#utility.yul\":11417:11419   */\n      0x1f\n        /* \"#utility.yul\":11410:11415   */\n      dup4\n        /* \"#utility.yul\":11406:11420   */\n      add\n        /* \"#utility.yul\":11402:11425   */\n      div\n        /* \"#utility.yul\":11392:11425   */\n      swap1\n      pop\n        /* \"#utility.yul\":11338:11431   */\n      swap2\n      swap1\n      pop\n      jump\t// out\n        /* \"#utility.yul\":11437:11544   */\n    tag_134:\n        /* \"#utility.yul\":11481:11489   */\n      0x00\n        /* \"#utility.yul\":11531:11536   */\n      dup3\n        /* \"#utility.yul\":11525:11529   */\n      dup3\n        /* \"#utility.yul\":11521:11537   */\n      shl\n        /* \"#utility.yul\":11500:11537   */\n      swap1\n      pop\n        /* \"#utility.yul\":11437:11544   */\n      swap3\n      swap2\n      pop\n      pop\n      jump\t// out\n        /* \"#utility.yul\":11550:11943   */\n    tag_135:\n        /* \"#utility.yul\":11619:11625   */\n      0x00\n        /* \"#utility.yul\":11669:11670   */\n      0x08\n        /* \"#utility.yul\":11657:11667   */\n      dup4\n        /* \"#utility.yul\":11653:11671   */\n      mul\n        /* \"#utility.yul\":11692:11789   */\n      tag_275\n        /* \"#utility.yul\":11722:11788   */\n      0xffffffffffffffffffffffffffffffffffffffffffffffffffffffffffffffff\n        /* \"#utility.yul\":11711:11720   */\n      dup3\n        /* \"#utility.yul\":11692:11789   */\n      tag_134\n      jump\t// in\n    tag_275:\n        /* \"#utility.yul\":11810:11849   */\n      tag_276\n        /* \"#utility.yul\":11840:11848   */\n      dup7\n        /* \"#utility.yul\":11829:11838   */\n      dup4\n        /* \"#utility.yul\":11810:11849   */\n      tag_134\n      jump\t// in\n    tag_276:\n        /* \"#utility.yul\":11798:11849   */\n      swap6\n      pop\n        /* \"#utility.yul\":11882:11886   */\n      dup1\n        /* \"#utility.yul\":11878:11887   */\n      not\n        /* \"#utility.yul\":11871:11876   */\n      dup5\n        /* \"#utility.yul\":11867:11888   */\n      and\n        /* \"#utility.yul\":11858:11888   */\n      swap4\n      pop\n        /* \"#utility.yul\":11931:11935   */\n      dup1\n        /* \"#utility.yul\":11921:11929   */\n      dup7\n        /* \"#utility.yul\":11917:11936   */\n      and\n        /* \"#utility.yul\":11910:11915   */\n      dup5\n        /* \"#utility.yul\":11907:11937   */\n      or\n        /* \"#utility.yul\":11897:11937   */\n      swap3\n      pop\n        /* \"#utility.yul\":11626:11943   */\n      pop\n      pop\n        /* \"#utility.yul\":11550:11943   */\n      swap4\n      swap3\n      pop\n      pop\n      pop\n      jump\t// out\n        /* \"#utility.yul\":11949:12009   */\n    tag_136:\n        /* \"#utility.yul\":11977:11980   */\n      0x00\n        /* \"#utility.yul\":11998:12003   */\n      dup2\n        /* \"#utility.yul\":11991:12003   */\n      swap1\n      pop\n        /* \"#utility.yul\":11949:12009   */\n      swap2\n      swap1\n      pop\n      jump\t// out\n        /* \"#utility.yul\":12015:12157   */\n    tag_137:\n        /* \"#utility.yul\":12065:12074   */\n      0x00\n        /* \"#utility.yul\":12098:12151   */\n      tag_279\n        /* \"#utility.yul\":12116:12150   */\n      tag_280\n        /* \"#utility.yul\":12125:12149   */\n      tag_281\n        /* \"#utility.yul\":12143:12148   */\n      dup5\n        /* \"#utility.yul\":12125:12149   */\n      tag_111\n      jump\t// in\n    tag_281:\n        /* \"#utility.yul\":12116:12150   */\n      tag_136\n      jump\t// in\n    tag_280:\n        /* \"#utility.yul\":12098:12151   */\n      tag_111\n      jump\t// in\n    tag_279:\n        /* \"#utility.yul\":12085:12151   */\n      swap1\n      pop\n        /* \"#utility.yul\":12015:12157   */\n      swap2\n      swap1\n      pop\n      jump\t// out\n        /* \"#utility.yul\":12163:12238   */\n    tag_138:\n        /* \"#utility.yul\":12206:12209   */\n      0x00\n        /* \"#utility.yul\":12227:12232   */\n      dup2\n        /* \"#utility.yul\":12220:12232   */\n      swap1\n      pop\n        /* \"#utility.yul\":12163:12238   */\n      swap2\n      swap1\n      pop\n      jump\t// out\n        /* \"#utility.yul\":12244:12513   */\n    tag_139:\n        /* \"#utility.yul\":12354:12393   */\n      tag_284\n        /* \"#utility.yul\":12385:12392   */\n      dup4\n        /* \"#utility.yul\":12354:12393   */\n      tag_137\n      jump\t// in\n    tag_284:\n        /* \"#utility.yul\":12415:12506   */\n      tag_285\n        /* \"#utility.yul\":12464:12505   */\n      tag_286\n        /* \"#utility.yul\":12488:12504   */\n      dup3\n        /* \"#utility.yul\":12464:12505   */\n      tag_138\n      jump\t// in\n    tag_286:\n        /* \"#utility.yul\":12456:12462   */\n      dup5\n        /* \"#utility.yul\":12449:12453   */\n      dup5\n        /* \"#utility.yul\":12443:12454   */\n      sload\n        /* \"#utility.yul\":12415:12506   */\n      tag_135\n      jump\t// in\n    tag_285:\n        /* \"#utility.yul\":12409:12413   */\n      dup3\n        /* \"#utility.yul\":12402:12507   */\n      sstore\n        /* \"#utility.yul\":12320:12513   */\n      pop\n        /* \"#utility.yul\":12244:12513   */\n      pop\n      pop\n      pop\n      jump\t// out\n        /* \"#utility.yul\":12519:12592   */\n    tag_140:\n        /* \"#utility.yul\":12564:12567   */\n      0x00\n        /* \"#utility.yul\":12519:12592   */\n      swap1\n      jump\t// out\n        /* \"#utility.yul\":12598:12787   */\n    tag_141:\n        /* \"#utility.yul\":12675:12707   */\n      tag_289\n      tag_140\n      jump\t// in\n    tag_289:\n        /* \"#utility.yul\":12716:12781   */\n      tag_290\n        /* \"#utility.yul\":12774:12780   */\n      dup2\n        /* \"#utility.yul\":12766:12772   */\n      dup5\n        /* \"#utility.yul\":12760:12764   */\n      dup5\n        /* \"#utility.yul\":12716:12781   */\n      tag_139\n      jump\t// in\n    tag_290:\n        /* \"#utility.yul\":12651:12787   */\n      pop\n        /* \"#utility.yul\":12598:12787   */\n      pop\n      pop\n      jump\t// out\n        /* \"#utility.yul\":12793:12979   */\n    tag_142:\n        /* \"#utility.yul\":12853:12973   */\n    tag_292:\n        /* \"#utility.yul\":12870:12873   */\n      dup2\n        /* \"#utility.yul\":12863:12868   */\n      dup2\n        /* \"#utility.yul\":12860:12874   */\n      lt\n        /* \"#utility.yul\":12853:12973   */\n      iszero\n      tag_294\n      jumpi\n        /* \"#utility.yul\":12924:12963   */\n      tag_295\n        /* \"#utility.yul\":12961:12962   */\n      0x00\n        /* \"#utility.yul\":12954:12959   */\n      dup3\n        /* \"#utility.yul\":12924:12963   */\n      tag_141\n      jump\t// in\n    tag_295:\n        /* \"#utility.yul\":12897:12898   */\n      0x01\n        /* \"#utility.yul\":12890:12895   */\n      dup2\n        /* \"#utility.yul\":12886:12899   */\n      add\n        /* \"#utility.yul\":12877:12899   */\n      swap1\n      pop\n        /* \"#utility.yul\":12853:12973   */\n      jump(tag_292)\n    tag_294:\n        /* \"#utility.yul\":12793:12979   */\n      pop\n      pop\n      jump\t// out\n        /* \"#utility.yul\":12985:13528   */\n    tag_143:\n        /* \"#utility.yul\":13086:13088   */\n      0x1f\n        /* \"#utility.yul\":13081:13084   */\n      dup3\n        /* \"#utility.yul\":13078:13089   */\n      gt\n        /* \"#utility.yul\":13075:13521   */\n      iszero\n      tag_297\n      jumpi\n        /* \"#utility.yul\":13120:13158   */\n      tag_298\n        /* \"#utility.yul\":13152:13157   */\n      dup2\n        /* \"#utility.yul\":13120:13158   */\n      tag_132\n      jump\t// in\n    tag_298:\n        /* \"#utility.yul\":13204:13233   */\n      tag_299\n        /* \"#utility.yul\":13222:13232   */\n      dup5\n        /* \"#utility.yul\":13204:13233   */\n      tag_133\n      jump\t// in\n    tag_299:\n        /* \"#utility.yul\":13194:13202   */\n      dup2\n        /* \"#utility.yul\":13190:13234   */\n      add\n        /* \"#utility.yul\":13387:13389   */\n      0x20\n        /* \"#utility.yul\":13375:13385   */\n      dup6\n        /* \"#utility.yul\":13372:13390   */\n      lt\n        /* \"#utility.yul\":13369:13418   */\n      iszero\n      tag_300\n      jumpi\n        /* \"#utility.yul\":13408:13416   */\n      dup2\n        /* \"#utility.yul\":13393:13416   */\n      swap1\n      pop\n        /* \"#utility.yul\":13369:13418   */\n    tag_300:\n        /* \"#utility.yul\":13431:13511   */\n      tag_301\n        /* \"#utility.yul\":13487:13509   */\n      tag_302\n        /* \"#utility.yul\":13505:13508   */\n      dup6\n        /* \"#utility.yul\":13487:13509   */\n      tag_133\n      jump\t// in\n    tag_302:\n        /* \"#utility.yul\":13477:13485   */\n      dup4\n        /* \"#utility.yul\":13473:13510   */\n      add\n        /* \"#utility.yul\":13460:13471   */\n      dup3\n        /* \"#utility.yul\":13431:13511   */\n      tag_142\n      jump\t// in\n    tag_301:\n        /* \"#utility.yul\":13090:13521   */\n      pop\n      pop\n        /* \"#utility.yul\":13075:13521   */\n    tag_297:\n        /* \"#utility.yul\":12985:13528   */\n      pop\n      pop\n      pop\n      jump\t// out\n        /* \"#utility.yul\":13534:13651   */\n    tag_144:\n        /* \"#utility.yul\":13588:13596   */\n      0x00\n        /* \"#utility.yul\":13638:13643   */\n      dup3\n        /* \"#utility.yul\":13632:13636   */\n      dup3\n        /* \"#utility.yul\":13628:13644   */\n      shr\n        /* \"#utility.yul\":13607:13644   */\n      swap1\n      pop\n        /* \"#utility.yul\":13534:13651   */\n      swap3\n      swap2\n      pop\n      pop\n      jump\t// out\n        /* \"#utility.yul\":13657:13826   */\n    tag_145:\n        /* \"#utility.yul\":13701:13707   */\n      0x00\n        /* \"#utility.yul\":13734:13785   */\n      tag_305\n        /* \"#utility.yul\":13782:13783   */\n      0x00\n        /* \"#utility.yul\":13778:13784   */\n      not\n        /* \"#utility.yul\":13770:13775   */\n      dup5\n        /* \"#utility.yul\":13767:13768   */\n      0x08\n        /* \"#utility.yul\":13763:13776   */\n      mul\n        /* \"#utility.yul\":13734:13785   */\n      tag_144\n      jump\t// in\n    tag_305:\n        /* \"#utility.yul\":13730:13786   */\n      not\n        /* \"#utility.yul\":13815:13819   */\n      dup1\n        /* \"#utility.yul\":13809:13813   */\n      dup4\n        /* \"#utility.yul\":13805:13820   */\n      and\n        /* \"#utility.yul\":13795:13820   */\n      swap2\n      pop\n        /* \"#utility.yul\":13708:13826   */\n      pop\n        /* \"#utility.yul\":13657:13826   */\n      swap3\n      swap2\n      pop\n      pop\n      jump\t// out\n        /* \"#utility.yul\":13831:14126   */\n    tag_146:\n        /* \"#utility.yul\":13907:13911   */\n      0x00\n        /* \"#utility.yul\":14053:14082   */\n      tag_307\n        /* \"#utility.yul\":14078:14081   */\n      dup4\n        /* \"#utility.yul\":14072:14076   */\n      dup4\n        /* \"#utility.yul\":14053:14082   */\n      tag_145\n      jump\t// in\n    tag_307:\n        /* \"#utility.yul\":14045:14082   */\n      swap2\n      pop\n        /* \"#utility.yul\":14115:14118   */\n      dup3\n        /* \"#utility.yul\":14112:14113   */\n      0x02\n        /* \"#utility.yul\":14108:14119   */\n      mul\n        /* \"#utility.yul\":14102:14106   */\n      dup3\n        /* \"#utility.yul\":14099:14120   */\n      or\n        /* \"#utility.yul\":14091:14120   */\n      swap1\n      pop\n        /* \"#utility.yul\":13831:14126   */\n      swap3\n      swap2\n      pop\n      pop\n      jump\t// out\n        /* \"#utility.yul\":14131:15526   */\n    tag_83:\n        /* \"#utility.yul\":14248:14285   */\n      tag_309\n        /* \"#utility.yul\":14281:14284   */\n      dup3\n        /* \"#utility.yul\":14248:14285   */\n      tag_119\n      jump\t// in\n    tag_309:\n        /* \"#utility.yul\":14350:14368   */\n      0xffffffffffffffff\n        /* \"#utility.yul\":14342:14348   */\n      dup2\n        /* \"#utility.yul\":14339:14369   */\n      gt\n        /* \"#utility.yul\":14336:14392   */\n      iszero\n      tag_310\n      jumpi\n        /* \"#utility.yul\":14372:14390   */\n      tag_311\n      tag_104\n      jump\t// in\n    tag_311:\n        /* \"#utility.yul\":14336:14392   */\n    tag_310:\n        /* \"#utility.yul\":14416:14454   */\n      tag_312\n        /* \"#utility.yul\":14448:14452   */\n      dup3\n        /* \"#utility.yul\":14442:14453   */\n      sload\n        /* \"#utility.yul\":14416:14454   */\n      tag_54\n      jump\t// in\n    tag_312:\n        /* \"#utility.yul\":14501:14568   */\n      tag_313\n        /* \"#utility.yul\":14561:14567   */\n      dup3\n        /* \"#utility.yul\":14553:14559   */\n      dup3\n        /* \"#utility.yul\":14547:14551   */\n      dup6\n        /* \"#utility.yul\":14501:14568   */\n      tag_143\n      jump\t// in\n    tag_313:\n        /* \"#utility.yul\":14595:14596   */\n      0x00\n        /* \"#utility.yul\":14619:14623   */\n      0x20\n        /* \"#utility.yul\":14606:14623   */\n      swap1\n      pop\n        /* \"#utility.yul\":14651:14653   */\n      0x1f\n        /* \"#utility.yul\":14643:14649   */\n      dup4\n        /* \"#utility.yul\":14640:14654   */\n      gt\n        /* \"#utility.yul\":14668:14669   */\n      0x01\n        /* \"#utility.yul\":14663:15281   */\n      dup2\n      eq\n      tag_315\n      jumpi\n        /* \"#utility.yul\":15325:15326   */\n      0x00\n        /* \"#utility.yul\":15342:15348   */\n      dup5\n        /* \"#utility.yul\":15339:15416   */\n      iszero\n      tag_316\n      jumpi\n        /* \"#utility.yul\":15391:15400   */\n      dup3\n        /* \"#utility.yul\":15386:15389   */\n      dup8\n        /* \"#utility.yul\":15382:15401   */\n      add\n        /* \"#utility.yul\":15376:15402   */\n      mload\n        /* \"#utility.yul\":15367:15402   */\n      swap1\n      pop\n        /* \"#utility.yul\":15339:15416   */\n    tag_316:\n        /* \"#utility.yul\":15442:15509   */\n      tag_317\n        /* \"#utility.yul\":15502:15508   */\n      dup6\n        /* \"#utility.yul\":15495:15500   */\n      dup3\n        /* \"#utility.yul\":15442:15509   */\n      tag_146\n      jump\t// in\n    tag_317:\n        /* \"#utility.yul\":15436:15440   */\n      dup7\n        /* \"#utility.yul\":15429:15510   */\n      sstore\n        /* \"#utility.yul\":15298:15520   */\n      pop\n        /* \"#utility.yul\":14633:15520   */\n      jump(tag_314)\n        /* \"#utility.yul\":14663:15281   */\n    tag_315:\n        /* \"#utility.yul\":14715:14719   */\n      0x1f\n        /* \"#utility.yul\":14711:14720   */\n      not\n        /* \"#utility.yul\":14703:14709   */\n      dup5\n        /* \"#utility.yul\":14699:14721   */\n      and\n        /* \"#utility.yul\":14749:14786   */\n      tag_318\n        /* \"#utility.yul\":14781:14785   */\n      dup7\n        /* \"#utility.yul\":14749:14786   */\n      tag_132\n      jump\t// in\n    tag_318:\n        /* \"#utility.yul\":14808:14809   */\n      0x00\n        /* \"#utility.yul\":14822:15030   */\n    tag_319:\n        /* \"#utility.yul\":14836:14843   */\n      dup3\n        /* \"#utility.yul\":14833:14834   */\n      dup2\n        /* \"#utility.yul\":14830:14844   */\n      lt\n        /* \"#utility.yul\":14822:15030   */\n      iszero\n      tag_321\n      jumpi\n        /* \"#utility.yul\":14915:14924   */\n      dup5\n        /* \"#utility.yul\":14910:14913   */\n      dup10\n        /* \"#utility.yul\":14906:14925   */\n      add\n        /* \"#utility.yul\":14900:14926   */\n      mload\n        /* \"#utility.yul\":14892:14898   */\n      dup3\n        /* \"#utility.yul\":14885:14927   */\n      sstore\n        /* \"#utility.yul\":14966:14967   */\n      0x01\n        /* \"#utility.yul\":14958:14964   */\n      dup3\n        /* \"#utility.yul\":14954:14968   */\n      add\n        /* \"#utility.yul\":14944:14968   */\n      swap2\n      pop\n        /* \"#utility.yul\":15013:15015   */\n      0x20\n        /* \"#utility.yul\":15002:15011   */\n      dup6\n        /* \"#utility.yul\":14998:15016   */\n      add\n        /* \"#utility.yul\":14985:15016   */\n      swap5\n      pop\n        /* \"#utility.yul\":14859:14863   */\n      0x20\n        /* \"#utility.yul\":14856:14857   */\n      dup2\n        /* \"#utility.yul\":14852:14864   */\n      add\n        /* \"#utility.yul\":14847:14864   */\n      swap1\n      pop\n        /* \"#utility.yul\":14822:15030   */\n      jump(tag_319)\n    tag_321:\n        /* \"#utility.yul\":15058:15064   */\n      dup7\n        /* \"#utility.yul\":15049:15056   */\n      dup4\n        /* \"#utility.yul\":15046:15065   */\n      lt\n        /* \"#utility.yul\":15043:15222   */\n      iszero\n      tag_322\n      jumpi\n        /* \"#utility.yul\":15116:15125   */\n      dup5\n        /* \"#utility.yul\":15111:15114   */\n      dup10\n        /* \"#utility.yul\":15107:15126   */\n      add\n        /* \"#utility.yul\":15101:15127   */\n      mload\n        /* \"#utility.yul\":15159:15207   */\n      tag_323\n        /* \"#utility.yul\":15201:15205   */\n      0x1f\n        /* \"#utility.yul\":15193:15199   */\n      dup10\n        /* \"#utility.yul\":15189:15206   */\n      and\n        /* \"#utility.yul\":15178:15187   */\n      dup3\n        /* \"#utility.yul\":15159:15207   */\n      tag_145\n      jump\t// in\n    tag_323:\n        /* \"#utility.yul\":15151:15157   */\n      dup4\n        /* \"#utility.yul\":15144:15208   */\n      sstore\n        /* \"#utility.yul\":15066:15222   */\n      pop\n        /* \"#utility.yul\":15043:15222   */\n    tag_322:\n        /* \"#utility.yul\":15268:15269   */\n      0x01\n        /* \"#utility.yul\":15264:15265   */\n      0x02\n        /* \"#utility.yul\":15256:15262   */\n      dup9\n        /* \"#utility.yul\":15252:15266   */\n      mul\n        /* \"#utility.yul\":15248:15270   */\n      add\n        /* \"#utility.yul\":15242:15246   */\n      dup9\n        /* \"#utility.yul\":15235:15271   */\n      sstore\n        /* \"#utility.yul\":14670:15281   */\n      pop\n      pop\n      pop\n        /* \"#utility.yul\":14633:15520   */\n    tag_314:\n      pop\n        /* \"#utility.yul\":14223:15526   */\n      pop\n      pop\n      pop\n        /* \"#utility.yul\":14131:15526   */\n      pop\n      pop\n      jump\t// out\n        /* \"#utility.yul\":15532:15611   */\n    tag_147:\n        /* \"#utility.yul\":15571:15578   */\n      0x00\n        /* \"#utility.yul\":15600:15605   */\n      dup2\n        /* \"#utility.yul\":15589:15605   */\n      swap1\n      pop\n        /* \"#utility.yul\":15532:15611   */\n      swap2\n      swap1\n      pop\n      jump\t// out\n        /* \"#utility.yul\":15617:15774   */\n    tag_148:\n        /* \"#utility.yul\":15722:15767   */\n      tag_326\n        /* \"#utility.yul\":15742:15766   */\n      tag_327\n        /* \"#utility.yul\":15760:15765   */\n      dup3\n        /* \"#utility.yul\":15742:15766   */\n      tag_111\n      jump\t// in\n    tag_327:\n        /* \"#utility.yul\":15722:15767   */\n      tag_147\n      jump\t// in\n    tag_326:\n        /* \"#utility.yul\":15717:15720   */\n      dup3\n        /* \"#utility.yul\":15710:15768   */\n      mstore\n        /* \"#utility.yul\":15617:15774   */\n      pop\n      pop\n      jump\t// out\n        /* \"#utility.yul\":15780:15906   */\n    tag_149:\n        /* \"#utility.yul\":15817:15824   */\n      0x00\n        /* \"#utility.yul\":15857:15899   */\n      0xffffffffffffffffffffffffffffffffffffffff\n        /* \"#utility.yul\":15850:15855   */\n      dup3\n        /* \"#utility.yul\":15846:15900   */\n      and\n        /* \"#utility.yul\":15835:15900   */\n      swap1\n      pop\n        /* \"#utility.yul\":15780:15906   */\n      swap2\n      swap1\n      pop\n      jump\t// out\n        /* \"#utility.yul\":15912:16008   */\n    tag_150:\n        /* \"#utility.yul\":15949:15956   */\n      0x00\n        /* \"#utility.yul\":15978:16002   */\n      tag_330\n        /* \"#utility.yul\":15996:16001   */\n      dup3\n        /* \"#utility.yul\":15978:16002   */\n      tag_149\n      jump\t// in\n    tag_330:\n        /* \"#utility.yul\":15967:16002   */\n      swap1\n      pop\n        /* \"#utility.yul\":15912:16008   */\n      swap2\n      swap1\n      pop\n      jump\t// out\n        /* \"#utility.yul\":16014:16108   */\n    tag_151:\n        /* \"#utility.yul\":16047:16055   */\n      0x00\n        /* \"#utility.yul\":16095:16100   */\n      dup2\n        /* \"#utility.yul\":16091:16093   */\n      0x60\n        /* \"#utility.yul\":16087:16101   */\n      shl\n        /* \"#utility.yul\":16066:16101   */\n      swap1\n      pop\n        /* \"#utility.yul\":16014:16108   */\n      swap2\n      swap1\n      pop\n      jump\t// out\n        /* \"#utility.yul\":16114:16208   */\n    tag_152:\n        /* \"#utility.yul\":16153:16160   */\n      0x00\n        /* \"#utility.yul\":16182:16202   */\n      tag_333\n        /* \"#utility.yul\":16196:16201   */\n      dup3\n        /* \"#utility.yul\":16182:16202   */\n      tag_151\n      jump\t// in\n    tag_333:\n        /* \"#utility.yul\":16171:16202   */\n      swap1\n      pop\n        /* \"#utility.yul\":16114:16208   */\n      swap2\n      swap1\n      pop\n      jump\t// out\n        /* \"#utility.yul\":16214:16314   */\n    tag_153:\n        /* \"#utility.yul\":16253:16260   */\n      0x00\n        /* \"#utility.yul\":16282:16308   */\n      tag_335\n        /* \"#utility.yul\":16302:16307   */\n      dup3\n        /* \"#utility.yul\":16282:16308   */\n      tag_152\n      jump\t// in\n    tag_335:\n        /* \"#utility.yul\":16271:16308   */\n      swap1\n      pop\n        /* \"#utility.yul\":16214:16314   */\n      swap2\n      swap1\n      pop\n      jump\t// out\n        /* \"#utility.yul\":16320:16477   */\n    tag_154:\n        /* \"#utility.yul\":16425:16470   */\n      tag_337\n        /* \"#utility.yul\":16445:16469   */\n      tag_338\n        /* \"#utility.yul\":16463:16468   */\n      dup3\n        /* \"#utility.yul\":16445:16469   */\n      tag_150\n      jump\t// in\n    tag_338:\n        /* \"#utility.yul\":16425:16470   */\n      tag_153\n      jump\t// in\n    tag_337:\n        /* \"#utility.yul\":16420:16423   */\n      dup3\n        /* \"#utility.yul\":16413:16471   */\n      mstore\n        /* \"#utility.yul\":16320:16477   */\n      pop\n      pop\n      jump\t// out\n        /* \"#utility.yul\":16483:17021   */\n    tag_97:\n        /* \"#utility.yul\":16651:16654   */\n      0x00\n        /* \"#utility.yul\":16666:16741   */\n      tag_340\n        /* \"#utility.yul\":16737:16740   */\n      dup3\n        /* \"#utility.yul\":16728:16734   */\n      dup7\n        /* \"#utility.yul\":16666:16741   */\n      tag_148\n      jump\t// in\n    tag_340:\n        /* \"#utility.yul\":16766:16768   */\n      0x20\n        /* \"#utility.yul\":16761:16764   */\n      dup3\n        /* \"#utility.yul\":16757:16769   */\n      add\n        /* \"#utility.yul\":16750:16769   */\n      swap2\n      pop\n        /* \"#utility.yul\":16779:16854   */\n      tag_341\n        /* \"#utility.yul\":16850:16853   */\n      dup3\n        /* \"#utility.yul\":16841:16847   */\n      dup6\n        /* \"#utility.yul\":16779:16854   */\n      tag_154\n      jump\t// in\n    tag_341:\n        /* \"#utility.yul\":16879:16881   */\n      0x14\n        /* \"#utility.yul\":16874:16877   */\n      dup3\n        /* \"#utility.yul\":16870:16882   */\n      add\n        /* \"#utility.yul\":16863:16882   */\n      swap2\n      pop\n        /* \"#utility.yul\":16892:16967   */\n      tag_342\n        /* \"#utility.yul\":16963:16966   */\n      dup3\n        /* \"#utility.yul\":16954:16960   */\n      dup5\n        /* \"#utility.yul\":16892:16967   */\n      tag_148\n      jump\t// in\n    tag_342:\n        /* \"#utility.yul\":16992:16994   */\n      0x20\n        /* \"#utility.yul\":16987:16990   */\n      dup3\n        /* \"#utility.yul\":16983:16995   */\n      add\n        /* \"#utility.yul\":16976:16995   */\n      swap2\n      pop\n        /* \"#utility.yul\":17012:17015   */\n      dup2\n        /* \"#utility.yul\":17005:17015   */\n      swap1\n      pop\n        /* \"#utility.yul\":16483:17021   */\n      swap5\n      swap4\n      pop\n      pop\n      pop\n      pop\n      jump\t// out\n\n    auxdata: 0xa264697066735822122071f42901d458a071a49a11e0d1a573fb9f763fe7a221ef952c97b85b60f754dd64736f6c63430008120033\n}\n",
				"bytecode": {
					"linkReferences": {},
					"object": "60806040526000805534801561001457600080fd5b50611152806100246000396000f3fe608060405234801561001057600080fd5b50600436106100625760003560e01c80630eda4e681461006757806350b581f514610083578063744afe5f146100b3578063a5db748d146100e3578063cb42bbf8146100ff578063ec8de88914610131575b600080fd5b610081600480360381019061007c919061092f565b61014f565b005b61009d6004803603810190610098919061098b565b61023b565b6040516100aa91906109e3565b60405180910390f35b6100cd60048036038101906100c8919061092f565b61039c565b6040516100da9190610a19565b60405180910390f35b6100fd60048036038101906100f8919061092f565b610500565b005b6101196004803603810190610114919061098b565b6105ff565b60405161012893929190610a4d565b60405180910390f35b610139610764565b60405161014691906109e3565b60405180910390f35b6000801b6001836040516101639190610af5565b908152602001604051809103902060000154036101b5576040517f08c379a00000000000000000000000000000000000000000000000000000000081526004016101ac90610b69565b60405180910390fd5b6101bf828261039c565b156101ff576040517f08c379a00000000000000000000000000000000000000000000000000000000081526004016101f690610bd5565b60405180910390fd5b806001836040516102109190610af5565b908152602001604051809103902060030160008282546102309190610c24565b925050819055505050565b60008060001b6001836040516102519190610af5565b908152602001604051809103902060000154036102a3576040517f08c379a000000000000000000000000000000000000000000000000000000000815260040161029a90610b69565b60405180910390fd5b60006001836040516102b59190610af5565b9081526020016040518091039020604051806080016040529081600082015481526020016001820180546102e890610c87565b80601f016020809104026020016040519081016040528092919081815260200182805461031490610c87565b80156103615780601f1061033657610100808354040283529160200191610361565b820191906000526020600020905b81548152906001019060200180831161034457829003601f168201915b50505050508152602001600282015481526020016003820154815250509050806060015181604001516103949190610cb8565b915050919050565b60008060001b6001846040516103b29190610af5565b90815260200160405180910390206000015403610404576040517f08c379a00000000000000000000000000000000000000000000000000000000081526004016103fb90610b69565b60405180910390fd5b60006001846040516104169190610af5565b90815260200160405180910390206040518060800160405290816000820154815260200160018201805461044990610c87565b80601f016020809104026020016040519081016040528092919081815260200182805461047590610c87565b80156104c25780601f10610497576101008083540402835291602001916104c2565b820191906000526020600020905b8154815290600101906020018083116104a557829003601f168201915b505050505081526020016002820154815260200160038201548152505090508281606001516104f19190610c24565b81604001511091505092915050565b6000801b6001836040516105149190610af5565b90815260200160405180910390206000015414610566576040517f08c379a000000000000000000000000000000000000000000000000000000000815260040161055d90610d5e565b60405180910390fd5b60008081548092919061057890610d7e565b9190505550604051806080016040528061059061076d565b815260200183815260200182815260200160008152506001836040516105b69190610af5565b90815260200160405180910390206000820151816000015560208201518160010190816105e39190610f72565b5060408201518160020155606082015181600301559050505050565b60008060008060001b6001856040516106189190610af5565b9081526020016040518091039020600001540361066a576040517f08c379a000000000000000000000000000000000000000000000000000000000815260040161066190610b69565b60405180910390fd5b600060018560405161067c9190610af5565b9081526020016040518091039020604051806080016040529081600082015481526020016001820180546106af90610c87565b80601f01602080910402602001604051908101604052809291908181526020018280546106db90610c87565b80156107285780601f106106fd57610100808354040283529160200191610728565b820191906000526020600020905b81548152906001019060200180831161070b57829003601f168201915b50505050508152602001600282015481526020016003820154815250509050806000015181604001518260600151935093509350509193909250565b60008054905090565b6000423343604051602001610784939291906110df565b60405160208183030381529060405280519060200120905090565b6000604051905090565b600080fd5b600080fd5b600080fd5b600080fd5b6000601f19601f8301169050919050565b7f4e487b7100000000000000000000000000000000000000000000000000000000600052604160045260246000fd5b610806826107bd565b810181811067ffffffffffffffff82111715610825576108246107ce565b5b80604052505050565b600061083861079f565b905061084482826107fd565b919050565b600067ffffffffffffffff821115610864576108636107ce565b5b61086d826107bd565b9050602081019050919050565b82818337600083830152505050565b600061089c61089784610849565b61082e565b9050828152602081018484840111156108b8576108b76107b8565b5b6108c384828561087a565b509392505050565b600082601f8301126108e0576108df6107b3565b5b81356108f0848260208601610889565b91505092915050565b6000819050919050565b61090c816108f9565b811461091757600080fd5b50565b60008135905061092981610903565b92915050565b60008060408385031215610946576109456107a9565b5b600083013567ffffffffffffffff811115610964576109636107ae565b5b610970858286016108cb565b92505060206109818582860161091a565b9150509250929050565b6000602082840312156109a1576109a06107a9565b5b600082013567ffffffffffffffff8111156109bf576109be6107ae565b5b6109cb848285016108cb565b91505092915050565b6109dd816108f9565b82525050565b60006020820190506109f860008301846109d4565b92915050565b60008115159050919050565b610a13816109fe565b82525050565b6000602082019050610a2e6000830184610a0a565b92915050565b6000819050919050565b610a4781610a34565b82525050565b6000606082019050610a626000830186610a3e565b610a6f60208301856109d4565b610a7c60408301846109d4565b949350505050565b600081519050919050565b600081905092915050565b60005b83811015610ab8578082015181840152602081019050610a9d565b60008484015250505050565b6000610acf82610a84565b610ad98185610a8f565b9350610ae9818560208601610a9a565b80840191505092915050565b6000610b018284610ac4565b915081905092915050565b600082825260208201905092915050565b7f50726f6a65637420646f65736e27742065786973747300000000000000000000600082015250565b6000610b53601683610b0c565b9150610b5e82610b1d565b602082019050919050565b60006020820190508181036000830152610b8281610b46565b9050919050565b7f54415247455420414d4f554e5420524541434845440000000000000000000000600082015250565b6000610bbf601583610b0c565b9150610bca82610b89565b602082019050919050565b60006020820190508181036000830152610bee81610bb2565b9050919050565b7f4e487b7100000000000000000000000000000000000000000000000000000000600052601160045260246000fd5b6000610c2f826108f9565b9150610c3a836108f9565b9250828201905080821115610c5257610c51610bf5565b5b92915050565b7f4e487b7100000000000000000000000000000000000000000000000000000000600052602260045260246000fd5b60006002820490506001821680610c9f57607f821691505b602082108103610cb257610cb1610c58565b5b50919050565b6000610cc3826108f9565b9150610cce836108f9565b9250828203905081811115610ce657610ce5610bf5565b5b92915050565b7f50726f6a65637420776974682074686973206e616d6520616c7265616479206560008201527f7869737473000000000000000000000000000000000000000000000000000000602082015250565b6000610d48602583610b0c565b9150610d5382610cec565b604082019050919050565b60006020820190508181036000830152610d7781610d3b565b9050919050565b6000610d89826108f9565b91507fffffffffffffffffffffffffffffffffffffffffffffffffffffffffffffffff8203610dbb57610dba610bf5565b5b600182019050919050565b60008190508160005260206000209050919050565b60006020601f8301049050919050565b600082821b905092915050565b600060088302610e287fffffffffffffffffffffffffffffffffffffffffffffffffffffffffffffffff82610deb565b610e328683610deb565b95508019841693508086168417925050509392505050565b6000819050919050565b6000610e6f610e6a610e65846108f9565b610e4a565b6108f9565b9050919050565b6000819050919050565b610e8983610e54565b610e9d610e9582610e76565b848454610df8565b825550505050565b600090565b610eb2610ea5565b610ebd818484610e80565b505050565b5b81811015610ee157610ed6600082610eaa565b600181019050610ec3565b5050565b601f821115610f2657610ef781610dc6565b610f0084610ddb565b81016020851015610f0f578190505b610f23610f1b85610ddb565b830182610ec2565b50505b505050565b600082821c905092915050565b6000610f4960001984600802610f2b565b1980831691505092915050565b6000610f628383610f38565b9150826002028217905092915050565b610f7b82610a84565b67ffffffffffffffff811115610f9457610f936107ce565b5b610f9e8254610c87565b610fa9828285610ee5565b600060209050601f831160018114610fdc5760008415610fca578287015190505b610fd48582610f56565b86555061103c565b601f198416610fea86610dc6565b60005b8281101561101257848901518255600182019150602085019450602081019050610fed565b8683101561102f578489015161102b601f891682610f38565b8355505b6001600288020188555050505b505050505050565b6000819050919050565b61105f61105a826108f9565b611044565b82525050565b600073ffffffffffffffffffffffffffffffffffffffff82169050919050565b600061109082611065565b9050919050565b60008160601b9050919050565b60006110af82611097565b9050919050565b60006110c1826110a4565b9050919050565b6110d96110d482611085565b6110b6565b82525050565b60006110eb828661104e565b6020820191506110fb82856110c8565b60148201915061110b828461104e565b60208201915081905094935050505056fea264697066735822122071f42901d458a071a49a11e0d1a573fb9f763fe7a221ef952c97b85b60f754dd64736f6c63430008120033",
					"opcodes": "PUSH1 0x80 PUSH1 0x40 MSTORE PUSH1 0x0 DUP1 SSTORE CALLVALUE DUP1 ISZERO PUSH2 0x14 JUMPI PUSH1 0x0 DUP1 REVERT JUMPDEST POP PUSH2 0x1152 DUP1 PUSH2 0x24 PUSH1 0x0 CODECOPY PUSH1 0x0 RETURN INVALID PUSH1 0x80 PUSH1 0x40 MSTORE CALLVALUE DUP1 ISZERO PUSH2 0x10 JUMPI PUSH1 0x0 DUP1 REVERT JUMPDEST POP PUSH1 0x4 CALLDATASIZE LT PUSH2 0x62 JUMPI PUSH1 0x0 CALLDATALOAD PUSH1 0xE0 SHR DUP1 PUSH4 0xEDA4E68 EQ PUSH2 0x67 JUMPI DUP1 PUSH4 0x50B581F5 EQ PUSH2 0x83 JUMPI DUP1 PUSH4 0x744AFE5F EQ PUSH2 0xB3 JUMPI DUP1 PUSH4 0xA5DB748D EQ PUSH2 0xE3 JUMPI DUP1 PUSH4 0xCB42BBF8 EQ PUSH2 0xFF JUMPI DUP1 PUSH4 0xEC8DE889 EQ PUSH2 0x131 JUMPI JUMPDEST PUSH1 0x0 DUP1 REVERT JUMPDEST PUSH2 0x81 PUSH1 0x4 DUP1 CALLDATASIZE SUB DUP2 ADD SWAP1 PUSH2 0x7C SWAP2 SWAP1 PUSH2 0x92F JUMP JUMPDEST PUSH2 0x14F JUMP JUMPDEST STOP JUMPDEST PUSH2 0x9D PUSH1 0x4 DUP1 CALLDATASIZE SUB DUP2 ADD SWAP1 PUSH2 0x98 SWAP2 SWAP1 PUSH2 0x98B JUMP JUMPDEST PUSH2 0x23B JUMP JUMPDEST PUSH1 0x40 MLOAD PUSH2 0xAA SWAP2 SWAP1 PUSH2 0x9E3 JUMP JUMPDEST PUSH1 0x40 MLOAD DUP1 SWAP2 SUB SWAP1 RETURN JUMPDEST PUSH2 0xCD PUSH1 0x4 DUP1 CALLDATASIZE SUB DUP2 ADD SWAP1 PUSH2 0xC8 SWAP2 SWAP1 PUSH2 0x92F JUMP JUMPDEST PUSH2 0x39C JUMP JUMPDEST PUSH1 0x40 MLOAD PUSH2 0xDA SWAP2 SWAP1 PUSH2 0xA19 JUMP JUMPDEST PUSH1 0x40 MLOAD DUP1 SWAP2 SUB SWAP1 RETURN JUMPDEST PUSH2 0xFD PUSH1 0x4 DUP1 CALLDATASIZE SUB DUP2 ADD SWAP1 PUSH2 0xF8 SWAP2 SWAP1 PUSH2 0x92F JUMP JUMPDEST PUSH2 0x500 JUMP JUMPDEST STOP JUMPDEST PUSH2 0x119 PUSH1 0x4 DUP1 CALLDATASIZE SUB DUP2 ADD SWAP1 PUSH2 0x114 SWAP2 SWAP1 PUSH2 0x98B JUMP JUMPDEST PUSH2 0x5FF JUMP JUMPDEST PUSH1 0x40 MLOAD PUSH2 0x128 SWAP4 SWAP3 SWAP2 SWAP1 PUSH2 0xA4D JUMP JUMPDEST PUSH1 0x40 MLOAD DUP1 SWAP2 SUB SWAP1 RETURN JUMPDEST PUSH2 0x139 PUSH2 0x764 JUMP JUMPDEST PUSH1 0x40 MLOAD PUSH2 0x146 SWAP2 SWAP1 PUSH2 0x9E3 JUMP JUMPDEST PUSH1 0x40 MLOAD DUP1 SWAP2 SUB SWAP1 RETURN JUMPDEST PUSH1 0x0 DUP1 SHL PUSH1 0x1 DUP4 PUSH1 0x40 MLOAD PUSH2 0x163 SWAP2 SWAP1 PUSH2 0xAF5 JUMP JUMPDEST SWAP1 DUP2 MSTORE PUSH1 0x20 ADD PUSH1 0x40 MLOAD DUP1 SWAP2 SUB SWAP1 KECCAK256 PUSH1 0x0 ADD SLOAD SUB PUSH2 0x1B5 JUMPI PUSH1 0x40 MLOAD PUSH32 0x8C379A000000000000000000000000000000000000000000000000000000000 DUP2 MSTORE PUSH1 0x4 ADD PUSH2 0x1AC SWAP1 PUSH2 0xB69 JUMP JUMPDEST PUSH1 0x40 MLOAD DUP1 SWAP2 SUB SWAP1 REVERT JUMPDEST PUSH2 0x1BF DUP3 DUP3 PUSH2 0x39C JUMP JUMPDEST ISZERO PUSH2 0x1FF JUMPI PUSH1 0x40 MLOAD PUSH32 0x8C379A000000000000000000000000000000000000000000000000000000000 DUP2 MSTORE PUSH1 0x4 ADD PUSH2 0x1F6 SWAP1 PUSH2 0xBD5 JUMP JUMPDEST PUSH1 0x40 MLOAD DUP1 SWAP2 SUB SWAP1 REVERT JUMPDEST DUP1 PUSH1 0x1 DUP4 PUSH1 0x40 MLOAD PUSH2 0x210 SWAP2 SWAP1 PUSH2 0xAF5 JUMP JUMPDEST SWAP1 DUP2 MSTORE PUSH1 0x20 ADD PUSH1 0x40 MLOAD DUP1 SWAP2 SUB SWAP1 KECCAK256 PUSH1 0x3 ADD PUSH1 0x0 DUP3 DUP3 SLOAD PUSH2 0x230 SWAP2 SWAP1 PUSH2 0xC24 JUMP JUMPDEST SWAP3 POP POP DUP2 SWAP1 SSTORE POP POP POP JUMP JUMPDEST PUSH1 0x0 DUP1 PUSH1 0x0 SHL PUSH1 0x1 DUP4 PUSH1 0x40 MLOAD PUSH2 0x251 SWAP2 SWAP1 PUSH2 0xAF5 JUMP JUMPDEST SWAP1 DUP2 MSTORE PUSH1 0x20 ADD PUSH1 0x40 MLOAD DUP1 SWAP2 SUB SWAP1 KECCAK256 PUSH1 0x0 ADD SLOAD SUB PUSH2 0x2A3 JUMPI PUSH1 0x40 MLOAD PUSH32 0x8C379A000000000000000000000000000000000000000000000000000000000 DUP2 MSTORE PUSH1 0x4 ADD PUSH2 0x29A SWAP1 PUSH2 0xB69 JUMP JUMPDEST PUSH1 0x40 MLOAD DUP1 SWAP2 SUB SWAP1 REVERT JUMPDEST PUSH1 0x0 PUSH1 0x1 DUP4 PUSH1 0x40 MLOAD PUSH2 0x2B5 SWAP2 SWAP1 PUSH2 0xAF5 JUMP JUMPDEST SWAP1 DUP2 MSTORE PUSH1 0x20 ADD PUSH1 0x40 MLOAD DUP1 SWAP2 SUB SWAP1 KECCAK256 PUSH1 0x40 MLOAD DUP1 PUSH1 0x80 ADD PUSH1 0x40 MSTORE SWAP1 DUP2 PUSH1 0x0 DUP3 ADD SLOAD DUP2 MSTORE PUSH1 0x20 ADD PUSH1 0x1 DUP3 ADD DUP1 SLOAD PUSH2 0x2E8 SWAP1 PUSH2 0xC87 JUMP JUMPDEST DUP1 PUSH1 0x1F ADD PUSH1 0x20 DUP1 SWAP2 DIV MUL PUSH1 0x20 ADD PUSH1 0x40 MLOAD SWAP1 DUP2 ADD PUSH1 0x40 MSTORE DUP1 SWAP3 SWAP2 SWAP1 DUP2 DUP2 MSTORE PUSH1 0x20 ADD DUP3 DUP1 SLOAD PUSH2 0x314 SWAP1 PUSH2 0xC87 JUMP JUMPDEST DUP1 ISZERO PUSH2 0x361 JUMPI DUP1 PUSH1 0x1F LT PUSH2 0x336 JUMPI PUSH2 0x100 DUP1 DUP4 SLOAD DIV MUL DUP4 MSTORE SWAP2 PUSH1 0x20 ADD SWAP2 PUSH2 0x361 JUMP JUMPDEST DUP3 ADD SWAP2 SWAP1 PUSH1 0x0 MSTORE PUSH1 0x20 PUSH1 0x0 KECCAK256 SWAP1 JUMPDEST DUP2 SLOAD DUP2 MSTORE SWAP1 PUSH1 0x1 ADD SWAP1 PUSH1 0x20 ADD DUP1 DUP4 GT PUSH2 0x344 JUMPI DUP3 SWAP1 SUB PUSH1 0x1F AND DUP3 ADD SWAP2 JUMPDEST POP POP POP POP POP DUP2 MSTORE PUSH1 0x20 ADD PUSH1 0x2 DUP3 ADD SLOAD DUP2 MSTORE PUSH1 0x20 ADD PUSH1 0x3 DUP3 ADD SLOAD DUP2 MSTORE POP POP SWAP1 POP DUP1 PUSH1 0x60 ADD MLOAD DUP2 PUSH1 0x40 ADD MLOAD PUSH2 0x394 SWAP2 SWAP1 PUSH2 0xCB8 JUMP JUMPDEST SWAP2 POP POP SWAP2 SWAP1 POP JUMP JUMPDEST PUSH1 0x0 DUP1 PUSH1 0x0 SHL PUSH1 0x1 DUP5 PUSH1 0x40 MLOAD PUSH2 0x3B2 SWAP2 SWAP1 PUSH2 0xAF5 JUMP JUMPDEST SWAP1 DUP2 MSTORE PUSH1 0x20 ADD PUSH1 0x40 MLOAD DUP1 SWAP2 SUB SWAP1 KECCAK256 PUSH1 0x0 ADD SLOAD SUB PUSH2 0x404 JUMPI PUSH1 0x40 MLOAD PUSH32 0x8C379A000000000000000000000000000000000000000000000000000000000 DUP2 MSTORE PUSH1 0x4 ADD PUSH2 0x3FB SWAP1 PUSH2 0xB69 JUMP JUMPDEST PUSH1 0x40 MLOAD DUP1 SWAP2 SUB SWAP1 REVERT JUMPDEST PUSH1 0x0 PUSH1 0x1 DUP5 PUSH1 0x40 MLOAD PUSH2 0x416 SWAP2 SWAP1 PUSH2 0xAF5 JUMP JUMPDEST SWAP1 DUP2 MSTORE PUSH1 0x20 ADD PUSH1 0x40 MLOAD DUP1 SWAP2 SUB SWAP1 KECCAK256 PUSH1 0x40 MLOAD DUP1 PUSH1 0x80 ADD PUSH1 0x40 MSTORE SWAP1 DUP2 PUSH1 0x0 DUP3 ADD SLOAD DUP2 MSTORE PUSH1 0x20 ADD PUSH1 0x1 DUP3 ADD DUP1 SLOAD PUSH2 0x449 SWAP1 PUSH2 0xC87 JUMP JUMPDEST DUP1 PUSH1 0x1F ADD PUSH1 0x20 DUP1 SWAP2 DIV MUL PUSH1 0x20 ADD PUSH1 0x40 MLOAD SWAP1 DUP2 ADD PUSH1 0x40 MSTORE DUP1 SWAP3 SWAP2 SWAP1 DUP2 DUP2 MSTORE PUSH1 0x20 ADD DUP3 DUP1 SLOAD PUSH2 0x475 SWAP1 PUSH2 0xC87 JUMP JUMPDEST DUP1 ISZERO PUSH2 0x4C2 JUMPI DUP1 PUSH1 0x1F LT PUSH2 0x497 JUMPI PUSH2 0x100 DUP1 DUP4 SLOAD DIV MUL DUP4 MSTORE SWAP2 PUSH1 0x20 ADD SWAP2 PUSH2 0x4C2 JUMP JUMPDEST DUP3 ADD SWAP2 SWAP1 PUSH1 0x0 MSTORE PUSH1 0x20 PUSH1 0x0 KECCAK256 SWAP1 JUMPDEST DUP2 SLOAD DUP2 MSTORE SWAP1 PUSH1 0x1 ADD SWAP1 PUSH1 0x20 ADD DUP1 DUP4 GT PUSH2 0x4A5 JUMPI DUP3 SWAP1 SUB PUSH1 0x1F AND DUP3 ADD SWAP2 JUMPDEST POP POP POP POP POP DUP2 MSTORE PUSH1 0x20 ADD PUSH1 0x2 DUP3 ADD SLOAD DUP2 MSTORE PUSH1 0x20 ADD PUSH1 0x3 DUP3 ADD SLOAD DUP2 MSTORE POP POP SWAP1 POP DUP3 DUP2 PUSH1 0x60 ADD MLOAD PUSH2 0x4F1 SWAP2 SWAP1 PUSH2 0xC24 JUMP JUMPDEST DUP2 PUSH1 0x40 ADD MLOAD LT SWAP2 POP POP SWAP3 SWAP2 POP POP JUMP JUMPDEST PUSH1 0x0 DUP1 SHL PUSH1 0x1 DUP4 PUSH1 0x40 MLOAD PUSH2 0x514 SWAP2 SWAP1 PUSH2 0xAF5 JUMP JUMPDEST SWAP1 DUP2 MSTORE PUSH1 0x20 ADD PUSH1 0x40 MLOAD DUP1 SWAP2 SUB SWAP1 KECCAK256 PUSH1 0x0 ADD SLOAD EQ PUSH2 0x566 JUMPI PUSH1 0x40 MLOAD PUSH32 0x8C379A000000000000000000000000000000000000000000000000000000000 DUP2 MSTORE PUSH1 0x4 ADD PUSH2 0x55D SWAP1 PUSH2 0xD5E JUMP JUMPDEST PUSH1 0x40 MLOAD DUP1 SWAP2 SUB SWAP1 REVERT JUMPDEST PUSH1 0x0 DUP1 DUP2 SLOAD DUP1 SWAP3 SWAP2 SWAP1 PUSH2 0x578 SWAP1 PUSH2 0xD7E JUMP JUMPDEST SWAP2 SWAP1 POP SSTORE POP PUSH1 0x40 MLOAD DUP1 PUSH1 0x80 ADD PUSH1 0x40 MSTORE DUP1 PUSH2 0x590 PUSH2 0x76D JUMP JUMPDEST DUP2 MSTORE PUSH1 0x20 ADD DUP4 DUP2 MSTORE PUSH1 0x20 ADD DUP3 DUP2 MSTORE PUSH1 0x20 ADD PUSH1 0x0 DUP2 MSTORE POP PUSH1 0x1 DUP4 PUSH1 0x40 MLOAD PUSH2 0x5B6 SWAP2 SWAP1 PUSH2 0xAF5 JUMP JUMPDEST SWAP1 DUP2 MSTORE PUSH1 0x20 ADD PUSH1 0x40 MLOAD DUP1 SWAP2 SUB SWAP1 KECCAK256 PUSH1 0x0 DUP3 ADD MLOAD DUP2 PUSH1 0x0 ADD SSTORE PUSH1 0x20 DUP3 ADD MLOAD DUP2 PUSH1 0x1 ADD SWAP1 DUP2 PUSH2 0x5E3 SWAP2 SWAP1 PUSH2 0xF72 JUMP JUMPDEST POP PUSH1 0x40 DUP3 ADD MLOAD DUP2 PUSH1 0x2 ADD SSTORE PUSH1 0x60 DUP3 ADD MLOAD DUP2 PUSH1 0x3 ADD SSTORE SWAP1 POP POP POP POP JUMP JUMPDEST PUSH1 0x0 DUP1 PUSH1 0x0 DUP1 PUSH1 0x0 SHL PUSH1 0x1 DUP6 PUSH1 0x40 MLOAD PUSH2 0x618 SWAP2 SWAP1 PUSH2 0xAF5 JUMP JUMPDEST SWAP1 DUP2 MSTORE PUSH1 0x20 ADD PUSH1 0x40 MLOAD DUP1 SWAP2 SUB SWAP1 KECCAK256 PUSH1 0x0 ADD SLOAD SUB PUSH2 0x66A JUMPI PUSH1 0x40 MLOAD PUSH32 0x8C379A000000000000000000000000000000000000000000000000000000000 DUP2 MSTORE PUSH1 0x4 ADD PUSH2 0x661 SWAP1 PUSH2 0xB69 JUMP JUMPDEST PUSH1 0x40 MLOAD DUP1 SWAP2 SUB SWAP1 REVERT JUMPDEST PUSH1 0x0 PUSH1 0x1 DUP6 PUSH1 0x40 MLOAD PUSH2 0x67C SWAP2 SWAP1 PUSH2 0xAF5 JUMP JUMPDEST SWAP1 DUP2 MSTORE PUSH1 0x20 ADD PUSH1 0x40 MLOAD DUP1 SWAP2 SUB SWAP1 KECCAK256 PUSH1 0x40 MLOAD DUP1 PUSH1 0x80 ADD PUSH1 0x40 MSTORE SWAP1 DUP2 PUSH1 0x0 DUP3 ADD SLOAD DUP2 MSTORE PUSH1 0x20 ADD PUSH1 0x1 DUP3 ADD DUP1 SLOAD PUSH2 0x6AF SWAP1 PUSH2 0xC87 JUMP JUMPDEST DUP1 PUSH1 0x1F ADD PUSH1 0x20 DUP1 SWAP2 DIV MUL PUSH1 0x20 ADD PUSH1 0x40 MLOAD SWAP1 DUP2 ADD PUSH1 0x40 MSTORE DUP1 SWAP3 SWAP2 SWAP1 DUP2 DUP2 MSTORE PUSH1 0x20 ADD DUP3 DUP1 SLOAD PUSH2 0x6DB SWAP1 PUSH2 0xC87 JUMP JUMPDEST DUP1 ISZERO PUSH2 0x728 JUMPI DUP1 PUSH1 0x1F LT PUSH2 0x6FD JUMPI PUSH2 0x100 DUP1 DUP4 SLOAD DIV MUL DUP4 MSTORE SWAP2 PUSH1 0x20 ADD SWAP2 PUSH2 0x728 JUMP JUMPDEST DUP3 ADD SWAP2 SWAP1 PUSH1 0x0 MSTORE PUSH1 0x20 PUSH1 0x0 KECCAK256 SWAP1 JUMPDEST DUP2 SLOAD DUP2 MSTORE SWAP1 PUSH1 0x1 ADD SWAP1 PUSH1 0x20 ADD DUP1 DUP4 GT PUSH2 0x70B JUMPI DUP3 SWAP1 SUB PUSH1 0x1F AND DUP3 ADD SWAP2 JUMPDEST POP POP POP POP POP DUP2 MSTORE PUSH1 0x20 ADD PUSH1 0x2 DUP3 ADD SLOAD DUP2 MSTORE PUSH1 0x20 ADD PUSH1 0x3 DUP3 ADD SLOAD DUP2 MSTORE POP POP SWAP1 POP DUP1 PUSH1 0x0 ADD MLOAD DUP2 PUSH1 0x40 ADD MLOAD DUP3 PUSH1 0x60 ADD MLOAD SWAP4 POP SWAP4 POP SWAP4 POP POP SWAP2 SWAP4 SWAP1 SWAP3 POP JUMP JUMPDEST PUSH1 0x0 DUP1 SLOAD SWAP1 POP SWAP1 JUMP JUMPDEST PUSH1 0x0 TIMESTAMP CALLER NUMBER PUSH1 0x40 MLOAD PUSH1 0x20 ADD PUSH2 0x784 SWAP4 SWAP3 SWAP2 SWAP1 PUSH2 0x10DF JUMP JUMPDEST PUSH1 0x40 MLOAD PUSH1 0x20 DUP2 DUP4 SUB SUB DUP2 MSTORE SWAP1 PUSH1 0x40 MSTORE DUP1 MLOAD SWAP1 PUSH1 0x20 ADD KECCAK256 SWAP1 POP SWAP1 JUMP JUMPDEST PUSH1 0x0 PUSH1 0x40 MLOAD SWAP1 POP SWAP1 JUMP JUMPDEST PUSH1 0x0 DUP1 REVERT JUMPDEST PUSH1 0x0 DUP1 REVERT JUMPDEST PUSH1 0x0 DUP1 REVERT JUMPDEST PUSH1 0x0 DUP1 REVERT JUMPDEST PUSH1 0x0 PUSH1 0x1F NOT PUSH1 0x1F DUP4 ADD AND SWAP1 POP SWAP2 SWAP1 POP JUMP JUMPDEST PUSH32 0x4E487B7100000000000000000000000000000000000000000000000000000000 PUSH1 0x0 MSTORE PUSH1 0x41 PUSH1 0x4 MSTORE PUSH1 0x24 PUSH1 0x0 REVERT JUMPDEST PUSH2 0x806 DUP3 PUSH2 0x7BD JUMP JUMPDEST DUP2 ADD DUP2 DUP2 LT PUSH8 0xFFFFFFFFFFFFFFFF DUP3 GT OR ISZERO PUSH2 0x825 JUMPI PUSH2 0x824 PUSH2 0x7CE JUMP JUMPDEST JUMPDEST DUP1 PUSH1 0x40 MSTORE POP POP POP JUMP JUMPDEST PUSH1 0x0 PUSH2 0x838 PUSH2 0x79F JUMP JUMPDEST SWAP1 POP PUSH2 0x844 DUP3 DUP3 PUSH2 0x7FD JUMP JUMPDEST SWAP2 SWAP1 POP JUMP JUMPDEST PUSH1 0x0 PUSH8 0xFFFFFFFFFFFFFFFF DUP3 GT ISZERO PUSH2 0x864 JUMPI PUSH2 0x863 PUSH2 0x7CE JUMP JUMPDEST JUMPDEST PUSH2 0x86D DUP3 PUSH2 0x7BD JUMP JUMPDEST SWAP1 POP PUSH1 0x20 DUP2 ADD SWAP1 POP SWAP2 SWAP1 POP JUMP JUMPDEST DUP3 DUP2 DUP4 CALLDATACOPY PUSH1 0x0 DUP4 DUP4 ADD MSTORE POP POP POP JUMP JUMPDEST PUSH1 0x0 PUSH2 0x89C PUSH2 0x897 DUP5 PUSH2 0x849 JUMP JUMPDEST PUSH2 0x82E JUMP JUMPDEST SWAP1 POP DUP3 DUP2 MSTORE PUSH1 0x20 DUP2 ADD DUP5 DUP5 DUP5 ADD GT ISZERO PUSH2 0x8B8 JUMPI PUSH2 0x8B7 PUSH2 0x7B8 JUMP JUMPDEST JUMPDEST PUSH2 0x8C3 DUP5 DUP3 DUP6 PUSH2 0x87A JUMP JUMPDEST POP SWAP4 SWAP3 POP POP POP JUMP JUMPDEST PUSH1 0x0 DUP3 PUSH1 0x1F DUP4 ADD SLT PUSH2 0x8E0 JUMPI PUSH2 0x8DF PUSH2 0x7B3 JUMP JUMPDEST JUMPDEST DUP2 CALLDATALOAD PUSH2 0x8F0 DUP5 DUP3 PUSH1 0x20 DUP7 ADD PUSH2 0x889 JUMP JUMPDEST SWAP2 POP POP SWAP3 SWAP2 POP POP JUMP JUMPDEST PUSH1 0x0 DUP2 SWAP1 POP SWAP2 SWAP1 POP JUMP JUMPDEST PUSH2 0x90C DUP2 PUSH2 0x8F9 JUMP JUMPDEST DUP2 EQ PUSH2 0x917 JUMPI PUSH1 0x0 DUP1 REVERT JUMPDEST POP JUMP JUMPDEST PUSH1 0x0 DUP2 CALLDATALOAD SWAP1 POP PUSH2 0x929 DUP2 PUSH2 0x903 JUMP JUMPDEST SWAP3 SWAP2 POP POP JUMP JUMPDEST PUSH1 0x0 DUP1 PUSH1 0x40 DUP4 DUP6 SUB SLT ISZERO PUSH2 0x946 JUMPI PUSH2 0x945 PUSH2 0x7A9 JUMP JUMPDEST JUMPDEST PUSH1 0x0 DUP4 ADD CALLDATALOAD PUSH8 0xFFFFFFFFFFFFFFFF DUP2 GT ISZERO PUSH2 0x964 JUMPI PUSH2 0x963 PUSH2 0x7AE JUMP JUMPDEST JUMPDEST PUSH2 0x970 DUP6 DUP3 DUP7 ADD PUSH2 0x8CB JUMP JUMPDEST SWAP3 POP POP PUSH1 0x20 PUSH2 0x981 DUP6 DUP3 DUP7 ADD PUSH2 0x91A JUMP JUMPDEST SWAP2 POP POP SWAP3 POP SWAP3 SWAP1 POP JUMP JUMPDEST PUSH1 0x0 PUSH1 0x20 DUP3 DUP5 SUB SLT ISZERO PUSH2 0x9A1 JUMPI PUSH2 0x9A0 PUSH2 0x7A9 JUMP JUMPDEST JUMPDEST PUSH1 0x0 DUP3 ADD CALLDATALOAD PUSH8 0xFFFFFFFFFFFFFFFF DUP2 GT ISZERO PUSH2 0x9BF JUMPI PUSH2 0x9BE PUSH2 0x7AE JUMP JUMPDEST JUMPDEST PUSH2 0x9CB DUP5 DUP3 DUP6 ADD PUSH2 0x8CB JUMP JUMPDEST SWAP2 POP POP SWAP3 SWAP2 POP POP JUMP JUMPDEST PUSH2 0x9DD DUP2 PUSH2 0x8F9 JUMP JUMPDEST DUP3 MSTORE POP POP JUMP JUMPDEST PUSH1 0x0 PUSH1 0x20 DUP3 ADD SWAP1 POP PUSH2 0x9F8 PUSH1 0x0 DUP4 ADD DUP5 PUSH2 0x9D4 JUMP JUMPDEST SWAP3 SWAP2 POP POP JUMP JUMPDEST PUSH1 0x0 DUP2 ISZERO ISZERO SWAP1 POP SWAP2 SWAP1 POP JUMP JUMPDEST PUSH2 0xA13 DUP2 PUSH2 0x9FE JUMP JUMPDEST DUP3 MSTORE POP POP JUMP JUMPDEST PUSH1 0x0 PUSH1 0x20 DUP3 ADD SWAP1 POP PUSH2 0xA2E PUSH1 0x0 DUP4 ADD DUP5 PUSH2 0xA0A JUMP JUMPDEST SWAP3 SWAP2 POP POP JUMP JUMPDEST PUSH1 0x0 DUP2 SWAP1 POP SWAP2 SWAP1 POP JUMP JUMPDEST PUSH2 0xA47 DUP2 PUSH2 0xA34 JUMP JUMPDEST DUP3 MSTORE POP POP JUMP JUMPDEST PUSH1 0x0 PUSH1 0x60 DUP3 ADD SWAP1 POP PUSH2 0xA62 PUSH1 0x0 DUP4 ADD DUP7 PUSH2 0xA3E JUMP JUMPDEST PUSH2 0xA6F PUSH1 0x20 DUP4 ADD DUP6 PUSH2 0x9D4 JUMP JUMPDEST PUSH2 0xA7C PUSH1 0x40 DUP4 ADD DUP5 PUSH2 0x9D4 JUMP JUMPDEST SWAP5 SWAP4 POP POP POP POP JUMP JUMPDEST PUSH1 0x0 DUP2 MLOAD SWAP1 POP SWAP2 SWAP1 POP JUMP JUMPDEST PUSH1 0x0 DUP2 SWAP1 POP SWAP3 SWAP2 POP POP JUMP JUMPDEST PUSH1 0x0 JUMPDEST DUP4 DUP2 LT ISZERO PUSH2 0xAB8 JUMPI DUP1 DUP3 ADD MLOAD DUP2 DUP5 ADD MSTORE PUSH1 0x20 DUP2 ADD SWAP1 POP PUSH2 0xA9D JUMP JUMPDEST PUSH1 0x0 DUP5 DUP5 ADD MSTORE POP POP POP POP JUMP JUMPDEST PUSH1 0x0 PUSH2 0xACF DUP3 PUSH2 0xA84 JUMP JUMPDEST PUSH2 0xAD9 DUP2 DUP6 PUSH2 0xA8F JUMP JUMPDEST SWAP4 POP PUSH2 0xAE9 DUP2 DUP6 PUSH1 0x20 DUP7 ADD PUSH2 0xA9A JUMP JUMPDEST DUP1 DUP5 ADD SWAP2 POP POP SWAP3 SWAP2 POP POP JUMP JUMPDEST PUSH1 0x0 PUSH2 0xB01 DUP3 DUP5 PUSH2 0xAC4 JUMP JUMPDEST SWAP2 POP DUP2 SWAP1 POP SWAP3 SWAP2 POP POP JUMP JUMPDEST PUSH1 0x0 DUP3 DUP3 MSTORE PUSH1 0x20 DUP3 ADD SWAP1 POP SWAP3 SWAP2 POP POP JUMP JUMPDEST PUSH32 0x50726F6A65637420646F65736E27742065786973747300000000000000000000 PUSH1 0x0 DUP3 ADD MSTORE POP JUMP JUMPDEST PUSH1 0x0 PUSH2 0xB53 PUSH1 0x16 DUP4 PUSH2 0xB0C JUMP JUMPDEST SWAP2 POP PUSH2 0xB5E DUP3 PUSH2 0xB1D JUMP JUMPDEST PUSH1 0x20 DUP3 ADD SWAP1 POP SWAP2 SWAP1 POP JUMP JUMPDEST PUSH1 0x0 PUSH1 0x20 DUP3 ADD SWAP1 POP DUP2 DUP2 SUB PUSH1 0x0 DUP4 ADD MSTORE PUSH2 0xB82 DUP2 PUSH2 0xB46 JUMP JUMPDEST SWAP1 POP SWAP2 SWAP1 POP JUMP JUMPDEST PUSH32 0x54415247455420414D4F554E5420524541434845440000000000000000000000 PUSH1 0x0 DUP3 ADD MSTORE POP JUMP JUMPDEST PUSH1 0x0 PUSH2 0xBBF PUSH1 0x15 DUP4 PUSH2 0xB0C JUMP JUMPDEST SWAP2 POP PUSH2 0xBCA DUP3 PUSH2 0xB89 JUMP JUMPDEST PUSH1 0x20 DUP3 ADD SWAP1 POP SWAP2 SWAP1 POP JUMP JUMPDEST PUSH1 0x0 PUSH1 0x20 DUP3 ADD SWAP1 POP DUP2 DUP2 SUB PUSH1 0x0 DUP4 ADD MSTORE PUSH2 0xBEE DUP2 PUSH2 0xBB2 JUMP JUMPDEST SWAP1 POP SWAP2 SWAP1 POP JUMP JUMPDEST PUSH32 0x4E487B7100000000000000000000000000000000000000000000000000000000 PUSH1 0x0 MSTORE PUSH1 0x11 PUSH1 0x4 MSTORE PUSH1 0x24 PUSH1 0x0 REVERT JUMPDEST PUSH1 0x0 PUSH2 0xC2F DUP3 PUSH2 0x8F9 JUMP JUMPDEST SWAP2 POP PUSH2 0xC3A DUP4 PUSH2 0x8F9 JUMP JUMPDEST SWAP3 POP DUP3 DUP3 ADD SWAP1 POP DUP1 DUP3 GT ISZERO PUSH2 0xC52 JUMPI PUSH2 0xC51 PUSH2 0xBF5 JUMP JUMPDEST JUMPDEST SWAP3 SWAP2 POP POP JUMP JUMPDEST PUSH32 0x4E487B7100000000000000000000000000000000000000000000000000000000 PUSH1 0x0 MSTORE PUSH1 0x22 PUSH1 0x4 MSTORE PUSH1 0x24 PUSH1 0x0 REVERT JUMPDEST PUSH1 0x0 PUSH1 0x2 DUP3 DIV SWAP1 POP PUSH1 0x1 DUP3 AND DUP1 PUSH2 0xC9F JUMPI PUSH1 0x7F DUP3 AND SWAP2 POP JUMPDEST PUSH1 0x20 DUP3 LT DUP2 SUB PUSH2 0xCB2 JUMPI PUSH2 0xCB1 PUSH2 0xC58 JUMP JUMPDEST JUMPDEST POP SWAP2 SWAP1 POP JUMP JUMPDEST PUSH1 0x0 PUSH2 0xCC3 DUP3 PUSH2 0x8F9 JUMP JUMPDEST SWAP2 POP PUSH2 0xCCE DUP4 PUSH2 0x8F9 JUMP JUMPDEST SWAP3 POP DUP3 DUP3 SUB SWAP1 POP DUP2 DUP2 GT ISZERO PUSH2 0xCE6 JUMPI PUSH2 0xCE5 PUSH2 0xBF5 JUMP JUMPDEST JUMPDEST SWAP3 SWAP2 POP POP JUMP JUMPDEST PUSH32 0x50726F6A65637420776974682074686973206E616D6520616C72656164792065 PUSH1 0x0 DUP3 ADD MSTORE PUSH32 0x7869737473000000000000000000000000000000000000000000000000000000 PUSH1 0x20 DUP3 ADD MSTORE POP JUMP JUMPDEST PUSH1 0x0 PUSH2 0xD48 PUSH1 0x25 DUP4 PUSH2 0xB0C JUMP JUMPDEST SWAP2 POP PUSH2 0xD53 DUP3 PUSH2 0xCEC JUMP JUMPDEST PUSH1 0x40 DUP3 ADD SWAP1 POP SWAP2 SWAP1 POP JUMP JUMPDEST PUSH1 0x0 PUSH1 0x20 DUP3 ADD SWAP1 POP DUP2 DUP2 SUB PUSH1 0x0 DUP4 ADD MSTORE PUSH2 0xD77 DUP2 PUSH2 0xD3B JUMP JUMPDEST SWAP1 POP SWAP2 SWAP1 POP JUMP JUMPDEST PUSH1 0x0 PUSH2 0xD89 DUP3 PUSH2 0x8F9 JUMP JUMPDEST SWAP2 POP PUSH32 0xFFFFFFFFFFFFFFFFFFFFFFFFFFFFFFFFFFFFFFFFFFFFFFFFFFFFFFFFFFFFFFFF DUP3 SUB PUSH2 0xDBB JUMPI PUSH2 0xDBA PUSH2 0xBF5 JUMP JUMPDEST JUMPDEST PUSH1 0x1 DUP3 ADD SWAP1 POP SWAP2 SWAP1 POP JUMP JUMPDEST PUSH1 0x0 DUP2 SWAP1 POP DUP2 PUSH1 0x0 MSTORE PUSH1 0x20 PUSH1 0x0 KECCAK256 SWAP1 POP SWAP2 SWAP1 POP JUMP JUMPDEST PUSH1 0x0 PUSH1 0x20 PUSH1 0x1F DUP4 ADD DIV SWAP1 POP SWAP2 SWAP1 POP JUMP JUMPDEST PUSH1 0x0 DUP3 DUP3 SHL SWAP1 POP SWAP3 SWAP2 POP POP JUMP JUMPDEST PUSH1 0x0 PUSH1 0x8 DUP4 MUL PUSH2 0xE28 PUSH32 0xFFFFFFFFFFFFFFFFFFFFFFFFFFFFFFFFFFFFFFFFFFFFFFFFFFFFFFFFFFFFFFFF DUP3 PUSH2 0xDEB JUMP JUMPDEST PUSH2 0xE32 DUP7 DUP4 PUSH2 0xDEB JUMP JUMPDEST SWAP6 POP DUP1 NOT DUP5 AND SWAP4 POP DUP1 DUP7 AND DUP5 OR SWAP3 POP POP POP SWAP4 SWAP3 POP POP POP JUMP JUMPDEST PUSH1 0x0 DUP2 SWAP1 POP SWAP2 SWAP1 POP JUMP JUMPDEST PUSH1 0x0 PUSH2 0xE6F PUSH2 0xE6A PUSH2 0xE65 DUP5 PUSH2 0x8F9 JUMP JUMPDEST PUSH2 0xE4A JUMP JUMPDEST PUSH2 0x8F9 JUMP JUMPDEST SWAP1 POP SWAP2 SWAP1 POP JUMP JUMPDEST PUSH1 0x0 DUP2 SWAP1 POP SWAP2 SWAP1 POP JUMP JUMPDEST PUSH2 0xE89 DUP4 PUSH2 0xE54 JUMP JUMPDEST PUSH2 0xE9D PUSH2 0xE95 DUP3 PUSH2 0xE76 JUMP JUMPDEST DUP5 DUP5 SLOAD PUSH2 0xDF8 JUMP JUMPDEST DUP3 SSTORE POP POP POP POP JUMP JUMPDEST PUSH1 0x0 SWAP1 JUMP JUMPDEST PUSH2 0xEB2 PUSH2 0xEA5 JUMP JUMPDEST PUSH2 0xEBD DUP2 DUP5 DUP5 PUSH2 0xE80 JUMP JUMPDEST POP POP POP JUMP JUMPDEST JUMPDEST DUP2 DUP2 LT ISZERO PUSH2 0xEE1 JUMPI PUSH2 0xED6 PUSH1 0x0 DUP3 PUSH2 0xEAA JUMP JUMPDEST PUSH1 0x1 DUP2 ADD SWAP1 POP PUSH2 0xEC3 JUMP JUMPDEST POP POP JUMP JUMPDEST PUSH1 0x1F DUP3 GT ISZERO PUSH2 0xF26 JUMPI PUSH2 0xEF7 DUP2 PUSH2 0xDC6 JUMP JUMPDEST PUSH2 0xF00 DUP5 PUSH2 0xDDB JUMP JUMPDEST DUP2 ADD PUSH1 0x20 DUP6 LT ISZERO PUSH2 0xF0F JUMPI DUP2 SWAP1 POP JUMPDEST PUSH2 0xF23 PUSH2 0xF1B DUP6 PUSH2 0xDDB JUMP JUMPDEST DUP4 ADD DUP3 PUSH2 0xEC2 JUMP JUMPDEST POP POP JUMPDEST POP POP POP JUMP JUMPDEST PUSH1 0x0 DUP3 DUP3 SHR SWAP1 POP SWAP3 SWAP2 POP POP JUMP JUMPDEST PUSH1 0x0 PUSH2 0xF49 PUSH1 0x0 NOT DUP5 PUSH1 0x8 MUL PUSH2 0xF2B JUMP JUMPDEST NOT DUP1 DUP4 AND SWAP2 POP POP SWAP3 SWAP2 POP POP JUMP JUMPDEST PUSH1 0x0 PUSH2 0xF62 DUP4 DUP4 PUSH2 0xF38 JUMP JUMPDEST SWAP2 POP DUP3 PUSH1 0x2 MUL DUP3 OR SWAP1 POP SWAP3 SWAP2 POP POP JUMP JUMPDEST PUSH2 0xF7B DUP3 PUSH2 0xA84 JUMP JUMPDEST PUSH8 0xFFFFFFFFFFFFFFFF DUP2 GT ISZERO PUSH2 0xF94 JUMPI PUSH2 0xF93 PUSH2 0x7CE JUMP JUMPDEST JUMPDEST PUSH2 0xF9E DUP3 SLOAD PUSH2 0xC87 JUMP JUMPDEST PUSH2 0xFA9 DUP3 DUP3 DUP6 PUSH2 0xEE5 JUMP JUMPDEST PUSH1 0x0 PUSH1 0x20 SWAP1 POP PUSH1 0x1F DUP4 GT PUSH1 0x1 DUP2 EQ PUSH2 0xFDC JUMPI PUSH1 0x0 DUP5 ISZERO PUSH2 0xFCA JUMPI DUP3 DUP8 ADD MLOAD SWAP1 POP JUMPDEST PUSH2 0xFD4 DUP6 DUP3 PUSH2 0xF56 JUMP JUMPDEST DUP7 SSTORE POP PUSH2 0x103C JUMP JUMPDEST PUSH1 0x1F NOT DUP5 AND PUSH2 0xFEA DUP7 PUSH2 0xDC6 JUMP JUMPDEST PUSH1 0x0 JUMPDEST DUP3 DUP2 LT ISZERO PUSH2 0x1012 JUMPI DUP5 DUP10 ADD MLOAD DUP3 SSTORE PUSH1 0x1 DUP3 ADD SWAP2 POP PUSH1 0x20 DUP6 ADD SWAP5 POP PUSH1 0x20 DUP2 ADD SWAP1 POP PUSH2 0xFED JUMP JUMPDEST DUP7 DUP4 LT ISZERO PUSH2 0x102F JUMPI DUP5 DUP10 ADD MLOAD PUSH2 0x102B PUSH1 0x1F DUP10 AND DUP3 PUSH2 0xF38 JUMP JUMPDEST DUP4 SSTORE POP JUMPDEST PUSH1 0x1 PUSH1 0x2 DUP9 MUL ADD DUP9 SSTORE POP POP POP JUMPDEST POP POP POP POP POP POP JUMP JUMPDEST PUSH1 0x0 DUP2 SWAP1 POP SWAP2 SWAP1 POP JUMP JUMPDEST PUSH2 0x105F PUSH2 0x105A DUP3 PUSH2 0x8F9 JUMP JUMPDEST PUSH2 0x1044 JUMP JUMPDEST DUP3 MSTORE POP POP JUMP JUMPDEST PUSH1 0x0 PUSH20 0xFFFFFFFFFFFFFFFFFFFFFFFFFFFFFFFFFFFFFFFF DUP3 AND SWAP1 POP SWAP2 SWAP1 POP JUMP JUMPDEST PUSH1 0x0 PUSH2 0x1090 DUP3 PUSH2 0x1065 JUMP JUMPDEST SWAP1 POP SWAP2 SWAP1 POP JUMP JUMPDEST PUSH1 0x0 DUP2 PUSH1 0x60 SHL SWAP1 POP SWAP2 SWAP1 POP JUMP JUMPDEST PUSH1 0x0 PUSH2 0x10AF DUP3 PUSH2 0x1097 JUMP JUMPDEST SWAP1 POP SWAP2 SWAP1 POP JUMP JUMPDEST PUSH1 0x0 PUSH2 0x10C1 DUP3 PUSH2 0x10A4 JUMP JUMPDEST SWAP1 POP SWAP2 SWAP1 POP JUMP JUMPDEST PUSH2 0x10D9 PUSH2 0x10D4 DUP3 PUSH2 0x1085 JUMP JUMPDEST PUSH2 0x10B6 JUMP JUMPDEST DUP3 MSTORE POP POP JUMP JUMPDEST PUSH1 0x0 PUSH2 0x10EB DUP3 DUP7 PUSH2 0x104E JUMP JUMPDEST PUSH1 0x20 DUP3 ADD SWAP2 POP PUSH2 0x10FB DUP3 DUP6 PUSH2 0x10C8 JUMP JUMPDEST PUSH1 0x14 DUP3 ADD SWAP2 POP PUSH2 0x110B DUP3 DUP5 PUSH2 0x104E JUMP JUMPDEST PUSH1 0x20 DUP3 ADD SWAP2 POP DUP2 SWAP1 POP SWAP5 SWAP4 POP POP POP POP JUMP INVALID LOG2 PUSH5 0x6970667358 0x22 SLT KECCAK256 PUSH18 0xF42901D458A071A49A11E0D1A573FB9F763F 0xE7 LOG2 0x21 0xEF SWAP6 0x2C SWAP8 0xB8 JUMPDEST PUSH1 0xF7 SLOAD 0xDD PUSH5 0x736F6C6343 STOP ADDMOD SLT STOP CALLER "
				},
				"gasEstimates": {
					"creation": {
						"codeDepositCost": "886800",
						"executionCost": "5928",
						"totalCost": "892728"
					},
					"external": {
						"amountToReachTarget(string)": "infinite",
						"fundProyect(string,uint256)": "infinite",
						"getProyectsCount()": "2525",
						"newProyect(string,uint256)": "infinite",
						"proyectInfo(string)": "infinite",
						"targetAmountReached(string,uint256)": "infinite"
					},
					"internal": {
						"giveID()": "infinite"
					}
				},
				"methodIdentifiers": {
					"amountToReachTarget(string)": "50b581f5",
					"fundProyect(string,uint256)": "0eda4e68",
					"getProyectsCount()": "ec8de889",
					"newProyect(string,uint256)": "a5db748d",
					"proyectInfo(string)": "cb42bbf8",
					"targetAmountReached(string,uint256)": "744afe5f"
				}
			},
			"storageLayout": {
				"storage": [
					{
						"astId": 13,
						"contract": "crowfunding.sol:crowFunding",
						"label": "proyectsCount",
						"offset": 0,
						"slot": "0",
						"type": "t_uint256"
					},
					{
						"astId": 18,
						"contract": "crowfunding.sol:crowFunding",
						"label": "proyects",
						"offset": 0,
						"slot": "1",
						"type": "t_mapping(t_string_memory_ptr,t_struct(Proyect)10_storage)"
					}
				],
				"types": {
					"t_bytes32": {
						"encoding": "inplace",
						"label": "bytes32",
						"numberOfBytes": "32"
					},
					"t_mapping(t_string_memory_ptr,t_struct(Proyect)10_storage)": {
						"encoding": "mapping",
						"key": "t_string_memory_ptr",
						"label": "mapping(string => struct crowFunding.Proyect)",
						"numberOfBytes": "32",
						"value": "t_struct(Proyect)10_storage"
					},
					"t_string_memory_ptr": {
						"encoding": "bytes",
						"label": "string",
						"numberOfBytes": "32"
					},
					"t_string_storage": {
						"encoding": "bytes",
						"label": "string",
						"numberOfBytes": "32"
					},
					"t_struct(Proyect)10_storage": {
						"encoding": "inplace",
						"label": "struct crowFunding.Proyect",
						"members": [
							{
								"astId": 3,
								"contract": "crowfunding.sol:crowFunding",
								"label": "Id",
								"offset": 0,
								"slot": "0",
								"type": "t_bytes32"
							},
							{
								"astId": 5,
								"contract": "crowfunding.sol:crowFunding",
								"label": "name",
								"offset": 0,
								"slot": "1",
								"type": "t_string_storage"
							},
							{
								"astId": 7,
								"contract": "crowfunding.sol:crowFunding",
								"label": "targetAmount",
								"offset": 0,
								"slot": "2",
								"type": "t_uint256"
							},
							{
								"astId": 9,
								"contract": "crowfunding.sol:crowFunding",
								"label": "collectedAmount",
								"offset": 0,
								"slot": "3",
								"type": "t_uint256"
							}
						],
						"numberOfBytes": "128"
					},
					"t_uint256": {
						"encoding": "inplace",
						"label": "uint256",
						"numberOfBytes": "32"
					}
				}
			},
			"userdoc": {
				"kind": "user",
				"methods": {},
				"version": 1
			}
		}
	}
}